{
  "address": "0x52892d19DeFDDE7C25504212B3bA8E99D8e0552e",
  "abi": [
    {
      "inputs": [
        {
          "internalType": "contract AttestationToken",
          "name": "_attestationToken",
          "type": "address"
        }
      ],
      "stateMutability": "nonpayable",
      "type": "constructor"
    },
    {
      "inputs": [],
      "name": "NoAttestationToken",
      "type": "error"
    },
    {
      "inputs": [],
      "name": "attestationToken",
      "outputs": [
        {
          "internalType": "contract AttestationToken",
          "name": "",
          "type": "address"
        }
      ],
      "stateMutability": "view",
      "type": "function"
    },
    {
      "inputs": [
        {
          "internalType": "TcbId",
          "name": "tcbId",
          "type": "bytes32"
        },
        {
          "internalType": "bytes",
          "name": "pers",
          "type": "bytes"
        }
      ],
      "name": "createKey",
      "outputs": [],
      "stateMutability": "nonpayable",
      "type": "function"
    },
    {
      "inputs": [
        {
          "internalType": "TcbId",
          "name": "tcbId",
          "type": "bytes32"
        }
      ],
      "name": "getKey",
      "outputs": [
        {
          "internalType": "bytes32",
          "name": "",
          "type": "bytes32"
        }
      ],
      "stateMutability": "view",
      "type": "function"
    }
  ],
  "transactionHash": "0x64641ac39fbad241a4d763e02b9db94b6ead777c6eac8662ad652867daeda28b",
  "args": [
    "0x127c49aE10e3c18be057106F4d16946E3Ae43975"
  ],
  "numDeployments": 1,
  "solcInputHash": "831b8522fbcf01b5a2caff22e02c4053",
  "bytecode": "0x60a03461007057601f61046038819003918201601f19168301916001600160401b038311848410176100755780849260209460405283398101031261007057516001600160a01b0381168103610070576080526040516103d4908161008c8239608051818181605901526101240152f35b600080fd5b634e487b7160e01b600052604160045260246000fdfe608060408181526004918236101561001657600080fd5b600092833560e01c91826312aaac70146100ee575081635fb431bc1461008c575063a741fc7f1461004657600080fd5b34610088578160031936011261008857517f00000000000000000000000000000000000000000000000000000000000000006001600160a01b03168152602090f35b5080fd5b919050346100ea57366003190112610088576024359067ffffffffffffffff908183116100e657366023840112156100e657828101359182116100e65736602483850101116100e65760246100e393019035610215565b80f35b8380fd5b8280fd5b8484913461008857602093846003193601126100ea576331d1e06360e01b825233828201528035602483018190529185816044817f00000000000000000000000000000000000000000000000000000000000000006001600160a01b03165afa9081156101b7578491610181575b501561017357508152808352819020549051908152f35b835163cd42a40560e01b8152fd5b90508581813d83116101b0575b61019881836101c1565b810103126100e6575180151581036100e6578661015c565b503d61018e565b85513d86823e3d90fd5b90601f8019910116810190811067ffffffffffffffff8211176101e357604052565b634e487b7160e01b600052604160045260246000fd5b67ffffffffffffffff81116101e357601f01601f191660200190565b9190600090838252602090828252604093848420546103965783615aff4614801561038b575b1561037f575061024a816101f9565b91610257865193846101c1565b818352368282011161037b578185928592838601378301015282845183810192848452868083015280519081606084015285845b83811061036357505050906102bd60808284868381999784010152601f801991011681010360608101845201826101c1565b51906001600160981b015afa3d1561035b573d906102da826101f9565b916102e7865193846101c1565b82523d848484013e5b1561032157805190820151839291828110610310575b50945b8252522055565b60001990830360031b1b1638610306565b835162461bcd60e51b81526004810183905260136024820152721c985b991bdb509e5d195cce8819985a5b1959606a1b6044820152606490fd5b6060906102f0565b8281018201518582016080015288955087910161028b565b8480fd5b92915050434094610309565b50615afe461461023b565b50505050505056fea264697066735822122026821d08da8cdcc5756f600f6ea42a033793500fc7e8573a07e0e3d14fe0287f64736f6c63430008120033",
  "devdoc": {
    "kind": "dev",
    "methods": {},
    "version": 1
  },
  "userdoc": {
    "kind": "user",
    "methods": {},
    "version": 1
  },
  "storageLayout": {
    "storage": [
      {
        "astId": 771,
        "contract": "contracts/enclave-identity/Lockbox.sol:Lockbox",
        "label": "lockbox",
        "offset": 0,
        "slot": "0",
        "type": "t_mapping(t_userDefinedValueType(TcbId)509,t_bytes32)"
      }
    ],
    "types": {
      "t_bytes32": {
        "encoding": "inplace",
        "label": "bytes32",
        "numberOfBytes": "32"
      },
      "t_mapping(t_userDefinedValueType(TcbId)509,t_bytes32)": {
        "encoding": "mapping",
        "key": "t_userDefinedValueType(TcbId)509",
        "label": "mapping(TcbId => bytes32)",
        "numberOfBytes": "32",
        "value": "t_bytes32"
      },
      "t_userDefinedValueType(TcbId)509": {
        "encoding": "inplace",
        "label": "TcbId",
        "numberOfBytes": "32"
      }
    }
  }
}