{
  "address": "0xAdA897c101918d24d2C424007DdE5AE937DcC02f",
  "abi": [
    {
      "anonymous": false,
      "inputs": [
        {
          "indexed": true,
          "internalType": "address",
          "name": "generator",
          "type": "address"
        },
        {
          "indexed": true,
          "internalType": "bytes32",
          "name": "context",
          "type": "bytes32"
        }
      ],
      "name": "TasksAvailable",
      "type": "event"
    },
    {
      "inputs": [
        {
          "internalType": "bytes32",
          "name": "_context",
          "type": "bytes32"
        }
      ],
      "name": "notify",
      "outputs": [],
      "stateMutability": "nonpayable",
      "type": "function"
    },
    {
      "inputs": [],
      "name": "notify",
      "outputs": [],
      "stateMutability": "nonpayable",
      "type": "function"
    },
    {
      "inputs": [
        {
          "internalType": "bytes4",
          "name": "_interfaceId",
          "type": "bytes4"
        }
      ],
      "name": "supportsInterface",
      "outputs": [
        {
          "internalType": "bool",
          "name": "",
          "type": "bool"
        }
      ],
      "stateMutability": "pure",
      "type": "function"
    }
  ],
  "transactionHash": "0x616e61bf2ecea5f5f48156698804aebd20103ab997348b85502fc695ceab742c",
  "args": [],
  "numDeployments": 1,
  "solcInputHash": "e3925046a8c56d4adca6301675c9ec15",
  "bytecode": "0x6080806040523461001657610126908161001c8239f35b600080fdfe6080806040526004361015601257600080fd5b600090813560e01c90816301ffc9a71460b357508063138b10841460785763899f589814603e57600080fd5b346075578060031936011260755780337fab04395d906559e27643e4acf5cd0debe6a355247cd81c101bd0855d87dcc2608280a380f35b80fd5b50346075576020366003190112607557600435337fab04395d906559e27643e4acf5cd0debe6a355247cd81c101bd0855d87dcc2608380a380f35b90503460ec57602036600319011260ec5760043563ffffffff60e01b811680910360e857632685120760e21b14815260209150f35b8280fd5b5080fdfea2646970667358221220f0a22f4a7201058870107493683d3806314c09544b7fa0a40431ff542d85c4c564736f6c63430008120033",
  "devdoc": {
    "details": "The methods in this contract are not marked with `override` are not guaranteed to be in the next version of the contract.",
    "kind": "dev",
    "methods": {
      "notify(bytes32)": {
        "params": {
          "_context": "Some indexed data to be emitted with the event for listeners to filter on."
        }
      }
    },
    "version": 1
  },
  "userdoc": {
    "kind": "user",
    "methods": {
      "notify()": {
        "notice": "Alerts any listening task runners that there are new tasks available."
      },
      "notify(bytes32)": {
        "notice": "Alerts any listening task runners that there are new tasks available."
      }
    },
    "version": 1
  },
  "storageLayout": {
    "storage": [],
    "types": null
  }
}