{"abi":[{"type":"constructor","inputs":[{"name":"upstream","type":"address","internalType":"address"}],"stateMutability":"nonpayable"},{"type":"function","name":"acquireIdentity","inputs":[{"name":"identity","type":"bytes32","internalType":"IdentityId"},{"name":"requester","type":"address","internalType":"address"},{"name":"duration","type":"uint64","internalType":"uint64"},{"name":"context","type":"bytes","internalType":"bytes"},{"name":"authorization","type":"bytes","internalType":"bytes"}],"outputs":[{"name":"expiry","type":"uint64","internalType":"uint64"}],"stateMutability":"nonpayable"},{"type":"function","name":"creationBlock","inputs":[],"outputs":[{"name":"","type":"uint256","internalType":"uint256"}],"stateMutability":"view"},{"type":"function","name":"dealShares","inputs":[{"name":"identity","type":"bytes32","internalType":"IdentityId"},{"name":"secretName","type":"string","internalType":"string"},{"name":"version","type":"uint64","internalType":"uint64"},{"name":"","type":"bytes","internalType":"bytes"},{"name":"","type":"bytes32","internalType":"bytes32"},{"name":"","type":"bytes[]","internalType":"bytes[]"},{"name":"","type":"bytes[]","internalType":"bytes[]"},{"name":"","type":"bytes","internalType":"bytes"}],"outputs":[],"stateMutability":"nonpayable"},{"type":"function","name":"getIdentityRegistry","inputs":[],"outputs":[{"name":"","type":"address","internalType":"contract IIdentityRegistry"}],"stateMutability":"view"},{"type":"function","name":"releaseIdentity","inputs":[{"name":"identity","type":"bytes32","internalType":"IdentityId"},{"name":"requester","type":"address","internalType":"address"},{"name":"context","type":"bytes","internalType":"bytes"},{"name":"authorization","type":"bytes","internalType":"bytes"}],"outputs":[],"stateMutability":"nonpayable"},{"type":"function","name":"setPolicy","inputs":[{"name":"identity","type":"bytes32","internalType":"IdentityId"},{"name":"","type":"bytes","internalType":"bytes"}],"outputs":[],"stateMutability":"nonpayable"},{"type":"function","name":"supportsInterface","inputs":[{"name":"interfaceId","type":"bytes4","internalType":"bytes4"}],"outputs":[{"name":"","type":"bool","internalType":"bool"}],"stateMutability":"view"},{"type":"function","name":"upstream","inputs":[],"outputs":[{"name":"","type":"address","internalType":"address"}],"stateMutability":"view"},{"type":"function","name":"versions","inputs":[{"name":"","type":"bytes32","internalType":"IdentityId"},{"name":"","type":"string","internalType":"string"}],"outputs":[{"name":"","type":"uint256","internalType":"uint256"}],"stateMutability":"view"},{"type":"event","name":"ApproverChange","inputs":[],"anonymous":false},{"type":"event","name":"PolicyChange","inputs":[],"anonymous":false},{"type":"event","name":"SharesDealt","inputs":[],"anonymous":false},{"type":"error","name":"DurationTooLong","inputs":[]},{"type":"error","name":"InterfaceUnsupported","inputs":[]},{"type":"error","name":"Unauthorized","inputs":[]},{"type":"error","name":"Unsupported","inputs":[]}],"bytecode":{"object":"0x60c06040523462000049576200001e6200001862000128565b6200014e565b620000286200004f565b611a52620005ac82396080518161166e015260a051816101860152611a5290f35b62000055565b60405190565b600080fd5b601f801991011690565b634e487b7160e01b600052604160045260246000fd5b9062000086906200005a565b810190811060018060401b038211176200009f57604052565b62000064565b90620000bc620000b46200004f565b92836200007a565b565b600080fd5b60018060a01b031690565b620000d990620000c3565b90565b620000e781620000ce565b03620000ef57565b600080fd5b905051906200010382620000dc565b565b9060208282031262000122576200011f91600001620000f4565b90565b620000be565b6200014b62001ffe803803806200013f81620000a5565b92833981019062000105565b90565b62000159906200015b565b565b6200016690620002a8565b4360a052565b151590565b60000190565b600090565b60018060601b03191690565b60601b90565b620001a7620001a1620001ad92620000c3565b62000188565b6200017c565b90565b620001bb906200018e565b90565b620001c9906200017c565b90565b60001c90565b90565b90565b620001f1620001eb620001f792620001d2565b620001d5565b620001d2565b90565b620002096200020f91620001cc565b620001d8565b90565b634e487b7160e01b600052602160045260246000fd5b600311156200023357565b62000212565b90620002458262000228565b565b620002529062000239565b90565b60ff1690565b620002746200026e6200027a9262000255565b620001d5565b620001d2565b90565b90565b60001b90565b6200029f62000299620002a592620001d2565b62000280565b6200027d565b90565b620002be620002b7826200040c565b156200016c565b6200039757620002cd62000177565b50620002e28163577e56b760e11b90620004d7565b60001462000332576200032d90620003266200032062000319620003136200030d6001955b620001b0565b620001be565b620001fa565b9262000247565b6200025b565b1762000286565b608052565b6200034681630e198f8560e11b90620004d7565b60001462000370576200032d90620003266200032062000319620003136200030d60029562000307565b6200037a6200004f565b635dd52ad560e11b815280620003936004820162000171565b0390fd5b620003a16200004f565b635dd52ad560e11b815280620003ba6004820162000171565b0390fd5b600090565b90565b63ffffffff60e01b1690565b60e01b90565b620003f1620003eb620003f792620003c3565b620003d2565b620003c6565b90565b6200040963ffffffff620003d8565b90565b62000416620003be565b506200042b816301ffc9a760e01b90620004d7565b908162000437575b5090565b6200045a915062000453906200044c620003fa565b90620004d7565b156200016c565b3862000433565b6200046c90620003c6565b9052565b9190620004869060006020850194019062000461565b565b600090565b90565b620004a9620004a3620004af926200048d565b620001d5565b620001d2565b90565b90565b620004ce620004c8620004d492620004b2565b620001d5565b620001d2565b90565b6000906200051362000522602094620004ef620003be565b50620004fa6200004f565b92839160048884016301ffc9a760e01b81520162000470565b8682018103825203826200007a565b906200052d620003be565b506200053862000488565b506200054362000488565b50838251920190617530fa3d60005191908162000589575b50908162000568575b5090565b9050620005816200057a6000620004b5565b91620001d2565b113862000564565b9050620005a26200059b602062000490565b91620001d2565b1015386200055b56fe60806040526004361015610013575b610a5e565b61001e6000356100ad565b806301ffc9a7146100a857806317634514146100a35780631df58c101461009e5780636a99a523146100995780638320790c14610094578063b15c743a1461008f578063bc4d861b1461008a578063f5759eec146100855763f58ac3250361000e57610a24565b610965565b61078a565b6106fc565b610673565b6104f3565b610483565b6101ce565b61013f565b60e01c90565b60405190565b600080fd5b600080fd5b600080fd5b63ffffffff60e01b1690565b6100dd816100c8565b036100e457565b600080fd5b905035906100f6826100d4565b565b906020828203126101125761010f916000016100e9565b90565b6100be565b151590565b61012590610117565b9052565b919061013d9060006020850194019061011c565b565b3461016f5761016b61015a6101553660046100f8565b610a68565b6101626100b3565b91829182610129565b0390f35b6100b9565b600091031261017f57565b6100be565b7f000000000000000000000000000000000000000000000000000000000000000090565b90565b6101b4906101a8565b9052565b91906101cc906000602085019401906101ab565b565b346101fe576101de366004610174565b6101fa6101e9610184565b6101f16100b3565b918291826101b8565b0390f35b6100b9565b90565b61020f81610203565b0361021657565b600080fd5b9050359061022882610206565b565b600080fd5b600080fd5b601f801991011690565b634e487b7160e01b600052604160045260246000fd5b9061025e90610234565b810190811067ffffffffffffffff82111761027857604052565b61023e565b906102906102896100b3565b9283610254565b565b67ffffffffffffffff81116102b0576102ac602091610234565b0190565b61023e565b90826000939282370152565b909291926102d66102d182610292565b61027d565b938185526020850190828401116102f2576102f0926102b5565b565b61022f565b9080601f8301121561031557816020610312933591016102c1565b90565b61022a565b91909160408184031261035b57610334836000830161021b565b92602082013567ffffffffffffffff81116103565761035392016102f7565b90565b6100c3565b6100be565b61036990610203565b90565b9061037690610360565b600052602052604060002090565b5190565b905090565b60005b8381106103a1575050906000910152565b806020918301518185015201610390565b6103d76103ce926020926103c581610384565b94858093610388565b9384910161038d565b0190565b90565b6103ea6103ef916101a8565b6103db565b9052565b61040361040a91602094936103b2565b80926103de565b0190565b6104226104196100b3565b928392836103f3565b03902090565b6104319161040e565b90565b1c90565b90565b61044b9060086104509302610434565b610438565b90565b9061045e915461043b565b90565b61047b6104809261047660009360009461036c565b610428565b610453565b90565b346104b4576104b061049f61049936600461031a565b90610461565b6104a76100b3565b918291826101b8565b0390f35b6100b9565b60018060a01b031690565b6104cd906104b9565b90565b6104d9906104c4565b9052565b91906104f1906000602085019401906104d0565b565b3461052357610503366004610174565b61051f61050e610aad565b6105166100b3565b918291826104dd565b0390f35b6100b9565b610531816104c4565b0361053857565b600080fd5b9050359061054a82610528565b565b67ffffffffffffffff1690565b6105628161054c565b0361056957565b600080fd5b9050359061057b82610559565b565b600080fd5b600080fd5b909182601f830112156105c15781359167ffffffffffffffff83116105bc5760200192600183028401116105b757565b610582565b61057d565b61022a565b909160a08284031261064b576105df836000840161021b565b926105ed816020850161053d565b926105fb826040830161056e565b92606082013567ffffffffffffffff8111610646578361061c918401610587565b929093608082013567ffffffffffffffff81116106415761063d9201610587565b9091565b6100c3565b6100c3565b6100be565b6106599061054c565b9052565b919061067190600060208501940190610650565b565b346106aa576106a66106956106893660046105c6565b95949094939193610c52565b61069d6100b3565b9182918261065d565b0390f35b6100b9565b9190916040818403126106f1576106c9836000830161021b565b92602082013567ffffffffffffffff81116106ec576106e89201610587565b9091565b6100c3565b6100be565b60000190565b3461072b5761071561070f3660046106af565b91610e6e565b61071d6100b3565b80610727816106f6565b0390f35b6100b9565b90565b61074761074261074c926104b9565b610730565b6104b9565b90565b61075890610733565b90565b6107649061074f565b90565b6107709061075b565b9052565b919061078890600060208501940190610767565b565b346107ba5761079a366004610174565b6107b66107a5610f6b565b6107ad6100b3565b91829182610774565b0390f35b6100b9565b909182601f830112156107f95781359167ffffffffffffffff83116107f45760200192600183028401116107ef57565b610582565b61057d565b61022a565b61080781610203565b0361080e57565b600080fd5b90503590610820826107fe565b565b909182601f8301121561085c5781359167ffffffffffffffff831161085757602001926020830284011161085257565b610582565b61057d565b61022a565b919091610100818403126109605761087c836000830161021b565b92602082013567ffffffffffffffff811161095b578161089d9184016107bf565b9290936108ad836040840161056e565b92606083013567ffffffffffffffff811161095657816108ce918501610587565b9290936108de8360808301610813565b9260a082013567ffffffffffffffff811161095157816108ff918401610822565b92909360c082013567ffffffffffffffff811161094c5783610922918401610822565b92909360e082013567ffffffffffffffff8111610947576109439201610587565b9091565b6100c3565b6100c3565b6100c3565b6100c3565b6100c3565b6100be565b346109a35761098d610978366004610861565b9b9a909a9991999892989793979694966111eb565b6109956100b3565b8061099f816106f6565b0390f35b6100b9565b9190608083820312610a1f576109c1816000850161021b565b926109cf826020830161053d565b92604082013567ffffffffffffffff8111610a1a57836109f0918401610587565b929093606082013567ffffffffffffffff8111610a1557610a119201610587565b9091565b6100c3565b6100c3565b6100be565b34610a5957610a43610a373660046109a8565b949390939291926113e5565b610a4b6100b3565b80610a55816106f6565b0390f35b6100b9565b600080fd5b600090565b610a70610a63565b5080610a8b610a85630e198f8560e11b6100c8565b916100c8565b14908115610a98575b5090565b610aa2915061159c565b38610a94565b600090565b610ab5610aa8565b50610abe61165a565b905090565b600090565b634e487b7160e01b600052602160045260246000fd5b60031115610ae857565b610ac8565b90610af782610ade565b565b610b0290610733565b90565b610b0e90610af9565b90565b610b1a9061074f565b90565b600080fd5b60e01b90565b90505190610b3582610559565b565b90602082820312610b5157610b4e91600001610b28565b90565b6100be565b610b5f90610360565b9052565b60209181520190565b9190610b8681610b7f81610b8b95610b63565b80956102b5565b610234565b0190565b9593610bc8610bd594610bbe610be39a989495610bb460a08c019760008d0190610b56565b60208b01906104d0565b6040890190610650565b8683036060880152610b6c565b926080818503910152610b6c565b90565b610bee6100b3565b3d6000823e3d90fd5b610c0090610733565b90565b610c0c90610bf7565b90565b6000910312610c1a57565b6100be565b604090610c49610c509496959396610c3f60608401986000850190610b56565b60208301906104d0565b0190610650565b565b9396959694929094610c62610ac3565b50610c7685898886869086928a94956116de565b97610c7f61165a565b959080610c95610c8f6001610aed565b91610aed565b14600014610d3a57505050505050610caf610cb491610c03565b61075b565b91631c6435709190928592813b15610d35576000610ce591610cf08296610cd96100b3565b98899788968795610b22565b855260048501610c1f565b03925af18015610d3057610d03575b505b565b610d239060003d8111610d29575b610d1b8183610254565b810190610c0f565b38610cff565b503d610d11565b610be6565b610b1d565b9093979692959194989950610d58610d526002610aed565b91610aed565b14600014610df857602096610da094600094610d7e610d79610dab95610b05565b610b11565b97638320790c95999b9390919293610d946100b3565b9c8d9b8c9a8b99610b22565b895260048901610b8f565b03925af1908115610df357600091610dc5575b5090610d01565b610de6915060203d8111610dec575b610dde8183610254565b810190610b37565b38610dbe565b503d610dd4565b610be6565b610e006100b3565b635dd52ad560e11b815280610e17600482016106f6565b0390fd5b90505190610e2882610528565b565b9190604083820312610e535780610e47610e509260008601610e1b565b93602001610e1b565b90565b6100be565b9190610e6c90600060208501940190610b56565b565b610eae925060409150610e87610e82611743565b61075b565b610ea363d86d31b7610e976100b3565b95869485938493610b22565b835260048301610e58565b03915afa908115610f6157600091610f34575b50610ed5610ecf33926104c4565b916104c4565b03610f12577fc17183be875ed6861417a565c0446678e56e6498026021e3bd62c74633da61f8610f036100b3565b80610f0d816106f6565b0390a1565b610f1a6100b3565b6282b42960e81b815280610f30600482016106f6565b0390fd5b610f55915060403d8111610f5a575b610f4d8183610254565b810190610e2a565b610ec1565b503d610f43565b610be6565b600090565b610f73610f66565b50610f7c611743565b90565b90565b610f96610f91610f9b92610f7f565b610730565b6101a8565b90565b909182610fae81610fb593610388565b80936102b5565b0190565b610fca9060209493610fd193610f9e565b80926103de565b0190565b9091610fec90610fe36100b3565b93849384610fb9565b03902090565b9091610ffd92610fd5565b90565b60001c90565b61101261101791611000565b610438565b90565b6110249054611006565b90565b634e487b7160e01b600052601160045260246000fd5b61104c611052919392936101a8565b926101a8565b820180921161105d57565b611027565b60001b90565b9061107560001991611062565b9181191691161790565b61109361108e611098926101a8565b610730565b6101a8565b90565b90565b906110b36110ae6110ba9261107f565b61109b565b8254611068565b9055565b6110d26110cd6110d79261054c565b610730565b6101a8565b90565b60209181520190565b60007f636f6e666c696374000000000000000000000000000000000000000000000000910152565b61111860086020926110da565b611121816110e3565b0190565b61113b906020810190600081830391015261110b565b90565b1561114557565b61114d6100b3565b62461bcd60e51b81528061116360048201611125565b0390fd5b600080fd5b91906020838203126111965761118f90611186602061027d565b93600001610b28565b6000830152565b611167565b906020828203126111b5576111b29160000161116c565b90565b6100be565b9160206111dc9294936111d5604082019660008301906104d0565b0190610b56565b565b6111e8905161054c565b90565b9b50935097509050611272975061126c95506112669450611261935061125c92506112476112196001610f82565b61124161123261122a8d600061036c565b868c91610ff2565b9161123c8361101a565b61103d565b9061109e565b9561125460008a9061036c565b919091610ff2565b61101a565b6101a8565b916110be565b1461113e565b602061128461127f611743565b61075b565b9163b8272883926112a83392946112b361129c6100b3565b96879586948594610b22565b8452600484016111ba565b03915afa908115611373576112d3916000918291611345575b50016111de565b6112e56112df426101a8565b916110be565b1115611323577ff784bd9cae83f9fff2aaf40d3b1513b3fd116d37d1f51226d139f224186f71246113146100b3565b8061131e816106f6565b0390a1565b61132b6100b3565b6282b42960e81b815280611341600482016106f6565b0390fd5b611366915060203d811161136c575b61135e8183610254565b81019061119b565b386112cc565b503d611354565b610be6565b9492936113be96946113a36113b09461139960808a019560008b0190610b56565b60208901906104d0565b8683036040880152610b6c565b926060818503910152610b6c565b90565b9160206113e39294936113dc60408201966000830190610b56565b01906104d0565b565b939290946113fa858785859088928694611826565b61140261165a565b9490806114186114126001610aed565b91610aed565b146000146114b957505050505061143161143691610c03565b61075b565b9163e7213fc1919092803b156114b4576114646000809461146f6114586100b3565b97889687958694610b22565b8452600484016113c1565b03925af180156114af57611482575b505b565b6114a29060003d81116114a8575b61149a8183610254565b810190610c0f565b3861147e565b503d611490565b610be6565b610b1d565b96949091929593966114d46114ce6002610aed565b91610aed565b14600014611579576114e86114ed91610b05565b610b11565b9263f58ac32590949695919295843b156115745760009661152294889461152d936115166100b3565b9b8c9a8b998a98610b22565b885260048801611378565b03925af1801561156f57611542575b50611480565b6115629060003d8111611568575b61155a8183610254565b810190610c0f565b3861153c565b503d611550565b610be6565b610b1d565b6115816100b3565b635dd52ad560e11b815280611598600482016106f6565b0390fd5b6115a4610a63565b506115be6115b86301ffc9a760e01b6100c8565b916100c8565b1490565b600090565b6bffffffffffffffffffffffff191690565b6115e2906115c7565b90565b60601c90565b6115f76115fc916115e5565b610733565b90565b611608906115eb565b90565b61161761161c91611000565b61107f565b90565b90565b61163661163161163b9261161f565b610730565b6101a8565b90565b61165261164d611657926101a8565b610730565b610aed565b90565b6116626115c2565b5061166b610aa8565b507f0000000000000000000000000000000000000000000000000000000000000000906116bb6116ab6116a56116a0856115d9565b6115ff565b9361160b565b6116b560ff611622565b1661163e565b9190565b90565b6116d66116d16116db926116bf565b610730565b61054c565b90565b505050505050506116ed610ac3565b506001611701576116fe60006116c2565b90565b6117096100b3565b634851657960e11b815280611720600482016106f6565b0390fd5b9060208282031261173e5761173b91600001610e1b565b90565b6100be565b61174b610f66565b5061177461175761165a565b919061176c6117666001610aed565b91610aed565b145b15610117565b1561181a57602061178f61178a6117a593610b05565b610b11565b636a99a5239061179d6100b3565b938492610b22565b825281806117b5600482016106f6565b03915afa908115611815576000916117e7575b50906117746117df8363577e56b760e11b90611857565b92919261176e565b611808915060203d811161180e575b6118008183610254565b810190611724565b386117c8565b503d6117f6565b610be6565b61182390610c03565b90565b505050505050600161183457565b61183c6100b3565b634851657960e11b815280611853600482016106f6565b0390fd5b90611860610a63565b5061186a826118b6565b9182611876575b505090565b6118809250611962565b3880611871565b90565b61189e6118996118a392611887565b610b22565b6100c8565b90565b6118b363ffffffff61188a565b90565b6118be610a63565b506118d1816301ffc9a760e01b90611962565b90816118dc575b5090565b6118f991506118f3906118ed6118a6565b90611962565b15610117565b386118d8565b611908906100c8565b9052565b9190611920906000602085019401906118ff565b565b600090565b90565b61193e61193961194392611927565b610730565b6101a8565b90565b61195a61195561195f926116bf565b610730565b6101a8565b90565b6000906119976119a5602094611976610a63565b5061197f6100b3565b92839160048884016301ffc9a760e01b81520161190c565b868201810382520382610254565b906119ae610a63565b506119b7611922565b506119c0611922565b50838251920190617530fa3d6000519190816119ff575b5090816119e3575b5090565b90506119f86119f26000611946565b916101a8565b11386119df565b9050611a14611a0e602061192a565b916101a8565b1015386119d756fea2646970667358221220f8fda5d1d8181ce2e068aad65b3fa9c94eb1f6b4bc61edde8625ffe4a4fb871364736f6c63430008170033","linkReferences":{}},"methodIdentifiers":{"acquireIdentity(bytes32,address,uint64,bytes,bytes)":"8320790c","creationBlock()":"17634514","dealShares(bytes32,string,uint64,bytes,bytes32,bytes[],bytes[],bytes)":"f5759eec","getIdentityRegistry()":"bc4d861b","releaseIdentity(bytes32,address,bytes,bytes)":"f58ac325","setPolicy(bytes32,bytes)":"b15c743a","supportsInterface(bytes4)":"01ffc9a7","upstream()":"6a99a523","versions(bytes32,string)":"1df58c10"},"id":4}