{"abi":[{"type":"constructor","inputs":[{"name":"upstream","type":"address","internalType":"address"}],"stateMutability":"nonpayable"},{"type":"function","name":"acquireIdentity","inputs":[{"name":"identity","type":"bytes32","internalType":"IdentityId"},{"name":"requester","type":"address","internalType":"address"},{"name":"duration","type":"uint64","internalType":"uint64"},{"name":"context","type":"bytes","internalType":"bytes"},{"name":"authorization","type":"bytes","internalType":"bytes"}],"outputs":[{"name":"expiry","type":"uint64","internalType":"uint64"}],"stateMutability":"nonpayable"},{"type":"function","name":"creationBlock","inputs":[],"outputs":[{"name":"","type":"uint256","internalType":"uint256"}],"stateMutability":"view"},{"type":"function","name":"getIdentityRegistry","inputs":[],"outputs":[{"name":"","type":"address","internalType":"contract IIdentityRegistry"}],"stateMutability":"view"},{"type":"function","name":"releaseIdentity","inputs":[{"name":"identity","type":"bytes32","internalType":"IdentityId"},{"name":"requester","type":"address","internalType":"address"},{"name":"context","type":"bytes","internalType":"bytes"},{"name":"authorization","type":"bytes","internalType":"bytes"}],"outputs":[],"stateMutability":"nonpayable"},{"type":"function","name":"setPolicy","inputs":[{"name":"identity","type":"bytes32","internalType":"IdentityId"},{"name":"","type":"bytes","internalType":"bytes"}],"outputs":[],"stateMutability":"nonpayable"},{"type":"function","name":"supportsInterface","inputs":[{"name":"interfaceId","type":"bytes4","internalType":"bytes4"}],"outputs":[{"name":"","type":"bool","internalType":"bool"}],"stateMutability":"view"},{"type":"function","name":"upstream","inputs":[],"outputs":[{"name":"","type":"address","internalType":"address"}],"stateMutability":"view"},{"type":"event","name":"ApproverChange","inputs":[],"anonymous":false},{"type":"event","name":"PolicyChange","inputs":[],"anonymous":false},{"type":"error","name":"DurationTooLong","inputs":[]},{"type":"error","name":"InterfaceUnsupported","inputs":[]},{"type":"error","name":"Unauthorized","inputs":[]},{"type":"error","name":"Unsupported","inputs":[]}],"bytecode":{"object":"0x60c06040523462000049576200001e6200001862000128565b6200014e565b620000286200004f565b6112496200059f823960805181610e65015260a05181610166015261124990f35b62000055565b60405190565b600080fd5b601f801991011690565b634e487b7160e01b600052604160045260246000fd5b9062000086906200005a565b810190811060018060401b038211176200009f57604052565b62000064565b90620000bc620000b46200004f565b92836200007a565b565b600080fd5b60018060a01b031690565b620000d990620000c3565b90565b620000e781620000ce565b03620000ef57565b600080fd5b905051906200010382620000dc565b565b9060208282031262000122576200011f91600001620000f4565b90565b620000be565b6200014b620017e8803803806200013f81620000a5565b92833981019062000105565b90565b62000159906200029b565b4360a052565b151590565b60000190565b600090565b60018060601b03191690565b60601b90565b6200019a62000194620001a092620000c3565b6200017b565b6200016f565b90565b620001ae9062000181565b90565b620001bc906200016f565b90565b60001c90565b90565b90565b620001e4620001de620001ea92620001c5565b620001c8565b620001c5565b90565b620001fc6200020291620001bf565b620001cb565b90565b634e487b7160e01b600052602160045260246000fd5b600311156200022657565b62000205565b9062000238826200021b565b565b62000245906200022c565b90565b60ff1690565b62000267620002616200026d9262000248565b620001c8565b620001c5565b90565b90565b60001b90565b620002926200028c6200029892620001c5565b62000273565b62000270565b90565b620002b1620002aa82620003ff565b156200015f565b6200038a57620002c06200016a565b50620002d58163577e56b760e11b90620004ca565b6000146200032557620003209062000319620003136200030c62000306620003006001955b620001a3565b620001b1565b620001ed565b926200023a565b6200024e565b1762000279565b608052565b6200033981630e198f8560e11b90620004ca565b6000146200036357620003209062000319620003136200030c6200030662000300600295620002fa565b6200036d6200004f565b635dd52ad560e11b815280620003866004820162000164565b0390fd5b620003946200004f565b635dd52ad560e11b815280620003ad6004820162000164565b0390fd5b600090565b90565b63ffffffff60e01b1690565b60e01b90565b620003e4620003de620003ea92620003b6565b620003c5565b620003b9565b90565b620003fc63ffffffff620003cb565b90565b62000409620003b1565b506200041e816301ffc9a760e01b90620004ca565b90816200042a575b5090565b6200044d915062000446906200043f620003ed565b90620004ca565b156200015f565b3862000426565b6200045f90620003b9565b9052565b9190620004799060006020850194019062000454565b565b600090565b90565b6200049c62000496620004a29262000480565b620001c8565b620001c5565b90565b90565b620004c1620004bb620004c792620004a5565b620001c8565b620001c5565b90565b6000906200050662000515602094620004e2620003b1565b50620004ed6200004f565b92839160048884016301ffc9a760e01b81520162000463565b8682018103825203826200007a565b9062000520620003b1565b506200052b6200047b565b50620005366200047b565b50838251920190617530fa3d6000519190816200057c575b5090816200055b575b5090565b9050620005746200056d6000620004a8565b91620001c5565b113862000557565b9050620005956200058e602062000483565b91620001c5565b1015386200054e56fe60806040526004361015610013575b6105cb565b61001e60003561008d565b806301ffc9a71461008857806317634514146100835780636a99a5231461007e5780638320790c14610079578063b15c743a14610074578063bc4d861b1461006f5763f58ac3250361000e57610591565b6104e0565b610452565b6103c9565b61021d565b6101ae565b61011f565b60e01c90565b60405190565b600080fd5b600080fd5b600080fd5b63ffffffff60e01b1690565b6100bd816100a8565b036100c457565b600080fd5b905035906100d6826100b4565b565b906020828203126100f2576100ef916000016100c9565b90565b61009e565b151590565b610105906100f7565b9052565b919061011d906000602085019401906100fc565b565b3461014f5761014b61013a6101353660046100d8565b6105d5565b610142610093565b91829182610109565b0390f35b610099565b600091031261015f57565b61009e565b7f000000000000000000000000000000000000000000000000000000000000000090565b90565b61019490610188565b9052565b91906101ac9060006020850194019061018b565b565b346101de576101be366004610154565b6101da6101c9610164565b6101d1610093565b91829182610198565b0390f35b610099565b60018060a01b031690565b6101f7906101e3565b90565b610203906101ee565b9052565b919061021b906000602085019401906101fa565b565b3461024d5761022d366004610154565b61024961023861061a565b610240610093565b91829182610207565b0390f35b610099565b90565b61025e81610252565b0361026557565b600080fd5b9050359061027782610255565b565b610282816101ee565b0361028957565b600080fd5b9050359061029b82610279565b565b67ffffffffffffffff1690565b6102b38161029d565b036102ba57565b600080fd5b905035906102cc826102aa565b565b600080fd5b600080fd5b600080fd5b909182601f830112156103175781359167ffffffffffffffff831161031257602001926001830284011161030d57565b6102d8565b6102d3565b6102ce565b909160a0828403126103a157610335836000840161026a565b92610343816020850161028e565b9261035182604083016102bf565b92606082013567ffffffffffffffff811161039c57836103729184016102dd565b929093608082013567ffffffffffffffff81116103975761039392016102dd565b9091565b6100a3565b6100a3565b61009e565b6103af9061029d565b9052565b91906103c7906000602085019401906103a6565b565b34610400576103fc6103eb6103df36600461031c565b95949094939193610820565b6103f3610093565b918291826103b3565b0390f35b610099565b9190916040818403126104475761041f836000830161026a565b92602082013567ffffffffffffffff81116104425761043e92016102dd565b9091565b6100a3565b61009e565b60000190565b346104815761046b610465366004610405565b91610a3c565b610473610093565b8061047d8161044c565b0390f35b610099565b90565b61049d6104986104a2926101e3565b610486565b6101e3565b90565b6104ae90610489565b90565b6104ba906104a5565b90565b6104c6906104b1565b9052565b91906104de906000602085019401906104bd565b565b34610510576104f0366004610154565b61050c6104fb610b39565b610503610093565b918291826104ca565b0390f35b610099565b919060808382031261058c5761052e816000850161026a565b9261053c826020830161028e565b92604082013567ffffffffffffffff8111610587578361055d9184016102dd565b929093606082013567ffffffffffffffff81116105825761057e92016102dd565b9091565b6100a3565b6100a3565b61009e565b346105c6576105b06105a4366004610515565b94939093929192610bba565b6105b8610093565b806105c28161044c565b0390f35b610099565b600080fd5b600090565b6105dd6105d0565b50806105f86105f2630e198f8560e11b6100a8565b916100a8565b14908115610605575b5090565b61060f9150610d71565b38610601565b600090565b610622610615565b5061062b610e51565b905090565b600090565b634e487b7160e01b600052602160045260246000fd5b6003111561065557565b610635565b906106648261064b565b565b61066f90610489565b90565b61067b90610666565b90565b610687906104a5565b90565b600080fd5b601f801991011690565b634e487b7160e01b600052604160045260246000fd5b906106b99061068f565b810190811067ffffffffffffffff8211176106d357604052565b610699565b60e01b90565b905051906106eb826102aa565b565b9060208282031261070757610704916000016106de565b90565b61009e565b61071590610252565b90565b6107219061070c565b9052565b60209181520190565b90826000939282370152565b91906107548161074d8161075995610725565b809561072e565b61068f565b0190565b95936107966107a39461078c6107b19a98949561078260a08c019760008d0190610718565b60208b01906101fa565b60408901906103a6565b868303606088015261073a565b92608081850391015261073a565b90565b6107bc610093565b3d6000823e3d90fd5b6107ce90610489565b90565b6107da906107c5565b90565b60009103126107e857565b61009e565b60409061081761081e949695939661080d60608401986000850190610718565b60208301906101fa565b01906103a6565b565b9396959694929094610830610630565b5061084485898886869086928a9495610ed5565b9761084d610e51565b95908061086361085d600161065a565b9161065a565b146000146109085750505050505061087d610882916107d1565b6104b1565b91631c6435709190928592813b156109035760006108b3916108be82966108a7610093565b988997889687956106d8565b8552600485016107ed565b03925af180156108fe576108d1575b505b565b6108f19060003d81116108f7575b6108e981836106af565b8101906107dd565b386108cd565b503d6108df565b6107b4565b61068a565b9093979692959194989950610926610920600261065a565b9161065a565b146000146109c65760209661096e9460009461094c61094761097995610672565b61067e565b97638320790c95999b9390919293610962610093565b9c8d9b8c9a8b996106d8565b89526004890161075d565b03925af19081156109c157600091610993575b50906108cf565b6109b4915060203d81116109ba575b6109ac81836106af565b8101906106ed565b3861098c565b503d6109a2565b6107b4565b6109ce610093565b635dd52ad560e11b8152806109e56004820161044c565b0390fd5b905051906109f682610279565b565b9190604083820312610a215780610a15610a1e92600086016109e9565b936020016109e9565b90565b61009e565b9190610a3a90600060208501940190610718565b565b610a7c925060409150610a55610a50610f3a565b6104b1565b610a7163d86d31b7610a65610093565b958694859384936106d8565b835260048301610a26565b03915afa908115610b2f57600091610b02575b50610aa3610a9d33926101ee565b916101ee565b03610ae0577fc17183be875ed6861417a565c0446678e56e6498026021e3bd62c74633da61f8610ad1610093565b80610adb8161044c565b0390a1565b610ae8610093565b6282b42960e81b815280610afe6004820161044c565b0390fd5b610b23915060403d8111610b28575b610b1b81836106af565b8101906109f8565b610a8f565b503d610b11565b6107b4565b600090565b610b41610b34565b50610b4a610f3a565b90565b949293610b939694610b78610b8594610b6e60808a019560008b0190610718565b60208901906101fa565b868303604088015261073a565b92606081850391015261073a565b90565b916020610bb8929493610bb160408201966000830190610718565b01906101fa565b565b93929094610bcf85878585908892869461101d565b610bd7610e51565b949080610bed610be7600161065a565b9161065a565b14600014610c8e575050505050610c06610c0b916107d1565b6104b1565b9163e7213fc1919092803b15610c8957610c3960008094610c44610c2d610093565b978896879586946106d8565b845260048401610b96565b03925af18015610c8457610c57575b505b565b610c779060003d8111610c7d575b610c6f81836106af565b8101906107dd565b38610c53565b503d610c65565b6107b4565b61068a565b9694909192959396610ca9610ca3600261065a565b9161065a565b14600014610d4e57610cbd610cc291610672565b61067e565b9263f58ac32590949695919295843b15610d4957600096610cf7948894610d0293610ceb610093565b9b8c9a8b998a986106d8565b885260048801610b4d565b03925af18015610d4457610d17575b50610c55565b610d379060003d8111610d3d575b610d2f81836106af565b8101906107dd565b38610d11565b503d610d25565b6107b4565b61068a565b610d56610093565b635dd52ad560e11b815280610d6d6004820161044c565b0390fd5b610d796105d0565b50610d93610d8d6301ffc9a760e01b6100a8565b916100a8565b1490565b600090565b6bffffffffffffffffffffffff191690565b610db790610d9c565b90565b60601c90565b610dcc610dd191610dba565b610489565b90565b610ddd90610dc0565b90565b60001c90565b610dfa610df5610dff92610188565b610486565b610188565b90565b610e0e610e1391610de0565b610de6565b90565b90565b610e2d610e28610e3292610e16565b610486565b610188565b90565b610e49610e44610e4e92610188565b610486565b61065a565b90565b610e59610d97565b50610e62610615565b507f000000000000000000000000000000000000000000000000000000000000000090610eb2610ea2610e9c610e9785610dae565b610dd4565b93610e02565b610eac60ff610e19565b16610e35565b9190565b90565b610ecd610ec8610ed292610eb6565b610486565b61029d565b90565b50505050505050610ee4610630565b506001610ef857610ef56000610eb9565b90565b610f00610093565b634851657960e11b815280610f176004820161044c565b0390fd5b90602082820312610f3557610f32916000016109e9565b90565b61009e565b610f42610b34565b50610f6b610f4e610e51565b9190610f63610f5d600161065a565b9161065a565b145b156100f7565b15611011576020610f86610f81610f9c93610672565b61067e565b636a99a52390610f94610093565b9384926106d8565b82528180610fac6004820161044c565b03915afa90811561100c57600091610fde575b5090610f6b610fd68363577e56b760e11b9061104e565b929192610f65565b610fff915060203d8111611005575b610ff781836106af565b810190610f1b565b38610fbf565b503d610fed565b6107b4565b61101a906107d1565b90565b505050505050600161102b57565b611033610093565b634851657960e11b81528061104a6004820161044c565b0390fd5b906110576105d0565b50611061826110ad565b918261106d575b505090565b6110779250611159565b3880611068565b90565b61109561109061109a9261107e565b6106d8565b6100a8565b90565b6110aa63ffffffff611081565b90565b6110b56105d0565b506110c8816301ffc9a760e01b90611159565b90816110d3575b5090565b6110f091506110ea906110e461109d565b90611159565b156100f7565b386110cf565b6110ff906100a8565b9052565b9190611117906000602085019401906110f6565b565b600090565b90565b61113561113061113a9261111e565b610486565b610188565b90565b61115161114c61115692610eb6565b610486565b610188565b90565b60009061118e61119c60209461116d6105d0565b50611176610093565b92839160048884016301ffc9a760e01b815201611103565b8682018103825203826106af565b906111a56105d0565b506111ae611119565b506111b7611119565b50838251920190617530fa3d6000519190816111f6575b5090816111da575b5090565b90506111ef6111e9600061113d565b91610188565b11386111d6565b905061120b6112056020611121565b91610188565b1015386111ce56fea2646970667358221220d1e56a4ecf45f3dffa900fb0bd2428007b1f50b7b3ff4eaee1e41581b748bdb764736f6c63430008170033","linkReferences":{}},"methodIdentifiers":{"acquireIdentity(bytes32,address,uint64,bytes,bytes)":"8320790c","creationBlock()":"17634514","getIdentityRegistry()":"bc4d861b","releaseIdentity(bytes32,address,bytes,bytes)":"f58ac325","setPolicy(bytes32,bytes)":"b15c743a","supportsInterface(bytes4)":"01ffc9a7","upstream()":"6a99a523"},"id":7}