{"abi":[{"type":"constructor","inputs":[{"name":"upstream","type":"address","internalType":"address"}],"stateMutability":"nonpayable"},{"type":"function","name":"acquireIdentity","inputs":[{"name":"identity","type":"bytes32","internalType":"IdentityId"},{"name":"requester","type":"address","internalType":"address"},{"name":"duration","type":"uint64","internalType":"uint64"},{"name":"context","type":"bytes","internalType":"bytes"},{"name":"authorization","type":"bytes","internalType":"bytes"}],"outputs":[{"name":"expiry","type":"uint64","internalType":"uint64"}],"stateMutability":"nonpayable"},{"type":"function","name":"approverRoots","inputs":[{"name":"","type":"bytes32","internalType":"IdentityId"}],"outputs":[{"name":"","type":"bytes32","internalType":"bytes32"}],"stateMutability":"view"},{"type":"function","name":"policyHashes","inputs":[{"name":"","type":"bytes32","internalType":"IdentityId"}],"outputs":[{"name":"","type":"bytes32","internalType":"bytes32"}],"stateMutability":"view"},{"type":"function","name":"releaseIdentity","inputs":[{"name":"identity","type":"bytes32","internalType":"IdentityId"},{"name":"requester","type":"address","internalType":"address"},{"name":"context","type":"bytes","internalType":"bytes"},{"name":"authorization","type":"bytes","internalType":"bytes"}],"outputs":[],"stateMutability":"nonpayable"},{"type":"function","name":"setApproversRoot","inputs":[{"name":"identity","type":"bytes32","internalType":"IdentityId"},{"name":"approversRoot","type":"bytes32","internalType":"bytes32"}],"outputs":[],"stateMutability":"nonpayable"},{"type":"function","name":"setPolicyHash","inputs":[{"name":"identity","type":"bytes32","internalType":"IdentityId"},{"name":"policyHash","type":"bytes32","internalType":"bytes32"}],"outputs":[],"stateMutability":"nonpayable"},{"type":"function","name":"supportsInterface","inputs":[{"name":"interfaceId","type":"bytes4","internalType":"bytes4"}],"outputs":[{"name":"","type":"bool","internalType":"bool"}],"stateMutability":"view"},{"type":"function","name":"upstream","inputs":[],"outputs":[{"name":"","type":"address","internalType":"address"}],"stateMutability":"view"},{"type":"event","name":"ApproverChange","inputs":[],"anonymous":false},{"type":"event","name":"PolicyChange","inputs":[],"anonymous":false},{"type":"error","name":"DurationTooLong","inputs":[]},{"type":"error","name":"InterfaceUnsupported","inputs":[]},{"type":"error","name":"Unauthorized","inputs":[]},{"type":"error","name":"Unsupported","inputs":[]}],"bytecode":{"object":"0x60a06040523462000040576200001e620000186200011f565b62000145565b6200002862000046565b6114686200059282396080518161107f015261146890f35b6200004c565b60405190565b600080fd5b601f801991011690565b634e487b7160e01b600052604160045260246000fd5b906200007d9062000051565b810190811060018060401b038211176200009657604052565b6200005b565b90620000b3620000ab62000046565b928362000071565b565b600080fd5b60018060a01b031690565b620000d090620000ba565b90565b620000de81620000c5565b03620000e657565b600080fd5b90505190620000fa82620000d3565b565b9060208282031262000119576200011691600001620000eb565b90565b620000b5565b62000142620019fa8038038062000136816200009c565b928339810190620000fc565b90565b62000150906200028e565b565b151590565b60000190565b600090565b60018060601b03191690565b60601b90565b6200018d620001876200019392620000ba565b6200016e565b62000162565b90565b620001a19062000174565b90565b620001af9062000162565b90565b60001c90565b90565b90565b620001d7620001d1620001dd92620001b8565b620001bb565b620001b8565b90565b620001ef620001f591620001b2565b620001be565b90565b634e487b7160e01b600052602160045260246000fd5b600311156200021957565b620001f8565b906200022b826200020e565b565b62000238906200021f565b90565b60ff1690565b6200025a6200025462000260926200023b565b620001bb565b620001b8565b90565b90565b60001b90565b620002856200027f6200028b92620001b8565b62000266565b62000263565b90565b620002a46200029d82620003f2565b1562000152565b6200037d57620002b36200015d565b50620002c88163577e56b760e11b90620004bd565b600014620003185762000313906200030c62000306620002ff620002f9620002f36001955b62000196565b620001a4565b620001e0565b926200022d565b62000241565b176200026c565b608052565b6200032c81630e198f8560e11b90620004bd565b600014620003565762000313906200030c62000306620002ff620002f9620002f3600295620002ed565b6200036062000046565b635dd52ad560e11b815280620003796004820162000157565b0390fd5b6200038762000046565b635dd52ad560e11b815280620003a06004820162000157565b0390fd5b600090565b90565b63ffffffff60e01b1690565b60e01b90565b620003d7620003d1620003dd92620003a9565b620003b8565b620003ac565b90565b620003ef63ffffffff620003be565b90565b620003fc620003a4565b5062000411816301ffc9a760e01b90620004bd565b90816200041d575b5090565b620004409150620004399062000432620003e0565b90620004bd565b1562000152565b3862000419565b6200045290620003ac565b9052565b91906200046c9060006020850194019062000447565b565b600090565b90565b6200048f62000489620004959262000473565b620001bb565b620001b8565b90565b90565b620004b4620004ae620004ba9262000498565b620001bb565b620001b8565b90565b600090620004f962000508602094620004d5620003a4565b50620004e062000046565b92839160048884016301ffc9a760e01b81520162000456565b86820181038252038262000071565b9062000513620003a4565b506200051e6200046e565b50620005296200046e565b50838251920190617530fa3d6000519190816200056f575b5090816200054e575b5090565b9050620005676200056060006200049b565b91620001b8565b11386200054a565b90506200058862000581602062000476565b91620001b8565b1015386200054156fe60806040526004361015610013575b61063d565b61001e60003561009d565b806301ffc9a7146100985780631ba93dd3146100935780631eb70eb21461008e5780636a99a523146100895780638320790c14610084578063af6373991461007f578063dc56b9651461007a5763f58ac3250361000e57610603565b610553565b61051f565b61048b565b610306565b610287565b610238565b61012f565b60e01c90565b60405190565b600080fd5b600080fd5b600080fd5b63ffffffff60e01b1690565b6100cd816100b8565b036100d457565b600080fd5b905035906100e6826100c4565b565b90602082820312610102576100ff916000016100d9565b90565b6100ae565b151590565b61011590610107565b9052565b919061012d9060006020850194019061010c565b565b3461015f5761015b61014a6101453660046100e8565b610647565b6101526100a3565b91829182610119565b0390f35b6100a9565b90565b61017081610164565b0361017757565b600080fd5b9050359061018982610167565b565b906020828203126101a5576101a29160000161017c565b90565b6100ae565b6101b390610164565b90565b906101c0906101aa565b600052602052604060002090565b1c90565b90565b6101e59060086101ea93026101ce565b6101d2565b90565b906101f891546101d5565b90565b6102129061020d6000916000926101b6565b6101ed565b90565b61021e90610164565b9052565b919061023690600060208501940190610215565b565b346102685761026461025361024e36600461018b565b6101fb565b61025b6100a3565b91829182610222565b0390f35b6100a9565b6102849061027f6001916000926101b6565b6101ed565b90565b346102b7576102b36102a261029d36600461018b565b61026d565b6102aa6100a3565b91829182610222565b0390f35b6100a9565b60009103126102c757565b6100ae565b60018060a01b031690565b6102e0906102cc565b90565b6102ec906102d7565b9052565b9190610304906000602085019401906102e3565b565b34610336576103163660046102bc565b61033261032161068c565b6103296100a3565b918291826102f0565b0390f35b6100a9565b610344816102d7565b0361034b57565b600080fd5b9050359061035d8261033b565b565b67ffffffffffffffff1690565b6103758161035f565b0361037c57565b600080fd5b9050359061038e8261036c565b565b600080fd5b600080fd5b600080fd5b909182601f830112156103d95781359167ffffffffffffffff83116103d45760200192600183028401116103cf57565b61039a565b610395565b610390565b909160a082840312610463576103f7836000840161017c565b926104058160208501610350565b926104138260408301610381565b92606082013567ffffffffffffffff811161045e578361043491840161039f565b929093608082013567ffffffffffffffff811161045957610455920161039f565b9091565b6100b3565b6100b3565b6100ae565b6104719061035f565b9052565b919061048990600060208501940190610468565b565b346104c2576104be6104ad6104a13660046103de565b959490949391936108bd565b6104b56100a3565b91829182610475565b0390f35b6100a9565b6104d081610164565b036104d757565b600080fd5b905035906104e9826104c7565b565b91906040838203126105145780610508610511926000860161017c565b936020016104dc565b90565b6100ae565b60000190565b3461054e576105386105323660046104eb565b90610c3d565b6105406100a3565b8061054a81610519565b0390f35b6100a9565b346105825761056c6105663660046104eb565b90610d5e565b6105746100a3565b8061057e81610519565b0390f35b6100a9565b91906080838203126105fe576105a0816000850161017c565b926105ae8260208301610350565b92604082013567ffffffffffffffff81116105f957836105cf91840161039f565b929093606082013567ffffffffffffffff81116105f4576105f0920161039f565b9091565b6100b3565b6100b3565b6100ae565b3461063857610622610616366004610587565b94939093929192610dd7565b61062a6100a3565b8061063481610519565b0390f35b6100a9565b600080fd5b600090565b61064f610642565b508061066a610664630e198f8560e11b6100b8565b916100b8565b14908115610677575b5090565b6106819150610f8e565b38610673565b600090565b610694610687565b5061069d61106b565b905090565b600090565b634e487b7160e01b600052602160045260246000fd5b600311156106c757565b6106a7565b906106d6826106bd565b565b90565b6106ef6106ea6106f4926102cc565b6106d8565b6102cc565b90565b610700906106db565b90565b61070c906106f7565b90565b610718906106db565b90565b6107249061070f565b90565b600080fd5b601f801991011690565b634e487b7160e01b600052604160045260246000fd5b906107569061072c565b810190811067ffffffffffffffff82111761077057604052565b610736565b60e01b90565b905051906107888261036c565b565b906020828203126107a4576107a19160000161077b565b90565b6100ae565b6107b2906101aa565b9052565b60209181520190565b90826000939282370152565b91906107e5816107de816107ea956107b6565b80956107bf565b61072c565b0190565b95936108276108349461081d6108429a98949561081360a08c019760008d01906107a9565b60208b01906102e3565b6040890190610468565b86830360608801526107cb565b9260808185039101526107cb565b90565b61084d6100a3565b3d6000823e3d90fd5b61085f906106db565b90565b61086b90610856565b90565b6108779061070f565b90565b600091031261088557565b6100ae565b6040906108b46108bb94969593966108aa606084019860008501906107a9565b60208301906102e3565b0190610468565b565b93969596949290946108cd6106a2565b506108e185898886869086928a94956110ef565b976108ea61106b565b9590806109006108fa60016106cc565b916106cc565b146000146109a55750505050505061091a61091f91610862565b61086e565b91631c6435709190928592813b156109a05760006109509161095b82966109446100a3565b98899788968795610775565b85526004850161088a565b03925af1801561099b5761096e575b505b565b61098e9060003d8111610994575b610986818361074c565b81019061087a565b3861096a565b503d61097c565b610845565b610727565b90939796929591949899506109c36109bd60026106cc565b916106cc565b14600014610a6357602096610a0b946000946109e96109e4610a1695610703565b61071b565b97638320790c95999b93909192936109ff6100a3565b9c8d9b8c9a8b99610775565b8952600489016107ee565b03925af1908115610a5e57600091610a30575b509061096c565b610a51915060203d8111610a57575b610a49818361074c565b81019061078a565b38610a29565b503d610a3f565b610845565b610a6b6100a3565b635dd52ad560e11b815280610a8260048201610519565b0390fd5b90505190610a938261033b565b565b9190604083820312610abe5780610ab2610abb9260008601610a86565b93602001610a86565b90565b6100ae565b9190610ad7906000602085019401906107a9565b565b90610b17604083610af0610aeb611159565b61086e565b610b0c63d86d31b7610b006100a3565b95869485938493610775565b835260048301610ac3565b03915afa908115610b9d57600091610b70575b50610b3e610b3833926102d7565b916102d7565b03610b4e57610b4c91610bf1565b565b610b566100a3565b6282b42960e81b815280610b6c60048201610519565b0390fd5b610b91915060403d8111610b96575b610b89818361074c565b810190610a95565b610b2a565b503d610b7f565b610845565b60001b90565b90610bb560001991610ba2565b9181191691161790565b60001c90565b610bce90610bbf565b90565b90610be6610be1610bed926101aa565b610bc5565b8254610ba8565b9055565b610c00610c05929160006101b6565b610bd1565b7fc17183be875ed6861417a565c0446678e56e6498026021e3bd62c74633da61f8610c2e6100a3565b80610c3881610519565b0390a1565b90610c4791610ad9565b565b90610c87604083610c60610c5b611159565b61086e565b610c7c63d86d31b7610c706100a3565b95869485938493610775565b835260048301610ac3565b03915afa908115610d0d57600091610ce0575b50610cae610ca833926102d7565b916102d7565b03610cbe57610cbc91610d12565b565b610cc66100a3565b6282b42960e81b815280610cdc60048201610519565b0390fd5b610d01915060403d8111610d06575b610cf9818361074c565b810190610a95565b610c9a565b503d610cef565b610845565b610d21610d26929160016101b6565b610bd1565b7fcdbd5ef3f55ae7ca4e567614a168c87b5e8dd2324a117476c922325e219b69d2610d4f6100a3565b80610d5981610519565b0390a1565b90610d6891610c49565b565b949293610db09694610d95610da294610d8b60808a019560008b01906107a9565b60208901906102e3565b86830360408801526107cb565b9260608185039101526107cb565b90565b916020610dd5929493610dce604082019660008301906107a9565b01906102e3565b565b93929094610dec85878585908892869461123c565b610df461106b565b949080610e0a610e0460016106cc565b916106cc565b14600014610eab575050505050610e23610e2891610862565b61086e565b9163e7213fc1919092803b15610ea657610e5660008094610e61610e4a6100a3565b97889687958694610775565b845260048401610db3565b03925af18015610ea157610e74575b505b565b610e949060003d8111610e9a575b610e8c818361074c565b81019061087a565b38610e70565b503d610e82565b610845565b610727565b9694909192959396610ec6610ec060026106cc565b916106cc565b14600014610f6b57610eda610edf91610703565b61071b565b9263f58ac32590949695919295843b15610f6657600096610f14948894610f1f93610f086100a3565b9b8c9a8b998a98610775565b885260048801610d6a565b03925af18015610f6157610f34575b50610e72565b610f549060003d8111610f5a575b610f4c818361074c565b81019061087a565b38610f2e565b503d610f42565b610845565b610727565b610f736100a3565b635dd52ad560e11b815280610f8a60048201610519565b0390fd5b610f96610642565b50610fb0610faa6301ffc9a760e01b6100b8565b916100b8565b1490565b600090565b6bffffffffffffffffffffffff191690565b610fd490610fb9565b90565b60601c90565b610fe9610fee91610fd7565b6106db565b90565b610ffa90610fdd565b90565b90565b61101461100f61101992610ffd565b6106d8565b610ffd565b90565b61102861102d91610bbf565b611000565b90565b90565b61104761104261104c92611030565b6106d8565b610ffd565b90565b61106361105e61106892610ffd565b6106d8565b6106cc565b90565b611073610fb4565b5061107c610687565b507f0000000000000000000000000000000000000000000000000000000000000000906110cc6110bc6110b66110b185610fcb565b610ff1565b9361101c565b6110c660ff611033565b1661104f565b9190565b90565b6110e76110e26110ec926110d0565b6106d8565b61035f565b90565b505050505050506110fe6106a2565b5060016111125761110f60006110d3565b90565b61111a6100a3565b634851657960e11b81528061113160048201610519565b0390fd5b600090565b906020828203126111545761115191600001610a86565b90565b6100ae565b611161611135565b5061118a61116d61106b565b919061118261117c60016106cc565b916106cc565b145b15610107565b156112305760206111a56111a06111bb93610703565b61071b565b636a99a523906111b36100a3565b938492610775565b825281806111cb60048201610519565b03915afa90811561122b576000916111fd575b509061118a6111f58363577e56b760e11b9061126d565b929192611184565b61121e915060203d8111611224575b611216818361074c565b81019061113a565b386111de565b503d61120c565b610845565b61123990610862565b90565b505050505050600161124a57565b6112526100a3565b634851657960e11b81528061126960048201610519565b0390fd5b90611276610642565b50611280826112cc565b918261128c575b505090565b6112969250611378565b3880611287565b90565b6112b46112af6112b99261129d565b610775565b6100b8565b90565b6112c963ffffffff6112a0565b90565b6112d4610642565b506112e7816301ffc9a760e01b90611378565b90816112f2575b5090565b61130f9150611309906113036112bc565b90611378565b15610107565b386112ee565b61131e906100b8565b9052565b919061133690600060208501940190611315565b565b600090565b90565b61135461134f6113599261133d565b6106d8565b610ffd565b90565b61137061136b611375926110d0565b6106d8565b610ffd565b90565b6000906113ad6113bb60209461138c610642565b506113956100a3565b92839160048884016301ffc9a760e01b815201611322565b86820181038252038261074c565b906113c4610642565b506113cd611338565b506113d6611338565b50838251920190617530fa3d600051919081611415575b5090816113f9575b5090565b905061140e611408600061135c565b91610ffd565b11386113f5565b905061142a6114246020611340565b91610ffd565b1015386113ed56fea2646970667358221220321d065096a896efadfef4cd7b46c7161af4deb4bc221535d26aa996b8147d3964736f6c63430008170033","linkReferences":{}},"methodIdentifiers":{"acquireIdentity(bytes32,address,uint64,bytes,bytes)":"8320790c","approverRoots(bytes32)":"1eb70eb2","policyHashes(bytes32)":"1ba93dd3","releaseIdentity(bytes32,address,bytes,bytes)":"f58ac325","setApproversRoot(bytes32,bytes32)":"dc56b965","setPolicyHash(bytes32,bytes32)":"af637399","supportsInterface(bytes4)":"01ffc9a7","upstream()":"6a99a523"},"id":4}