{
  "abi": [
    {
      "inputs": [
        {
          "internalType": "address",
          "name": "upstream",
          "type": "address"
        }
      ],
      "stateMutability": "nonpayable",
      "type": "constructor"
    },
    {
      "inputs": [
        {
          "internalType": "IdentityId",
          "name": "identity",
          "type": "bytes32"
        },
        {
          "internalType": "address",
          "name": "requester",
          "type": "address"
        },
        {
          "internalType": "uint64",
          "name": "duration",
          "type": "uint64"
        },
        {
          "internalType": "bytes",
          "name": "context",
          "type": "bytes"
        },
        {
          "internalType": "bytes",
          "name": "authorization",
          "type": "bytes"
        }
      ],
      "name": "acquireIdentity",
      "outputs": [
        {
          "internalType": "uint64",
          "name": "expiry",
          "type": "uint64"
        }
      ],
      "stateMutability": "nonpayable",
      "type": "function"
    },
    {
      "inputs": [
        {
          "internalType": "IdentityId",
          "name": "",
          "type": "bytes32"
        }
      ],
      "name": "approverRoots",
      "outputs": [
        {
          "internalType": "bytes32",
          "name": "",
          "type": "bytes32"
        }
      ],
      "stateMutability": "view",
      "type": "function"
    },
    {
      "inputs": [],
      "name": "eip712Domain",
      "outputs": [
        {
          "internalType": "bytes1",
          "name": "fields",
          "type": "bytes1"
        },
        {
          "internalType": "string",
          "name": "name",
          "type": "string"
        },
        {
          "internalType": "string",
          "name": "version",
          "type": "string"
        },
        {
          "internalType": "uint256",
          "name": "chainId",
          "type": "uint256"
        },
        {
          "internalType": "address",
          "name": "verifyingContract",
          "type": "address"
        },
        {
          "internalType": "bytes32",
          "name": "salt",
          "type": "bytes32"
        },
        {
          "internalType": "uint256[]",
          "name": "extensions",
          "type": "uint256[]"
        }
      ],
      "stateMutability": "view",
      "type": "function"
    },
    {
      "inputs": [
        {
          "internalType": "IdentityId",
          "name": "",
          "type": "bytes32"
        }
      ],
      "name": "policyHashes",
      "outputs": [
        {
          "internalType": "bytes32",
          "name": "",
          "type": "bytes32"
        }
      ],
      "stateMutability": "view",
      "type": "function"
    },
    {
      "inputs": [
        {
          "internalType": "IdentityId",
          "name": "identity",
          "type": "bytes32"
        },
        {
          "internalType": "address",
          "name": "requester",
          "type": "address"
        },
        {
          "internalType": "bytes",
          "name": "context",
          "type": "bytes"
        },
        {
          "internalType": "bytes",
          "name": "authorization",
          "type": "bytes"
        }
      ],
      "name": "releaseIdentity",
      "outputs": [],
      "stateMutability": "nonpayable",
      "type": "function"
    },
    {
      "inputs": [
        {
          "internalType": "IdentityId",
          "name": "identity",
          "type": "bytes32"
        },
        {
          "internalType": "bytes32",
          "name": "approversRoot",
          "type": "bytes32"
        }
      ],
      "name": "setApproversRoot",
      "outputs": [],
      "stateMutability": "nonpayable",
      "type": "function"
    },
    {
      "inputs": [
        {
          "internalType": "IdentityId",
          "name": "identity",
          "type": "bytes32"
        },
        {
          "internalType": "bytes32",
          "name": "policyHash",
          "type": "bytes32"
        }
      ],
      "name": "setPolicyHash",
      "outputs": [],
      "stateMutability": "nonpayable",
      "type": "function"
    },
    {
      "inputs": [
        {
          "internalType": "bytes4",
          "name": "interfaceId",
          "type": "bytes4"
        }
      ],
      "name": "supportsInterface",
      "outputs": [
        {
          "internalType": "bool",
          "name": "",
          "type": "bool"
        }
      ],
      "stateMutability": "view",
      "type": "function"
    },
    {
      "inputs": [],
      "name": "upstream",
      "outputs": [
        {
          "internalType": "address",
          "name": "",
          "type": "address"
        }
      ],
      "stateMutability": "view",
      "type": "function"
    },
    {
      "anonymous": false,
      "inputs": [],
      "name": "ApproverChange",
      "type": "event"
    },
    {
      "anonymous": false,
      "inputs": [],
      "name": "EIP712DomainChanged",
      "type": "event"
    },
    {
      "anonymous": false,
      "inputs": [],
      "name": "PolicyChange",
      "type": "event"
    },
    {
      "inputs": [],
      "name": "DurationTooLong",
      "type": "error"
    },
    {
      "inputs": [],
      "name": "ECDSAInvalidSignature",
      "type": "error"
    },
    {
      "inputs": [
        {
          "internalType": "uint256",
          "name": "length",
          "type": "uint256"
        }
      ],
      "name": "ECDSAInvalidSignatureLength",
      "type": "error"
    },
    {
      "inputs": [
        {
          "internalType": "bytes32",
          "name": "s",
          "type": "bytes32"
        }
      ],
      "name": "ECDSAInvalidSignatureS",
      "type": "error"
    },
    {
      "inputs": [],
      "name": "InterfaceUnsupported",
      "type": "error"
    },
    {
      "inputs": [],
      "name": "InvalidShortString",
      "type": "error"
    },
    {
      "inputs": [],
      "name": "MerkleProofInvalidMultiproof",
      "type": "error"
    },
    {
      "inputs": [
        {
          "internalType": "string",
          "name": "str",
          "type": "string"
        }
      ],
      "name": "StringTooLong",
      "type": "error"
    },
    {
      "inputs": [],
      "name": "Unauthorized",
      "type": "error"
    },
    {
      "inputs": [],
      "name": "Unsupported",
      "type": "error"
    }
  ],
  "bytecode": {
    "linkReferences": {},
    "object": "0x610180604052346200007b576200001f62000019620000d4565b62000151565b6040516120409081620007e4823960805181610d9d015260a05181611bd1015260c05181611c8c015260e05181611ba201526101005181611c2001526101205181611c46015261014051816105de015261016051816106080152f35b600080fd5b634e487b7160e01b600052604160045260246000fd5b604081019081106001600160401b03821117620000b257604052565b62000080565b606081019081106001600160401b03821117620000b257604052565b604051601f6200282438819003918201601f19168301916001600160401b03831184841017620000b2578084926020946040528339810103126200007b57516001600160a01b03811681036200007b5790565b60405190620001368262000096565b600d8252565b604051906200014b8262000096565b60018252565b6200015b62000127565b602081016c29b9b9b9a832b936b4ba3a32b960991b81526200017c6200013c565b916020830193603160f81b85526200019c6200019882620005d4565b1590565b6200023657620001ac81620006ae565b156200021b5760ff60015b620001c28162000248565b60609290921b6001600160601b031916911617608052620001e3816200035f565b61014052620001f2836200047b565b6101605251902061010052519020610120524660c0526200021262000567565b60a0523060e052565b620002268162000710565b15620002365760ff6002620001b7565b604051635dd52ad560e11b8152600490fd5b600311156200025357565b634e487b7160e01b600052602160045260246000fd5b90600182811c921680156200029b575b60208310146200028557565b634e487b7160e01b600052602260045260246000fd5b91607f169162000279565b601f8111620002b3575050565b600090600080526020600020906020601f850160051c83019410620002f5575b601f0160051c01915b828110620002e957505050565b818155600101620002dc565b9092508290620002d3565b90601f82116200030e575050565b60019160009060016000526020600020906020601f850160051c8301941062000354575b601f0160051c01915b828110620003495750505050565b81815583016200033b565b909250829062000332565b9081516020906020811060001462000382575050906200037f9062000766565b90565b6001600160401b038111620000b257600091620003ab82620003a5855462000269565b620002a6565b602090601f8311600114620003f457508190839495620003e19492620003e8575b50508160011b916000199060031b1c19161790565b905560ff90565b015190503880620003cc565b60008052601f198316957f290decd9548b62a8d60345a988386fc84ba6bc95484008f6362f93160ef3e563929185905b888210620004625750508360019596971062000448575b505050811b01905560ff90565b015160001960f88460031b161c191690553880806200043b565b8060018596829496860151815501950193019062000424565b908151602090602081106000146200049b575050906200037f9062000766565b6001600160401b038111620000b257600191620004c482620004be855462000269565b62000300565b602090601f8311600114620004fa57508190620003e1939495600092620003e85750508160011b916000199060031b1c19161790565b6001600052601f198316959091907fb10e2d527612073b26eecdfd717e6a320cf44b4afac2b0732d9fcbe2b7fa0cf6926000905b8882106200054f57505083859697106200044857505050811b01905560ff90565b8087859682949686015181550195019301906200052e565b61010051610120516040519060208201927f8b73c3c69bb8fe3d512ecc4cf759cc79239f7b179b0ffacaa9a75d522b39400f8452604083015260608201524660808201523060a082015260a0815260c0810181811060018060401b03821117620000b25760405251902090565b604051602090818101908260006301ffc9a760e01b92838552836024820152602481526200060281620000b8565b51617530948786fa933d6000519086620006a2575b508562000697575b50846200062e575b5050505090565b839450906000929160405185810192835263ffffffff60e01b6024820152602481526200065b81620000b8565b5192fa60005190913d836200068b575b50508162000680575b50153880808062000627565b905015153862000674565b1015915038806200066b565b15159450386200061f565b85111595503862000617565b6000602091604051838101906301ffc9a760e01b825263577e56b760e11b602482015260248152620006e081620000b8565b5191617530fa6000513d8262000703575b5081620006fc575090565b9050151590565b60201115915038620006f1565b6000602091604051838101906301ffc9a760e01b8252630e198f8560e11b602482015260248152620006e081620000b8565b60208151910151906020811062000757575090565b6000199060200360031b1b1690565b601f81511162000781576200077b8162000742565b90511790565b6040519063305a27a960e01b82528160208060048301528251908160248401526000935b828510620007c9575050604492506000838284010152601f80199101168101030190fd5b8481018201518686016044015293810193859350620007a556fe6080604052600436101561001257600080fd5b6000803560e01c90816301ffc9a7146100aa575080631ba93dd3146100a55780631eb70eb2146100a05780636a99a5231461009b5780638320790c1461009657806384b0196e14610091578063af6373991461008c578063dc56b965146100875763f58ac3251461008257600080fd5b6108bd565b6107e9565b6106da565b6105a5565b6102c7565b610210565b6101bb565b61016c565b346101695760207ffffffffffffffffffffffffffffffffffffffffffffffffffffffffffffffffc36011261016957600435907fffffffff00000000000000000000000000000000000000000000000000000000821680920361016957507f1c331f0a00000000000000000000000000000000000000000000000000000000811490811561013f575b50151560805260206080f35b7f01ffc9a70000000000000000000000000000000000000000000000000000000091501481610133565b80fd5b346101b65760207ffffffffffffffffffffffffffffffffffffffffffffffffffffffffffffffffc3601126101b65760043560005260026020526020604060002054604051908152f35b600080fd5b346101b65760207ffffffffffffffffffffffffffffffffffffffffffffffffffffffffffffffffc3601126101b65760043560005260036020526020604060002054604051908152f35b60009103126101b657565b346101b65760007ffffffffffffffffffffffffffffffffffffffffffffffffffffffffffffffffc3601126101b6576020610249610d9b565b905073ffffffffffffffffffffffffffffffffffffffff60405191168152f35b73ffffffffffffffffffffffffffffffffffffffff8116036101b657565b67ffffffffffffffff8116036101b657565b9181601f840112156101b65782359167ffffffffffffffff83116101b657602083818601950101116101b657565b346101b65760a07ffffffffffffffffffffffffffffffffffffffffffffffffffffffffffffffffc3601126101b657600480356024359161030783610269565b6044359261031484610287565b67ffffffffffffffff6064358181116101b6576103349036908501610299565b9590916084359081116101b65761034e9036908601610299565b9061035e82828a87878a8d61136c565b8297610368610d9b565b959061037381610acb565b600181036104615750505050505073ffffffffffffffffffffffffffffffffffffffff16803b156101b65784936000809461040e604051988996879586947f1c643570000000000000000000000000000000000000000000000000000000008652850191604091949373ffffffffffffffffffffffffffffffffffffffff67ffffffffffffffff926060860197865216602085015216910152565b03925af191821561045c5761043f92610443575b505b60405167ffffffffffffffff90911681529081906020820190565b0390f35b8061045061045692610b09565b80610205565b38610422565b610c9f565b60029192939495999697989a5061047781610acb565b0361051e5760009373ffffffffffffffffffffffffffffffffffffffff936020999a936104d2936040519c8d9b8c9a8b987f8320790c000000000000000000000000000000000000000000000000000000008a528901610c46565b0393165af1801561045c5761043f916000916104ef575b50610424565b610511915060203d602011610517575b6105098183610bae565b810190610bef565b386104e9565b503d6104ff565b886040517fbbaa55aa000000000000000000000000000000000000000000000000000000008152fd5b919082519283825260005b8481106105915750507fffffffffffffffffffffffffffffffffffffffffffffffffffffffffffffffe0601f8460006020809697860101520116010190565b602081830181015184830182015201610552565b346101b6576000807ffffffffffffffffffffffffffffffffffffffffffffffffffffffffffffffffc3601126101695761067d906106027f0000000000000000000000000000000000000000000000000000000000000000611703565b9061062c7f000000000000000000000000000000000000000000000000000000000000000061183e565b906040519161063a83610b3e565b81835261068b6020916040519687967f0f00000000000000000000000000000000000000000000000000000000000000885260e0602089015260e0880190610547565b908682036040880152610547565b904660608601523060808601528260a086015284820360c0860152602080855193848152019401925b8281106106c357505050500390f35b8351855286955093810193928101926001016106b4565b346101b6576040807ffffffffffffffffffffffffffffffffffffffffffffffffffffffffffffffffc3601126101b6576004359073ffffffffffffffffffffffffffffffffffffffff8061072c610dd1565b1682805180927fd86d31b7000000000000000000000000000000000000000000000000000000008252818061076989600483019190602083019252565b03915afa90811561045c576000916107bb575b501633036107925761079060243583610ce8565b005b600490517f82b42900000000000000000000000000000000000000000000000000000000008152fd5b6107db9150833d85116107e2575b6107d38183610bae565b810190610cc3565b503861077c565b503d6107c9565b346101b6576040807ffffffffffffffffffffffffffffffffffffffffffffffffffffffffffffffffc3601126101b6576004359073ffffffffffffffffffffffffffffffffffffffff8061083b610dd1565b1682805180927fd86d31b7000000000000000000000000000000000000000000000000000000008252818061087889600483019190602083019252565b03915afa90811561045c5760009161089f575b501633036107925761079060243583610d1d565b6108b69150833d85116107e2576107d38183610bae565b503861088b565b346101b65760807ffffffffffffffffffffffffffffffffffffffffffffffffffffffffffffffffc3601126101b65760048035906024356108fd81610269565b67ffffffffffffffff6044358181116101b65761091d9036908501610299565b916064359081116101b6576109359036908601610299565b909261094582858386898c6115ee565b61094d610d9b565b949061095881610acb565b600181036109fe57505050505073ffffffffffffffffffffffffffffffffffffffff16803b156101b6576109e19360008094604051968795869485937fe7213fc1000000000000000000000000000000000000000000000000000000008552840190929173ffffffffffffffffffffffffffffffffffffffff6020916040840195845216910152565b03925af1801561045c576109f157005b8061045061079092610b09565b80610a136002929a969a999497939599610acb565b03610a735773ffffffffffffffffffffffffffffffffffffffff1693843b156101b65760009687936109e1926040519a8b998a9889977ff58ac3250000000000000000000000000000000000000000000000000000000089528801610d52565b506040517fbbaa55aa000000000000000000000000000000000000000000000000000000008152fd5b7f4e487b7100000000000000000000000000000000000000000000000000000000600052602160045260246000fd5b60031115610ad557565b610a9c565b7f4e487b7100000000000000000000000000000000000000000000000000000000600052604160045260246000fd5b67ffffffffffffffff8111610b1d57604052565b610ada565b6080810190811067ffffffffffffffff821117610b1d57604052565b6020810190811067ffffffffffffffff821117610b1d57604052565b6040810190811067ffffffffffffffff821117610b1d57604052565b6060810190811067ffffffffffffffff821117610b1d57604052565b60c0810190811067ffffffffffffffff821117610b1d57604052565b90601f7fffffffffffffffffffffffffffffffffffffffffffffffffffffffffffffffe0910116810190811067ffffffffffffffff821117610b1d57604052565b908160209103126101b65751610c0481610287565b90565b601f82602094937fffffffffffffffffffffffffffffffffffffffffffffffffffffffffffffffe0938186528686013760008582860101520116010190565b959391610c919373ffffffffffffffffffffffffffffffffffffffff67ffffffffffffffff92610c049a98948a5216602089015216604087015260a0606087015260a0860191610c07565b926080818503910152610c07565b6040513d6000823e3d90fd5b67ffffffffffffffff8111610b1d5760051b60200190565b91908260409103126101b65760208251610cdc81610269565b920151610c0481610269565b60005260026020526040600020557fc17183be875ed6861417a565c0446678e56e6498026021e3bd62c74633da61f8600080a1565b60005260036020526040600020557fcdbd5ef3f55ae7ca4e567614a168c87b5e8dd2324a117476c922325e219b69d2600080a1565b9492909373ffffffffffffffffffffffffffffffffffffffff610d8d93610c0498968852166020870152608060408701526080860191610c07565b926060818503910152610c07565b7f00000000000000000000000000000000000000000000000000000000000000009060ff82166003811015610ad5579160601c90565b6001610ddb610d9b565b9190610de681610acb565b145b15610e065773ffffffffffffffffffffffffffffffffffffffff1690565b73ffffffffffffffffffffffffffffffffffffffff604051917f6a99a523000000000000000000000000000000000000000000000000000000008352826004816020948594165afa90811561045c57600091610e6e575b509050610e698161190c565b610de8565b82813d8311610e9c575b610e828183610bae565b81010312610169575051610e9581610269565b8038610e5d565b503d610e78565b81601f820112156101b65780359067ffffffffffffffff8211610b1d5760405192610ef660207fffffffffffffffffffffffffffffffffffffffffffffffffffffffffffffffe0601f8601160185610bae565b828452602083830101116101b657816000926020809301838601378301015290565b906020828203126101b657813567ffffffffffffffff928382116101b657016060818303126101b657604051926060840184811082821117610b1d5760405281358181116101b65783610f6c918401610ea3565b845260208201359081116101b657604092610f88918301610ea3565b60208401520135604082015290565b9080601f830112156101b6576020908235610fb181610cab565b93610fbf6040519586610bae565b81855260208086019260051b8201019283116101b657602001905b828210610fe8575050505090565b813580151581036101b6578152908301908301610fda565b9080601f830112156101b657813591602061101a84610cab565b9360409361102b6040519687610bae565b818652828087019260071b850101938185116101b6578301915b8483106110555750505050505090565b6080838303126101b65783608091875161106e81610b22565b853561107981610269565b81528286013583820152888601358982015260608087013590820152815201920191611045565b90916060828403126101b65767ffffffffffffffff9180358381116101b65781019380601f860112156101b65760209480356110db81610cab565b916110e96040519384610bae565b818352878084019260051b820101918483116101b65788809201905b83821061113e5750505050948201358481116101b65781611127918401610f97565b9360408301359081116101b657610c049201611000565b81358152908201908201611105565b67ffffffffffffffff6111df956101009793839b9a99966111d1966040610120967f206073d91fe7c25593c4c25ef77dda654c53c0990fb4bd75cea9c511902354ec815273ffffffffffffffffffffffffffffffffffffffff809516602082015201521660608c0152600160808c01521660a08a01528060c08a0152880190610547565b9086820360e0880152610547565b930152565b9695949193610100946111d1926111df95610120927f206073d91fe7c25593c4c25ef77dda654c53c0990fb4bd75cea9c511902354ec8c5273ffffffffffffffffffffffffffffffffffffffff80931660208d015260408c01521660608a0152600060808a0152600060a08a01528060c08a0152880190610547565b9061126a82610cab565b6112776040519182610bae565b8281527fffffffffffffffffffffffffffffffffffffffffffffffffffffffffffffffe06112a58294610cab565b0190602036910137565b7f4e487b7100000000000000000000000000000000000000000000000000000000600052603260045260246000fd5b8051156112eb5760200190565b6112af565b80518210156112eb5760209160051b010190565b906040519160208301526020825261131b82610b5a565b565b7f4e487b7100000000000000000000000000000000000000000000000000000000600052601160045260246000fd5b906001820180921161135a57565b61131d565b9190820180921161135a57565b95969491929093810161137e91610f18565b95810161138a916110a0565b92909486611396610dd1565b73ffffffffffffffffffffffffffffffffffffffff1695895196602097888c01516040809d0151918d519788958c8701976113d1968961114d565b03927fffffffffffffffffffffffffffffffffffffffffffffffffffffffffffffffe09384810182526114049082610bae565b51902061141090611a19565b90845161141c90611260565b936000976000985b87518a1015611581578973ffffffffffffffffffffffffffffffffffffffff6114b06114978f6114758d606061146b8861147c9561146282866112f0565b510151936112f0565b510151908c611a5a565b948d6112f0565b515173ffffffffffffffffffffffffffffffffffffffff1690565b73ffffffffffffffffffffffffffffffffffffffff1690565b9116036115585761155060019161152b8a8f6115238f8f90816114e3826114dd61147c611517958a6112f0565b976112f0565b5101519351938492830195866020909392919373ffffffffffffffffffffffffffffffffffffffff60408201951681520152565b038c8101835282610bae565b519020611304565b8b815191012061153b8d8b6112f0565b528a6115478d8c6112f0565b5101519061135f565b990198611424565b60048c517f82b42900000000000000000000000000000000000000000000000000000000008152fd5b93509550955097969295506127109150106115c557916115be93916115b36115ba946000526003602052604060002090565b5491611a9e565b1590565b6107925750565b600485517f82b42900000000000000000000000000000000000000000000000000000000008152fd5b949261160c9261160391959295810190610f18565b928101906110a0565b91909361161a611497610dd1565b9661167d855198886116436020988981015160409d8e8093015192519889958d870197886111e4565b03936116757fffffffffffffffffffffffffffffffffffffffffffffffffffffffffffffffe095868101835282610bae565b519020611a19565b906116888551611260565b936000976000985b87518a1015611581578973ffffffffffffffffffffffffffffffffffffffff6116ce6114978f6114758d606061146b8861147c9561146282866112f0565b911603611558576116fb60019161152b8a8f6115238f8f90816114e3826114dd61147c611517958a6112f0565b990198611690565b60ff811461171457610c0490611aae565b50604051600080549060018260011c9260018116918215611834575b602091602086108414611807578587528694936020860193929181156117c95750600114611768575b505050610c0492500382610bae565b925093611796600080527f290decd9548b62a8d60345a988386fc84ba6bc95484008f6362f93160ef3e56390565b946000935b8285106117b357505050610c04935001388080611759565b865485850152958601958795509381019361179b565b915050610c04959293507fffffffffffffffffffffffffffffffffffffffffffffffffffffffffffffff009150168252151560051b01388080611759565b6024857f4e487b710000000000000000000000000000000000000000000000000000000081526022600452fd5b93607f1693611730565b60ff811461184f57610c0490611aae565b506040516001805480821c91600091808216918215611902575b602091602086108414611807578587528694936020860193929181156117c957506001146118a057505050610c0492500382610bae565b9250936118cf60016000527fb10e2d527612073b26eecdfd717e6a320cf44b4afac2b0732d9fcbe2b7fa0cf690565b946000935b8285106118ec57505050610c04935001388080611759565b86548585015295860195879550938101936118d4565b93607f1693611869565b6040519060208083018160007f01ffc9a700000000000000000000000000000000000000000000000000000000958684528660248201526024815261195081610b76565b51617530938685fa933d6000519086611a0e575b5085611a04575b5084611988575b5050508161197e575090565b610c049150611afc565b8394509060009183946040518581019283527fffffffff000000000000000000000000000000000000000000000000000000006024820152602481526119cd81610b76565b5192fa60005190913d836119f9575b5050816119ef575b501590388080611972565b90501515386119e4565b1015915038806119dc565b151594503861196b565b841115955038611964565b604290611a24611b8b565b90604051917f19010000000000000000000000000000000000000000000000000000000000008352600283015260228201522090565b91611a9591610c049360ff601b7f7fffffffffffffffffffffffffffffffffffffffffffffffffffffffffffffff851694821c011690611f54565b90929192611cbc565b90611aaa929391611dc0565b1490565b60ff811690601f8211611ad25760405191611ac883610b5a565b8252602082015290565b60046040517fb3512b0c000000000000000000000000000000000000000000000000000000008152fd5b6000602091604051838101907f01ffc9a70000000000000000000000000000000000000000000000000000000082527faefcad6e00000000000000000000000000000000000000000000000000000000602482015260248152611b5e81610b76565b5191617530fa6000513d82611b7f575b5081611b78575090565b9050151590565b60201115915038611b6e565b73ffffffffffffffffffffffffffffffffffffffff7f000000000000000000000000000000000000000000000000000000000000000016301480611c89575b15611bf3577f000000000000000000000000000000000000000000000000000000000000000090565b60405160208101907f8b73c3c69bb8fe3d512ecc4cf759cc79239f7b179b0ffacaa9a75d522b39400f82527f000000000000000000000000000000000000000000000000000000000000000060408201527f000000000000000000000000000000000000000000000000000000000000000060608201524660808201523060a082015260a08152611c8381610b92565b51902090565b507f00000000000000000000000000000000000000000000000000000000000000004614611bca565b60041115610ad557565b611cc581611cb2565b80611cce575050565b611cd781611cb2565b60018103611d095760046040517ff645eedf000000000000000000000000000000000000000000000000000000008152fd5b611d1281611cb2565b60028103611d4c576040517ffce698f700000000000000000000000000000000000000000000000000000000815260048101839052602490fd5b80611d58600392611cb2565b14611d605750565b6040517fd78bce0c0000000000000000000000000000000000000000000000000000000081526004810191909152602490fd5b7fffffffffffffffffffffffffffffffffffffffffffffffffffffffffffffffff811461135a5760010190565b91805191835191815194611dd4848661135f565b611ddd8761134c565b03611e3f57611deb86611260565b94600093849081805b8a8210611e8b57505088159150611e6990505750505003611e3f577fffffffffffffffffffffffffffffffffffffffffffffffffffffffffffffffff611e3b9201906112f0565b5190565b60046040517f35140492000000000000000000000000000000000000000000000000000000008152fd5b9195509350159150611e8190505750611e3b906112de565b611e3b91506112de565b84841015611f3a57611ea6611e9f85611d93565b94886112f0565b51915b611ebc611eb682866112f0565b51151590565b15611f20578a86861015611eff5750611eed60019293611ee5611ede88611d93565b978b6112f0565b515b90611fe5565b611ef7828d6112f0565b520190611df4565b92611eed90611f1a84611f1460019691611d93565b966112f0565b51611ee7565b611eed60019293611ee5611f338c611d93565b9b8a6112f0565b611f4d611f4682611d93565b918b6112f0565b5191611ea9565b91907f7fffffffffffffffffffffffffffffff5d576e7357a4501ddfe92f46681b20a08411611fd957926020929160ff608095604051948552168484015260408301526060820152600092839182805260015afa1561045c57805173ffffffffffffffffffffffffffffffffffffffff811615611fd057918190565b50809160019190565b50505060009160039190565b81811015611ffb57600052602052604060002090565b9060005260205260406000209056fea264697066735822122014d1ec135c76bcfb689d23425ee9982f2d875d9b4ee98e573d201df20d7c157664736f6c63430008170033"
  },
  "id": 6,
  "methodIdentifiers": {
    "acquireIdentity(bytes32,address,uint64,bytes,bytes)": "8320790c",
    "approverRoots(bytes32)": "1eb70eb2",
    "eip712Domain()": "84b0196e",
    "policyHashes(bytes32)": "1ba93dd3",
    "releaseIdentity(bytes32,address,bytes,bytes)": "f58ac325",
    "setApproversRoot(bytes32,bytes32)": "dc56b965",
    "setPolicyHash(bytes32,bytes32)": "af637399",
    "supportsInterface(bytes4)": "01ffc9a7",
    "upstream()": "6a99a523"
  }
}