{"abi":[{"type":"function","name":"acceptRegistrationTransfer","inputs":[{"name":"id","type":"bytes32","internalType":"IdentityId"}],"outputs":[],"stateMutability":"nonpayable"},{"type":"function","name":"createIdentity","inputs":[{"name":"permitter","type":"address","internalType":"address"},{"name":"pers","type":"bytes","internalType":"bytes"}],"outputs":[{"name":"id","type":"bytes32","internalType":"IdentityId"}],"stateMutability":"nonpayable"},{"type":"function","name":"destroyIdentity","inputs":[{"name":"id","type":"bytes32","internalType":"IdentityId"}],"outputs":[],"stateMutability":"nonpayable"},{"type":"function","name":"getPermitter","inputs":[{"name":"id","type":"bytes32","internalType":"IdentityId"}],"outputs":[{"name":"","type":"address","internalType":"contract IPermitter"}],"stateMutability":"view"},{"type":"function","name":"getRegistrant","inputs":[{"name":"id","type":"bytes32","internalType":"IdentityId"}],"outputs":[{"name":"current","type":"address","internalType":"address"},{"name":"proposed","type":"address","internalType":"address"}],"stateMutability":"view"},{"type":"function","name":"grantIdentity","inputs":[{"name":"id","type":"bytes32","internalType":"IdentityId"},{"name":"to","type":"address","internalType":"address"},{"name":"expiry","type":"uint64","internalType":"uint64"}],"outputs":[],"stateMutability":"nonpayable"},{"type":"function","name":"proposeRegistrationTransfer","inputs":[{"name":"id","type":"bytes32","internalType":"IdentityId"},{"name":"to","type":"address","internalType":"address"}],"outputs":[],"stateMutability":"nonpayable"},{"type":"function","name":"readPermit","inputs":[{"name":"holder","type":"address","internalType":"address"},{"name":"id","type":"bytes32","internalType":"IdentityId"}],"outputs":[{"name":"","type":"tuple","internalType":"struct IIdentityRegistry.Permit","components":[{"name":"expiry","type":"uint64","internalType":"uint64"}]}],"stateMutability":"view"},{"type":"function","name":"revokeIdentity","inputs":[{"name":"id","type":"bytes32","internalType":"IdentityId"},{"name":"from","type":"address","internalType":"address"}],"outputs":[],"stateMutability":"nonpayable"},{"type":"function","name":"setPermitter","inputs":[{"name":"id","type":"bytes32","internalType":"IdentityId"},{"name":"permitter","type":"address","internalType":"address"}],"outputs":[],"stateMutability":"nonpayable"},{"type":"function","name":"supportsInterface","inputs":[{"name":"interfaceId","type":"bytes4","internalType":"bytes4"}],"outputs":[{"name":"","type":"bool","internalType":"bool"}],"stateMutability":"view"},{"type":"event","name":"IdentityCreated","inputs":[{"name":"id","type":"bytes32","indexed":false,"internalType":"IdentityId"}],"anonymous":false},{"type":"event","name":"IdentityDestroyed","inputs":[{"name":"id","type":"bytes32","indexed":true,"internalType":"IdentityId"}],"anonymous":false},{"type":"event","name":"IdentityGranted","inputs":[{"name":"id","type":"bytes32","indexed":true,"internalType":"IdentityId"},{"name":"to","type":"address","indexed":true,"internalType":"address"}],"anonymous":false},{"type":"event","name":"IdentityRevoked","inputs":[{"name":"id","type":"bytes32","indexed":true,"internalType":"IdentityId"},{"name":"from","type":"address","indexed":true,"internalType":"address"}],"anonymous":false},{"type":"event","name":"PermitterChanged","inputs":[{"name":"identityId","type":"bytes32","indexed":true,"internalType":"IdentityId"}],"anonymous":false},{"type":"event","name":"RegistrationTransferProposed","inputs":[{"name":"identityId","type":"bytes32","indexed":true,"internalType":"IdentityId"},{"name":"proposed","type":"address","indexed":true,"internalType":"address"}],"anonymous":false},{"type":"error","name":"InterfaceUnsupported","inputs":[]},{"type":"error","name":"Unauthorized","inputs":[]}],"bytecode":{"object":"0x60806040523461001f57610011610024565b6123e361003082396123e390f35b61002a565b60405190565b600080fdfe60806040526004361015610013575b610676565b61001e6000356100cd565b806301ffc9a7146100c85780631c643570146100c357806355e5bea4146100be57806373397a57146100b9578063996d2ff3146100b4578063b8272883146100af578063b9e47a1c146100aa578063cf087a44146100a5578063d86d31b7146100a0578063e7213fc11461009b5763fcae55b30361000e57610640565b610548565b610512565b6104ae565b610479565b6103e9565b610351565b6102fe565b6102ca565b610268565b61015f565b60e01c90565b60405190565b600080fd5b600080fd5b600080fd5b63ffffffff60e01b1690565b6100fd816100e8565b0361010457565b600080fd5b90503590610116826100f4565b565b906020828203126101325761012f91600001610109565b90565b6100de565b151590565b61014590610137565b9052565b919061015d9060006020850194019061013c565b565b3461018f5761018b61017a610175366004610118565b610680565b6101826100d3565b91829182610149565b0390f35b6100d9565b90565b6101a081610194565b036101a757565b600080fd5b905035906101b982610197565b565b60018060a01b031690565b6101cf906101bb565b90565b6101db816101c6565b036101e257565b600080fd5b905035906101f4826101d2565b565b67ffffffffffffffff1690565b61020c816101f6565b0361021357565b600080fd5b9050359061022582610203565b565b909160608284031261025d5761025a61024384600085016101ac565b9361025181602086016101e7565b93604001610218565b90565b6100de565b60000190565b346102975761028161027b366004610227565b91610989565b6102896100d3565b8061029381610262565b0390f35b6100d9565b91906040838203126102c557806102b96102c292600086016101ac565b936020016101e7565b90565b6100de565b346102f9576102e36102dd36600461029c565b90610af1565b6102eb6100d3565b806102f581610262565b0390f35b6100d9565b3461032d5761031761031136600461029c565b90610bf4565b61031f6100d3565b8061032981610262565b0390f35b6100d9565b9060208282031261034c57610349916000016101ac565b90565b6100de565b3461037f57610369610364366004610332565b610e3e565b6103716100d3565b8061037b81610262565b0390f35b6100d9565b91906040838203126103ad57806103a16103aa92600086016101e7565b936020016101ac565b90565b6100de565b6103bb906101f6565b9052565b906000806103d19301519101906103b2565b565b91906103e7906000602085019401906103bf565b565b3461041a576104166104056103ff366004610384565b90610edd565b61040d6100d3565b918291826103d3565b0390f35b6100d9565b90565b61043661043161043b926101bb565b61041f565b6101bb565b90565b61044790610422565b90565b6104539061043e565b90565b61045f9061044a565b9052565b919061047790600060208501940190610456565b565b346104a9576104a561049461048f366004610332565b610f05565b61049c6100d3565b91829182610463565b0390f35b6100d9565b346104dc576104c66104c1366004610332565b610f88565b6104ce6100d3565b806104d881610262565b0390f35b6100d9565b6104ea906101c6565b9052565b916020610510929493610509604082019660008301906104e1565b01906104e1565b565b346105435761052a610525366004610332565b611004565b9061053f6105366100d3565b928392836104ee565b0390f35b6100d9565b346105775761056161055b36600461029c565b9061112f565b6105696100d3565b8061057381610262565b0390f35b6100d9565b600080fd5b600080fd5b600080fd5b909182601f830112156105c55781359167ffffffffffffffff83116105c05760200192600183028401116105bb57565b610586565b610581565b61057c565b91909160408184031261060c576105e483600083016101e7565b92602082013567ffffffffffffffff811161060757610603920161058b565b9091565b6100e3565b6100de565b61061a90610194565b90565b61062690610611565b9052565b919061063e9060006020850194019061061d565b565b346106715761066d61065c6106563660046105ca565b91611333565b6106646100d3565b9182918261062a565b0390f35b6100d9565b600080fd5b600090565b61068861067b565b50806106a361069d63577e56b760e11b6100e8565b916100e8565b149081156106b0575b5090565b6106ba915061141d565b386106ac565b906106ca90610611565b600052602052604060002090565b60001c90565b60018060a01b031690565b6106f56106fa916106d8565b6106de565b90565b61070790546106e9565b90565b91908261073a61073461072f61072a610725339560026106c0565b6106fd565b61044a565b6101c6565b916101c6565b0361074a57610748926108e8565b565b6107526100d3565b6282b42960e81b81528061076860048201610262565b0390fd5b601f801991011690565b634e487b7160e01b600052604160045260246000fd5b906107969061076c565b810190811067ffffffffffffffff8211176107b057604052565b610776565b906107c86107c16100d3565b928361078c565b565b6107d460206107b5565b90565b906107e1906101f6565b9052565b6107ee9061043e565b90565b906107fb906107e5565b600052602052604060002090565b9061081390610611565b600052602052604060002090565b634e487b7160e01b600052600060045260246000fd5b61084190516101f6565b90565b60001b90565b9061085d67ffffffffffffffff91610844565b9181191691161790565b61087b610876610880926101f6565b61041f565b6101f6565b90565b90565b9061089b6108966108a292610867565b610883565b825461084a565b9055565b906108b96000806108bf94019201610837565b90610886565b565b906108cb916108a6565b565b906108d790610611565b600052602052604060002090565b90565b909161091e906109036108f96107ca565b91600083016107d7565b610919610912600486906107f1565b8490610809565b6108c1565b61093c610935610930600384906108cd565b6108e5565b839061148a565b509061097161096b7f707a71466f8fe74cb261d93da582c7362f36602b8e7fb69278cba729731ca8a793610611565b916107e5565b9161097a6100d3565b8061098481610262565b0390a3565b90610994929161070a565b565b906109a090610611565b600052602052604060002090565b60081c90565b60018060a01b031690565b6109cb6109d0916109ae565b6109b4565b90565b6109dd90546109bf565b90565b9081610a09610a036109fe60006109f8339582610996565b016109d3565b6101c6565b916101c6565b03610a1957610a1791610a91565b565b610a216100d3565b6282b42960e81b815280610a3760048201610262565b0390fd5b90610a4c60018060a01b0391610844565b9181191691161790565b610a5f90610422565b90565b610a6b90610a56565b90565b90565b90610a86610a81610a8d92610a62565b610a6e565b8254610a3b565b9055565b90610a9e610aaf916114d1565b610aaa600284906106c0565b610a71565b610ad97f98ce2a0fb159fd14bd4249db7db60d87ac3094d8501e48e8596794586862a76b91610611565b90610ae26100d3565b80610aec81610262565b0390a2565b90610afb916109e0565b565b9081610b26610b20610b1b6000610b15339582610996565b016109d3565b6101c6565b916101c6565b03610b3657610b3491610b93565b565b610b3e6100d3565b6282b42960e81b815280610b5460048201610262565b0390fd5b90610b6290610611565b600052602052604060002090565b90565b90610b88610b83610b8f926107e5565b610b70565b8254610a3b565b9055565b610ba882610ba360018490610b58565b610b73565b90610bdc610bd67f6ff54b8f4b75a53f0bee6cd45a4286754e65532d132b8396373125310575361893610611565b916107e5565b91610be56100d3565b80610bef81610262565b0390a3565b90610bfe91610afd565b565b80610c28610c22610c1d6000610c17339582610996565b016109d3565b6101c6565b916101c6565b03610c3857610c3690610d35565b565b610c406100d3565b6282b42960e81b815280610c5660048201610262565b0390fd5b1b90565b91906008610c7e910291610c7860018060a01b0384610c5a565b92610c5a565b9181191691161790565b9190610c9e610c99610ca6936107e5565b610b70565b908354610c5e565b9055565b600090565b610cc191610cbb610caa565b91610c88565b565b9190610cd9610cd4610ce193610a62565b610a6e565b908354610c5e565b9055565b600090565b610cfc91610cf6610ce5565b91610cc3565b565b600090565b90565b6001610d129101610d03565b90565b600080910155565b90600003610d3057610d2e90610d15565b565b610821565b610d4d60016000610d47818590610996565b01610caf565b610d636000610d5e60018490610b58565b610caf565b610d796000610d74600284906106c0565b610cea565b610d8d610d88600383906108cd565b6108e5565b610d95610cfe565b5b80610db1610dab610da685611528565b610d03565b91610d03565b1015610dfa57610df590610def610dc9848390611594565b610de96000610de4610ddd600485906107f1565b8990610809565b610d1d565b846115cd565b50610d06565b610d96565b5050610e267f68629dbb3b5cc9a43165fe5529cb7c3e1f382394b6521d78050971f82b9169b091610611565b90610e2f6100d3565b80610e3981610262565b0390a2565b610e4790610c00565b565b610e5360206107b5565b90565b600090565b610e63610e49565b90602082610e6f610e56565b81525050565b610e7d610e5b565b90565b67ffffffffffffffff1690565b610e99610e9e916106d8565b610e80565b90565b610eab9054610e8d565b90565b90610ecf610ec66000610ebf610e49565b9401610ea1565b600084016107d7565b565b610eda90610eae565b90565b610f0291610ef8610efd92610ef0610e75565b5060046107f1565b610809565b610ed1565b90565b610f1c610f2191610f14610ce5565b5060026106c0565b6106fd565b90565b610f30610f35916106d8565b6109b4565b90565b610f429054610f24565b90565b60081b90565b90610f5e610100600160a81b0391610f45565b9181191691161790565b90610f7d610f78610f84926107e5565b610b70565b8254610f4b565b9055565b610f9c610f9760018390610b58565b610f38565b9033610fb0610faa846101c6565b916101c6565b03610fe257610fdb600091610fd4610fe09484610fce818590610996565b01610f68565b6001610b58565b610caf565b565b610fea6100d3565b6282b42960e81b81528061100060048201610262565b0390fd5b9061100d610caa565b50611016610caa565b5061104061103b611033600061102d818790610996565b016109d3565b936001610b58565b610f38565b90565b908161107261106c61106761106261105d339560026106c0565b6106fd565b61044a565b6101c6565b916101c6565b0361108257611080916110a4565b565b61108a6100d3565b6282b42960e81b8152806110a060048201610262565b0390fd5b6110c460006110bf6110b8600486906107f1565b8490610809565b610d1d565b6110e26110db6110d6600384906108cd565b6108e5565b83906115cd565b50906111176111117f688fc27246238b68e81030e72fb8fcaff541e636719f51fba1f8bf1243d3504093610611565b916107e5565b916111206100d3565b8061112a81610262565b0390a3565b9061113991611043565b565b600090565b90565b61115761115261115c92611140565b61041f565b610d03565b90565b5190565b60200190565b6111739051610194565b90565b61119061118b6111858361115f565b92611163565b611169565b906020811061119e575b5090565b6111b19060001990602003600802610c5a565b163861119a565b60ff1690565b6111ca6111cf916106d8565b6111b8565b90565b6111dc90546111be565b90565b60209181520190565b60007f756e6c75636b7900000000000000000000000000000000000000000000000000910152565b61121d60076020926111df565b611226816111e8565b0190565b6112409060208101906000818303910152611210565b90565b1561124a57565b6112526100d3565b62461bcd60e51b8152806112686004820161122a565b0390fd5b61127660406107b5565b90565b9061128390610137565b9052565b90611291906101c6565b9052565b61129f9051610137565b90565b906112ae60ff91610844565b9181191691161790565b6112c190610137565b90565b90565b906112dc6112d76112e3926112b8565b6112c4565b82546112a2565b9055565b6112f190516101c6565b90565b9061131f6020600061132594611317828201611311848801611295565b906112c7565b0192016112e7565b90610f68565b565b90611331916112f4565b565b929161136b6113666113616113e1946113d09461134e61113b565b5061135c6020929192611143565b6119e2565b611176565b610611565b9361139361138e6113886000611382818a90610996565b016111d2565b15610137565b611243565b6113cb60016113ba336113b16113a761126c565b9360008501611279565b60208301611287565b6113c660008890610996565b611327565b6114d1565b6113dc600285906106c0565b610a71565b816114187fc194b2b7f255fb13fcd58d7b529f8f5a81a5791a9fb88b7de25cb5b365dae3f39161140f6100d3565b9182918261062a565b0390a1565b61142561067b565b5061143f6114396301ffc9a760e01b6100e8565b916100e8565b1490565b61144c90610422565b90565b61146361145e611468926101bb565b61041f565b610d03565b90565b61147f61147a61148492610d03565b610844565b610194565b90565b90565b906114bd6114b76114b26114ad60006114c2966114a561067b565b500194611443565b61144f565b61146b565b91611487565b611d5d565b90565b6114ce90610a56565b90565b6114d9610ce5565b506114f56114ef82630e198f8560e11b90611dc4565b15610137565b61150557611502906114c5565b90565b61150d6100d3565b635dd52ad560e11b81528061152460048201610262565b0390fd5b611540600061154592611539610cfe565b5001611487565b611df4565b90565b61155c61155761156192610d03565b61041f565b610d03565b90565b611570611575916106d8565b611548565b90565b61158c61158761159192610d03565b61041f565b6101bb565b90565b6115c06115bb6115ca936115b660006115c5956115af610caa565b5001611487565b611e6e565b611564565b611578565b61043e565b90565b906116006115fa6115f56115f06000611605966115e861067b565b500194611443565b61144f565b61146b565b91611487565b611f68565b90565b606090565b90565b61162461161f6116299261160d565b61041f565b610d03565b90565b90565b61164361163e6116489261162c565b61041f565b610d03565b90565b90565b61166261165d6116679261164b565b61041f565b610d03565b90565b600080fd5b67ffffffffffffffff811161168d5761168960209161076c565b0190565b610776565b90826000939282370152565b909291926116b36116ae8261166f565b6107b5565b938185526020850190828401116116cf576116cd92611692565b565b61166a565b6116df91369161169e565b90565b90565b6116f96116f46116fe926116e2565b61041f565b610d03565b90565b90565b61171861171361171d92611701565b61041f565b610d03565b90565b90565b61173761173261173c92611720565b61041f565b610d03565b90565b634e487b7160e01b600052601160045260246000fd5b61176461176a91939293610d03565b92610d03565b820180921161177557565b61173f565b90565b60ff1690565b61179761179261179c9261177a565b61041f565b61177d565b90565b1c90565b6117c2906117bc6117b66117c79461177d565b91610d03565b9061179f565b610d03565b90565b6117e9906117e36117dd6117ee9461177d565b91610d03565b90610c5a565b610d03565b90565b906118036117fe8361166f565b6107b5565b918252565b369037565b9061183261181a836117f1565b92602080611828869361166f565b9201910390611808565b565b60601b90565b61184390611834565b90565b61184f9061183a565b90565b61185e611863916101c6565b611846565b9052565b90565b61187661187b91610194565b611867565b9052565b90565b61188e61189391610d03565b61187f565b9052565b6118a0906101bb565b90565b6118ac9061183a565b90565b6118bb6118c091611897565b6118a3565b9052565b905090565b9091826118d9816118e0936118c4565b8093611692565b0190565b602061193f9997956119288261193897611920826014996119188b839f9b9a611910816119309d611852565b01809261186a565b018092611882565b018092611882565b0180926118af565b018092611882565b01916118c9565b90565b916119616014846119596119689896602096611852565b018092611882565b01916118c9565b90565b90565b61198261197d6119879261196b565b61041f565b610d03565b90565b906119959103610d03565b90565b90565b6119af6119aa6119b492611998565b61041f565b610d03565b90565b602093926119d685836119ce82956119de9761186a565b018092611882565b01809261186a565b0190565b90916119ec611608565b5046611a026119fc615aff611610565b91610d03565b148015611c11575b8015611bf5575b611bdf5746611a2a611a246105396116e5565b91610d03565b148015611bc3575b93611a5a611a4a84611a44601f611723565b90611755565b611a546005611783565b906117a3565b93611a77611a7286611a6c6005611783565b906117ca565b61180d565b9286600014611b8557611aae90611a9f33918794611a936100d3565b95869460208601611942565b6020820181038252038261078c565b5b611ac1611abb8261115f565b91611163565b2092611acd600061196e565b5b80611ae1611adb88610d03565b91610d03565b1015611b7957611af18715610137565b611b0f575b8085611b0a92602002602001860152610d06565b611ace565b93611b0a90611b5e8691611b4f611b3a611b2a438b9061198a565b611b34600161199b565b9061198a565b40611b436100d3565b948593602085016119b7565b6020820181038252038261078c565b611b70611b6a8261115f565b91611163565b20949050611af6565b50925093509150815290565b90611bbe90611baf339143409442914441908b929394611ba36100d3565b998a9860208a016118e4565b6020820181038252038261078c565b611aaf565b5046611bd9611bd3617a69611704565b91610d03565b14611a32565b611bec90611bf2936116d4565b906121be565b90565b5046611c0b611c05615afd61164e565b91610d03565b14611a11565b5046611c27611c21615afe61162f565b91610d03565b14611a0a565b90565b600052602060002090565b634e487b7160e01b600052603260045260246000fd5b5490565b611c5e81611c51565b821015611c7957611c70600191611c30565b91020190600090565b611c3b565b91906008611c9a910291611c9460001984610c5a565b92610c5a565b9181191691161790565b611cad906106d8565b90565b9190611cc6611cc1611cce93610611565b611ca4565b908354611c7e565b9055565b9081549168010000000000000000831015611d025782611cfa916001611d0095018155611c55565b90611cb0565b565b610776565b5490565b90611d1590610611565b600052602052604060002090565b90611d3060001991610844565b9181191691161790565b90565b90611d52611d4d611d5992611548565b611d3a565b8254611d23565b9055565b611d6561067b565b50611d7a611d7482849061221c565b15610137565b600014611dbd57611db3611db892611d9e611d9760008501611c2d565b8290611cd2565b6001611dac60008501611d07565b9301611d0b565b611d3d565b600190565b5050600090565b90611dcd61067b565b50611dd782612287565b9182611de3575b505090565b611ded92506122f3565b3880611dde565b6000611e0991611e02610cfe565b5001611d07565b90565b600090565b600052602060002090565b611e2581611d07565b821015611e4057611e37600191611e11565b91020190600090565b611c3b565b90565b611e58906008611e5d930261179f565b611e45565b90565b90611e6b9154611e48565b90565b611e8d916000611e8792611e80611e0c565b5001611e1c565b90611e60565b90565b90565b611e9f611ea4916106d8565b611e90565b90565b611eb19054611e93565b90565b611ec3611ec991939293610d03565b92610d03565b8203918211611ed457565b61173f565b634e487b7160e01b600052603160045260246000fd5b611f0191611efb611e0c565b91611cb0565b565b611f0c81611c51565b8015611f2d576001900390611f2a611f248383611c55565b90611eef565b55565b611ed9565b9190611f48611f43611f5093611548565b611d3a565b908354611c7e565b9055565b611f6691611f60610cfe565b91611f32565b565b611f7061067b565b50611f87611f82600183018490611d0b565b611ea7565b9081611f9c611f96600061196e565b91610d03565b141560001461206a5761201c9260016120179284611fc5600096611fbf8561199b565b90611eb4565b611fe2611fd3888501611d07565b611fdc8661199b565b90611eb4565b81611ff5611fef83610d03565b91610d03565b03612021575b50505061201161200c868301611c2d565b611f03565b01611d0b565b611f54565b600190565b6120629261205461204061203a61205d948c8901611e1c565b90611e60565b9361204e85918c8901611e1c565b90611cb0565b91858501611d0b565b611d3d565b388080611ffb565b505050600090565b60018060981b0190565b61208590610d03565b9052565b60209181520190565b60005b8381106120a6575050906000910152565b806020918301518185015201612095565b6120d66120df6020936120e4936120cd8161115f565b93848093612089565b95869101612092565b61076c565b0190565b9161210c926120ff6040820193600083019061207c565b60208184039101526120b7565b90565b3d60001461212c576121203d6117f1565b903d6000602084013e5b565b612134611608565b9061212a565b60007f72616e646f6d42797465733a206661696c656400000000000000000000000000910152565b61216f60136020926111df565b6121788161213a565b0190565b6121929060208101906000818303910152612162565b90565b1561219c57565b6121a46100d3565b62461bcd60e51b8152806121ba6004820161217c565b0390fd5b6000919082916121cc611608565b506121ff6121d8612072565b926121f06121e46100d3565b938492602084016120e8565b6020820181038252038261078c565b602081019051915afa61221961221361210f565b91612195565b90565b61223a9160016122359261222e61067b565b5001611d0b565b611ea7565b61224d612247600061196e565b91610d03565b141590565b90565b60e01b90565b61226f61226a61227492612252565b612255565b6100e8565b90565b61228463ffffffff61225b565b90565b61228f61067b565b506122a2816301ffc9a760e01b906122f3565b90816122ad575b5090565b6122ca91506122c4906122be612277565b906122f3565b15610137565b386122a9565b6122d9906100e8565b9052565b91906122f1906000602085019401906122d0565b565b60009061232861233660209461230761067b565b506123106100d3565b92839160048884016301ffc9a760e01b8152016122dd565b86820181038252038261078c565b9061233f61067b565b50612348610cfe565b50612351610cfe565b50838251920190617530fa3d600051919081612390575b509081612374575b5090565b9050612389612383600061196e565b91610d03565b1138612370565b90506123a561239f6020611143565b91610d03565b10153861236856fea2646970667358221220054e225cc3e04d7e6c505df908d4240b13eac09dde8eee9420247a46a85f2a0564736f6c63430008170033","linkReferences":{}},"methodIdentifiers":{"acceptRegistrationTransfer(bytes32)":"cf087a44","createIdentity(address,bytes)":"fcae55b3","destroyIdentity(bytes32)":"996d2ff3","getPermitter(bytes32)":"b9e47a1c","getRegistrant(bytes32)":"d86d31b7","grantIdentity(bytes32,address,uint64)":"1c643570","proposeRegistrationTransfer(bytes32,address)":"73397a57","readPermit(address,bytes32)":"b8272883","revokeIdentity(bytes32,address)":"e7213fc1","setPermitter(bytes32,address)":"55e5bea4","supportsInterface(bytes4)":"01ffc9a7"},"id":2}