{
  "abi": [
    {
      "inputs": [
        {
          "internalType": "IdentityId",
          "name": "id",
          "type": "bytes32"
        }
      ],
      "name": "acceptRegistrationTransfer",
      "outputs": [],
      "stateMutability": "nonpayable",
      "type": "function"
    },
    {
      "inputs": [
        {
          "internalType": "address",
          "name": "permitter",
          "type": "address"
        },
        {
          "internalType": "bytes",
          "name": "pers",
          "type": "bytes"
        }
      ],
      "name": "createIdentity",
      "outputs": [
        {
          "internalType": "IdentityId",
          "name": "id",
          "type": "bytes32"
        }
      ],
      "stateMutability": "nonpayable",
      "type": "function"
    },
    {
      "inputs": [
        {
          "internalType": "IdentityId",
          "name": "id",
          "type": "bytes32"
        }
      ],
      "name": "destroyIdentity",
      "outputs": [],
      "stateMutability": "nonpayable",
      "type": "function"
    },
    {
      "inputs": [
        {
          "internalType": "IdentityId",
          "name": "id",
          "type": "bytes32"
        }
      ],
      "name": "getPermitter",
      "outputs": [
        {
          "internalType": "contract IPermitter",
          "name": "",
          "type": "address"
        }
      ],
      "stateMutability": "view",
      "type": "function"
    },
    {
      "inputs": [
        {
          "internalType": "IdentityId",
          "name": "id",
          "type": "bytes32"
        }
      ],
      "name": "getRegistrant",
      "outputs": [
        {
          "internalType": "address",
          "name": "current",
          "type": "address"
        },
        {
          "internalType": "address",
          "name": "proposed",
          "type": "address"
        }
      ],
      "stateMutability": "view",
      "type": "function"
    },
    {
      "inputs": [
        {
          "internalType": "IdentityId",
          "name": "id",
          "type": "bytes32"
        },
        {
          "internalType": "address",
          "name": "to",
          "type": "address"
        },
        {
          "internalType": "uint64",
          "name": "expiry",
          "type": "uint64"
        }
      ],
      "name": "grantIdentity",
      "outputs": [],
      "stateMutability": "nonpayable",
      "type": "function"
    },
    {
      "inputs": [
        {
          "internalType": "IdentityId",
          "name": "id",
          "type": "bytes32"
        },
        {
          "internalType": "address",
          "name": "to",
          "type": "address"
        }
      ],
      "name": "proposeRegistrationTransfer",
      "outputs": [],
      "stateMutability": "nonpayable",
      "type": "function"
    },
    {
      "inputs": [
        {
          "internalType": "address",
          "name": "holder",
          "type": "address"
        },
        {
          "internalType": "IdentityId",
          "name": "id",
          "type": "bytes32"
        }
      ],
      "name": "readPermit",
      "outputs": [
        {
          "components": [
            {
              "internalType": "uint64",
              "name": "expiry",
              "type": "uint64"
            }
          ],
          "internalType": "struct IIdentityRegistry.Permit",
          "name": "",
          "type": "tuple"
        }
      ],
      "stateMutability": "view",
      "type": "function"
    },
    {
      "inputs": [
        {
          "internalType": "IdentityId",
          "name": "id",
          "type": "bytes32"
        },
        {
          "internalType": "address",
          "name": "from",
          "type": "address"
        }
      ],
      "name": "revokeIdentity",
      "outputs": [],
      "stateMutability": "nonpayable",
      "type": "function"
    },
    {
      "inputs": [
        {
          "internalType": "IdentityId",
          "name": "id",
          "type": "bytes32"
        },
        {
          "internalType": "address",
          "name": "permitter",
          "type": "address"
        }
      ],
      "name": "setPermitter",
      "outputs": [],
      "stateMutability": "nonpayable",
      "type": "function"
    },
    {
      "inputs": [
        {
          "internalType": "bytes4",
          "name": "interfaceId",
          "type": "bytes4"
        }
      ],
      "name": "supportsInterface",
      "outputs": [
        {
          "internalType": "bool",
          "name": "",
          "type": "bool"
        }
      ],
      "stateMutability": "view",
      "type": "function"
    },
    {
      "anonymous": false,
      "inputs": [
        {
          "indexed": false,
          "internalType": "IdentityId",
          "name": "id",
          "type": "bytes32"
        }
      ],
      "name": "IdentityCreated",
      "type": "event"
    },
    {
      "anonymous": false,
      "inputs": [
        {
          "indexed": true,
          "internalType": "IdentityId",
          "name": "id",
          "type": "bytes32"
        }
      ],
      "name": "IdentityDestroyed",
      "type": "event"
    },
    {
      "anonymous": false,
      "inputs": [
        {
          "indexed": true,
          "internalType": "IdentityId",
          "name": "id",
          "type": "bytes32"
        },
        {
          "indexed": true,
          "internalType": "address",
          "name": "to",
          "type": "address"
        }
      ],
      "name": "IdentityGranted",
      "type": "event"
    },
    {
      "anonymous": false,
      "inputs": [
        {
          "indexed": true,
          "internalType": "IdentityId",
          "name": "id",
          "type": "bytes32"
        },
        {
          "indexed": true,
          "internalType": "address",
          "name": "from",
          "type": "address"
        }
      ],
      "name": "IdentityRevoked",
      "type": "event"
    },
    {
      "anonymous": false,
      "inputs": [
        {
          "indexed": true,
          "internalType": "IdentityId",
          "name": "identityId",
          "type": "bytes32"
        }
      ],
      "name": "PermitterChanged",
      "type": "event"
    },
    {
      "anonymous": false,
      "inputs": [
        {
          "indexed": true,
          "internalType": "IdentityId",
          "name": "identityId",
          "type": "bytes32"
        },
        {
          "indexed": true,
          "internalType": "address",
          "name": "proposed",
          "type": "address"
        }
      ],
      "name": "RegistrationTransferProposed",
      "type": "event"
    },
    {
      "inputs": [],
      "name": "InterfaceUnsupported",
      "type": "error"
    },
    {
      "inputs": [],
      "name": "Unauthorized",
      "type": "error"
    }
  ],
  "bytecode": {
    "linkReferences": {},
    "object": "0x60808060405234610016576112e3908161001c8239f35b600080fdfe6080604052600436101561001257600080fd5b60003560e01c806301ffc9a7146100c75780631c643570146100c257806355e5bea4146100bd57806373397a57146100b8578063996d2ff3146100b3578063b8272883146100ae578063b9e47a1c146100a9578063cf087a44146100a4578063d86d31b71461009f578063e7213fc11461009a5763fcae55b31461009557600080fd5b6108ed565b610843565b6107d0565b6106eb565b61068b565b610633565b6104ba565b6103dc565b6102f4565b6101d1565b346101865760207ffffffffffffffffffffffffffffffffffffffffffffffffffffffffffffffffc360112610186576004357fffffffff00000000000000000000000000000000000000000000000000000000811680910361018657807faefcad6e000000000000000000000000000000000000000000000000000000006020921490811561015c575b506040519015158152f35b7f01ffc9a70000000000000000000000000000000000000000000000000000000091501438610151565b600080fd5b6024359073ffffffffffffffffffffffffffffffffffffffff8216820361018657565b6004359073ffffffffffffffffffffffffffffffffffffffff8216820361018657565b346101865760607ffffffffffffffffffffffffffffffffffffffffffffffffffffffffffffffffc3601126101865760043561020b61018b565b906044359067ffffffffffffffff9182811680910361018657600093828552600260205273ffffffffffffffffffffffffffffffffffffffff908160408720541633036102ca576040519261025f846109ae565b83521692838552600360205260408520838652602052604085209151167fffffffffffffffffffffffffffffffffffffffffffffffff00000000000000008254161790557f707a71466f8fe74cb261d93da582c7362f36602b8e7fb69278cba729731ca8a78380a380f35b60046040517f82b42900000000000000000000000000000000000000000000000000000000008152fd5b346101865760407ffffffffffffffffffffffffffffffffffffffffffffffffffffffffffffffffc3601126101865760043561032e61018b565b906000918183528260205273ffffffffffffffffffffffffffffffffffffffff604084205460081c1633036102ca576103696103b591610ce2565b8284526002602052604084209073ffffffffffffffffffffffffffffffffffffffff167fffffffffffffffffffffffff0000000000000000000000000000000000000000825416179055565b7f98ce2a0fb159fd14bd4249db7db60d87ac3094d8501e48e8596794586862a76b8280a280f35b346101865760407ffffffffffffffffffffffffffffffffffffffffffffffffffffffffffffffffc3601126101865760043561041661018b565b906000918183528260205273ffffffffffffffffffffffffffffffffffffffff9081604085205460081c1633036102ca5782845260016020526040842080547fffffffffffffffffffffffff00000000000000000000000000000000000000001673ffffffffffffffffffffffffffffffffffffffff831617905516907f6ff54b8f4b75a53f0bee6cd45a4286754e65532d132b839637312531057536188380a380f35b34610186576020807ffffffffffffffffffffffffffffffffffffffffffffffffffffffffffffffffc3601126101865760043560009181835282815260409073ffffffffffffffffffffffffffffffffffffffff8285205460081c16330361060a576004908385528481526105538386207fffffffffffffffffffffff0000000000000000000000000000000000000000ff8154169055565b600181526105858386207fffffffffffffffffffffffff00000000000000000000000000000000000000008154169055565b600281526105b78386207fffffffffffffffffffffffff00000000000000000000000000000000000000008154169055565b52822060017fffffffffffffffffffffffffffffffffffffffffffffffffffffffffffffff008254161790557f68629dbb3b5cc9a43165fe5529cb7c3e1f382394b6521d78050971f82b9169b08280a280f35b600482517f82b42900000000000000000000000000000000000000000000000000000000008152fd5b346101865760407ffffffffffffffffffffffffffffffffffffffffffffffffffffffffffffffffc36011261018657602061067861066f6101ae565b60243590610a4c565b67ffffffffffffffff6040519151168152f35b346101865760207ffffffffffffffffffffffffffffffffffffffffffffffffffffffffffffffffc360112610186576004356000526002602052602073ffffffffffffffffffffffffffffffffffffffff60406000205416604051908152f35b346101865760207ffffffffffffffffffffffffffffffffffffffffffffffffffffffffffffffffc36011261018657600435600090808252600160205273ffffffffffffffffffffffffffffffffffffffff6040832054168033036102ca5761079e9183528260205260408320907fffffffffffffffffffffff0000000000000000000000000000000000000000ff74ffffffffffffffffffffffffffffffffffffffff0083549260081b169116179055565b6001602052604081207fffffffffffffffffffffffff0000000000000000000000000000000000000000815416905580f35b346101865760207ffffffffffffffffffffffffffffffffffffffffffffffffffffffffffffffffc360112610186576004356000526000602052604073ffffffffffffffffffffffffffffffffffffffff80826000205460081c1690600160205282600020541682519182526020820152f35b346101865760407ffffffffffffffffffffffffffffffffffffffffffffffffffffffffffffffffc3601126101865760043561087d61018b565b90600091818352600260205273ffffffffffffffffffffffffffffffffffffffff908160408520541633036102ca5716908183526003602052604083208184526020528260408120557f688fc27246238b68e81030e72fb8fcaff541e636719f51fba1f8bf1243d350408380a380f35b346101865760407ffffffffffffffffffffffffffffffffffffffffffffffffffffffffffffffffc360112610186576109246101ae565b60243567ffffffffffffffff80821161018657366023830112156101865781600401359081116101865736602482840101116101865761097b92602461096b930190610b61565b6040519081529081906020820190565b0390f35b7f4e487b7100000000000000000000000000000000000000000000000000000000600052604160045260246000fd5b6020810190811067ffffffffffffffff8211176109ca57604052565b61097f565b6060810190811067ffffffffffffffff8211176109ca57604052565b90601f7fffffffffffffffffffffffffffffffffffffffffffffffffffffffffffffffe0910116810190811067ffffffffffffffff8211176109ca57604052565b604051906040820182811067ffffffffffffffff8211176109ca57604052565b604091825191610a5b836109ae565b6000809352818352600460205260ff8484205416610aba5791839173ffffffffffffffffffffffffffffffffffffffff67ffffffffffffffff94168252600360205282822090825260205220915191610ab3836109ae565b5416815290565b5050905190610ac8826109ae565b815290565b73ffffffffffffffffffffffffffffffffffffffff6020610b5f938051151560ff7fffffffffffffffffffffffffffffffffffffffffffffffffffffffffffffff0086541691161784550151167fffffffffffffffffffffff0000000000000000000000000000000000000000ff74ffffffffffffffffffffffffffffffffffffffff0083549260081b169116179055565b565b9291610b6c91610f73565b91825160208094015190848110610cb3575b50908193826000526000815260ff60406000205416610c55579161096b610bfc610c5093610bf77fc194b2b7f255fb13fcd58d7b529f8f5a81a5791a9fb88b7de25cb5b365dae3f396610bde610bd2610a2c565b60018152913390830152565b610bf2866000526000602052604060002090565b610acd565b610ce2565b610c10836000526002602052604060002090565b9073ffffffffffffffffffffffffffffffffffffffff167fffffffffffffffffffffffff0000000000000000000000000000000000000000825416179055565b0390a1565b606490604051907f08c379a00000000000000000000000000000000000000000000000000000000082526004820152600760248201527f756e6c75636b79000000000000000000000000000000000000000000000000006044820152fd5b7fffffffffffffffffffffffffffffffffffffffffffffffffffffffffffffffff90850360031b1b1638610b7e565b60405160208082018160007f01ffc9a7000000000000000000000000000000000000000000000000000000009485845285602482015260248152610d25816109cf565b51617530938785fa923d6000519085610e2b575b5084610e21575b5083610da7575b50505080610d98575b15610d6e5773ffffffffffffffffffffffffffffffffffffffff1690565b60046040517fbbaa55aa000000000000000000000000000000000000000000000000000000008152fd5b50610da28161121e565b610d50565b82935090600091856040518581019283527fffffffff00000000000000000000000000000000000000000000000000000000602482015260248152610deb816109cf565b5192fa60005190913d83610e16575b505081610e0c575b5015388080610d47565b9050151538610e02565b101591503880610dfa565b1515935038610d40565b841115945038610d39565b67ffffffffffffffff81116109ca57601f017fffffffffffffffffffffffffffffffffffffffffffffffffffffffffffffffe01660200190565b929192610e7c82610e36565b91610e8a60405193846109eb565b829481845281830111610186578281602093846000960137010152565b604051906040820182811067ffffffffffffffff8211176109ca5760405260208083523683820137565b9490919387969360a898957fffffffffffffffffffffffffffffffffffffffff000000000000000000000000809560601b16885260148801526034870152605486015260601b166074840152602060888401528483013701016000815290565b909280927fffffffffffffffffffffffffffffffffffffffff00000000000000000000000060349560601b168352602060148401528483013701016000815290565b90615aff461480156110cd575b80156110c2575b6110ab57610539461490811561109f575b610fa0610ea7565b92821561107e57610fea90610fbe6040519384923360208501610f31565b037fffffffffffffffffffffffffffffffffffffffffffffffffffffffffffffffe081018352826109eb565b80516020809201209060005b6001811061100957505050506020815290565b8315611023575b80838360019360051b8801015201610ff6565b9160019060405161107381610fbe86820194887fffffffffffffffffffffffffffffffffffffffffffffffffffffffffffffffff8143030140918791606093918352602083015260408201520190565b519020929050611010565b61109a90610fbe60405193849241444243403360208901610ed1565b610fea565b46617a69149150610f98565b6110bf916110ba913691610e70565b61116d565b90565b50615afd4614610f87565b50615afe4614610f80565b3d15611103573d906110e982610e36565b916110f760405193846109eb565b82523d6000602084013e565b606090565b1561110f57565b60646040517f08c379a000000000000000000000000000000000000000000000000000000000815260206004820152601360248201527f72616e646f6d42797465733a206661696c6564000000000000000000000000006044820152fd5b60405160209160208201926020845260408084015281519182606085015260005b83811061120a5750505091816111e06080827fffffffffffffffffffffffffffffffffffffffffffffffffffffffffffffffe0601f88600085819b829b010152011681010360608101845201826109eb565b51907301000000000000000000000000000000000000015afa6110bf6112046110d8565b91611108565b81810183015185820160800152820161118e565b6000602091604051838101907f01ffc9a70000000000000000000000000000000000000000000000000000000082527f1c331f0a00000000000000000000000000000000000000000000000000000000602482015260248152611280816109cf565b5191617530fa6000513d826112a1575b508161129a575090565b9050151590565b6020111591503861129056fea2646970667358221220555515c4c5a51f490737f03aec18655c4437f14fbc7f5228a118394d1ce295e264736f6c63430008170033"
  },
  "id": 2,
  "methodIdentifiers": {
    "acceptRegistrationTransfer(bytes32)": "cf087a44",
    "createIdentity(address,bytes)": "fcae55b3",
    "destroyIdentity(bytes32)": "996d2ff3",
    "getPermitter(bytes32)": "b9e47a1c",
    "getRegistrant(bytes32)": "d86d31b7",
    "grantIdentity(bytes32,address,uint64)": "1c643570",
    "proposeRegistrationTransfer(bytes32,address)": "73397a57",
    "readPermit(address,bytes32)": "b8272883",
    "revokeIdentity(bytes32,address)": "e7213fc1",
    "setPermitter(bytes32,address)": "55e5bea4",
    "supportsInterface(bytes4)": "01ffc9a7"
  }
}