{"abi":[{"type":"constructor","inputs":[{"name":"upstream","type":"address","internalType":"address"}],"stateMutability":"nonpayable"},{"type":"function","name":"acquireIdentity","inputs":[{"name":"identity","type":"bytes32","internalType":"IdentityId"},{"name":"requester","type":"address","internalType":"address"},{"name":"duration","type":"uint64","internalType":"uint64"},{"name":"context","type":"bytes","internalType":"bytes"},{"name":"authorization","type":"bytes","internalType":"bytes"}],"outputs":[{"name":"expiry","type":"uint64","internalType":"uint64"}],"stateMutability":"nonpayable"},{"type":"function","name":"burnt","inputs":[{"name":"","type":"bytes32","internalType":"bytes32"}],"outputs":[{"name":"","type":"bytes32","internalType":"IdentityId"}],"stateMutability":"view"},{"type":"function","name":"pcrs","inputs":[{"name":"","type":"bytes32","internalType":"IdentityId"}],"outputs":[{"name":"mask","type":"uint16","internalType":"uint16"},{"name":"hash","type":"bytes32","internalType":"bytes32"}],"stateMutability":"view"},{"type":"function","name":"releaseIdentity","inputs":[{"name":"identity","type":"bytes32","internalType":"IdentityId"},{"name":"requester","type":"address","internalType":"address"},{"name":"context","type":"bytes","internalType":"bytes"},{"name":"authorization","type":"bytes","internalType":"bytes"}],"outputs":[],"stateMutability":"nonpayable"},{"type":"function","name":"setPCRs","inputs":[{"name":"identity","type":"bytes32","internalType":"IdentityId"},{"name":"pcrSel","type":"tuple","internalType":"struct NE.PcrSelector","components":[{"name":"mask","type":"uint16","internalType":"uint16"},{"name":"hash","type":"bytes32","internalType":"bytes32"}]}],"outputs":[],"stateMutability":"nonpayable"},{"type":"function","name":"supportsInterface","inputs":[{"name":"interfaceId","type":"bytes4","internalType":"bytes4"}],"outputs":[{"name":"","type":"bool","internalType":"bool"}],"stateMutability":"view"},{"type":"function","name":"upstream","inputs":[],"outputs":[{"name":"","type":"address","internalType":"address"}],"stateMutability":"view"},{"type":"error","name":"BindingMismatch","inputs":[]},{"type":"error","name":"CertExpired","inputs":[]},{"type":"error","name":"CertNotActive","inputs":[]},{"type":"error","name":"ContractExpired","inputs":[]},{"type":"error","name":"DocAlreadyUsed","inputs":[]},{"type":"error","name":"DurationTooLong","inputs":[]},{"type":"error","name":"InterfaceUnsupported","inputs":[]},{"type":"error","name":"InvalidSignature","inputs":[]},{"type":"error","name":"Unauthorized","inputs":[]}],"bytecode":{"object":"0x60a06040523462000040576200001e620000186200011f565b62000145565b6200002862000046565b616c246200059f82396080518161105f0152616c2490f35b6200004c565b60405190565b600080fd5b601f801991011690565b634e487b7160e01b600052604160045260246000fd5b906200007d9062000051565b810190811060018060401b038211176200009657604052565b6200005b565b90620000b3620000ab62000046565b928362000071565b565b600080fd5b60018060a01b031690565b620000d090620000ba565b90565b620000de81620000c5565b03620000e657565b600080fd5b90505190620000fa82620000d3565b565b9060208282031262000119576200011691600001620000eb565b90565b620000b5565b62000142620071c38038038062000136816200009c565b928339810190620000fc565b90565b620001509062000152565b565b6200015d906200029b565b565b151590565b60000190565b600090565b60018060601b03191690565b60601b90565b6200019a62000194620001a092620000ba565b6200017b565b6200016f565b90565b620001ae9062000181565b90565b620001bc906200016f565b90565b60001c90565b90565b90565b620001e4620001de620001ea92620001c5565b620001c8565b620001c5565b90565b620001fc6200020291620001bf565b620001cb565b90565b634e487b7160e01b600052602160045260246000fd5b600311156200022657565b62000205565b9062000238826200021b565b565b62000245906200022c565b90565b60ff1690565b62000267620002616200026d9262000248565b620001c8565b620001c5565b90565b90565b60001b90565b620002926200028c6200029892620001c5565b62000273565b62000270565b90565b620002b1620002aa82620003ff565b156200015f565b6200038a57620002c06200016a565b50620002d58163577e56b760e11b90620004ca565b6000146200032557620003209062000319620003136200030c62000306620003006001955b620001a3565b620001b1565b620001ed565b926200023a565b6200024e565b1762000279565b608052565b6200033981630e198f8560e11b90620004ca565b6000146200036357620003209062000319620003136200030c6200030662000300600295620002fa565b6200036d62000046565b635dd52ad560e11b815280620003866004820162000164565b0390fd5b6200039462000046565b635dd52ad560e11b815280620003ad6004820162000164565b0390fd5b600090565b90565b63ffffffff60e01b1690565b60e01b90565b620003e4620003de620003ea92620003b6565b620003c5565b620003b9565b90565b620003fc63ffffffff620003cb565b90565b62000409620003b1565b506200041e816301ffc9a760e01b90620004ca565b90816200042a575b5090565b6200044d915062000446906200043f620003ed565b90620004ca565b156200015f565b3862000426565b6200045f90620003b9565b9052565b9190620004799060006020850194019062000454565b565b600090565b90565b6200049c62000496620004a29262000480565b620001c8565b620001c5565b90565b90565b620004c1620004bb620004c792620004a5565b620001c8565b620001c5565b90565b6000906200050662000515602094620004e2620003b1565b50620004ed62000046565b92839160048884016301ffc9a760e01b81520162000463565b86820181038252038262000071565b9062000520620003b1565b506200052b6200047b565b50620005366200047b565b50838251920190617530fa3d6000519190816200057c575b5090816200055b575b5090565b9050620005746200056d6000620004a8565b91620001c5565b113862000557565b9050620005956200058e602062000483565b91620001c5565b1015386200054e56fe60806040526004361015610013575b6106ed565b61001e60003561008d565b806301ffc9a71461008857806332d230b81461008357806351febe451461007e5780636a99a523146100795780638320790c14610074578063e9c393c71461006f5763f58ac3250361000e576106b3565b610603565b61057b565b6103f6565b610376565b610228565b61011f565b60e01c90565b60405190565b600080fd5b600080fd5b600080fd5b63ffffffff60e01b1690565b6100bd816100a8565b036100c457565b600080fd5b905035906100d6826100b4565b565b906020828203126100f2576100ef916000016100c9565b90565b61009e565b151590565b610105906100f7565b9052565b919061011d906000602085019401906100fc565b565b3461014f5761014b61013a6101353660046100d8565b6106f7565b610142610093565b91829182610109565b0390f35b610099565b90565b61016081610154565b0361016757565b600080fd5b9050359061017982610157565b565b90602082820312610195576101929160000161016c565b90565b61009e565b6101a390610154565b90565b906101b09061019a565b600052602052604060002090565b1c90565b90565b6101d59060086101da93026101be565b6101c2565b90565b906101e891546101c5565b90565b610202906101fd6000916000926101a6565b6101dd565b90565b61020e9061019a565b9052565b919061022690600060208501940190610205565b565b346102585761025461024361023e36600461017b565b6101eb565b61024b610093565b91829182610212565b0390f35b610099565b61026681610154565b0361026d57565b600080fd5b9050359061027f8261025d565b565b9060208282031261029b5761029891600001610272565b90565b61009e565b906102aa9061019a565b600052602052604060002090565b60001c90565b61ffff1690565b6102d16102d6916102b8565b6102be565b90565b6102e390546102c5565b90565b90565b6102f56102fa916102b8565b6102e6565b90565b61030790546102e9565b90565b6103159060016102a0565b9061032e6001610327600085016102d9565b93016102fd565b90565b61ffff1690565b61034190610331565b9052565b61034e90610154565b9052565b91602061037492949361036d60408201966000830190610338565b0190610345565b565b346103a75761038e610389366004610281565b61030a565b906103a361039a610093565b92839283610352565b0390f35b610099565b60009103126103b757565b61009e565b60018060a01b031690565b6103d0906103bc565b90565b6103dc906103c7565b9052565b91906103f4906000602085019401906103d3565b565b34610426576104063660046103ac565b61042261041161073c565b610419610093565b918291826103e0565b0390f35b610099565b610434816103c7565b0361043b57565b600080fd5b9050359061044d8261042b565b565b67ffffffffffffffff1690565b6104658161044f565b0361046c57565b600080fd5b9050359061047e8261045c565b565b600080fd5b600080fd5b600080fd5b909182601f830112156104c95781359167ffffffffffffffff83116104c45760200192600183028401116104bf57565b61048a565b610485565b610480565b909160a082840312610553576104e78360008401610272565b926104f58160208501610440565b926105038260408301610471565b92606082013567ffffffffffffffff811161054e578361052491840161048f565b929093608082013567ffffffffffffffff811161054957610545920161048f565b9091565b6100a3565b6100a3565b61009e565b6105619061044f565b9052565b919061057990600060208501940190610558565b565b346105b2576105ae61059d6105913660046104ce565b95949094939193610960565b6105a5610093565b91829182610565565b0390f35b610099565b600080fd5b908160409103126105ca5790565b6105b7565b91906060838203126105f857806105ec6105f59260008601610272565b936020016105bc565b90565b61009e565b60000190565b346106325761061c6106163660046105cf565b90610c75565b610624610093565b8061062e816105fd565b0390f35b610099565b91906080838203126106ae576106508160008501610272565b9261065e8260208301610440565b92604082013567ffffffffffffffff81116106a9578361067f91840161048f565b929093606082013567ffffffffffffffff81116106a4576106a0920161048f565b9091565b6100a3565b6100a3565b61009e565b346106e8576106d26106c6366004610637565b94939093929192610db7565b6106da610093565b806106e4816105fd565b0390f35b610099565b600080fd5b600090565b6106ff6106f2565b508061071a610714630e198f8560e11b6100a8565b916100a8565b14908115610727575b5090565b6107319150610f6e565b38610723565b600090565b610744610737565b5061074d61104b565b905090565b600090565b634e487b7160e01b600052602160045260246000fd5b6003111561077757565b610757565b906107868261076d565b565b90565b61079f61079a6107a4926103bc565b610788565b6103bc565b90565b6107b09061078b565b90565b6107bc906107a7565b90565b6107c89061078b565b90565b6107d4906107bf565b90565b600080fd5b601f801991011690565b634e487b7160e01b600052604160045260246000fd5b90610806906107dc565b810190811067ffffffffffffffff82111761082057604052565b6107e6565b60e01b90565b905051906108388261045c565b565b90602082820312610854576108519160000161082b565b90565b61009e565b60209181520190565b90826000939282370152565b9190610888816108818161088d95610859565b8095610862565b6107dc565b0190565b95936108ca6108d7946108c06108e59a9894956108b660a08c019760008d0190610205565b60208b01906103d3565b6040890190610558565b868303606088015261086e565b92608081850391015261086e565b90565b6108f0610093565b3d6000823e3d90fd5b6109029061078b565b90565b61090e906108f9565b90565b61091a906107bf565b90565b600091031261092857565b61009e565b60409061095761095e949695939661094d60608401986000850190610205565b60208301906103d3565b0190610558565b565b9396959694929094610970610752565b5061098485898886869086928a9495611123565b9761098d61104b565b9590806109a361099d600161077c565b9161077c565b14600014610a48575050505050506109bd6109c291610905565b610911565b91631c6435709190928592813b15610a435760006109f3916109fe82966109e7610093565b98899788968795610825565b85526004850161092d565b03925af18015610a3e57610a11575b505b565b610a319060003d8111610a37575b610a2981836107fc565b81019061091d565b38610a0d565b503d610a1f565b6108e8565b6107d7565b9093979692959194989950610a66610a60600261077c565b9161077c565b14600014610b0657602096610aae94600094610a8c610a87610ab9956107b3565b6107cb565b97638320790c95999b9390919293610aa2610093565b9c8d9b8c9a8b99610825565b895260048901610891565b03925af1908115610b0157600091610ad3575b5090610a0f565b610af4915060203d8111610afa575b610aec81836107fc565b81019061083a565b38610acc565b503d610ae2565b6108e8565b610b0e610093565b635dd52ad560e11b815280610b25600482016105fd565b0390fd5b90505190610b368261042b565b565b9190604083820312610b615780610b55610b5e9260008601610b29565b93602001610b29565b90565b61009e565b610b6f81610331565b03610b7657565b600080fd5b35610b8581610b66565b90565b60001b90565b90610b9b61ffff91610b88565b9181191691161790565b610bb9610bb4610bbe92610331565b610788565b610331565b90565b90565b90610bd9610bd4610be092610ba5565b610bc1565b8254610b8e565b9055565b35610bee81610157565b90565b90610bfe60001991610b88565b9181191691161790565b610c11906102b8565b90565b90610c29610c24610c309261019a565b610c08565b8254610bf1565b9055565b90610c6160206001610c6794610c5960008201610c5360008801610b7b565b90610bc4565b019201610be4565b90610c14565b565b90610c7391610c34565b565b610cb46040610c8a610c856111d8565b610911565b63d86d31b790610ca98592610c9d610093565b95869485938493610825565b835260048301610212565b03915afa908115610d4557600091610d18575b50610cdb610cd533926103c7565b916103c7565b03610cf657610cef610cf4929160016102a0565b610c69565b565b610cfe610093565b6282b42960e81b815280610d14600482016105fd565b0390fd5b610d39915060403d8111610d3e575b610d3181836107fc565b810190610b38565b610cc7565b503d610d27565b6108e8565b949293610d909694610d75610d8294610d6b60808a019560008b0190610205565b60208901906103d3565b868303604088015261086e565b92606081850391015261086e565b90565b916020610db5929493610dae60408201966000830190610205565b01906103d3565b565b93929094610dcc8587858590889286946112bb565b610dd461104b565b949080610dea610de4600161077c565b9161077c565b14600014610e8b575050505050610e03610e0891610905565b610911565b9163e7213fc1919092803b15610e8657610e3660008094610e41610e2a610093565b97889687958694610825565b845260048401610d93565b03925af18015610e8157610e54575b505b565b610e749060003d8111610e7a575b610e6c81836107fc565b81019061091d565b38610e50565b503d610e62565b6108e8565b6107d7565b9694909192959396610ea6610ea0600261077c565b9161077c565b14600014610f4b57610eba610ebf916107b3565b6107cb565b9263f58ac32590949695919295843b15610f4657600096610ef4948894610eff93610ee8610093565b9b8c9a8b998a98610825565b885260048801610d4a565b03925af18015610f4157610f14575b50610e52565b610f349060003d8111610f3a575b610f2c81836107fc565b81019061091d565b38610f0e565b503d610f22565b6108e8565b6107d7565b610f53610093565b635dd52ad560e11b815280610f6a600482016105fd565b0390fd5b610f766106f2565b50610f90610f8a6301ffc9a760e01b6100a8565b916100a8565b1490565b600090565b6bffffffffffffffffffffffff191690565b610fb490610f99565b90565b60601c90565b610fc9610fce91610fb7565b61078b565b90565b610fda90610fbd565b90565b90565b610ff4610fef610ff992610fdd565b610788565b610fdd565b90565b61100861100d916102b8565b610fe0565b90565b90565b61102761102261102c92611010565b610788565b610fdd565b90565b61104361103e61104892610fdd565b610788565b61077c565b90565b611053610f94565b5061105c610737565b507f0000000000000000000000000000000000000000000000000000000000000000906110ac61109c61109661109185610fab565b610fd1565b93610ffc565b6110a660ff611013565b1661102f565b9190565b6110c46110bf6110c99261044f565b610788565b610fdd565b90565b634e487b7160e01b600052601160045260246000fd5b6110f16110f791939293610fdd565b92610fdd565b820180921161110257565b6110cc565b61111b61111661112092610fdd565b610788565b61044f565b90565b929091939495611131610752565b506111408484849089926112f7565b61115a61115461114f886110b0565b610fdd565b91610fdd565b106111915761118e966111899661117995949390919293600095611427565b61118342916110b0565b906110e2565b611107565b90565b611199610093565b634a94fa8360e11b8152806111b0600482016105fd565b0390fd5b600090565b906020828203126111d3576111d091600001610b29565b90565b61009e565b6111e06111b4565b506112096111ec61104b565b91906112016111fb600161077c565b9161077c565b145b156100f7565b156112af57602061122461121f61123a936107b3565b6107cb565b636a99a52390611232610093565b938492610825565b8252818061124a600482016105fd565b03915afa9081156112aa5760009161127c575b50906112096112748363577e56b760e11b9061157c565b929192611203565b61129d915060203d81116112a3575b61129581836107fc565b8101906111b9565b3861125d565b503d61128b565b6108e8565b6112b890610905565b90565b926112d195929394919390919293600195611427565b565b600090565b90565b6112ef6112ea6112f4926112d8565b610788565b610fdd565b90565b9290926113026112d3565b509291505050506113146107086112db565b90565b61132661132c91939293610fdd565b92610fdd565b820391821161133757565b6110cc565b6113469051610154565b90565b61135561135a916102b8565b6101c2565b90565b6113679054611349565b90565b90565b61138161137c6113869261136a565b610b88565b610154565b90565b61139290610fdd565b9052565b61139f90610911565b9052565b909594926113ef946113de6113e8926113d46080966113ca60a088019c6000890190611389565b6020870190611396565b6040850190610205565b60608301906103d3565b01906100fc565b565b60200190565b5190565b611404906102b8565b90565b9061141c6114176114239261019a565b6113fb565b8254610bf1565b9055565b959390949161145c9361144461144a9242928a918a9091926112f7565b90611317565b90916114558761166c565b9192611cc3565b9161148461147f61147a60006114746020880161133c565b906101a6565b61135d565b61019a565b611497611491600061136d565b91610154565b0361155a576114de906114cf46916114ad6111d8565b946114ba889291156100f7565b916114c3610093565b968795602087016113a3565b602082018103825203826107fc565b6114f06114ea826113f7565b916113f1565b2061150f6115096115036000850161133c565b92610154565b91610154565b0361153757611530611535929161152a60206000920161133c565b906101a6565b611407565b565b61153f610093565b63438c487360e01b815280611556600482016105fd565b0390fd5b611562610093565b6274cc0360e61b815280611578600482016105fd565b0390fd5b906115856106f2565b5061158f82612069565b918261159b575b505090565b6115a592506120f4565b3880611596565b906115bf6115b8610093565b92836107fc565b565b6115cb60406115ac565b90565b600090565b600090565b6115e06115c1565b90602080836115ed6115ce565b8152016115f86115d3565b81525050565b6116066115d8565b90565b9061161390610331565b9052565b9061162190610154565b9052565b9061165e61165560016116366115c1565b9461164f611646600083016102d9565b60008801611609565b016102fd565b60208401611617565b565b61166990611625565b90565b6116836116889161167b6115fe565b5060016102a0565b611660565b90565b61169560406115ac565b90565b6116a061168b565b90602080836116ad6115d3565b8152016116b86115d3565b81525050565b6116c6611698565b90565b90565b6116e06116db6116e5926116c9565b610788565b610fdd565b90565b6116f56396258ff56116cc565b90565b600190565b61171161170c6117169261136a565b610788565b610fdd565b90565b90565b61173061172b61173592611719565b610788565b610fdd565b90565b600080fd5b600080fd5b9093929384831161176257841161175d576001820201920390565b61173d565b611738565b5090565b67ffffffffffffffff60c01b1690565b1b90565b9061178d6117949183611767565b913561176b565b90600881106117a2575b5090565b6117be9067ffffffffffffffff60c01b9060080360080261177b565b163861179e565b90565b60c01b90565b6117e26117dd6117e7926117c5565b6117c8565b61176b565b90565b60209181520190565b60007f696e76616c696420646f63000000000000000000000000000000000000000000910152565b611828600b6020926117ea565b611831816117f3565b0190565b61184b906020810190600081830391015261181b565b90565b1561185557565b61185d610093565b62461bcd60e51b81528061187360048201611835565b0390fd5b90565b61188e61188961189392611877565b610788565b610fdd565b90565b61ffff60f01b1690565b906118ae6118b59183611767565b9135611896565b90600281106118c3575b5090565b6118d99061ffff60f01b9060020360080261177b565b16386118bf565b60f01c90565b6118f26118f7916118e0565b610ba5565b90565b61190e61190961191392610331565b610788565b610fdd565b90565b91565b90565b61193061192b61193592611919565b610788565b610fdd565b90565b90565b60f01b90565b61195561195061195a92611938565b61193b565b611896565b90565b1561196457565b600080fd5b3690600090565b90565b61198761198261198c92611970565b610788565b610fdd565b90565b90565b6cffffffffffffffffffffffffff191690565b60681b90565b6119bf6119ba6119c49261198f565b6119a5565b611992565b90565b6119db6119d66119e092610fdd565b610788565b610331565b90565b6119f76119f26119fc92610331565b61193b565b611896565b90565b90565b611a0e611a1391611992565b6119ff565b9052565b90565b611a26611a2b91611896565b611a17565b9052565b905090565b909182611a4481611a4b93611a2f565b8093610862565b0190565b91611a6e601384611a66611a759896600296611a02565b018092611a1a565b0191611a34565b90565b611a97611aa3939594611a89610093565b968794602086019485611a4f565b908103825203836107fc565b565b634e487b7160e01b600052603260045260246000fd5b9190811015611acb576001020190565b611aa5565b60ff60f81b1690565b60f81c90565b60ff1690565b611af9611af4611afe92611adf565b610788565b611adf565b90565b611b0d611b1291611ad9565b611ae5565b90565b90565b611b2c611b27611b3192611b15565b610788565b611adf565b90565b611b48611b43611b4d92611b15565b610788565b610fdd565b90565b60f81b90565b611b6a611b65611b6f92611b15565b611b50565b611ad0565b90565b611b86611b81611b8b92610fdd565b610788565b611adf565b90565b611ba2611b9d611ba792611adf565b611b50565b611ad0565b90565b90565b611bb9611bbe91611ad0565b611baa565b9052565b60005b838110611bd6575050906000910152565b806020918301518185015201611bc5565b611c0c611c0392602092611bfa816113f7565b94858093611a2f565b93849101611bc2565b0190565b611c48936001611c549a989694611c3b8285611c33611c4297611c4e9d99611bad565b018092611bad565b0190611be7565b91611a34565b90611be7565b91611a34565b90565b600080fd5b67ffffffffffffffff8111611c7a57611c766020916107dc565b0190565b6107e6565b90929192611c94611c8f82611c5c565b6115ac565b93818552602085019082840111611cb057611cae92610862565b565b611c57565b611cc0913691611c7f565b90565b909392611cce6116be565b5042611ce9611ce3611cde6116e8565b610fdd565b91610fdd565b101561201757611f5d8286611f53611e23611de0611dda611db6611f629a611d0f6116f8565b611fbc575b611d9f611d52611d4d611d48611d428c8c600890611d3c611d36600a9361171c565b9261187a565b92611742565b906118a0565b6118e6565b6118fa565b611d7d611d77611d6c611d65600a61187a565b93846110e2565b928c908c8592611742565b90611916565b9a9099611d886116f8565b611f64575b5050611d99600261191c565b906110e2565b99611da8611969565b905050879189909192612565565b9d919d9990999d999a91611dd482611dce6060611973565b906110e2565b92611742565b90611916565b939094611dff72846a5369676e61747572653144a101382240596119ab565b91611e1b611e16611e11838590611767565b6119c7565b6119e3565b909192611a78565b92611f44611e60611e50611e4b611e458588611e3f60006116fd565b91611abb565b35611ad0565b611b01565b611e5a6030611b18565b90612902565b93611e9a611e8a611e85611e7f8685611e796030611b34565b91611abb565b35611ad0565b611b01565b611e946030611b18565b90612902565b90611ea56030611b56565b93611ee4611edf611eda611ecb6060611ec6611ec08d6113f7565b91611973565b6110e2565b611ed4876113f7565b906110e2565b611b72565b611b8e565b9691611f2d611f0b8383600090611f05611eff6030936116fd565b92611b34565b92611742565b9290959390603090611f27611f21606093611b34565b92611973565b92611742565b949093611f38610093565b998a9860208a01611c10565b602082018103825203826107fc565b9293909293611cb5565b612b24565b565b611f8c611f9291611fb493908590611f8687611f80600261191c565b906110e2565b92611742565b906118a0565b611fae611fa8611fa3615860611941565b611896565b91611896565b1461195d565b8f8d90611d8d565b612012611fea611fe48a8a600090611fde611fd86008936116fd565b9261171c565b92611742565b9061177f565b61200c612006612001678444a1013822a0596117ce565b61176b565b9161176b565b1461184e565b611d14565b61201f610093565b630790d4e360e01b815280612036600482016105fd565b0390fd5b90565b61205161204c6120569261203a565b610825565b6100a8565b90565b61206663ffffffff61203d565b90565b6120716106f2565b50612084816301ffc9a760e01b906120f4565b908161208f575b5090565b6120ac91506120a6906120a0612059565b906120f4565b156100f7565b3861208b565b6120bb906100a8565b9052565b91906120d3906000602085019401906120b2565b565b90565b6120ec6120e76120f1926120d5565b610788565b610fdd565b90565b6000906121296121376020946121086106f2565b50612111610093565b92839160048884016301ffc9a760e01b8152016120bf565b8682018103825203826107fc565b906121406106f2565b506121496112d3565b506121526112d3565b50838251920190617530fa3d600051919081612191575b509081612175575b5090565b905061218a61218460006116fd565b91610fdd565b1138612171565b90506121a66121a060206120d8565b91610fdd565b101538612169565b90565b6121c56121c06121ca926121ae565b610788565b610fdd565b90565b6bffffffffffffffffffffffff60a01b1690565b906121ef6121f69183611767565b91356121cd565b90600c8110612204575b5090565b612224906bffffffffffffffffffffffff60a01b90600c0360080261177b565b1638612200565b90565b60a01b90565b61224861224361224d9261222b565b61222e565b6121cd565b90565b60007f6578706563746564206d6f64756c655f69640000000000000000000000000000910152565b61228560126020926117ea565b61228e81612250565b0190565b6122a89060208101906000818303910152612278565b90565b156122b257565b6122ba610093565b62461bcd60e51b8152806122d060048201612292565b0390fd5b6122e86122e36122ed92611adf565b610788565b610fdd565b90565b90565b61230761230261230c926122f0565b610788565b610fdd565b90565b90565b61232661232161232b9261230f565b610788565b610fdd565b90565b66ffffffffffffff191690565b906123496123509183611767565b913561232e565b906019811061235e575b5090565b6123779066ffffffffffffff199060190360080261177b565b163861235a565b90565b60381b90565b61239b6123966123a09261237e565b612381565b61232e565b90565b60007f65787065637465642064696765737420262074696d657374616d700000000000910152565b6123d8601b6020926117ea565b6123e1816123a3565b0190565b6123fb90602081019060008183039101526123cb565b90565b1561240557565b61240d610093565b62461bcd60e51b815280612423600482016123e5565b0390fd5b60c01c90565b61244161243c6124469261044f565b610788565b61044f565b90565b61245561245a91612427565b61242d565b90565b60007f6f6c64206174746573746174696f6e0000000000000000000000000000000000910152565b612492600f6020926117ea565b61249b8161245d565b0190565b6124b59060208101906000818303910152612485565b90565b156124bf57565b6124c7610093565b62461bcd60e51b8152806124dd6004820161249f565b0390fd5b60007f756e706172736564207061796c6f616400000000000000000000000000000000910152565b61251660106020926117ea565b61251f816124e1565b0190565b6125399060208101906000818303910152612509565b90565b1561254357565b61254b610093565b62461bcd60e51b81528061256160048201612523565b0390fd5b926126928461268c849561266f6127179561266961266361265d6126586126536126d39f9c61264d90612596611969565b9050506125a16116be565b5061262d61260e8d6126086125f96125f46125ef6125e96125e06125c36112d3565b6125cb6116f8565b612785575b6125da600c6121b1565b906110e2565b95898791611abb565b35611ad0565b611b01565b6122d4565b61260360016122f3565b6110e2565b906110e2565b8d6126176116f8565b612719575b506126276019612312565b906110e2565b9b906126438d61263d600861171c565b906110e2565b90819d9192611742565b9061177f565b612449565b6110b0565b92610fdd565b91610fdd565b116124b8565b612686612680898986908092611742565b90611916565b90613058565b906110e2565b9361269b6112d3565b5061271161270b6127066126c56126bf6126b9868a8c908092611742565b90611916565b9061393b565b9a9199909a999a99906110e2565b966127006126f76126f16126eb88858d908092611742565b90611916565b90614049565b999099906110e2565b94611767565b610fdd565b91610fdd565b1461253c565b565b61274661274061277f9286859061273a876127346019612312565b906110e2565b92611742565b9061233b565b61277961277361276e7866646967657374665348413338346974696d657374616d701b612387565b61232e565b9161232e565b146123fe565b8d61261c565b6127df6127b36127ad8d8b9085906127a7876127a1600c6121b1565b906110e2565b92611742565b906121e1565b6127d96127d36127ce6ba9696d6f64756c655f696478612234565b6121cd565b916121cd565b146122ab565b6125d0565b606090565b90565b6128006127fb612805926127e9565b610788565b611adf565b90565b90565b61281f61281a61282492612808565b610788565b610fdd565b90565b9061283961283483611c5c565b6115ac565b918252565b369037565b9061286861285083612827565b9260208061285e8693611c5c565b920191039061283e565b565b61287e61287961288392611919565b611b50565b611ad0565b90565b90612890826113f7565b8110156128a257600160209102010190565b611aa5565b6128bb6128b66128c0926122f0565b610788565b611adf565b90565b6128cf6128d591611adf565b91611adf565b019060ff82116128e157565b6110cc565b6128fa6128f56128ff9261136a565b611b50565b611ad0565b90565b91909161290d6127e4565b5061292161291b60806127ec565b91611adf565b106000146129855761296861293e612939600261191c565b612843565b92612949600261286a565b6129628561295c60009360001a936116fd565b90612886565b53611b8e565b6129818361297b60019360001a936122f3565b90612886565b535b565b6129d76129d261299d612998600361280b565b612843565b936129a8600261286a565b6129c1866129bb60009360001a936116fd565b90612886565b536129cc60016128a7565b906128c3565b611b8e565b6129f0836129ea60019360001a936122f3565b90612886565b536129fb60006128e6565b612a1483612a0e60029360001a9361191c565b90612886565b53612983565b90565b612a31612a2c612a3692612a1a565b610788565b610fdd565b90565b90565b612a50612a4b612a5592612a39565b610788565b610fdd565b90565b90565b612a6f612a6a612a7492612a58565b610788565b610fdd565b90565b60007f6e6f207033383400000000000000000000000000000000000000000000000000910152565b612aac60076020926117ea565b612ab581612a77565b0190565b612acf9060208101906000818303910152612a9f565b90565b67ffffffffffffffff8111612af057612aec6020916107dc565b0190565b6107e6565b90612b07612b0283612ad2565b6115ac565b918252565b612b166000612af5565b90565b612b21612b0c565b90565b46612b39612b33610539612a1d565b91610fdd565b148015612bf6575b612bf157612b5a46612b54615afd612a5b565b90611317565b612b6d612b67600261191c565b91610fdd565b11612bcf57612ba692612b8b612b85612ba094614368565b926143cd565b90600891929092612b9a612b19565b92614606565b156100f7565b612bac57565b612bb4610093565b638baa579f60e01b815280612bcb600482016105fd565b0390fd5b612bd7610093565b62461bcd60e51b815280612bed60048201612ab9565b0390fd5b505050565b5046612c0c612c06617a69612a3c565b91610fdd565b14612b41565b90565b612c29612c24612c2e92612c12565b610788565b610fdd565b90565b68ffffffffffffffffff60b81b1690565b90612c50612c579183611767565b9135612c31565b9060098110612c65575b5090565b612c829068ffffffffffffffffff60b81b9060090360080261177b565b1638612c61565b90565b60b81b90565b612ca6612ca1612cab92612c89565b612c8c565b612c31565b90565b60007f6578706563746564207063727300000000000000000000000000000000000000910152565b612ce3600d6020926117ea565b612cec81612cae565b0190565b612d069060208101906000818303910152612cd6565b90565b15612d1057565b612d18610093565b62461bcd60e51b815280612d2e60048201612cf0565b0390fd5b612d3c9051610331565b90565b90565b612d56612d51612d5b92612d3f565b610788565b610fdd565b90565b612d72612d6d612d779261136a565b610788565b611adf565b90565b612d9990612d93612d8d612d9e94611adf565b91610fdd565b906101be565b610fdd565b90565b90565b612db8612db3612dbd92612da1565b610788565b610fdd565b90565b90565b612dd7612dd2612ddc92612dc0565b610788565b610fdd565b90565b612df3612dee612df892611919565b610788565b611adf565b90565b90565b612e12612e0d612e1792612dfb565b610788565b610fdd565b90565b90565b612e31612e2c612e3692612e1a565b610788565b610fdd565b90565b612e4d612e48612e5292612808565b610788565b611adf565b90565b90565b612e6c612e67612e7192612e55565b610788565b610fdd565b90565b90565b612e8b612e86612e9092612e74565b610788565b610fdd565b90565b90565b612eaa612ea5612eaf92612e93565b610788565b611adf565b90565b90565b612ec9612ec4612ece92612eb2565b610788565b610fdd565b90565b90565b612ee8612ee3612eed92612ed1565b610788565b610fdd565b90565b612f04612eff612f0992611719565b610788565b611adf565b90565b90565b612f23612f1e612f2892612f0c565b610788565b610fdd565b90565b90565b612f42612f3d612f4792612f2b565b610788565b610fdd565b90565b90565b612f59612f5e91610fdd565b612f4a565b9052565b93612fac9a9995612f94612fb29f9d9a989594612fa69a95602089612f8d612fa09b612f9a99612f4d565b0191611a34565b91611a34565b91611a34565b91611a34565b91611a34565b91611a34565b90565b60007f77726f6e67207063727300000000000000000000000000000000000000000000910152565b612fea600a6020926117ea565b612ff381612fb5565b0190565b61300d9060208101906000818303910152612fdd565b90565b1561301757565b61301f610093565b62461bcd60e51b81528061303560048201612ff7565b0390fd5b90565b61305061304b61305592613039565b610788565b610fdd565b90565b61308c6132d1926130929261306b6112d3565b506130746116f8565b6134d3575b906130846009612c15565b908092611742565b90611916565b906130a76130a260008601612d32565b6118fa565b6130b261011f612d42565b169182916130ca846130c46000612d5e565b90612d7a565b6130d460016122f3565b166130e86130e260016122f3565b91610fdd565b146000146134a05761311b613115828460009061310f6131096030936116fd565b92611b34565b92611742565b90611916565b9590945b6131338161312d60016128a7565b90612d7a565b61313d60016122f3565b1661315161314b60016122f3565b91610fdd565b1460001461346d5761318461317e8486603390613178613172606393612da4565b92612dc3565b92611742565b90611916565b9490935b61319c836131966002612ddf565b90612d7a565b6131a660016122f3565b166131ba6131b460016122f3565b91610fdd565b1460001461343c576131ed6131e782846066906131e16131db609693612dfe565b92612e1d565b92611742565b90611916565b905b613203856131fd6003612e39565b90612d7a565b61320d60016122f3565b1661322161321b60016122f3565b91610fdd565b146000146134095761325461324e848660999061324861324260c993612e58565b92612e77565b92611742565b90611916565b9490935b61326c876132666004612e96565b90612d7a565b61327660016122f3565b1661328a61328460016122f3565b91610fdd565b146000146133d6576132bd6132b7828460cc906132b16132ab60fc93612eb5565b92612ed4565b92611742565b90611916565b9890975b6132cb6008612ef0565b90612d7a565b6132db60016122f3565b166132ef6132e960016122f3565b91610fdd565b146000146133a2576133259161331f9190610198906133196133136101c893612f0f565b92612f2e565b92611742565b90611916565b9890975b613331610093565b9c8d9c60208e019c6133429d612f62565b60208201810382520361335590826107fc565b61335e816113f7565b90613368906113f1565b20906020016133769061133c565b61337f90610154565b9061338990610154565b1461339390613010565b61033661339f9061303c565b90565b6133ce916133c891906000906133c26133bc6000936116fd565b926116fd565b92611742565b90611916565b989097613329565b6134016133fb82846000906133f56133ef6000936116fd565b926116fd565b92611742565b90611916565b9890976132c1565b61343461342e84866000906134286134226000936116fd565b926116fd565b92611742565b90611916565b949093613258565b613467613461828460009061345b6134556000936116fd565b926116fd565b92611742565b90611916565b906131ef565b613498613492848660009061348c6134866000936116fd565b926116fd565b92611742565b90611916565b949093613188565b6134cb6134c582846000906134bf6134b96000936116fd565b926116fd565b92611742565b90611916565b95909461311f565b61352a6135016134fb83856000906134f56134ef6009936116fd565b92612c15565b92611742565b90612c42565b61352461351e613519686470637273b0005830612c92565b612c31565b91612c31565b14612d09565b613079565b90565b61354661354161354b9261352f565b610788565b610fdd565b90565b6cffffffffffffffffffffffffff60981b1690565b906135716135789183611767565b913561354e565b90600d8110613586575b5090565b6135a7906cffffffffffffffffffffffffff60981b90600d0360080261177b565b1638613582565b90565b60981b90565b6135cb6135c66135d0926135ae565b6135b1565b61354e565b90565b60007f6578706563746564206365727469666963617465000000000000000000000000910152565b61360860146020926117ea565b613611816135d3565b0190565b61362b90602081019060008183039101526135fb565b90565b1561363557565b61363d610093565b62461bcd60e51b81528061365360048201613615565b0390fd5b69ffffffffffffffffffff60b01b1690565b9061367761367e9183611767565b9135613657565b90600a811061368c575b5090565b6136aa9069ffffffffffffffffffff60b01b90600a0360080261177b565b1638613688565b90565b60b01b90565b6136ce6136c96136d3926136b1565b6136b4565b613657565b90565b90565b6136ed6136e86136f2926136d6565b6136b4565b613657565b90565b60007f657870656374656420636162756e646c65000000000000000000000000000000910152565b61372a60116020926117ea565b613733816136f5565b0190565b61374d906020810190600081830391015261371d565b90565b1561375757565b61375f610093565b62461bcd60e51b81528061377560048201613737565b0390fd5b90565b61379061378b61379592613779565b610788565b611adf565b90565b600090565b60016137a99101610fdd565b90565b906137ba6137c19183611767565b9135611ad0565b90600181106137cf575b5090565b6137e49060ff60f81b9060010360080261177b565b16386137cb565b90565b6138026137fd613807926137eb565b611b50565b611ad0565b90565b60007f696e76616c696420636162756e646c6500000000000000000000000000000000910152565b61383f60106020926117ea565b6138488161380a565b0190565b6138629060208101906000818303910152613832565b90565b1561386c57565b613874610093565b62461bcd60e51b81528061388a6004820161384c565b0390fd5b7f04fc0254eba608c1f36870e29ada90be46383292736e894bfff672d989444b5060008201527f51e534a4b1f6dbe3c0bc581a32b7b176070ede12d69a3fea211b66e752cf7dd160208201527fdd095f6f1370f4170843d9dc100121e4cf63012809664487c9796284304dc53f60408201526060603d60fa1b910152565b6139166061612af5565b906139236020830161388e565b565b61392d61390c565b90565b613938613925565b90565b613943611969565b90505061394e6112d3565b50613a0161397a61395d6112d3565b6139656116f8565b613ccc575b613974600d613532565b906110e2565b936139dd6139d76139bd6139b86139b36139ad888a6139a38d61399d600261191c565b906110e2565b90819d9192611742565b906118a0565b6118e6565b6118fa565b9685906139cd8891809a906110e2565b9081999192611742565b90611916565b9290956139e86116f8565b613c5c575b6139fb600a9794939761187a565b906110e2565b90613a45613a35613a30613a2a8789613a2488613a1e60016122f3565b90611317565b91611abb565b35611ad0565b611b01565b613a3f600f61377c565b166122d4565b94613a71613a6b8683600090613a65613a5f6000936116fd565b926116fd565b92611742565b90611916565b9790927ff0cea14dbdf686c8ac880e8fa240b126f81ccebee17fa63f60351b12674f122998613a9e613798565b50613aa76112d3565b955b86613abc613ab68c610fdd565b91610fdd565b1015613c2c57613aca6116f8565b613be1575b6001613ada906122f3565b613ae3916110e2565b9988858c6002613af29061191c565b613afb916110e2565b809d9091613b0893611742565b613b11916118a0565b613b1a906118e6565b613b23906118fa565b9a876000613b30906116fd565b90613b3a90610fdd565b14613bc85789908690809d613b4e916110e2565b809d9091613b5b93611742565b613b6491611916565b919091886001613b73906122f3565b90613b7d90610fdd565b1460001497613b9f94613baf99613bb9575050613b98613930565b925b614685565b989296919790989796505b61379d565b9590969499613aa9565b613bc291611cb5565b92613b9a565b613bdb90613baf92979993989c906110e2565b9a613baa565b613c27613c0e613c088b888590613c0287613bfc60016122f3565b906110e2565b92611742565b906137ac565b613c21613c1b60596137ee565b91611ad0565b14613865565b613acf565b9994955091975094613c4c9650613c469250949293611cb5565b92614685565b9150929192909250919291929190565b613cc7613c89613c8387898590613c7d87613c77600a61187a565b906110e2565b92611742565b90613669565b613c9c69fffffffffffffffffff06136ba565b16613cc1613cbb613cb66968636162756e646c65806136d9565b613657565b91613657565b14613750565b6139ed565b613d26613cf9613cf386888590613ced87613ce7600d613532565b906110e2565b92611742565b90613563565b613d20613d1a613d156c6b6365727469666963617465596135b7565b61354e565b9161354e565b1461362e565b61396a565b90565b613d42613d3d613d4792613d2b565b610788565b610fdd565b90565b6affffffffffffffffffffff60a81b1690565b90613d6b613d729183611767565b9135613d4a565b90600b8110613d80575b5090565b613d9f906affffffffffffffffffffff60a81b90600b0360080261177b565b1638613d7c565b90565b60a81b90565b613dc3613dbe613dc892613da6565b613da9565b613d4a565b90565b60007f6578706563746564207075626c69635f6b657900000000000000000000000000910152565b613e0060136020926117ea565b613e0981613dcb565b0190565b613e239060208101906000818303910152613df3565b90565b15613e2d57565b613e35610093565b62461bcd60e51b815280613e4b60048201613e0d565b0390fd5b90565b613e66613e61613e6b92613e4f565b6136b4565b613657565b90565b60007f657870656374656420757365725f646174610000000000000000000000000000910152565b613ea360126020926117ea565b613eac81613e6e565b0190565b613ec69060208101906000818303910152613e96565b90565b15613ed057565b613ed8610093565b62461bcd60e51b815280613eee60048201613eb0565b0390fd5b90613f00613f079183611767565b9135610154565b9060208110613f15575b5090565b613f28906000199060200360080261177b565b1638613f11565b90565b613f46613f41613f4b92613f2f565b610788565b610fdd565b90565b65ffffffffffff60d01b1690565b90613f6a613f719183611767565b9135613f4e565b9060068110613f7f575b5090565b613f999065ffffffffffff60d01b9060060360080261177b565b1638613f7b565b90565b60d01b90565b613fbd613fb8613fc292613fa0565b613fa3565b613f4e565b90565b60007f6578706563746564206e6f6e6365000000000000000000000000000000000000910152565b613ffa600e6020926117ea565b61400381613fc5565b0190565b61401d9060208101906000818303910152613fed565b90565b1561402757565b61402f610093565b62461bcd60e51b81528061404560048201614007565b0390fd5b9190916140546116be565b9261405d6112d3565b508184818361406a6112d3565b6140726116f8565b956141596141819661413c61417b97600061413561412f61412461411e61418a9f61410d6140ec6141709f61416a9f6141649f6140d76140e3926140cc6140dd9361411899614244575b6140c6600b613d2e565b906110e2565b949085908092611742565b90611916565b906147b5565b915050906110e2565b8a8d6140f66116f8565b6141e5575b5050614107600a61187a565b906110e2565b988b8a908092611742565b90611916565b906147b5565b9291979092906110e2565b95613ef2565b9101611617565b6141446116f8565b61418d575b6141536006613f32565b906110e2565b979088908092611742565b90611916565b906147b5565b9291959092906110e2565b93613ef2565b60208501611617565b90565b6141e06141ba6141b48c8685906141ae876141a86006613f32565b906110e2565b92611742565b90613f5c565b6141da6141d46141cf65656e6f6e6365613fa9565b613f4e565b91613f4e565b14614020565b614149565b61420d6142139161423d9390859061420787614201600a61187a565b906110e2565b92611742565b90613669565b61423761423161422c6969757365725f64617461613e52565b613657565b91613657565b14613ec9565b8a8d6140fb565b61429c61427161426b898685906142658761425f600b613d2e565b906110e2565b92611742565b90613d5d565b61429661429061428b6a6a7075626c69635f6b6579613daf565b613d4a565b91613d4a565b14613e26565b6140bc565b73010000000000000000000000000000000000010490565b3d6000146142d6576142ca3d612827565b903d6000602084013e5b565b6142de6127e4565b906142d4565b60007f7368613338340000000000000000000000000000000000000000000000000000910152565b61431960066020926117ea565b614322816142e4565b0190565b61433c906020810190600081830391015261430c565b90565b1561434657565b61434e610093565b62461bcd60e51b81528061436460048201614326565b0390fd5b600080916143746127e4565b5061437d6106f2565b506143866142a1565b90602081019051915afa906143a261439c6142b9565b9261433f565b565b6143ae9051611ad0565b90565b6143c56143c06143ca92612e93565b611b50565b611ad0565b90565b6143d56127e4565b506143f26143ed826143e760006116fd565b90612886565b6143a4565b6144056143ff60046143b1565b91611ad0565b0361446e5761444d600261444761443661443161442c866144266060611973565b90612886565b6143a4565b611b01565b61444060016128a7565b1691612ddf565b17611b8e565b6144668261446060009360001a936116fd565b90612886565b536031815290565b90565b6007600160981b0190565b6009111561448657565b610757565b906144958261447c565b565b6144a09061448b565b90565b6144ac90614497565b9052565b6144cf6144d86020936144dd936144c6816113f7565b93848093610859565b95869101611bc2565b6107dc565b0190565b939061453c95936145126145209261452e9561450560a08a019260008b01906144a3565b88820360208a01526144b0565b9086820360408801526144b0565b9084820360608601526144b0565b9160808184039101526144b0565b90565b60007f7665726966793a206661696c6564000000000000000000000000000000000000910152565b614574600e6020926117ea565b61457d8161453f565b0190565b6145979060208101906000818303910152614567565b90565b156145a157565b6145a9610093565b62461bcd60e51b8152806145bf60048201614581565b0390fd5b6145cc816100f7565b036145d357565b600080fd5b905051906145e5826145c3565b565b90602082820312614601576145fe916000016145d8565b90565b61009e565b9091614652600094936146438695614682986146206106f2565b50614629614471565b969395919091614637610093565b968795602087016144e1565b602082018103825203826107fc565b602081019051915afa61466c6146666142b9565b9161459a565b6020614677826113f7565b8183010191016145e7565b90565b936146d16146ef926146f5946146fb969761469e613798565b506146a7613798565b506146b0611969565b9050506146bb611969565b9050506146c6611969565b905050919091614dba565b909a969a99939592949891999094999895929a9b9592909492611cb5565b92611cb5565b91612b24565b565b90565b61471461470f614719926146fd565b611b50565b611ad0565b90565b90565b61473361472e6147389261471c565b611b50565b611ad0565b90565b90565b61475261474d6147579261473b565b611b50565b611ad0565b90565b60007f6578706563746564207573657264617461206279746573000000000000000000910152565b61478f60176020926117ea565b6147988161475a565b0190565b6147b29060208101906000818303910152614782565b90565b91906147bf611969565b9050506147ca6112d3565b506147e96147e384836147dd60006116fd565b91611abb565b35611ad0565b6147fc6147f660f6614700565b91611ad0565b1480156149f4575b6149b457614826614820848361481a60006116fd565b91611abb565b35611ad0565b614839614833605861473e565b91611ad0565b146149255761485c614856848361485060006116fd565b91611abb565b35611ad0565b61486f61486960596137ee565b91611ad0565b146148965761487c610093565b62461bcd60e51b8152806148926004820161479c565b0390fd5b8261490561491f926148dc6148d76148d26148cc61491999856001906148c66148c06003936122f3565b9261280b565b92611742565b906118a0565b6118e6565b6118fa565b92906003906148fe6148f860036148f3889161280b565b6110e2565b9261280b565b9192611742565b94909491614913600361280b565b906110e2565b93611916565b91909290565b826149946149ae9261496b61496661496161495b6149a8998560019061495561494f6002936122f3565b9261191c565b92611742565b906137ac565b611b01565b6122d4565b929060029061498d6149876002614982889161191c565b6110e2565b9261191c565b9192611742565b949094916149a2600261191c565b906110e2565b93611916565b91909290565b906149de6149f1926149e994906000906149d86149d26000936116fd565b926116fd565b92611742565b939093600194611916565b9290936122f3565b90565b50614a13614a0d8483614a0760006116fd565b91611abb565b35611ad0565b614a26614a20604061471f565b91611ad0565b14614804565b90565b614a43614a3e614a4892614a2c565b61193b565b611896565b90565b60007f6e6f742063657274000000000000000000000000000000000000000000000000910152565b614a8060086020926117ea565b614a8981614a4b565b0190565b614aa39060208101906000818303910152614a73565b90565b15614aad57565b614ab5610093565b62461bcd60e51b815280614acb60048201614a8d565b0390fd5b614ae3614ade614ae892612e93565b610788565b610fdd565b90565b60007f6e6f742063657274206c656e0000000000000000000000000000000000000000910152565b614b20600c6020926117ea565b614b2981614aeb565b0190565b614b439060208101906000818303910152614b13565b90565b15614b4d57565b614b55610093565b62461bcd60e51b815280614b6b60048201614b2d565b0390fd5b60007f6e6f742074627300000000000000000000000000000000000000000000000000910152565b614ba460076020926117ea565b614bad81614b6f565b0190565b614bc79060208101906000818303910152614b97565b90565b15614bd157565b614bd9610093565b62461bcd60e51b815280614bef60048201614bb1565b0390fd5b90565b614c0a614c05614c0f92614bf3565b61222e565b6121cd565b90565b60007f77726f6e67207369670000000000000000000000000000000000000000000000910152565b614c4760096020926117ea565b614c5081614c12565b0190565b614c6a9060208101906000818303910152614c3a565b90565b15614c7457565b614c7c610093565b62461bcd60e51b815280614c9260048201614c54565b0390fd5b614caa614ca5614caf92612808565b611b50565b611ad0565b90565b60007f6e6f742073696700000000000000000000000000000000000000000000000000910152565b614ce760076020926117ea565b614cf081614cb2565b0190565b614d0a9060208101906000818303910152614cda565b90565b15614d1457565b614d1c610093565b62461bcd60e51b815280614d3260048201614cf4565b0390fd5b60007f77726f6e67206973737565720000000000000000000000000000000000000000910152565b614d6b600c6020926117ea565b614d7481614d36565b0190565b614d8e9060208101906000818303910152614d5e565b90565b15614d9857565b614da0610093565b62461bcd60e51b815280614db660048201614d78565b0390fd5b91929092614dc6613798565b50614dcf613798565b50614dd8611969565b905050614de3611969565b905050614dee611969565b905050614df9613798565b50614e026116f8565b615002575b6006614e1290613f32565b938381866002614e219061191c565b614e2a916110e2565b80979091614e3793611742565b614e40916118a0565b614e49906118e6565b614e52906118fa565b9484908290806004614e6390614acf565b614e6c91611317565b97614e76916110e2565b80979091614e8393611742565b614e8c91611916565b9290938484614e9a9161535a565b9693949299919590969599949a614eaf6116f8565b614f03614f1296614f1e95614efa614edd614f1896614f0996614fa4575b614ed7600c6121b1565b906110e2565b614ee56116f8565b614f20575b614ef4600361280b565b906110e2565b90918092611742565b90611916565b95909692610154565b91610154565b14614d91565b565b614f35614f2f84868491611abb565b35611ad0565b614f48614f426003614c96565b91611ad0565b1480614f5d575b614f5890614d0d565b614eea565b50614f58614f89614f838587614f7d86614f77600261191c565b906110e2565b91611abb565b35611ad0565b614f9c614f9660006128e6565b91611ad0565b149050614f4f565b614ffd614fd1614fcb86888590614fc587614fbf600c6121b1565b906110e2565b92611742565b906121e1565b614ff7614ff1614fec6b300a06082a8648ce3d040303614bf6565b6121cd565b916121cd565b14614c6d565b614ecd565b61505261503061502a858760009061502461501e6002936116fd565b9261191c565b92611742565b906118a0565b61504c615046615041613082614a2f565b611896565b91611896565b14614aa6565b6150c661509061508b615086615080878960029061507a61507460049361191c565b92614acf565b92611742565b906118a0565b6118e6565b6118fa565b6150c06150ba6150b56150a4888a90611767565b936150af6004614acf565b906110e2565b610fdd565b91610fdd565b14614b46565b6151166150f46150ee85876004906150e86150e2600693614acf565b92613f32565b92611742565b906118a0565b61511061510a615105613082614a2f565b611896565b91611896565b14614bca565b614e07565b90565b61513261512d6151379261511b565b610788565b610fdd565b90565b64ffffffffff60d81b1690565b9061515561515c9183611767565b913561513a565b906005811061516a575b5090565b6151839064ffffffffff60d81b9060050360080261177b565b1638615166565b90565b60d81b90565b6151a76151a26151ac9261518a565b61518d565b61513a565b90565b60007f6e6f742076322074627300000000000000000000000000000000000000000000910152565b6151e4600a6020926117ea565b6151ed816151af565b0190565b61520790602081019060008183039101526151d7565b90565b1561521157565b615219610093565b62461bcd60e51b81528061522f600482016151f1565b0390fd5b60007f6e6f742073657269616c00000000000000000000000000000000000000000000910152565b615268600a6020926117ea565b61527181615233565b0190565b61528b906020810190600081830391015261525b565b90565b1561529557565b61529d610093565b62461bcd60e51b8152806152b360048201615275565b0390fd5b60007f6e6f742073657100000000000000000000000000000000000000000000000000910152565b6152ec60076020926117ea565b6152f5816152b7565b0190565b61530f90602081019060008183039101526152df565b90565b1561531957565b615321610093565b62461bcd60e51b815280615337600482016152f9565b0390fd5b90565b61535261534d6153579261533b565b610788565b610fdd565b90565b615362613798565b5061536b613798565b50615374613798565b5061537d611969565b9050506153ca6153ad6153906004614acf565b6153986116f8565b615783575b6153a7600561511e565b906110e2565b6153b56116f8565b615730575b6153c460016122f3565b906110e2565b9261562861562261546a61543961543361541961541461540f6154098b8d6153ff8d92919f6153f960016122f3565b906110e2565b90819f9192611742565b906137ac565b611b01565b6122d4565b9887906154298a91809c906110e2565b90819b9192611742565b90611cb5565b61544b615445826113f7565b916113f1565b20966154556116f8565b6156d2575b615464600c6121b1565b906110e2565b946154de6154ad6154a76154a161549661549061548a8b8d898092611742565b90611916565b906158b8565b92919b9092906110e2565b99615d0a565b90611cb5565b6154bf6154b9826113f7565b916113f1565b20966154c96116f8565b61567f575b6154d860016122f3565b906110e2565b9461554c61554661554061552661552161551c615516878d61550c8b919f61550660016122f3565b906110e2565b90819f9192611742565b906137ac565b611b01565b6122d4565b9884906155368791809c906110e2565b90819b9192611742565b90611916565b90616004565b6156056155c361559261558c61558661557b61557561556f8d89908b8092611742565b90611916565b906158b8565b92919c9092906110e2565b9a615d0a565b90611cb5565b6155a461559e826113f7565b916113f1565b20976155ae6116f8565b61562c575b6155bd60016122f3565b906110e2565b6155ff6155fa6155f56155ef86886155e5876155df60016122f3565b906110e2565b9081979192611742565b906137ac565b611b01565b6122d4565b906110e2565b909161561b82615615606161533e565b90611317565b9192611742565b90611916565b9091565b61567a6156596156538688859061564d8761564760016122f3565b906110e2565b92611742565b906137ac565b61567461566e6156696030611b56565b611ad0565b91611ad0565b14615312565b6155b3565b6156cd6156ac6156a6898685906156a08761569a60016122f3565b906110e2565b92611742565b906137ac565b6156c76156c16156bc6030611b56565b611ad0565b91611ad0565b14615312565b6154ce565b61572b6156ff6156f9888a85906156f3876156ed600c6121b1565b906110e2565b92611742565b906121e1565b61572561571f61571a6b300a06082a8648ce3d040303614bf6565b6121cd565b916121cd565b14614c6d565b61545a565b61577e61575d615757858785906157518761574b60016122f3565b906110e2565b92611742565b906137ac565b61577861577261576d600261286a565b611ad0565b91611ad0565b1461528e565b6153ba565b6157d56157b06157aa868885906157a48761579e600561511e565b906110e2565b92611742565b90615147565b6157cf6157c96157c464a003020102615193565b61513a565b9161513a565b1461520a565b61539d565b90565b6157f16157ec6157f6926157da565b610788565b610fdd565b90565b90565b61581061580b615815926157f9565b610788565b610fdd565b90565b61582c615827615831926127e9565b610788565b610fdd565b90565b60007f73657120746f6f20626967000000000000000000000000000000000000000000910152565b615869600b6020926117ea565b61587281615834565b0190565b61588c906020810190600081830391015261585c565b90565b1561589657565b61589e610093565b62461bcd60e51b8152806158b460048201615876565b0390fd5b91906158c2611969565b9050506158cd6112d3565b506158f66158d96112d3565b6158e16116f8565b615a62575b6158f060016122f3565b906110e2565b61593261592d61592861592287866159188761591260016122f3565b906110e2565b9081979192611742565b906137ac565b611b01565b6122d4565b8061594661594060816157dd565b91610fdd565b146000146159bc57506159b6916159ac916159a261599661599161598c6159868a8761597c8861597660016122f3565b906110e2565b9081989192611742565b906137ac565b611b01565b6122d4565b965b92918097906110e2565b9081969192611742565b9390939093611916565b91909290565b806159d06159ca60826157fc565b91610fdd565b14600014615a2757506159b6916159ac916159a2615a20615a1b615a16615a108a87615a0688615a00600261191c565b906110e2565b9081989192611742565b906118a0565b6118e6565b6118fa565b965b615998565b93916159ac916159a26159b694615a5d88615a426080615818565b16615a56615a506080615818565b91610fdd565b141561588f565b615a22565b615ab0615a8f615a8987868590615a8387615a7d60016122f3565b906110e2565b92611742565b906137ac565b615aaa615aa4615a9f6030611b56565b611ad0565b91611ad0565b14615312565b6158e6565b90565b615acc615ac7615ad192615ab5565b611b50565b611ad0565b90565b60007f6e6f742072646e00000000000000000000000000000000000000000000000000910152565b615b0960076020926117ea565b615b1281615ad4565b0190565b615b2c9060208101906000818303910152615afc565b90565b15615b3657565b615b3e610093565b62461bcd60e51b815280615b5460048201615b16565b0390fd5b90565b615b6f615b6a615b7492615b58565b610788565b610fdd565b90565b66ffffffffffffff60c81b1690565b90615b94615b9b9183611767565b9135615b77565b9060078110615ba9575b5090565b615bc49066ffffffffffffff60c81b9060070360080261177b565b1638615ba5565b90565b60c81b90565b615be8615be3615bed92615bcb565b615bce565b615b77565b90565b90565b615c07615c02615c0c92615bf0565b615bce565b615b77565b90565b615c23615c1e615c28926121ae565b611b50565b611ad0565b90565b60007f6e6f7420636e0000000000000000000000000000000000000000000000000000910152565b615c6060066020926117ea565b615c6981615c2b565b0190565b615c839060208101906000818303910152615c53565b90565b15615c8d57565b615c95610093565b62461bcd60e51b815280615cab60048201615c6d565b0390fd5b60007f6e6f20434e000000000000000000000000000000000000000000000000000000910152565b615ce460056020926117ea565b615ced81615caf565b0190565b615d079060208101906000818303910152615cd7565b90565b615d12611969565b905050615d1d6112d3565b5b80615d3b615d35615d30858790611767565b610fdd565b91610fdd565b14615f4a57615d6190615d4c6116f8565b615ef7575b615d5b60016122f3565b906110e2565b615d9d615d98615d93615d8d8587615d8387615d7d60016122f3565b906110e2565b9081979192611742565b906137ac565b611b01565b6122d4565b615dc7615dc184868590615dbb87615db56007615b5b565b906110e2565b92611742565b90615b86565b615dd766ff00ffffffffff615bd4565b16615df9615df3615dee6630000603550403615bf3565b615b77565b91615b77565b03615ee7575091615e8a91615e3b615e1e615e9095615e186007615b5b565b906110e2565b615e266116f8565b615e94575b615e3560016122f3565b906110e2565b90615e84615e7b615e76615e71615e6b8588615e6189615e5b60016122f3565b906110e2565b9081999192611742565b906137ac565b611b01565b6122d4565b919391836110e2565b92611742565b90611916565b9091565b615ee2615ec1615ebb85878590615eb587615eaf60016122f3565b906110e2565b92611742565b906137ac565b615edc615ed6615ed1600c615c0f565b611ad0565b91611ad0565b14615c86565b615e2b565b90615ef291906110e2565b615d1e565b615f45615f24615f1e85878590615f1887615f1260016122f3565b906110e2565b92611742565b906137ac565b615f3f615f39615f346031615ab8565b611ad0565b91611ad0565b14615b2f565b615d51565b615f52610093565b62461bcd60e51b815280615f6860048201615cf1565b0390fd5b615f80615f7b615f8592613779565b610788565b610fdd565b90565b90565b615f9f615f9a615fa492615f88565b610788565b610fdd565b90565b90565b615fbe615fb9615fc392615fa7565b610788565b610fdd565b90565b90565b615fdd615fd8615fe292615fc6565b610788565b610fdd565b90565b90565b615ffc615ff761600192615fe5565b610788565b610fdd565b90565b9061606761606161606c9261604261603d616037878460029061603161602b600f9361191c565b92615f6c565b92611742565b90613563565b6163f4565b949060119061605b616055601e93615f8b565b92615faa565b92611742565b90613563565b6163f4565b616077818390611317565b8061608d6160876202a300615fc9565b91610fdd565b1060001461612f57506160a262015180615fe8565b5b906160c16160bb6160b6429385906110e2565b610fdd565b91610fdd565b1161610c576160dc6160d76160e2924294611317565b610fdd565b91610fdd565b106160e957565b6160f1610093565b631a96385f60e31b815280616108600482016105fd565b0390fd5b616114610093565b63047e775560e11b81528061612b600482016105fd565b0390fd5b6161439061613d6002612ddf565b90612d7a565b6160a3565b90565b61615f61615a61616492616148565b611b50565b611ad0565b90565b60007f6e6f742075746320747a00000000000000000000000000000000000000000000910152565b61619c600a6020926117ea565b6161a581616167565b0190565b6161bf906020810190600081830391015261618f565b90565b156161c957565b6161d1610093565b62461bcd60e51b8152806161e7600482016161a9565b0390fd5b6161f49061354e565b90565b90565b61620e616209616213926161f7565b610788565b611adf565b90565b90565b61622d61622861623292616216565b610788565b610fdd565b90565b61624461624a91939293610fdd565b92610fdd565b91616256838202610fdd565b92818404149015171561626557565b6110cc565b90565b61628161627c6162869261626a565b610788565b611adf565b90565b90565b6162a061629b6162a592616289565b610788565b611adf565b90565b90565b6162bf6162ba6162c4926162a8565b610788565b611adf565b90565b6162db6162d66162e0926120d5565b610788565b611adf565b90565b90565b6162fa6162f56162ff926162e3565b610788565b611adf565b90565b90565b61631961631461631e92616302565b610788565b611adf565b90565b61633561633061633a9261471c565b610788565b611adf565b90565b61635161634c6163569261473b565b610788565b611adf565b90565b90565b61637061636b61637592616359565b610788565b611adf565b90565b90565b61638f61638a61639492616378565b610788565b610fdd565b90565b90565b6163ae6163a96163b392616397565b610788565b610fdd565b90565b90565b6163cd6163c86163d2926163b6565b610788565b610fdd565b90565b90565b6163ec6163e76163f1926163d5565b610788565b610fdd565b90565b6163fc6112d3565b506164056116f8565b616753575b616413906161eb565b61641c90610ffc565b60a0616427906161fa565b61643091612d7a565b6b30303030303030303030303061644690616219565b61644f91611317565b80600861645b90612ef0565b61646491612d7a565b60ff61646f90611013565b16600a61647b9061187a565b61648491616235565b81600061649090612d5e565b61649991612d7a565b60ff6164a490611013565b166164ae916110e2565b8160186164ba9061626d565b6164c391612d7a565b60ff6164ce90611013565b16600a6164da9061187a565b6164e391616235565b8260106164ef9061628c565b6164f891612d7a565b60ff61650390611013565b1661650d916110e2565b826028616519906162ab565b61652291612d7a565b60ff61652d90611013565b16600a6165399061187a565b61654291616235565b83602061654e906162c7565b61655791612d7a565b60ff61656290611013565b1661656c916110e2565b836038616578906162e6565b61658191612d7a565b60ff61658c90611013565b16600a6165989061187a565b6165a191616235565b8460306165ad90611b18565b6165b691612d7a565b60ff6165c190611013565b166165cb916110e2565b918460486165d890616305565b6165e191612d7a565b60ff6165ec90611013565b16600a6165f89061187a565b61660191616235565b85604061660d90616321565b61661691612d7a565b60ff61662190611013565b1661662b916110e2565b948060586166389061633d565b61664191612d7a565b60ff61664c90611013565b16600a6166589061187a565b61666191616235565b90605061666d9061635c565b61667691612d7a565b60ff61668190611013565b1661668b916110e2565b948561669691616945565b9390603c6166a39061637b565b906166ad91616235565b6166b6916110e2565b90610e106166c39061639a565b906166cd91616235565b6166d6916110e2565b91620151809160016166e7906122f3565b6166f091611317565b906166fa916110e2565b9061670490615fe8565b9061670e91616235565b616717916110e2565b906301e187e0616726906163b9565b9061673091616235565b63386d89d061673e906163d8565b616747916110e2565b616750916110e2565b90565b8061675e600c6121b1565b600d8110156167935761678e91616775911a611b50565b616788616782605a61614b565b91611ad0565b146161c2565b61640a565b611aa5565b90565b6167af6167aa6167b492616798565b610788565b610fdd565b90565b90565b6167ce6167c96167d3926167b7565b610788565b610fdd565b90565b6167ea6167e56167ef92616148565b610788565b610fdd565b90565b90565b61680961680461680e926167f2565b610788565b610fdd565b90565b90565b61682861682361682d92616811565b610788565b610fdd565b90565b90565b61684761684261684c92616830565b610788565b610fdd565b90565b90565b61686661686161686b9261684f565b610788565b610fdd565b90565b90565b61688561688061688a9261686e565b610788565b610fdd565b90565b90565b6168a461689f6168a99261688d565b610788565b610fdd565b90565b90565b6168c36168be6168c8926168ac565b610788565b610fdd565b90565b90565b6168e26168dd6168e7926168cb565b610788565b610fdd565b90565b60007f626164206d6f6e74680000000000000000000000000000000000000000000000910152565b61691f60096020926117ea565b616928816168ea565b0190565b6169429060208101906000818303910152616912565b90565b9061694e6112d3565b508161696361695d60016122f3565b91610fdd565b14616bdf57616972600361280b565b1661698661698060006116fd565b91610fdd565b14600014616bcd576169a161699b60016128a7565b5b6122d4565b90806169b66169b0600261191c565b91610fdd565b14616bbe57806169cf6169c9600361280b565b91610fdd565b14616ba757806169e86169e26004614acf565b91610fdd565b14616b905780616a016169fb600561511e565b91610fdd565b14616b795780616a1a616a146006613f32565b91610fdd565b14616b625780616a33616a2d6007615b5b565b91610fdd565b14616b4b5780616a4c616a46600861171c565b91610fdd565b14616b345780616a65616a5f6009612c15565b91610fdd565b14616b1d5780616a7e616a78600a61187a565b91610fdd565b14616b055780616a97616a91600b613d2e565b91610fdd565b14616aed57616aaf616aa9600c6121b1565b91610fdd565b14616ad657616abc610093565b62461bcd60e51b815280616ad26004820161692c565b0390fd5b616aea90616ae561014e6168ce565b6110e2565b90565b50616b0290616afd6101306168af565b6110e2565b90565b50616b1a90616b15610111616890565b6110e2565b90565b50616b3190616b2c60f3616871565b6110e2565b90565b50616b4890616b4360d4616852565b6110e2565b90565b50616b5f90616b5a60b5616833565b6110e2565b90565b50616b7690616b716097616814565b6110e2565b90565b50616b8d90616b8860786167f5565b6110e2565b90565b50616ba490616b9f605a6167d6565b6110e2565b90565b50616bbb90616bb6603b6167ba565b6110e2565b90565b5050616bca601f61679b565b90565b6169a1616bda6000612d5e565b61699c565b5050616beb60006116fd565b9056fea2646970667358221220101dbceac6f342a341bf7b56350e29fb24c14ab4cc38bc8da0d3b014aac8b6c364736f6c63430008170033","linkReferences":{}},"methodIdentifiers":{"acquireIdentity(bytes32,address,uint64,bytes,bytes)":"8320790c","burnt(bytes32)":"32d230b8","pcrs(bytes32)":"51febe45","releaseIdentity(bytes32,address,bytes,bytes)":"f58ac325","setPCRs(bytes32,(uint16,bytes32))":"e9c393c7","supportsInterface(bytes4)":"01ffc9a7","upstream()":"6a99a523"},"id":5}