{
  "abi": [
    {
      "inputs": [
        {
          "internalType": "address",
          "name": "upstream",
          "type": "address"
        }
      ],
      "stateMutability": "nonpayable",
      "type": "constructor"
    },
    {
      "inputs": [
        {
          "internalType": "IdentityId",
          "name": "identity",
          "type": "bytes32"
        },
        {
          "internalType": "address",
          "name": "requester",
          "type": "address"
        },
        {
          "internalType": "uint64",
          "name": "duration",
          "type": "uint64"
        },
        {
          "internalType": "bytes",
          "name": "context",
          "type": "bytes"
        },
        {
          "internalType": "bytes",
          "name": "authorization",
          "type": "bytes"
        }
      ],
      "name": "acquireIdentity",
      "outputs": [
        {
          "internalType": "uint64",
          "name": "expiry",
          "type": "uint64"
        }
      ],
      "stateMutability": "nonpayable",
      "type": "function"
    },
    {
      "inputs": [
        {
          "internalType": "bytes32",
          "name": "",
          "type": "bytes32"
        }
      ],
      "name": "burnt",
      "outputs": [
        {
          "internalType": "IdentityId",
          "name": "",
          "type": "bytes32"
        }
      ],
      "stateMutability": "view",
      "type": "function"
    },
    {
      "inputs": [
        {
          "internalType": "IdentityId",
          "name": "",
          "type": "bytes32"
        }
      ],
      "name": "pcrs",
      "outputs": [
        {
          "internalType": "uint16",
          "name": "mask",
          "type": "uint16"
        },
        {
          "internalType": "bytes32",
          "name": "hash",
          "type": "bytes32"
        }
      ],
      "stateMutability": "view",
      "type": "function"
    },
    {
      "inputs": [
        {
          "internalType": "IdentityId",
          "name": "identity",
          "type": "bytes32"
        },
        {
          "internalType": "address",
          "name": "requester",
          "type": "address"
        },
        {
          "internalType": "bytes",
          "name": "context",
          "type": "bytes"
        },
        {
          "internalType": "bytes",
          "name": "authorization",
          "type": "bytes"
        }
      ],
      "name": "releaseIdentity",
      "outputs": [],
      "stateMutability": "nonpayable",
      "type": "function"
    },
    {
      "inputs": [
        {
          "internalType": "IdentityId",
          "name": "identity",
          "type": "bytes32"
        },
        {
          "components": [
            {
              "internalType": "uint16",
              "name": "mask",
              "type": "uint16"
            },
            {
              "internalType": "bytes32",
              "name": "hash",
              "type": "bytes32"
            }
          ],
          "internalType": "struct NE.PcrSelector",
          "name": "pcrSel",
          "type": "tuple"
        }
      ],
      "name": "setPCRs",
      "outputs": [],
      "stateMutability": "nonpayable",
      "type": "function"
    },
    {
      "inputs": [
        {
          "internalType": "bytes4",
          "name": "interfaceId",
          "type": "bytes4"
        }
      ],
      "name": "supportsInterface",
      "outputs": [
        {
          "internalType": "bool",
          "name": "",
          "type": "bool"
        }
      ],
      "stateMutability": "view",
      "type": "function"
    },
    {
      "inputs": [],
      "name": "upstream",
      "outputs": [
        {
          "internalType": "address",
          "name": "",
          "type": "address"
        }
      ],
      "stateMutability": "view",
      "type": "function"
    },
    {
      "inputs": [],
      "name": "BindingMismatch",
      "type": "error"
    },
    {
      "inputs": [],
      "name": "CertExpired",
      "type": "error"
    },
    {
      "inputs": [],
      "name": "CertNotActive",
      "type": "error"
    },
    {
      "inputs": [],
      "name": "ContractExpired",
      "type": "error"
    },
    {
      "inputs": [],
      "name": "DocAlreadyUsed",
      "type": "error"
    },
    {
      "inputs": [],
      "name": "DurationTooLong",
      "type": "error"
    },
    {
      "inputs": [],
      "name": "InterfaceUnsupported",
      "type": "error"
    },
    {
      "inputs": [],
      "name": "InvalidSignature",
      "type": "error"
    },
    {
      "inputs": [],
      "name": "Unauthorized",
      "type": "error"
    }
  ],
  "bytecode": {
    "linkReferences": {},
    "object": "0x60a060405234620000d25760206200464380380380916200002082620000d7565b60a03912620000d25760a0516001600160a01b0381168103620000d257620000506200004c8262000151565b1590565b620000c05762000060816200022b565b15620000a55760ff60015b620000768162000130565b60609290921b6001600160601b0319169116176080526040516143839081620002c0823960805181610ac10152f35b620000b0816200028d565b15620000c05760ff60026200006b565b604051635dd52ad560e11b8152600490fd5b600080fd5b60a0601f91909101601f19168101906001600160401b03821190821017620000fe57604052565b634e487b7160e01b600052604160045260246000fd5b606081019081106001600160401b03821117620000fe57604052565b600311156200013b57565b634e487b7160e01b600052602160045260246000fd5b604051602090818101908260006301ffc9a760e01b92838552836024820152602481526200017f8162000114565b51617530948786fa933d60005190866200021f575b508562000214575b5084620001ab575b5050505090565b839450906000929160405185810192835263ffffffff60e01b602482015260248152620001d88162000114565b5192fa60005190913d8362000208575b505081620001fd575b501538808080620001a4565b9050151538620001f1565b101591503880620001e8565b15159450386200019c565b85111595503862000194565b6000602091604051838101906301ffc9a760e01b825263577e56b760e11b6024820152602481526200025d8162000114565b5191617530fa6000513d8262000280575b508162000279575090565b9050151590565b602011159150386200026e565b6000602091604051838101906301ffc9a760e01b8252630e198f8560e11b6024820152602481526200025d816200011456fe6080604052600436101561001257600080fd5b6000803560e01c90816301ffc9a71461008a5750806332d230b81461008557806351febe45146100805780636a99a5231461007b5780638320790c14610076578063e9c393c7146100715763f58ac3251461006c57600080fd5b610679565b610531565b6102b4565b6101fd565b61019b565b61014c565b346101495760207ffffffffffffffffffffffffffffffffffffffffffffffffffffffffffffffffc36011261014957600435907fffffffff00000000000000000000000000000000000000000000000000000000821680920361014957507f1c331f0a00000000000000000000000000000000000000000000000000000000811490811561011f575b50151560805260206080f35b7f01ffc9a70000000000000000000000000000000000000000000000000000000091501481610113565b80fd5b346101965760207ffffffffffffffffffffffffffffffffffffffffffffffffffffffffffffffffc3601126101965760043560005260006020526020604060002054604051908152f35b600080fd5b346101965760207ffffffffffffffffffffffffffffffffffffffffffffffffffffffffffffffffc360112610196576004356000526001602052604080600020600161ffff82541691015482519182526020820152f35b600091031261019657565b346101965760007ffffffffffffffffffffffffffffffffffffffffffffffffffffffffffffffffc360112610196576020610236610abf565b905073ffffffffffffffffffffffffffffffffffffffff60405191168152f35b73ffffffffffffffffffffffffffffffffffffffff81160361019657565b67ffffffffffffffff81160361019657565b9181601f840112156101965782359167ffffffffffffffff8311610196576020838186019501011161019657565b346101965760a07ffffffffffffffffffffffffffffffffffffffffffffffffffffffffffffffffc3601126101965760048035602435916102f483610256565b6044359261030184610274565b67ffffffffffffffff606435818111610196576103219036908501610286565b9590916084359081116101965761033b9036908601610286565b90610349828285888b610cf1565b97610352610abf565b959061035d81610885565b6001810361044b5750505050505073ffffffffffffffffffffffffffffffffffffffff16803b15610196578493600080946103f8604051988996879586947f1c643570000000000000000000000000000000000000000000000000000000008652850191604091949373ffffffffffffffffffffffffffffffffffffffff67ffffffffffffffff926060860197865216602085015216910152565b03925af1918215610446576104299261042d575b505b60405167ffffffffffffffff90911681529081906020820190565b0390f35b8061043a610440926108c3565b806101f2565b3861040c565b610a05565b60029192939495999697989a5061046181610885565b036105085760009373ffffffffffffffffffffffffffffffffffffffff936020999a936104bc936040519c8d9b8c9a8b987f8320790c000000000000000000000000000000000000000000000000000000008a5289016109ac565b0393165af1801561044657610429916000916104d9575b5061040e565b6104fb915060203d602011610501575b6104f38183610914565b810190610955565b386104d3565b503d6104e9565b886040517fbbaa55aa000000000000000000000000000000000000000000000000000000008152fd5b346101965760607ffffffffffffffffffffffffffffffffffffffffffffffffffffffffffffffffc360112610196576004356040807fffffffffffffffffffffffffffffffffffffffffffffffffffffffffffffffdc3601126101965773ffffffffffffffffffffffffffffffffffffffff806105ac610e77565b1682805180927fd86d31b700000000000000000000000000000000000000000000000000000000825281806105e989600483019190602083019252565b03915afa9081156104465760009161064b575b501633036106225761062061061b836000526001602052604060002090565b610a36565b005b600490517f82b42900000000000000000000000000000000000000000000000000000000008152fd5b61066b9150833d8511610672575b6106638183610914565b810190610a11565b50386105fc565b503d610659565b346101965760807ffffffffffffffffffffffffffffffffffffffffffffffffffffffffffffffffc3601126101965760048035906024356106b981610256565b67ffffffffffffffff604435818111610196576106d99036908501610286565b91606435908111610196576106f19036908601610286565b90926106ff8285878a61100a565b610707610abf565b949061071281610885565b600181036107b857505050505073ffffffffffffffffffffffffffffffffffffffff16803b156101965761079b9360008094604051968795869485937fe7213fc1000000000000000000000000000000000000000000000000000000008552840190929173ffffffffffffffffffffffffffffffffffffffff6020916040840195845216910152565b03925af18015610446576107ab57005b8061043a610620926108c3565b806107cd6002929a969a999497939599610885565b0361082d5773ffffffffffffffffffffffffffffffffffffffff1693843b1561019657600096879361079b926040519a8b998a9889977ff58ac3250000000000000000000000000000000000000000000000000000000089528801610a76565b506040517fbbaa55aa000000000000000000000000000000000000000000000000000000008152fd5b7f4e487b7100000000000000000000000000000000000000000000000000000000600052602160045260246000fd5b6003111561088f57565b610856565b7f4e487b7100000000000000000000000000000000000000000000000000000000600052604160045260246000fd5b67ffffffffffffffff81116108d757604052565b610894565b6040810190811067ffffffffffffffff8211176108d757604052565b6060810190811067ffffffffffffffff8211176108d757604052565b90601f7fffffffffffffffffffffffffffffffffffffffffffffffffffffffffffffffe0910116810190811067ffffffffffffffff8211176108d757604052565b90816020910312610196575161096a81610274565b90565b601f82602094937fffffffffffffffffffffffffffffffffffffffffffffffffffffffffffffffe0938186528686013760008582860101520116010190565b9593916109f79373ffffffffffffffffffffffffffffffffffffffff67ffffffffffffffff9261096a9a98948a5216602089015216604087015260a0606087015260a086019161096d565b92608081850391015261096d565b6040513d6000823e3d90fd5b91908260409103126101965760208251610a2a81610256565b92015161096a81610256565b60243561ffff8116809103610196577fffffffffffffffffffffffffffffffffffffffffffffffffffffffffffff00008254161781556001604435910155565b9492909373ffffffffffffffffffffffffffffffffffffffff610ab19361096a9896885216602087015260806040870152608086019161096d565b92606081850391015261096d565b7f00000000000000000000000000000000000000000000000000000000000000009060ff8216600381101561088f579160601c90565b7f4e487b7100000000000000000000000000000000000000000000000000000000600052601160045260246000fd5b600a019081600a11610b3257565b610af5565b9060028201809211610b3257565b9060608201809211610b3257565b6060019081606011610b3257565b6001019081600111610b3257565b9060198201809211610b3257565b9060088201809211610b3257565b90600a8201809211610b3257565b9060018201809211610b3257565b9060068201809211610b3257565b9060048201809211610b3257565b90600c8201809211610b3257565b9060038201809211610b3257565b6002019081600211610b3257565b6003019081600311610b3257565b9060078201809211610b3257565b9063386d89d08201809211610b3257565b603b019081603b11610b3257565b605a019081605a11610b3257565b6078019081607811610b3257565b6097019081609711610b3257565b60b501908160b511610b3257565b60d401908160d411610b3257565b60f301908160f311610b3257565b90610111918201809211610b3257565b90610130918201809211610b3257565b9061014e918201809211610b3257565b600c019081600c11610b3257565b600b019081600b11610b3257565b6008019081600811610b3257565b600f019081600f11610b3257565b91908201809211610b3257565b91939267ffffffffffffffff809516938461070810610e4d57610d2791610d1742610f49565b91610d21866111d4565b91611816565b6020810191610d4183516000526000602052604060002090565b54610e2357610da0610dcc610d54610e77565b9260405192839188602084019646889094939160809260019460a0840197845273ffffffffffffffffffffffffffffffffffffffff809316602085015260408401521660608201520152565b037fffffffffffffffffffffffffffffffffffffffffffffffffffffffffffffffe08101835282610914565b519020905103610df957610deb90516000526000602052604060002090565b554201804211610b32571690565b60046040517f438c4873000000000000000000000000000000000000000000000000000000008152fd5b60046040517f1d3300c0000000000000000000000000000000000000000000000000000000008152fd5b60046040517f9529f506000000000000000000000000000000000000000000000000000000008152fd5b6001610e81610abf565b9190610e8c81610885565b145b15610eac5773ffffffffffffffffffffffffffffffffffffffff1690565b73ffffffffffffffffffffffffffffffffffffffff604051917f6a99a523000000000000000000000000000000000000000000000000000000008352826004816020948594165afa90811561044657600091610f14575b509050610f0f816110ae565b610e8e565b82813d8311610f42575b610f288183610914565b81010312610149575051610f3b81610256565b8038610f03565b503d610f1e565b907ffffffffffffffffffffffffffffffffffffffffffffffffffffffffffffff8f88201918211610b3257565b907fffffffffffffffffffffffffffffffffffffffffffffffffffffffffffffffff8201918211610b3257565b907fffffffffffffffffffffffffffffffffffffffffffffffffffffffffffffff9f8201918211610b3257565b907fffffffffffffffffffffffffffffffffffffffffcfcfcfcfcfcfcfcfcfcfcfd08201918211610b3257565b91908203918211610b3257565b926110199192610d1742610f49565b602081019182516000526000602052604060002054610e2357610da061108c611040610e77565b9260405192839188602084019646889094939160809260009460a0840197845273ffffffffffffffffffffffffffffffffffffffff809316602085015260408401521660608201520152565b519020905103610df9576110ab90516000526000602052604060002090565b55565b6040519060208083018160007f01ffc9a70000000000000000000000000000000000000000000000000000000095868452866024820152602481526110f2816108f8565b51617530938685fa933d60005190866111b0575b50856111a6575b508461112a575b50505081611120575090565b61096a9150611a74565b8394509060009183946040518581019283527fffffffff0000000000000000000000000000000000000000000000000000000060248201526024815261116f816108f8565b5192fa60005190913d8361119b575b505081611191575b501590388080611114565b9050151538611186565b10159150388061117e565b151594503861110d565b841115955038611106565b604051906111c8826108dc565b60006020838281520152565b6111dc6111bb565b50600052600160205260406000206001604051916111f9836108dc565b61ffff81541683520154602082015290565b906008116101965790600890565b90600a116101965760080190600290565b90600b1161019657600a0190600190565b9092919283600a1161019657831161019657600a01917ffffffffffffffffffffffffffffffffffffffffffffffffffffffffffffffff60190565b906030116101965790603090565b906060116101965760300190603090565b90600d116101965790600d90565b906009116101965790600990565b90600a116101965760090190600190565b909291928360091161019657831161019657600901917ffffffffffffffffffffffffffffffffffffffffffffffffffffffffffffffff70190565b906063116101965760330190603090565b906096116101965760660190603090565b9060c9116101965760990190603090565b9060fc116101965760cc0190603090565b906101c811610196576101980190603090565b906002116101965790600290565b906004116101965760020190600290565b906006116101965760040190600290565b906008116101965760060190600290565b906002116101965760010190600190565b909291928360021161019657831161019657600201917ffffffffffffffffffffffffffffffffffffffffffffffffffffffffffffffffe0190565b906003116101965760010190600290565b909291928360031161019657831161019657600301917ffffffffffffffffffffffffffffffffffffffffffffffffffffffffffffffffd0190565b906009116101965760040190600590565b90600f1161019657600d0190600290565b9092919283600b1161019657831161019657600b01917ffffffffffffffffffffffffffffffffffffffffffffffffffffffffffffffff50190565b9092919283600f1161019657831161019657600f01917ffffffffffffffffffffffffffffffffffffffffffffffffffffffffffffffff10190565b909291928360041161019657831161019657600401917ffffffffffffffffffffffffffffffffffffffffffffffffffffffffffffffffc0190565b90939293848311610196578411610196578101920390565b7fffffffffffffffff000000000000000000000000000000000000000000000000903581811693926008811061154d57505050565b60080360031b82901b16169150565b1561156357565b60646040517f08c379a000000000000000000000000000000000000000000000000000000000815260206004820152600b60248201527f696e76616c696420646f630000000000000000000000000000000000000000006044820152fd5b7fffff00000000000000000000000000000000000000000000000000000000000090358181169392600281106115f657505050565b60020360031b82901b16169150565b1561019657565b603590837fffff0000000000000000000000000000000000000000000000000000000000009594611683946040519788947f846a5369676e61747572653144a10138224059000000000000000000000000006020870152166033850152848401378101600083820152036015810185520183610914565b565b7f4e487b7100000000000000000000000000000000000000000000000000000000600052603260045260246000fd5b90156116bd5790565b611685565b90603010156116bd5760300190565b90600c10156116bd57600c0190565b908210156116bd570190565b60005b8381106116ff5750506000910152565b81810151838201526020016116ef565b93602093818998979460029a977fff00000000000000000000000000000000000000000000000000000000000000611796967f3000000000000000000000000000000000000000000000000000000000000000835216600182015261177c825180938a8f850191016116ec565b01918a8301370191878301600081528151948592016116ec565b01918483013701016000815290565b67ffffffffffffffff81116108d757601f017fffffffffffffffffffffffffffffffffffffffffffffffffffffffffffffffe01660200190565b9291926117eb826117a5565b916117f96040519384610914565b829481845281830111610196578281602093846000960137010152565b9392936118216111bb565b506396258ff5421015611a4a57611838828261120b565b61184191611518565b7fffffffffffffffff000000000000000000000000000000000000000000000000167f8444a1013822a0590000000000000000000000000000000000000000000000001461188e9061155c565b6118988282611219565b6118a1916115c1565b6118ad9060f01c610b24565b916118b983828461123b565b946118c385610b37565b6118cf90868587611500565b7fffff000000000000000000000000000000000000000000000000000000000000969187916118fd916115c1565b167f58600000000000000000000000000000000000000000000000000000000000001461192990611605565b61193290610b37565b9761193e918784611d1f565b9491949390939861194e81610b45565b9161195893611500565b9590948160f01b169161196a9261160c565b9361197581856116b4565b611982903560f81c611f39565b9061198d81866116c2565b61199a903560f81c611f39565b82516119a590610b53565b81516119b091610ce4565b60ff1660f81b7fff0000000000000000000000000000000000000000000000000000000000000016916119e38188611276565b916119ee9198611284565b9290916040519889966020880196611a059761170f565b037fffffffffffffffffffffffffffffffffffffffffffffffffffffffffffffffe081018452611a359084610914565b3690611a40926117df565b9161168392611fbd565b60046040517f0790d4e3000000000000000000000000000000000000000000000000000000008152fd5b6000602091604051838101907f01ffc9a70000000000000000000000000000000000000000000000000000000082527faefcad6e00000000000000000000000000000000000000000000000000000000602482015260248152611ad6816108f8565b5191617530fa6000513d82611af7575b5081611af0575090565b9050151590565b60201115915038611ae6565b7fffffffffffffffffffffffff000000000000000000000000000000000000000090358181169392600c8110611b3857505050565b600c0360031b82901b16169150565b15611b4e57565b60646040517f08c379a000000000000000000000000000000000000000000000000000000000815260206004820152601260248201527f6578706563746564206d6f64756c655f696400000000000000000000000000006044820152fd5b7fffffffffffffffffffffffffffffffffffffffffffffffffff000000000000009035818116939260198110611be157505050565b60190360031b82901b16169150565b15611bf757565b60646040517f08c379a000000000000000000000000000000000000000000000000000000000815260206004820152601b60248201527f65787065637465642064696765737420262074696d657374616d7000000000006044820152fd5b15611c5c57565b60646040517f08c379a000000000000000000000000000000000000000000000000000000000815260206004820152600f60248201527f6f6c64206174746573746174696f6e00000000000000000000000000000000006044820152fd5b15611cc157565b60646040517f08c379a000000000000000000000000000000000000000000000000000000000815260206004820152601060248201527f756e706172736564207061796c6f6164000000000000000000000000000000006044820152fd5b9293909193611d2c6111bb565b5082600c116101965782611ef2611eeb611ee583611ebd611e8d611eb7611edd9c611eb1856116839b8f80611da67fa9696d6f64756c655f69647800000000000000000000000000000000000000007fffffffffffffffffffffffff00000000000000000000000000000000000000008694351614611b47565b611eac611e6f611e01611dfc611df7611df1611deb611dc589896116d1565b357fff000000000000000000000000000000000000000000000000000000000000001690565b60f81c90565b60ff1690565b610b61565b610cac565b611e6a7f66646967657374665348413338346974696d657374616d701b000000000000007fffffffffffffffffffffffffffffffffffffffffffffffffff00000000000000611e63611e5d611e5586610b6f565b868b8b611500565b90611bac565b1614611bf0565b610b6f565b93611ea6611e99611e93611e8288610b7d565b9c8d80998989611500565b90611518565b60c01c90565b67ffffffffffffffff1690565b11611c55565b611500565b90612234565b90610ce4565b98611ed3611ecd838c8185611500565b906126b3565b909c919c9b610ce4565b988991611500565b90612a8a565b9095610ce4565b14611cba565b604051906020820182811067ffffffffffffffff8211176108d75760405260008252565b8051156116bd5760200190565b8051600110156116bd5760210190565b60ff6080911610600014611f795760405190611f54826108dc565b60028252602036818401376030611f76836002611f7082611f1c565b53611f29565b53565b60405190611f86826108dc565b6003825260203681840137816002611f9d82611f1c565b536031611fa982611f29565b538051600210156116bd5760226000910153565b91610539461480156120be575b6120b9577fffffffffffffffffffffffffffffffffffffffffffffffffffffffffffffa5034601468111610b325760021061205b5761202b9261201861201261202794612ca7565b91612d37565b90612021611ef8565b91612e1b565b1590565b61203157565b60046040517f8baa579f000000000000000000000000000000000000000000000000000000008152fd5b60646040517f08c379a000000000000000000000000000000000000000000000000000000000815260206004820152600760248201527f6e6f2070333834000000000000000000000000000000000000000000000000006044820152fd5b505050565b50617a694614611fca565b7fffffffffffffffffff000000000000000000000000000000000000000000000090358181169392600981106120fe57505050565b60090360031b82901b16169150565b1561211457565b60646040517f08c379a000000000000000000000000000000000000000000000000000000000815260206004820152600d60248201527f65787065637465642070637273000000000000000000000000000000000000006044820152fd5b94838e9d9c9a97939660209f9c9a9789978b9785928f9d97855260208501376000838501602001908152370101918d8301600081523701918a83016000815237019187830160008152370191848301600081523701016000815290565b156121d657565b60646040517f08c379a000000000000000000000000000000000000000000000000000000000815260206004820152600a60248201527f77726f6e672070637273000000000000000000000000000000000000000000006044820152fd5b908061229e926122997f6470637273b000583000000000000000000000000000000000000000000000007fffffffffffffffffff000000000000000000000000000000000000000000000061229261228c86866112a3565b906120c9565b161461210d565b6112c2565b906122b56122ae845161ffff1690565b61ffff1690565b6001919082811683036123f2576122cc8483611276565b949094925b82851c851685036123e8576122e682826112fd565b959095925b81808660021c16146000146123e057612304818461130e565b9390935b83808860031c16146000146123d657612321838361131f565b919091925b85808a60041c16146000146123cc5761233f8582611330565b959095965b808b60081c16146000146123c25761235b91611341565b969096975b6040519b8c9b60208d019e8f9c61011f1661237a9d612172565b037fffffffffffffffffffffffffffffffffffffffffffffffffffffffffffffffe0810182526123aa9082610914565b5190209060200151146123bc906121cf565b61033690565b5095600097612360565b8094600096612344565b8190600092612326565b826000612308565b80946000926122eb565b81936000926122d1565b7fffffffffffffffffffffffffff0000000000000000000000000000000000000090358181169392600d811061243157505050565b600d0360031b82901b16169150565b1561244757565b60646040517f08c379a000000000000000000000000000000000000000000000000000000000815260206004820152601460248201527f65787065637465642063657274696669636174650000000000000000000000006044820152fd5b7fffffffffffffffffffff0000000000000000000000000000000000000000000090358181169392600a81106124da57505050565b600a0360031b82901b16169150565b156124f057565b60646040517f08c379a000000000000000000000000000000000000000000000000000000000815260206004820152601160248201527f657870656374656420636162756e646c650000000000000000000000000000006044820152fd5b7fff00000000000000000000000000000000000000000000000000000000000000903581811693926001811061258357505050565b60010360031b82901b16169150565b1561259957565b60646040517f08c379a000000000000000000000000000000000000000000000000000000000815260206004820152601060248201527f696e76616c696420636162756e646c65000000000000000000000000000000006044820152fd5b6040519060a0820182811067ffffffffffffffff8211176108d757604052606182527ff4000000000000000000000000000000000000000000000000000000000000006080837f04fc0254eba608c1f36870e29ada90be46383292736e894bfff672d989444b5060208201527f51e534a4b1f6dbe3c0bc581a32b7b176070ede12d69a3fea211b66e752cf7dd160408201527fdd095f6f1370f4170843d9dc100121e4cf63012809664487c9796284304dc53f60608201520152565b91906127bd906127187f6b636572746966696361746559000000000000000000000000000000000000007fffffffffffffffffffffffffff0000000000000000000000000000000000000061271161270b8589611295565b906123fc565b1614612440565b61273f61273a6122ae61273461272e858961143e565b906115c1565b60f01c90565b610cd6565b9061274b82828761148a565b9390926127b87f68636162756e646c6580000000000000000000000000000000000000000000007ffffffffffffffffffff0000000000000000000000000000000000000000000006127b16127ab8b86896127a582610b8b565b92611500565b906124a5565b16146124e9565b610b8b565b92600f6127d9611deb611dc56127d288610f76565b868b6116e0565b1691866000917ff0cea14dbdf686c8ac880e8fa240b126f81ccebee17fa63f60351b12674f1229946000905b80821061283157505050506128279495966128219136916117df565b92612f47565b9492509050929190565b939095916128ca6122ae61273461272e879e976128b98e879f7f59000000000000000000000000000000000000000000000000000000000000007fff000000000000000000000000000000000000000000000000000000000000006128ad6128a78c856128a06128b497610b99565b918a611500565b9061254e565b1614612592565b610b99565b6128c281610b37565b968792611500565b87156129265792612909926128f28d846128ea8e9860019b9a9792610ce4565b9d8e92611500565b919093888b1460001461291b5750506128216125f7565b9b92509490949a94965b019092612805565b6128219136916117df565b61293b906001929c9396959c9a94989a610ce4565b98612913565b1561294857565b60646040517f08c379a000000000000000000000000000000000000000000000000000000000815260206004820152601260248201527f657870656374656420757365725f6461746100000000000000000000000000006044820152fd5b3590602081106129b4575090565b7fffffffffffffffffffffffffffffffffffffffffffffffffffffffffffffffff9060200360031b1b1690565b7fffffffffffff00000000000000000000000000000000000000000000000000009035818116939260068110612a1657505050565b60060360031b82901b16169150565b15612a2c57565b60646040517f08c379a000000000000000000000000000000000000000000000000000000000815260206004820152600e60248201527f6578706563746564206e6f6e63650000000000000000000000000000000000006044820152fd5b9190612a946111bb565b9281600b11610196577f6a7075626c69635f6b65790000000000000000000000000000000000000000007fffffffffffffffffffffff00000000000000000000000000000000000000000082351603612c1957612b93612b8a612b0c8484612c09612b75612b1a612b12612b0c8680612c119c61144f565b906131b1565b915050610cba565b6127b87f69757365725f64617461000000000000000000000000000000000000000000007fffffffffffffffffffff00000000000000000000000000000000000000000000612b6e6127ab611e5586610b8b565b1614612941565b612b99612b93612b8a612b0c87858189611500565b90929194610ce4565b926129a6565b8b52612c047f656e6f6e636500000000000000000000000000000000000000000000000000007fffffffffffff0000000000000000000000000000000000000000000000000000612bfd612bf7612bef86610ba7565b868a8a611500565b906129e1565b1614612a25565b610ba7565b968791611500565b602084015290565b60646040517f08c379a000000000000000000000000000000000000000000000000000000000815260206004820152601360248201527f6578706563746564207075626c69635f6b6579000000000000000000000000006044820152fd5b3d15612ca2573d90612c88826117a5565b91612c966040519384610914565b82523d6000602084013e565b606090565b600080916020815191017301000000000000000000000000000000000001045afa90612cd1612c77565b9115612cd957565b60646040517f08c379a000000000000000000000000000000000000000000000000000000000815260206004820152600660248201527f73686133383400000000000000000000000000000000000000000000000000006044820152fd5b8051156116bd577fff000000000000000000000000000000000000000000000000000000000000007f04000000000000000000000000000000000000000000000000000000000000008160208401511603612dbc578151606010156116bd5760026001608084015160f81c161760f81b1660001a612db482611f1c565b536031815290565b5090565b907fffffffffffffffffffffffffffffffffffffffffffffffffffffffffffffffe0601f602093612dfc815180928187528780880191016116ec565b0116010190565b90816020910312610196575180151581036101965790565b90612eaf612e939160009594612ea38796604051958693612e83612e52602087019a60088c5260a0604089015260c0880190612dc0565b7fffffffffffffffffffffffffffffffffffffffffffffffffffffffffffffffe09788888303016060890152612dc0565b9086868303016080870152612dc0565b90848483030160a0850152612dc0565b03908101835282610914565b51907301000000000000000000000000000000000000075afa612ed0612c77565b9015612ee9578060208061096a93518301019101612e03565b60646040517f08c379a000000000000000000000000000000000000000000000000000000000815260206004820152600e60248201527f7665726966793a206661696c65640000000000000000000000000000000000006044820152fd5b92909193612f558385611354565b7f3082000000000000000000000000000000000000000000000000000000000000918291612f82916115c1565b7fffff0000000000000000000000000000000000000000000000000000000000001614612fae90613384565b612fb88486611362565b612fc1916115c1565b612fcd9060f01c610bb5565b8414612fd8906133e9565b612fe28486611373565b612feb916115c1565b7fffff00000000000000000000000000000000000000000000000000000000000016146130179061344e565b826130228186611384565b61302b916115c1565b6130379060f01c610cc8565b926130438483886114c5565b9790966130508989613755565b9a92939b919961305f81610bc3565b61306b90828689611500565b61307491611b03565b7fffffffffffffffffffffffff0000000000000000000000000000000000000000167f300a06082a8648ce3d0403030000000000000000000000000000000000000000146130c1906134b3565b6130ca90610bc3565b7fff00000000000000000000000000000000000000000000000000000000000000806130f783878a6116e0565b357fff0000000000000000000000000000000000000000000000000000000000000016167f0300000000000000000000000000000000000000000000000000000000000000149961318b9761318396613169613178956131646116839f61316f9781613191575b50613518565b610bd1565b91611500565b9790951461357d565b99989a9b36916117df565b9236916117df565b91611fbd565b90506131a9611dc56131a285610b37565b87896116e0565b16153861315e565b917fff000000000000000000000000000000000000000000000000000000000000007ff60000000000000000000000000000000000000000000000000000000000000081613202611dc586886116b4565b1614801561334d575b613343577f58000000000000000000000000000000000000000000000000000000000000008161323e611dc586886116b4565b1614613310577f590000000000000000000000000000000000000000000000000000000000000090613273611dc585876116b4565b16146132d8576040517f08c379a000000000000000000000000000000000000000000000000000000000815260206004820152601760248201527f65787065637465642075736572646174612062797465730000000000000000006044820152606490fd5b613302836132f26122ae61273461272e8761330a996113e1565b936132fc85610bed565b916113f2565b939092610bd1565b91929190565b5061333b8361332b611df1611deb6128a78761330a99611395565b9361333585610bdf565b916113a6565b939092610b37565b5060009150600190565b507f40000000000000000000000000000000000000000000000000000000000000008161337d611dc586886116b4565b161461320b565b1561338b57565b60646040517f08c379a000000000000000000000000000000000000000000000000000000000815260206004820152600860248201527f6e6f7420636572740000000000000000000000000000000000000000000000006044820152fd5b156133f057565b60646040517f08c379a000000000000000000000000000000000000000000000000000000000815260206004820152600c60248201527f6e6f742063657274206c656e00000000000000000000000000000000000000006044820152fd5b1561345557565b60646040517f08c379a000000000000000000000000000000000000000000000000000000000815260206004820152600760248201527f6e6f7420746273000000000000000000000000000000000000000000000000006044820152fd5b156134ba57565b60646040517f08c379a000000000000000000000000000000000000000000000000000000000815260206004820152600960248201527f77726f6e672073696700000000000000000000000000000000000000000000006044820152fd5b1561351f57565b60646040517f08c379a000000000000000000000000000000000000000000000000000000000815260206004820152600760248201527f6e6f7420736967000000000000000000000000000000000000000000000000006044820152fd5b1561358457565b60646040517f08c379a000000000000000000000000000000000000000000000000000000000815260206004820152600c60248201527f77726f6e672069737375657200000000000000000000000000000000000000006044820152fd5b7fffffffffff000000000000000000000000000000000000000000000000000000903581811693926005811061361757505050565b60050360031b82901b16169150565b1561362d57565b60646040517f08c379a000000000000000000000000000000000000000000000000000000000815260206004820152600a60248201527f6e6f7420763220746273000000000000000000000000000000000000000000006044820152fd5b1561369257565b60646040517f08c379a000000000000000000000000000000000000000000000000000000000815260206004820152600a60248201527f6e6f742073657269616c000000000000000000000000000000000000000000006044820152fd5b156136f757565b60646040517f08c379a000000000000000000000000000000000000000000000000000000000815260206004820152600760248201527f6e6f7420736571000000000000000000000000000000000000000000000000006044820152fd5b91613760828461142d565b613769916135e2565b7fffffffffff000000000000000000000000000000000000000000000000000000167fa003020102000000000000000000000000000000000000000000000000000000146137b690613626565b6137c082846112b1565b7fff00000000000000000000000000000000000000000000000000000000000000929183916137ee9161254e565b167f02000000000000000000000000000000000000000000000000000000000000001461381a9061368b565b613824838561122a565b61382d9161254e565b6138399060f81c610cba565b9361384585858361144f565b3690613850926117df565b805190602001209461386181610bc3565b61386d90828785611500565b61387691611b03565b7fffffffffffffffffffffffff0000000000000000000000000000000000000000167f300a06082a8648ce3d0403030000000000000000000000000000000000000000146138c3906134b3565b6138cc90610bc3565b936138d981868185611500565b6138e291613abd565b6138ec9197610ce4565b956138f691613cb6565b3690613901926117df565b805190602001209461391281610b99565b61391e90828486611500565b867f30000000000000000000000000000000000000000000000000000000000000009392849261394d9161254e565b1614613958906136f0565b61396190610b99565b9061396b82610b99565b9182613978918587611500565b6139819161254e565b61398e9060f81c83610ce4565b918261399b918587611500565b6139a491613ecc565b6139b083838187611500565b6139b991613abd565b6139c39194610ce4565b926139cd91613cb6565b36906139d8926117df565b80519060200120956139e983610b99565b6139f590848688611500565b6139fe9161254e565b1614613a09906136f0565b613a1290610b99565b613a1b81610b99565b9081613a28918486611500565b613a319161254e565b60f81c60ff16613a4091610ce4565b90613a4a82610fa3565b90613a5493611500565b9091565b15613a5f57565b60646040517f08c379a000000000000000000000000000000000000000000000000000000000815260206004820152600b60248201527f73657120746f6f206269670000000000000000000000000000000000000000006044820152fd5b600082600111610149575080613b1a7f30000000000000000000000000000000000000000000000000000000000000007fff00000000000000000000000000000000000000000000000000000000000000613b67943516146136f0565b6002613b2f611df1611deb6128a78786611395565b60818103613b6e5750613b5f613b59611df1611deb6128a7613b5086610b99565b80968a89611500565b82610ce4565b938492611500565b9290929190565b60828103613b955750506004613b5f613b906122ae61273461272e8887611362565b613b59565b80613b90608080613b5f94161415613a58565b15613baf57565b60646040517f08c379a000000000000000000000000000000000000000000000000000000000815260206004820152600760248201527f6e6f742072646e000000000000000000000000000000000000000000000000006044820152fd5b7fffffffffffffff000000000000000000000000000000000000000000000000009035818116939260078110613c4257505050565b60070360031b82901b16169150565b15613c5857565b60646040517f08c379a000000000000000000000000000000000000000000000000000000000815260206004820152600660248201527f6e6f7420636e00000000000000000000000000000000000000000000000000006044820152fd5b91909160005b838103613d22576040517f08c379a000000000000000000000000000000000000000000000000000000000815260206004820152600560248201527f6e6f20434e0000000000000000000000000000000000000000000000000000006044820152606490fd5b613d93816128b4613d5e613d567f310000000000000000000000000000000000000000000000000000000000000095610b99565b838988611500565b9490613d8c7fff0000000000000000000000000000000000000000000000000000000000000096879261254e565b1614613ba8565b613db1611df1611deb6128a7613da885610b99565b80958a89611500565b7f3000060355040300000000000000000000000000000000000000000000000000613e397fff00ffffffffff00000000000000000000000000000000000000000000000000613e13613e0d613e0587610bfb565b878c8b611500565b90613c0d565b167fffffffffffffff000000000000000000000000000000000000000000000000001690565b03613ebc5750613a549394916128b47f0c00000000000000000000000000000000000000000000000000000000000000613e75613e9494610bfb565b92613e8d6128a7613e8586610b99565b86898b611500565b1614613c51565b906127a5613eb6611df1611deb6128a7613ead87610b99565b8097878a611500565b83610ce4565b90613ec79250610ce4565b613cbc565b81600f11610196577fffffffffffffffffffffffffff00000000000000000000000000000000000000613f048160028401351661407c565b92601e11610196576011613f1a9201351661407c565b613f248282610ffd565b6202a300811015613fa95750613f3e620151808092610ce4565b4211613f7f57613f4d91610ffd565b4210613f5557565b60046040517fd4b1c2f8000000000000000000000000000000000000000000000000000000008152fd5b60046040517f08fceeaa000000000000000000000000000000000000000000000000000000008152fd5b613f3e9060021c8092610ce4565b15613fbe57565b60646040517f08c379a000000000000000000000000000000000000000000000000000000000815260206004820152600a60248201527f6e6f742075746320747a000000000000000000000000000000000000000000006044820152fd5b90600a820291808304600a1490151715610b3257565b9081603c0291603c830403610b3257565b90610e109180830292830403610b3257565b90620151809180830292830403610b3257565b906301e187e09180830292830403610b3257565b80600c1a60f81b7fff00000000000000000000000000000000000000000000000000000000000000167f5a00000000000000000000000000000000000000000000000000000000000000146140d090613fb7565b60a01c6140dc90610fd0565b60ff90818160081c166140ee9061401c565b8282166140fa91610ce4565b828260181c166141099061401c565b838360101c1661411891610ce4565b90838360281c166141289061401c565b848460201c1661413791610ce4565b90848460381c166141479061401c565b858560301c1661415691610ce4565b93858160481c166141669061401c565b868260401c1661417591610ce4565b95808260581c166141859061401c565b9160501c1661419391610ce4565b948561419e91614206565b926141a890614032565b6141b191610ce4565b906141bb90614043565b6141c491610ce4565b916141ce90610f76565b906141d891610ce4565b6141e190614055565b6141ea91610ce4565b906141f490614068565b6141fd90610c09565b61096a91610ce4565b90600182146143465760031661433d5760ff60015b169060028114614336576003811461432c57600481146143225760058114614318576006811461430e576007811461430457600881146142fa57600981146142f057600a81146142e657600b81146142dc57600c146142d3576040517f08c379a000000000000000000000000000000000000000000000000000000000815260206004820152600960248201527f626164206d6f6e746800000000000000000000000000000000000000000000006044820152606490fd5b61096a90610c9c565b5061096a90610c8c565b5061096a90610c7c565b5061096a90610c6e565b5061096a90610c60565b5061096a90610c52565b5061096a90610c44565b5061096a90610c36565b5061096a90610c28565b5061096a90610c1a565b5050601f90565b60ff600061421b565b505060009056fea2646970667358221220b115ee49039fbd1621744e0c1d1260a44a0e2e26184141072f6a8475518557ba64736f6c63430008170033"
  },
  "id": 4,
  "methodIdentifiers": {
    "acquireIdentity(bytes32,address,uint64,bytes,bytes)": "8320790c",
    "burnt(bytes32)": "32d230b8",
    "pcrs(bytes32)": "51febe45",
    "releaseIdentity(bytes32,address,bytes,bytes)": "f58ac325",
    "setPCRs(bytes32,(uint16,bytes32))": "e9c393c7",
    "supportsInterface(bytes4)": "01ffc9a7",
    "upstream()": "6a99a523"
  }
}