{
  "abi": [
    {
      "inputs": [],
      "stateMutability": "nonpayable",
      "type": "constructor"
    },
    {
      "inputs": [
        {
          "internalType": "IdentityId",
          "name": "id",
          "type": "bytes32"
        }
      ],
      "name": "acceptRegistrationTransfer",
      "outputs": [],
      "stateMutability": "nonpayable",
      "type": "function"
    },
    {
      "inputs": [
        {
          "internalType": "address",
          "name": "permitter",
          "type": "address"
        },
        {
          "internalType": "bytes",
          "name": "pers",
          "type": "bytes"
        }
      ],
      "name": "createIdentity",
      "outputs": [
        {
          "internalType": "IdentityId",
          "name": "id",
          "type": "bytes32"
        }
      ],
      "stateMutability": "nonpayable",
      "type": "function"
    },
    {
      "inputs": [
        {
          "internalType": "IdentityId",
          "name": "id",
          "type": "bytes32"
        }
      ],
      "name": "destroyIdentity",
      "outputs": [],
      "stateMutability": "nonpayable",
      "type": "function"
    },
    {
      "inputs": [],
      "name": "eip712Domain",
      "outputs": [
        {
          "internalType": "bytes1",
          "name": "fields",
          "type": "bytes1"
        },
        {
          "internalType": "string",
          "name": "name",
          "type": "string"
        },
        {
          "internalType": "string",
          "name": "version",
          "type": "string"
        },
        {
          "internalType": "uint256",
          "name": "chainId",
          "type": "uint256"
        },
        {
          "internalType": "address",
          "name": "verifyingContract",
          "type": "address"
        },
        {
          "internalType": "bytes32",
          "name": "salt",
          "type": "bytes32"
        },
        {
          "internalType": "uint256[]",
          "name": "extensions",
          "type": "uint256[]"
        }
      ],
      "stateMutability": "view",
      "type": "function"
    },
    {
      "inputs": [
        {
          "components": [
            {
              "components": [
                {
                  "internalType": "IdentityId",
                  "name": "identity",
                  "type": "bytes32"
                },
                {
                  "internalType": "address",
                  "name": "requester",
                  "type": "address"
                },
                {
                  "internalType": "uint256",
                  "name": "expiry",
                  "type": "uint256"
                }
              ],
              "internalType": "struct OmniKeyStore.KeyRequest",
              "name": "req",
              "type": "tuple"
            },
            {
              "internalType": "bytes",
              "name": "sig",
              "type": "bytes"
            }
          ],
          "internalType": "struct OmniKeyStore.SignedKeyRequest",
          "name": "signedKeyReq",
          "type": "tuple"
        }
      ],
      "name": "getKey",
      "outputs": [
        {
          "internalType": "OmniKeyStore.Key",
          "name": "",
          "type": "bytes32"
        }
      ],
      "stateMutability": "view",
      "type": "function"
    },
    {
      "inputs": [
        {
          "internalType": "IdentityId",
          "name": "id",
          "type": "bytes32"
        }
      ],
      "name": "getPermitter",
      "outputs": [
        {
          "internalType": "contract IPermitter",
          "name": "",
          "type": "address"
        }
      ],
      "stateMutability": "view",
      "type": "function"
    },
    {
      "inputs": [
        {
          "internalType": "IdentityId",
          "name": "id",
          "type": "bytes32"
        }
      ],
      "name": "getRegistrant",
      "outputs": [
        {
          "internalType": "address",
          "name": "current",
          "type": "address"
        },
        {
          "internalType": "address",
          "name": "proposed",
          "type": "address"
        }
      ],
      "stateMutability": "view",
      "type": "function"
    },
    {
      "inputs": [
        {
          "components": [
            {
              "components": [
                {
                  "internalType": "IdentityId",
                  "name": "identity",
                  "type": "bytes32"
                },
                {
                  "internalType": "address",
                  "name": "requester",
                  "type": "address"
                },
                {
                  "internalType": "uint256",
                  "name": "expiry",
                  "type": "uint256"
                }
              ],
              "internalType": "struct OmniKeyStore.KeyRequest",
              "name": "req",
              "type": "tuple"
            },
            {
              "internalType": "bytes",
              "name": "sig",
              "type": "bytes"
            }
          ],
          "internalType": "struct OmniKeyStore.SignedKeyRequest",
          "name": "signedKeyReq",
          "type": "tuple"
        }
      ],
      "name": "getSecondaryKey",
      "outputs": [
        {
          "internalType": "OmniKeyStore.Key",
          "name": "",
          "type": "bytes32"
        }
      ],
      "stateMutability": "view",
      "type": "function"
    },
    {
      "inputs": [
        {
          "internalType": "IdentityId",
          "name": "id",
          "type": "bytes32"
        },
        {
          "internalType": "address",
          "name": "to",
          "type": "address"
        },
        {
          "internalType": "uint64",
          "name": "expiry",
          "type": "uint64"
        }
      ],
      "name": "grantIdentity",
      "outputs": [],
      "stateMutability": "nonpayable",
      "type": "function"
    },
    {
      "inputs": [
        {
          "internalType": "IdentityId",
          "name": "id",
          "type": "bytes32"
        },
        {
          "internalType": "address",
          "name": "to",
          "type": "address"
        }
      ],
      "name": "proposeRegistrationTransfer",
      "outputs": [],
      "stateMutability": "nonpayable",
      "type": "function"
    },
    {
      "inputs": [
        {
          "internalType": "IdentityId",
          "name": "identityId",
          "type": "bytes32"
        },
        {
          "internalType": "bytes",
          "name": "pers",
          "type": "bytes"
        }
      ],
      "name": "provisionSecondaryKey",
      "outputs": [],
      "stateMutability": "nonpayable",
      "type": "function"
    },
    {
      "inputs": [
        {
          "internalType": "address",
          "name": "holder",
          "type": "address"
        },
        {
          "internalType": "IdentityId",
          "name": "id",
          "type": "bytes32"
        }
      ],
      "name": "readPermit",
      "outputs": [
        {
          "components": [
            {
              "internalType": "uint64",
              "name": "expiry",
              "type": "uint64"
            }
          ],
          "internalType": "struct IIdentityRegistry.Permit",
          "name": "",
          "type": "tuple"
        }
      ],
      "stateMutability": "view",
      "type": "function"
    },
    {
      "inputs": [
        {
          "internalType": "IdentityId",
          "name": "id",
          "type": "bytes32"
        },
        {
          "internalType": "address",
          "name": "from",
          "type": "address"
        }
      ],
      "name": "revokeIdentity",
      "outputs": [],
      "stateMutability": "nonpayable",
      "type": "function"
    },
    {
      "inputs": [
        {
          "internalType": "IdentityId",
          "name": "identityId",
          "type": "bytes32"
        }
      ],
      "name": "rotateKeys",
      "outputs": [],
      "stateMutability": "nonpayable",
      "type": "function"
    },
    {
      "inputs": [
        {
          "internalType": "IdentityId",
          "name": "id",
          "type": "bytes32"
        },
        {
          "internalType": "address",
          "name": "permitter",
          "type": "address"
        }
      ],
      "name": "setPermitter",
      "outputs": [],
      "stateMutability": "nonpayable",
      "type": "function"
    },
    {
      "inputs": [
        {
          "internalType": "bytes4",
          "name": "interfaceId",
          "type": "bytes4"
        }
      ],
      "name": "supportsInterface",
      "outputs": [
        {
          "internalType": "bool",
          "name": "",
          "type": "bool"
        }
      ],
      "stateMutability": "view",
      "type": "function"
    },
    {
      "anonymous": false,
      "inputs": [],
      "name": "EIP712DomainChanged",
      "type": "event"
    },
    {
      "anonymous": false,
      "inputs": [
        {
          "indexed": false,
          "internalType": "IdentityId",
          "name": "id",
          "type": "bytes32"
        }
      ],
      "name": "IdentityCreated",
      "type": "event"
    },
    {
      "anonymous": false,
      "inputs": [
        {
          "indexed": true,
          "internalType": "IdentityId",
          "name": "id",
          "type": "bytes32"
        }
      ],
      "name": "IdentityDestroyed",
      "type": "event"
    },
    {
      "anonymous": false,
      "inputs": [
        {
          "indexed": true,
          "internalType": "IdentityId",
          "name": "id",
          "type": "bytes32"
        },
        {
          "indexed": true,
          "internalType": "address",
          "name": "to",
          "type": "address"
        }
      ],
      "name": "IdentityGranted",
      "type": "event"
    },
    {
      "anonymous": false,
      "inputs": [
        {
          "indexed": true,
          "internalType": "IdentityId",
          "name": "id",
          "type": "bytes32"
        },
        {
          "indexed": true,
          "internalType": "address",
          "name": "from",
          "type": "address"
        }
      ],
      "name": "IdentityRevoked",
      "type": "event"
    },
    {
      "anonymous": false,
      "inputs": [
        {
          "indexed": true,
          "internalType": "IdentityId",
          "name": "identityId",
          "type": "bytes32"
        }
      ],
      "name": "PermitterChanged",
      "type": "event"
    },
    {
      "anonymous": false,
      "inputs": [
        {
          "indexed": true,
          "internalType": "IdentityId",
          "name": "identityId",
          "type": "bytes32"
        },
        {
          "indexed": true,
          "internalType": "address",
          "name": "proposed",
          "type": "address"
        }
      ],
      "name": "RegistrationTransferProposed",
      "type": "event"
    },
    {
      "inputs": [],
      "name": "ECDSAInvalidSignature",
      "type": "error"
    },
    {
      "inputs": [
        {
          "internalType": "uint256",
          "name": "length",
          "type": "uint256"
        }
      ],
      "name": "ECDSAInvalidSignatureLength",
      "type": "error"
    },
    {
      "inputs": [
        {
          "internalType": "bytes32",
          "name": "s",
          "type": "bytes32"
        }
      ],
      "name": "ECDSAInvalidSignatureS",
      "type": "error"
    },
    {
      "inputs": [],
      "name": "InterfaceUnsupported",
      "type": "error"
    },
    {
      "inputs": [],
      "name": "InvalidShortString",
      "type": "error"
    },
    {
      "inputs": [],
      "name": "KeyAlreadyProvisioned",
      "type": "error"
    },
    {
      "inputs": [],
      "name": "KeyNotProvisioned",
      "type": "error"
    },
    {
      "inputs": [
        {
          "internalType": "string",
          "name": "str",
          "type": "string"
        }
      ],
      "name": "StringTooLong",
      "type": "error"
    },
    {
      "inputs": [],
      "name": "Unauthorized",
      "type": "error"
    }
  ],
  "bytecode": {
    "linkReferences": {},
    "object": "0x61016080604052346200015157620000178162000156565b600c8152602081016b4f6d6e694b657953746f726560a01b815260405191620000408362000156565b6001835260208301603160f81b81526200005a8262000172565b926101209384526200006c856200034c565b92610140938452519020938460e05251902091610100938385524660a0526040519360208501917f8b73c3c69bb8fe3d512ecc4cf759cc79239f7b179b0ffacaa9a75d522b39400f8352604086015260608501524660808501523060a085015260a0845260c084019380851060018060401b038611176200013b57846040525190206080523060c052611ec8938462000505853960805184611805015260a051846118c0015260c051846117d6015260e051846118540152518361187a015251826108ab015251816108d50152f35b634e487b7160e01b600052604160045260246000fd5b600080fd5b604081019081106001600160401b038211176200013b57604052565b8051602091908281101562000211575090601f825111620001b05780825192015190808310620001a157501790565b82600019910360031b1b161790565b90604051809263305a27a960e01b82528060048301528251908160248401526000935b828510620001f7575050604492506000838284010152601f80199101168101030190fd5b8481018201518686016044015293810193859350620001d3565b6001600160401b0381116200013b576005928354926001938481811c9116801562000341575b838210146200032b57601f8111620002f4575b5081601f84116001146200028a57509282939183926000946200027e575b50501b916000199060031b1c191617905560ff90565b01519250388062000268565b919083601f1981168760005284600020946000905b88838310620002d95750505010620002bf575b505050811b01905560ff90565b015160001960f88460031b161c19169055388080620002b2565b8587015188559096019594850194879350908101906200029f565b8560005284601f846000209201871c820191601f8601881c015b8281106200031e5750506200024a565b600081550185906200030e565b634e487b7160e01b600052602260045260246000fd5b90607f169062000237565b805160209081811015620003da5750601f825111620003795780825192015190808310620001a157501790565b90604051809263305a27a960e01b82528060048301528251908160248401526000935b828510620003c0575050604492506000838284010152601f80199101168101030190fd5b84810182015186860160440152938101938593506200039c565b906001600160401b0382116200013b57600654926001938481811c91168015620004f9575b838210146200032b57601f8111620004bf575b5081601f841160011462000453575092829391839260009462000447575b50501b916000199060031b1c19161760065560ff90565b01519250388062000430565b919083601f198116600660005284600020946000905b88838310620004a457505050106200048a575b505050811b0160065560ff90565b015160001960f88460031b161c191690553880806200047c565b85870151885590960195948501948793509081019062000469565b600660005284601f84600020920160051c820191601f860160051c015b828110620004ec57505062000412565b60008155018590620004dc565b90607f1690620003ff56fe6080604052600436101561001257600080fd5b60003560e01c806301ffc9a7146101175780631c6435701461011257806344f8e71e1461010d57806355e5bea41461010857806371c792911461010357806373397a57146100fe5780637e5df10d146100f957806384b0196e146100f4578063976ac6d9146100ef578063996d2ff3146100ea578063b8272883146100e5578063b9e47a1c146100e0578063cf087a44146100db578063d86d31b7146100d6578063e7213fc1146100d15763fcae55b3146100cc57600080fd5b610e90565b610de3565b610d70565b610c8b565b610c2b565b610bcf565b610a35565b6109aa565b610872565b6106f0565b6105bf565b6104bc565b6103a3565b61031f565b6101f9565b346101d65760207ffffffffffffffffffffffffffffffffffffffffffffffffffffffffffffffffc3601126101d6576004357fffffffff0000000000000000000000000000000000000000000000000000000081168091036101d657807faefcad6e00000000000000000000000000000000000000000000000000000000602092149081156101ac575b506040519015158152f35b7f01ffc9a700000000000000000000000000000000000000000000000000000000915014386101a1565b600080fd5b73ffffffffffffffffffffffffffffffffffffffff8116036101d657565b346101d65760607ffffffffffffffffffffffffffffffffffffffffffffffffffffffffffffffffc3601126101d657602435600435610237826101db565b6044359067ffffffffffffffff918281168091036101d657600093828552600260205273ffffffffffffffffffffffffffffffffffffffff908160408720541633036102f5576040519261028a84611075565b83521692838552600360205260408520838652602052604085209151167fffffffffffffffffffffffffffffffffffffffffffffffff00000000000000008254161790557f707a71466f8fe74cb261d93da582c7362f36602b8e7fb69278cba729731ca8a78380a380f35b60046040517f82b42900000000000000000000000000000000000000000000000000000000008152fd5b346101d65760207ffffffffffffffffffffffffffffffffffffffffffffffffffffffffffffffffc3601126101d6576004356000908082528160205273ffffffffffffffffffffffffffffffffffffffff604083205460081c1633036102f55781526008602052604081205460076020526040822055600860205280604081205580f35b346101d65760407ffffffffffffffffffffffffffffffffffffffffffffffffffffffffffffffffc3601126101d6576024356004356103e1826101db565b6000918183528260205273ffffffffffffffffffffffffffffffffffffffff604084205460081c1633036102f55761041b61046791611404565b8284526002602052604084209073ffffffffffffffffffffffffffffffffffffffff167fffffffffffffffffffffffff0000000000000000000000000000000000000000825416179055565b7f98ce2a0fb159fd14bd4249db7db60d87ac3094d8501e48e8596794586862a76b8280a280f35b9181601f840112156101d65782359167ffffffffffffffff83116101d657602083818601950101116101d657565b346101d6576040807ffffffffffffffffffffffffffffffffffffffffffffffffffffffffffffffffc3601126101d65760043560243567ffffffffffffffff81116101d65761050f90369060040161048e565b600093918385528460205273ffffffffffffffffffffffffffffffffffffffff8386205460081c1633036105965783855260086020528285205461056d5761055f9161055a9161166a565b611331565b918352600860205282205580f35b600483517fe8f5ee5c000000000000000000000000000000000000000000000000000000008152fd5b600483517f82b42900000000000000000000000000000000000000000000000000000000008152fd5b346101d65760407ffffffffffffffffffffffffffffffffffffffffffffffffffffffffffffffffc3601126101d6576024356004356105fd826101db565b6000918183528260205273ffffffffffffffffffffffffffffffffffffffff9081604085205460081c1633036102f55782845260016020526040842080547fffffffffffffffffffffffff00000000000000000000000000000000000000001673ffffffffffffffffffffffffffffffffffffffff831617905516907f6ff54b8f4b75a53f0bee6cd45a4286754e65532d132b839637312531057536188380a380f35b7ffffffffffffffffffffffffffffffffffffffffffffffffffffffffffffffffc906020828201126101d6576004359167ffffffffffffffff83116101d657826080920301126101d65760040190565b346101d6576106fe366106a0565b61076b61074e60405160208101906107468161071a878561113a565b037fffffffffffffffffffffffffffffffffffffffffffffffffffffffffffffffe081018352826110ea565b519020611558565b61076561075e606085018561119f565b369161122a565b90611599565b602082019073ffffffffffffffffffffffffffffffffffffffff6107be6107a561079f61079786611261565b8735906112b0565b94611261565b73ffffffffffffffffffffffffffffffffffffffff1690565b911614908115916107fc575b506102f5576107e86107f89135600052600760205260406000205490565b6040519081529081906020820190565b0390f35b514267ffffffffffffffff90911611159050386107ca565b919082519283825260005b84811061085e5750507fffffffffffffffffffffffffffffffffffffffffffffffffffffffffffffffe0601f8460006020809697860101520116010190565b60208183018101518483018201520161081f565b346101d6576000807ffffffffffffffffffffffffffffffffffffffffffffffffffffffffffffffffc3601126109a75761094a906108cf7f0000000000000000000000000000000000000000000000000000000000000000611a32565b906108f97f0000000000000000000000000000000000000000000000000000000000000000611b6f565b906040519161090783611075565b8183526109586020916040519687967f0f00000000000000000000000000000000000000000000000000000000000000885260e0602089015260e0880190610814565b908682036040880152610814565b904660608601523060808601528260a086015284820360c0860152602080855193848152019401925b82811061099057505050500390f35b835185528695509381019392810192600101610981565b80fd5b346101d6576109b8366106a0565b6109d461074e60405160208101906107468161071a878561113a565b602082019073ffffffffffffffffffffffffffffffffffffffff610a006107a561079f61079786611261565b91161490811591610a1d575b506102f5576107e86107f89161126e565b514267ffffffffffffffff9091161115905038610a0c565b346101d6576020807ffffffffffffffffffffffffffffffffffffffffffffffffffffffffffffffffc3601126101d65760043560009181835282815260409073ffffffffffffffffffffffffffffffffffffffff8285205460081c163303610ba657600490838552848152610ace8386207fffffffffffffffffffffff0000000000000000000000000000000000000000ff8154169055565b60018152610b008386207fffffffffffffffffffffffff00000000000000000000000000000000000000008154169055565b60028152610b328386207fffffffffffffffffffffffff00000000000000000000000000000000000000008154169055565b52822060017fffffffffffffffffffffffffffffffffffffffffffffffffffffffffffffff00825416179055610b7f81600052600760205260006040812055600860205260006040812055565b7f68629dbb3b5cc9a43165fe5529cb7c3e1f382394b6521d78050971f82b9169b08280a280f35b600482517f82b42900000000000000000000000000000000000000000000000000000000008152fd5b346101d65760407ffffffffffffffffffffffffffffffffffffffffffffffffffffffffffffffffc3601126101d6576020610c18600435610c0f816101db565b602435906112b0565b67ffffffffffffffff6040519151168152f35b346101d65760207ffffffffffffffffffffffffffffffffffffffffffffffffffffffffffffffffc3601126101d6576004356000526002602052602073ffffffffffffffffffffffffffffffffffffffff60406000205416604051908152f35b346101d65760207ffffffffffffffffffffffffffffffffffffffffffffffffffffffffffffffffc3601126101d657600435600090808252600160205273ffffffffffffffffffffffffffffffffffffffff6040832054168033036102f557610d3e9183528260205260408320907fffffffffffffffffffffff0000000000000000000000000000000000000000ff74ffffffffffffffffffffffffffffffffffffffff0083549260081b169116179055565b6001602052604081207fffffffffffffffffffffffff0000000000000000000000000000000000000000815416905580f35b346101d65760207ffffffffffffffffffffffffffffffffffffffffffffffffffffffffffffffffc3601126101d6576004356000526000602052604073ffffffffffffffffffffffffffffffffffffffff80826000205460081c1690600160205282600020541682519182526020820152f35b346101d65760407ffffffffffffffffffffffffffffffffffffffffffffffffffffffffffffffffc3601126101d657602435600435610e21826101db565b600091818352600260205273ffffffffffffffffffffffffffffffffffffffff908160408520541633036102f55716908183526003602052604083208184526020528260408120557f688fc27246238b68e81030e72fb8fcaff541e636719f51fba1f8bf1243d350408380a380f35b346101d65760407ffffffffffffffffffffffffffffffffffffffffffffffffffffffffffffffffc3601126101d657600435610ecb816101db565b60243567ffffffffffffffff81116101d657610eeb90369060040161048e565b9091610efa61055a838561166a565b9182600052600060205260ff60406000205416610fe8576107f893610fa6610f52610fac94610f4d610f2a61112b565b60018152336020820152610f48896000526000602052604060002090565b611372565b611404565b610f66866000526002602052604060002090565b9073ffffffffffffffffffffffffffffffffffffffff167fffffffffffffffffffffffff0000000000000000000000000000000000000000825416179055565b836117a0565b6040518181527fc194b2b7f255fb13fcd58d7b529f8f5a81a5791a9fb88b7de25cb5b365dae3f390602090a16040519081529081906020820190565b60646040517f08c379a000000000000000000000000000000000000000000000000000000000815260206004820152600760248201527f756e6c75636b79000000000000000000000000000000000000000000000000006044820152fd5b7f4e487b7100000000000000000000000000000000000000000000000000000000600052604160045260246000fd5b6020810190811067ffffffffffffffff82111761109157604052565b611046565b6040810190811067ffffffffffffffff82111761109157604052565b6060810190811067ffffffffffffffff82111761109157604052565b60c0810190811067ffffffffffffffff82111761109157604052565b90601f7fffffffffffffffffffffffffffffffffffffffffffffffffffffffffffffffe0910116810190811067ffffffffffffffff82111761109157604052565b6040519061113882611096565b565b9190916060604060808301947f672f02bafa7ea951b3ea05df695817723aa010191c86565201f9c3209f18a84f84528035602085015273ffffffffffffffffffffffffffffffffffffffff6020820135611193816101db565b16828501520135910152565b9035907fffffffffffffffffffffffffffffffffffffffffffffffffffffffffffffffe1813603018212156101d6570180359067ffffffffffffffff82116101d6576020019181360383136101d657565b67ffffffffffffffff811161109157601f017fffffffffffffffffffffffffffffffffffffffffffffffffffffffffffffffe01660200190565b929192611236826111f0565b9161124460405193846110ea565b8294818452818301116101d6578281602093846000960137010152565b3561126b816101db565b90565b35600052600860205260406000205480156112865790565b60046040517f7149aa52000000000000000000000000000000000000000000000000000000008152fd5b6040918251916112bf83611075565b6000809352818352600460205260ff848420541661131e5791839173ffffffffffffffffffffffffffffffffffffffff67ffffffffffffffff9416825260036020528282209082526020522091519161131783611075565b5416815290565b505090519061132c82611075565b815290565b602081519101519060208110611345575090565b7fffffffffffffffffffffffffffffffffffffffffffffffffffffffffffffffff9060200360031b1b1690565b73ffffffffffffffffffffffffffffffffffffffff6020611138938051151560ff7fffffffffffffffffffffffffffffffffffffffffffffffffffffffffffffff0086541691161784550151167fffffffffffffffffffffff0000000000000000000000000000000000000000ff74ffffffffffffffffffffffffffffffffffffffff0083549260081b169116179055565b60405160208082018160007f01ffc9a7000000000000000000000000000000000000000000000000000000009485845285602482015260248152611447816110b2565b51617530938785fa923d600051908561154d575b5084611543575b50836114c9575b505050806114ba575b156114905773ffffffffffffffffffffffffffffffffffffffff1690565b60046040517fbbaa55aa000000000000000000000000000000000000000000000000000000008152fd5b506114c481611d18565b611472565b82935090600091856040518581019283527fffffffff0000000000000000000000000000000000000000000000000000000060248201526024815261150d816110b2565b5192fa60005190913d83611538575b50508161152e575b5015388080611469565b9050151538611524565b10159150388061151c565b1515935038611462565b84111594503861145b565b6042906115636117bf565b90604051917f19010000000000000000000000000000000000000000000000000000000000008352600283015260228201522090565b61126b916115a6916118e6565b9092919261195b565b604051906115bc82611096565b60208083523683820137565b9490919387969360a898957fffffffffffffffffffffffffffffffffffffffff000000000000000000000000809560601b16885260148801526034870152605486015260601b166074840152602060888401528483013701016000815290565b909280927fffffffffffffffffffffffffffffffffffffffff00000000000000000000000060349560601b168352602060148401528483013701016000815290565b90615aff46148015611795575b801561178a575b61177657610539461490811561176a575b6116976115af565b928215611749576116b59061071a6040519384923360208501611628565b80516020809201209060005b600181106116d457505050506020815290565b83156116ee575b80838360019360051b88010152016116c1565b9160019060405161173e8161071a86820194887fffffffffffffffffffffffffffffffffffffffffffffffffffffffffffffffff8143030140918791606093918352602083015260408201520190565b5190209290506116db565b6117659061071a604051938492414442434033602089016115c8565b6116b5565b46617a6914915061168f565b61126b9161178591369161122a565b611c40565b50615afd461461167e565b50615afe4614611677565b9161055a906117ae9261166a565b906000526007602052604060002055565b73ffffffffffffffffffffffffffffffffffffffff7f0000000000000000000000000000000000000000000000000000000000000000163014806118bd575b15611827577f000000000000000000000000000000000000000000000000000000000000000090565b60405160208101907f8b73c3c69bb8fe3d512ecc4cf759cc79239f7b179b0ffacaa9a75d522b39400f82527f000000000000000000000000000000000000000000000000000000000000000060408201527f000000000000000000000000000000000000000000000000000000000000000060608201524660808201523060a082015260a081526118b7816110ce565b51902090565b507f000000000000000000000000000000000000000000000000000000000000000046146117fe565b81519190604183036119175761191092506020820151906060604084015193015160001a90611da7565b9192909190565b505060009160029190565b6004111561192c57565b7f4e487b7100000000000000000000000000000000000000000000000000000000600052602160045260246000fd5b61196481611922565b8061196d575050565b61197681611922565b600181036119a85760046040517ff645eedf000000000000000000000000000000000000000000000000000000008152fd5b6119b181611922565b600281036119eb576040517ffce698f700000000000000000000000000000000000000000000000000000000815260048101839052602490fd5b806119f7600392611922565b146119ff5750565b6040517fd78bce0c0000000000000000000000000000000000000000000000000000000081526004810191909152602490fd5b60ff8114611a435761126b90611e44565b5060405160006005549060018260011c9260018116918215611b65575b602091602086108414611b3857858752869493602086019392918115611afa5750600114611a98575b50505061126b925003826110ea565b925093611ac760056000527f036b6384b5eca791c62761152d0c79bb0604c104a5fb6f4eb0703f3154bb3db090565b946000935b828510611ae45750505061126b935001388080611a89565b8654858501529586019587955093810193611acc565b91505061126b959293507fffffffffffffffffffffffffffffffffffffffffffffffffffffffffffffff009150168252151560051b01388080611a89565b6024857f4e487b710000000000000000000000000000000000000000000000000000000081526022600452fd5b93607f1693611a60565b60ff8114611b805761126b90611e44565b5060405160006006549060018260011c9260018116918215611c36575b602091602086108414611b3857858752869493602086019392918115611afa5750600114611bd45750505061126b925003826110ea565b925093611c0360066000527ff652222313e28459528d920b65115c16c04f3efc82aaedc97be59f3f377c0d3f90565b946000935b828510611c205750505061126b935001388080611a89565b8654858501529586019587955093810193611c08565b93607f1693611b9d565b60008091604051611c678161071a6020820194602086526040808401526060830190610814565b51907301000000000000000000000000000000000000015afa3d15611d10573d90611c91826111f0565b91611c9f60405193846110ea565b82523d6000602084013e5b15611cb25790565b60646040517f08c379a000000000000000000000000000000000000000000000000000000000815260206004820152601360248201527f72616e646f6d42797465733a206661696c6564000000000000000000000000006044820152fd5b606090611caa565b6000602091604051838101907f01ffc9a70000000000000000000000000000000000000000000000000000000082527f1c331f0a00000000000000000000000000000000000000000000000000000000602482015260248152611d7a816110b2565b5191617530fa6000513d82611d9b575b5081611d94575090565b9050151590565b60201115915038611d8a565b91907f7fffffffffffffffffffffffffffffff5d576e7357a4501ddfe92f46681b20a08411611e3857926020929160ff608095604051948552168484015260408301526060820152600092839182805260015afa15611e2c57805173ffffffffffffffffffffffffffffffffffffffff811615611e2357918190565b50809160019190565b604051903d90823e3d90fd5b50505060009160039190565b60ff811690601f8211611e685760405191611e5e83611096565b8252602082015290565b60046040517fb3512b0c000000000000000000000000000000000000000000000000000000008152fdfea26469706673582212205cba8a2e9a174c9fa4f07b4d5cd7cf93cc91e139c818368a832c188e651f82a764736f6c63430008170033"
  },
  "id": 3,
  "methodIdentifiers": {
    "acceptRegistrationTransfer(bytes32)": "cf087a44",
    "createIdentity(address,bytes)": "fcae55b3",
    "destroyIdentity(bytes32)": "996d2ff3",
    "eip712Domain()": "84b0196e",
    "getKey(((bytes32,address,uint256),bytes))": "7e5df10d",
    "getPermitter(bytes32)": "b9e47a1c",
    "getRegistrant(bytes32)": "d86d31b7",
    "getSecondaryKey(((bytes32,address,uint256),bytes))": "976ac6d9",
    "grantIdentity(bytes32,address,uint64)": "1c643570",
    "proposeRegistrationTransfer(bytes32,address)": "73397a57",
    "provisionSecondaryKey(bytes32,bytes)": "71c79291",
    "readPermit(address,bytes32)": "b8272883",
    "revokeIdentity(bytes32,address)": "e7213fc1",
    "rotateKeys(bytes32)": "44f8e71e",
    "setPermitter(bytes32,address)": "55e5bea4",
    "supportsInterface(bytes4)": "01ffc9a7"
  }
}