{"abi":[{"inputs":[],"stateMutability":"nonpayable","type":"constructor"},{"inputs":[{"internalType":"IdentityId","name":"id","type":"bytes32"}],"name":"acceptRegistrationTransfer","outputs":[],"stateMutability":"nonpayable","type":"function"},{"inputs":[{"internalType":"address","name":"permitter","type":"address"},{"internalType":"bytes","name":"pers","type":"bytes"}],"name":"createIdentity","outputs":[{"internalType":"IdentityId","name":"id","type":"bytes32"}],"stateMutability":"nonpayable","type":"function"},{"inputs":[{"internalType":"IdentityId","name":"id","type":"bytes32"}],"name":"destroyIdentity","outputs":[],"stateMutability":"nonpayable","type":"function"},{"inputs":[],"name":"eip712Domain","outputs":[{"internalType":"bytes1","name":"fields","type":"bytes1"},{"internalType":"string","name":"name","type":"string"},{"internalType":"string","name":"version","type":"string"},{"internalType":"uint256","name":"chainId","type":"uint256"},{"internalType":"address","name":"verifyingContract","type":"address"},{"internalType":"bytes32","name":"salt","type":"bytes32"},{"internalType":"uint256[]","name":"extensions","type":"uint256[]"}],"stateMutability":"view","type":"function"},{"inputs":[{"components":[{"components":[{"internalType":"IdentityId","name":"identity","type":"bytes32"},{"internalType":"address","name":"requester","type":"address"},{"internalType":"uint256","name":"expiry","type":"uint256"}],"internalType":"struct OmniKeyStore.KeyRequest","name":"req","type":"tuple"},{"internalType":"bytes","name":"sig","type":"bytes"}],"internalType":"struct OmniKeyStore.SignedKeyRequest","name":"signedKeyReq","type":"tuple"}],"name":"getKey","outputs":[{"internalType":"OmniKeyStore.Key","name":"","type":"bytes32"}],"stateMutability":"view","type":"function"},{"inputs":[{"internalType":"IdentityId","name":"id","type":"bytes32"}],"name":"getPermitter","outputs":[{"internalType":"contract IPermitter","name":"","type":"address"}],"stateMutability":"view","type":"function"},{"inputs":[{"internalType":"IdentityId","name":"id","type":"bytes32"}],"name":"getRegistrant","outputs":[{"internalType":"address","name":"current","type":"address"},{"internalType":"address","name":"proposed","type":"address"}],"stateMutability":"view","type":"function"},{"inputs":[{"components":[{"components":[{"internalType":"IdentityId","name":"identity","type":"bytes32"},{"internalType":"address","name":"requester","type":"address"},{"internalType":"uint256","name":"expiry","type":"uint256"}],"internalType":"struct OmniKeyStore.KeyRequest","name":"req","type":"tuple"},{"internalType":"bytes","name":"sig","type":"bytes"}],"internalType":"struct OmniKeyStore.SignedKeyRequest","name":"signedKeyReq","type":"tuple"}],"name":"getSecondaryKey","outputs":[{"internalType":"OmniKeyStore.Key","name":"","type":"bytes32"}],"stateMutability":"view","type":"function"},{"inputs":[{"internalType":"IdentityId","name":"id","type":"bytes32"},{"internalType":"address","name":"to","type":"address"},{"internalType":"uint64","name":"expiry","type":"uint64"}],"name":"grantIdentity","outputs":[],"stateMutability":"nonpayable","type":"function"},{"inputs":[{"internalType":"IdentityId","name":"id","type":"bytes32"},{"internalType":"address","name":"to","type":"address"}],"name":"proposeRegistrationTransfer","outputs":[],"stateMutability":"nonpayable","type":"function"},{"inputs":[{"internalType":"IdentityId","name":"identityId","type":"bytes32"},{"internalType":"bytes","name":"pers","type":"bytes"}],"name":"provisionSecondaryKey","outputs":[],"stateMutability":"nonpayable","type":"function"},{"inputs":[{"internalType":"address","name":"holder","type":"address"},{"internalType":"IdentityId","name":"id","type":"bytes32"}],"name":"readPermit","outputs":[{"components":[{"internalType":"uint64","name":"expiry","type":"uint64"}],"internalType":"struct IIdentityRegistry.Permit","name":"","type":"tuple"}],"stateMutability":"view","type":"function"},{"inputs":[{"internalType":"IdentityId","name":"id","type":"bytes32"},{"internalType":"address","name":"from","type":"address"}],"name":"revokeIdentity","outputs":[],"stateMutability":"nonpayable","type":"function"},{"inputs":[{"internalType":"IdentityId","name":"identityId","type":"bytes32"}],"name":"rotateKeys","outputs":[],"stateMutability":"nonpayable","type":"function"},{"inputs":[{"internalType":"IdentityId","name":"id","type":"bytes32"},{"internalType":"address","name":"permitter","type":"address"}],"name":"setPermitter","outputs":[],"stateMutability":"nonpayable","type":"function"},{"inputs":[{"internalType":"bytes4","name":"interfaceId","type":"bytes4"}],"name":"supportsInterface","outputs":[{"internalType":"bool","name":"","type":"bool"}],"stateMutability":"view","type":"function"},{"anonymous":false,"inputs":[],"name":"EIP712DomainChanged","type":"event"},{"anonymous":false,"inputs":[{"indexed":false,"internalType":"IdentityId","name":"id","type":"bytes32"}],"name":"IdentityCreated","type":"event"},{"anonymous":false,"inputs":[{"indexed":true,"internalType":"IdentityId","name":"id","type":"bytes32"}],"name":"IdentityDestroyed","type":"event"},{"anonymous":false,"inputs":[{"indexed":true,"internalType":"IdentityId","name":"id","type":"bytes32"},{"indexed":true,"internalType":"address","name":"to","type":"address"}],"name":"IdentityGranted","type":"event"},{"anonymous":false,"inputs":[{"indexed":true,"internalType":"IdentityId","name":"id","type":"bytes32"},{"indexed":true,"internalType":"address","name":"from","type":"address"}],"name":"IdentityRevoked","type":"event"},{"anonymous":false,"inputs":[{"indexed":true,"internalType":"IdentityId","name":"identityId","type":"bytes32"}],"name":"PermitterChanged","type":"event"},{"anonymous":false,"inputs":[{"indexed":true,"internalType":"IdentityId","name":"identityId","type":"bytes32"},{"indexed":true,"internalType":"address","name":"proposed","type":"address"}],"name":"RegistrationTransferProposed","type":"event"},{"inputs":[],"name":"ECDSAInvalidSignature","type":"error"},{"inputs":[{"internalType":"uint256","name":"length","type":"uint256"}],"name":"ECDSAInvalidSignatureLength","type":"error"},{"inputs":[{"internalType":"bytes32","name":"s","type":"bytes32"}],"name":"ECDSAInvalidSignatureS","type":"error"},{"inputs":[],"name":"InterfaceUnsupported","type":"error"},{"inputs":[],"name":"InvalidShortString","type":"error"},{"inputs":[],"name":"KeyAlreadyProvisioned","type":"error"},{"inputs":[],"name":"KeyNotProvisioned","type":"error"},{"inputs":[{"internalType":"string","name":"str","type":"string"}],"name":"StringTooLong","type":"error"},{"inputs":[],"name":"Unauthorized","type":"error"}],"bytecode":{"linkReferences":{},"object":"0x61016060405234620000705762000015620001c9565b6200001f62000076565b6138f3620009ae823960805181612b19015260a05181612b50015260c05181612adf015260e051816135a4015261010051816135c9015261012051816121d70152610140518161221701526138f390f35b6200007c565b60405190565b600080fd5b601f801991011690565b634e487b7160e01b600052604160045260246000fd5b90620000ad9062000081565b810190811060018060401b03821117620000c657604052565b6200008b565b90620000e3620000db62000076565b9283620000a1565b565b60018060401b03811162000104576200010060209162000081565b0190565b6200008b565b90620001206200011a83620000e5565b620000cc565b918252565b60007f4f6d6e694b657953746f72650000000000000000000000000000000000000000910152565b62000159600c6200010a565b90620001686020830162000125565b565b620001746200014d565b90565b60007f3100000000000000000000000000000000000000000000000000000000000000910152565b620001ab60016200010a565b90620001ba6020830162000177565b565b620001c66200019f565b90565b620001e8620001d76200016a565b620001e1620001bc565b9062000246565b565b90565b90565b60200190565b5190565b60018060a01b031690565b90565b620002216200021b6200022792620001fa565b62000205565b620001fa565b90565b620002359062000208565b90565b62000243906200022a565b90565b906200028e620002ae926200026881620002616005620001ea565b9062000602565b6101205262000284836200027d6006620001ea565b9062000602565b61014052620001ed565b620002a46200029d82620001f6565b91620001f0565b2060e052620001ed565b620002c4620002bd82620001f6565b91620001f0565b20610100524660a052620002d76200074d565b608052620002e53062000238565b60c052565b600090565b90565b90565b6200030e620003086200031492620002f2565b62000205565b620002ef565b90565b5190565b634e487b7160e01b600052602260045260246000fd5b906001600283049216801562000354575b60208310146200034e57565b6200031b565b91607f169162000342565b600052602060002090565b601f602091010490565b1b90565b9190600862000398910291620003916000198462000374565b9262000374565b9181191691161790565b620003bb620003b5620003c192620002ef565b62000205565b620002ef565b90565b90565b9190620003e2620003dc620003eb93620003a2565b620003c4565b90835462000378565b9055565b600090565b6200040a9162000403620003ef565b91620003c7565b565b5b81811062000419575050565b80620004296000600193620003f4565b016200040d565b9190601f811162000441575b505050565b620004506200047b936200035f565b9060206200045e846200036a565b8301931062000484575b62000473906200036a565b01906200040c565b3880806200043c565b9150620004738192905062000468565b1c90565b90620004ab906000199060080262000494565b191690565b81620004bc9162000498565b906002021790565b90620004d08162000317565b9060018060401b038211620005a357620004f782620004f0855462000331565b8562000430565b602090601f831160011462000531579180916200051f9360009262000524575b5050620004b0565b90555b565b9091500151388062000517565b601f1983169162000542856200035f565b9260005b8181106200058a575091600293918560019694106200056d575b5050500201905562000522565b6200057f910151601f84169062000498565b905538808062000560565b9193602060018192878701518155019501920162000546565b6200008b565b90620005b591620004c4565b565b90565b90565b60001b90565b620005dc620005d6620005e292620005b7565b620005bd565b620005ba565b90565b620005f160ff620005c3565b90565b620005ff90620005ba565b90565b906200060d620002ea565b50620006236200061d83620001ed565b620001f6565b6200063a620006336020620002f5565b91620002ef565b106000146200065257506200064f906200090a565b90565b6000620006646200066b9392620007d2565b01620005a9565b6200067f62000679620005e5565b620005f4565b90565b600090565b7f8b73c3c69bb8fe3d512ecc4cf759cc79239f7b179b0ffacaa9a75d522b39400f90565b620006b79051620005ba565b90565b620006c590620005ba565b9052565b620006d490620002ef565b9052565b620006e390620001fa565b90565b620006f190620006d8565b9052565b909594926200074b946200073862000743926200072d6080966200072260a088019c6000890190620006ba565b6020870190620006ba565b6040850190620006ba565b6060830190620006c9565b0190620006e6565b565b6200075762000682565b506200076262000687565b620007b86200077260e0620006ab565b91620007a862000784610100620006ab565b46620007903062000238565b916200079b62000076565b96879560208701620006f5565b60208201810382520382620000a1565b620007ce620007c782620001f6565b91620001f0565b2090565b90565b90565b620007f1620007eb620007f792620007d5565b62000205565b620002ef565b90565b60209181520190565b60005b83811062000818575050906000910152565b80602091830151818501520162000806565b6200084f620008596020936200085f93620008458162000317565b93848093620007fa565b9586910162000803565b62000081565b0190565b6200087b91602082019160008184039101526200082a565b90565b6200089e620008986200089183620001f6565b92620001f0565b620006ab565b9060208110620008ad575b5090565b620008c2906000199060200360080262000374565b1638620008a9565b60001c90565b620008df620008e591620008ca565b620003a2565b90565b62000901620008fb6200090792620002ef565b620005bd565b620005ba565b90565b62000914620002ea565b506200092081620001ed565b906200092c82620001f6565b620009436200093c601f620007d8565b91620002ef565b116200098357506200097a81620009736200096c6200096662000980956200087e565b620008d0565b91620001f6565b17620008e8565b620005f4565b90565b620009a9906200099262000076565b91829163305a27a960e01b83526004830162000863565b0390fdfe60806040526004361015610013575b610a39565b61001e60003561011d565b806301ffc9a7146101185780631c6435701461011357806344f8e71e1461010e57806355e5bea41461010957806371c792911461010457806373397a57146100ff5780637e5df10d146100fa57806384b0196e146100f5578063976ac6d9146100f0578063996d2ff3146100eb578063b8272883146100e6578063b9e47a1c146100e1578063cf087a44146100dc578063d86d31b7146100d7578063e7213fc1146100d25763fcae55b30361000e57610a03565b610965565b61092f565b6108d8565b6108a3565b610813565b61077b565b610746565b61070a565b61051a565b610469565b610435565b61036c565b61030b565b6102b8565b6101af565b60e01c90565b60405190565b600080fd5b600080fd5b600080fd5b63ffffffff60e01b1690565b61014d81610138565b0361015457565b600080fd5b9050359061016682610144565b565b906020828203126101825761017f91600001610159565b90565b61012e565b151590565b61019590610187565b9052565b91906101ad9060006020850194019061018c565b565b346101df576101db6101ca6101c5366004610168565b610a43565b6101d2610123565b91829182610199565b0390f35b610129565b90565b6101f0816101e4565b036101f757565b600080fd5b90503590610209826101e7565b565b60018060a01b031690565b61021f9061020b565b90565b61022b81610216565b0361023257565b600080fd5b9050359061024482610222565b565b67ffffffffffffffff1690565b61025c81610246565b0361026357565b600080fd5b9050359061027582610253565b565b90916060828403126102ad576102aa61029384600085016101fc565b936102a18160208601610237565b93604001610268565b90565b61012e565b60000190565b346102e7576102d16102cb366004610277565b91610d42565b6102d9610123565b806102e3816102b2565b0390f35b610129565b9060208282031261030657610303916000016101fc565b90565b61012e565b346103395761032361031e3660046102ec565b610ed9565b61032b610123565b80610335816102b2565b0390f35b610129565b9190604083820312610367578061035b61036492600086016101fc565b93602001610237565b90565b61012e565b3461039b5761038561037f36600461033e565b90610ff5565b61038d610123565b80610397816102b2565b0390f35b610129565b600080fd5b600080fd5b600080fd5b909182601f830112156103e95781359167ffffffffffffffff83116103e45760200192600183028401116103df57565b6103aa565b6103a5565b6103a0565b9190916040818403126104305761040883600083016101fc565b92602082013567ffffffffffffffff811161042b5761042792016103af565b9091565b610133565b61012e565b346104645761044e6104483660046103ee565b916110d5565b610456610123565b80610460816102b2565b0390f35b610129565b346104985761048261047c36600461033e565b906111d9565b61048a610123565b80610494816102b2565b0390f35b610129565b600080fd5b908160809103126104b05790565b61049d565b906020828203126104e657600082013567ffffffffffffffff81116104e1576104de92016104a2565b90565b610133565b61012e565b6104f4906101e4565b90565b610500906104eb565b9052565b9190610518906000602085019401906104f7565b565b3461054a576105466105356105303660046104b5565b611539565b61053d610123565b91829182610504565b0390f35b610129565b600091031261055a57565b61012e565b60ff60f81b1690565b6105719061055f565b9052565b5190565b60209181520190565b60005b838110610596575050906000910152565b806020918301518185015201610585565b601f801991011690565b6105d06105d96020936105de936105c781610575565b93848093610579565b95869101610582565b6105a7565b0190565b90565b6105ee906105e2565b9052565b6105fb90610216565b9052565b610608906101e4565b9052565b5190565b60209181520190565b60200190565b610628906105e2565b9052565b906106398160209361061f565b0190565b60200190565b9061066061065a6106538461060c565b8093610610565b92610619565b9060005b8181106106715750505090565b90919261068a610684600192865161062c565b9461063d565b9101919091610664565b939591946106e66106db6106fa956106cd6106f0956107079c9a6106c060e08c019260008d0190610568565b8a820360208c01526105b1565b9088820360408a01526105b1565b9760608701906105e5565b60808501906105f2565b60a08301906105ff565b60c0818403910152610643565b90565b346107415761071a36600461054f565b61073d6107256115fb565b93610734979597939193610123565b97889788610694565b0390f35b610129565b346107765761077261076161075c3660046104b5565b611823565b610769610123565b91829182610504565b0390f35b610129565b346107a95761079361078e3660046102ec565b611a71565b61079b610123565b806107a5816102b2565b0390f35b610129565b91906040838203126107d757806107cb6107d49260008601610237565b936020016101fc565b90565b61012e565b6107e590610246565b9052565b906000806107fb9301519101906107dc565b565b9190610811906000602085019401906107e9565b565b346108445761084061082f6108293660046107ae565b90611b10565b610837610123565b918291826107fd565b0390f35b610129565b90565b61086061085b6108659261020b565b610849565b61020b565b90565b6108719061084c565b90565b61087d90610868565b90565b61088990610874565b9052565b91906108a190600060208501940190610880565b565b346108d3576108cf6108be6108b93660046102ec565b611b38565b6108c6610123565b9182918261088d565b0390f35b610129565b34610906576108f06108eb3660046102ec565b611bbb565b6108f8610123565b80610902816102b2565b0390f35b610129565b91602061092d929493610926604082019660008301906105f2565b01906105f2565b565b34610960576109476109423660046102ec565b611c37565b9061095c610953610123565b9283928361090b565b0390f35b610129565b346109945761097e61097836600461033e565b90611d62565b610986610123565b80610990816102b2565b0390f35b610129565b9190916040818403126109db576109b38360008301610237565b92602082013567ffffffffffffffff81116109d6576109d292016103af565b9091565b610133565b61012e565b6109e9906104eb565b9052565b9190610a01906000602085019401906109e0565b565b34610a3457610a30610a1f610a19366004610999565b91611f53565b610a27610123565b918291826109ed565b0390f35b610129565b600080fd5b600090565b610a4b610a3e565b5080610a66610a6063577e56b760e11b610138565b91610138565b14908115610a73575b5090565b610a7d9150612049565b38610a6f565b90610a8d906104eb565b600052602052604060002090565b60001c90565b60018060a01b031690565b610ab8610abd91610a9b565b610aa1565b90565b610aca9054610aac565b90565b919082610afd610af7610af2610aed610ae833956002610a83565b610ac0565b610874565b610216565b91610216565b03610b0d57610b0b92610ca1565b565b610b15610123565b6282b42960e81b815280610b2b600482016102b2565b0390fd5b634e487b7160e01b600052604160045260246000fd5b90610b4f906105a7565b810190811067ffffffffffffffff821117610b6957604052565b610b2f565b90610b81610b7a610123565b9283610b45565b565b610b8d6020610b6e565b90565b90610b9a90610246565b9052565b610ba790610868565b90565b90610bb490610b9e565b600052602052604060002090565b90610bcc906104eb565b600052602052604060002090565b634e487b7160e01b600052600060045260246000fd5b610bfa9051610246565b90565b60001b90565b90610c1667ffffffffffffffff91610bfd565b9181191691161790565b610c34610c2f610c3992610246565b610849565b610246565b90565b90565b90610c54610c4f610c5b92610c20565b610c3c565b8254610c03565b9055565b90610c72600080610c7894019201610bf0565b90610c3f565b565b90610c8491610c5f565b565b90610c90906104eb565b600052602052604060002090565b90565b9091610cd790610cbc610cb2610b83565b9160008301610b90565b610cd2610ccb60048690610baa565b8490610bc2565b610c7a565b610cf5610cee610ce960038490610c86565b610c9e565b83906120b6565b5090610d2a610d247f707a71466f8fe74cb261d93da582c7362f36602b8e7fb69278cba729731ca8a7936104eb565b91610b9e565b91610d33610123565b80610d3d816102b2565b0390a3565b90610d4d9291610acd565b565b90610d59906104eb565b600052602052604060002090565b60081c90565b60018060a01b031690565b610d84610d8991610d67565b610d6d565b90565b610d969054610d78565b90565b80610dc1610dbb610db66000610db0339582610d4f565b01610d8c565b610216565b91610216565b03610dd157610dcf90610e91565b565b610dd9610123565b6282b42960e81b815280610def600482016102b2565b0390fd5b90610dfd906104eb565b600052602052604060002090565b90565b610e1a610e1f91610a9b565b610e0b565b90565b610e2c9054610e0e565b90565b90610e3c60001991610bfd565b9181191691161790565b610e4f90610a9b565b90565b90610e67610e62610e6e926104eb565b610e46565b8254610e2f565b9055565b90565b610e89610e84610e8e92610e72565b610bfd565b6101e4565b90565b610ed790610ebd610eac610ea760088490610df3565b610e22565b610eb860078490610df3565b610e52565b610ed2610eca6000610e75565b916008610df3565b610e52565b565b610ee290610d99565b565b9081610f0d610f07610f026000610efc339582610d4f565b01610d8c565b610216565b91610216565b03610f1d57610f1b91610f95565b565b610f25610123565b6282b42960e81b815280610f3b600482016102b2565b0390fd5b90610f5060018060a01b0391610bfd565b9181191691161790565b610f639061084c565b90565b610f6f90610f5a565b90565b90565b90610f8a610f85610f9192610f66565b610f72565b8254610f3f565b9055565b90610fa2610fb3916120fd565b610fae60028490610a83565b610f75565b610fdd7f98ce2a0fb159fd14bd4249db7db60d87ac3094d8501e48e8596794586862a76b916104eb565b90610fe6610123565b80610ff0816102b2565b0390a2565b90610fff91610ee4565b565b91908261102b611025611020600061101a339582610d4f565b01610d8c565b610216565b91610216565b0361103b576110399261105d565b565b611043610123565b6282b42960e81b815280611059600482016102b2565b0390fd5b909161107b61107661107160088590610df3565b610e22565b6104eb565b61108e6110886000610e75565b916101e4565b036110b2576110a36110ab916110b094612154565b916008610df3565b610e52565b565b6110ba610123565b633a3d7b9760e21b8152806110d1600482016102b2565b0390fd5b906110e09291611001565b565b908161110b61110561110060006110fa339582610d4f565b01610d8c565b610216565b91610216565b0361111b5761111991611178565b565b611123610123565b6282b42960e81b815280611139600482016102b2565b0390fd5b90611147906104eb565b600052602052604060002090565b90565b9061116d61116861117492610b9e565b611155565b8254610f3f565b9055565b61118d826111886001849061113d565b611158565b906111c16111bb7f6ff54b8f4b75a53f0bee6cd45a4286754e65532d132b83963731253105753618936104eb565b91610b9e565b916111ca610123565b806111d4816102b2565b0390a3565b906111e3916110e2565b565b600090565b506111f99060208101906101fc565b90565b611205906104eb565b9052565b50611218906020810190610237565b90565b61122490610216565b9052565b611231816105e2565b0361123857565b600080fd5b9050359061124a82611228565b565b5061125b90602081019061123d565b90565b9060406112a56112ad9361128261127860008301836111ea565b60008601906111fc565b61129c6112926020830183611209565b602086019061121b565b8281019061124c565b91019061061f565b565b9160206112d19294936112ca608082019660008301906105ff565b019061125e565b565b60200190565b5190565b600080fd5b600080fd5b600080fd5b90359060016020038136030382121561132e570180359067ffffffffffffffff82116113295760200191600182023603831361132457565b6112e7565b6112e2565b6112dd565b600080fd5b67ffffffffffffffff8111611356576113526020916105a7565b0190565b610b2f565b90826000939282370152565b9092919261137c61137782611338565b610b6e565b93818552602085019082840111611398576113969261135b565b565b611333565b6113a8913691611367565b90565b356113b581610222565b90565b356113c2816101e7565b90565b6113d96113d46113de92610246565b610849565b6105e2565b90565b908061146f60008201916114696114636114587f672f02bafa7ea951b3ea05df695817723aa010191c86565201f9c3209f18a84f6114408791611431611425610123565b938492602084016112af565b60208201810382520382610b45565b61145261144c826112d9565b916112d3565b20612187565b9260608101906112ec565b9061139d565b906121a4565b906114ae6114a86114a3602061149b6114898287016113ab565b611495600088016113b8565b90611b10565b9594016113ab565b610216565b91610216565b14159081156114eb575b506114c9576114c691611512565b90565b6114d1610123565b6282b42960e81b8152806114e7600482016102b2565b0390fd5b6114f89150600001610bf0565b61150a611504426105e2565b916113c5565b1115386114b8565b61153691611531915061152b60008060079301016113b8565b90610df3565b610e22565b90565b61154a906115456111e5565b6113e1565b90565b600090565b606090565b600090565b600090565b600090565b606090565b61157490610868565b90565b61158b61158661159092610e72565b610849565b6105e2565b90565b67ffffffffffffffff81116115ab5760208091020190565b610b2f565b906115c26115bd83611593565b610b6e565b918252565b369037565b906115f16115d9836115b0565b926020806115e78693611593565b92019103906115c7565b565b600f60f81b90565b61160361154d565b5061160c611552565b50611615611552565b5061161e611557565b5061162761155c565b50611630611561565b50611639611566565b506116426121c9565b9061164b612209565b9046906116573061156b565b906116626000610e75565b906116756116706000611577565b6115cc565b9061167e6115f3565b96959493929190565b9080611715600082019161170f6117096116fe7f672f02bafa7ea951b3ea05df695817723aa010191c86565201f9c3209f18a84f6116e687916116d76116cb610123565b938492602084016112af565b60208201810382520382610b45565b6116f86116f2826112d9565b916112d3565b20612187565b9260608101906112ec565b9061139d565b906121a4565b9061175461174e611749602061174161172f8287016113ab565b61173b600088016113b8565b90611b10565b9594016113ab565b610216565b91610216565b1415908115611791575b5061176f5761176c916117b8565b90565b611777610123565b6282b42960e81b81528061178d600482016102b2565b0390fd5b61179e9150600001610bf0565b6117b06117aa426105e2565b916113c5565b11153861175e565b6117dc916117d791506117d160008060089301016113b8565b90610df3565b610e22565b6117e5816104eb565b6117f86117f26000610e75565b916101e4565b146118005790565b611808610123565b6338a4d52960e11b81528061181f600482016102b2565b0390fd5b6118349061182f6111e5565b611687565b90565b8061185f611859611854600061184e339582610d4f565b01610d8c565b610216565b91610216565b0361186f5761186d9061195f565b565b611877610123565b6282b42960e81b81528061188d600482016102b2565b0390fd5b1b90565b919060086118b59102916118af60018060a01b0384611891565b92611891565b9181191691161790565b91906118d56118d06118dd93610b9e565b611155565b908354611895565b9055565b6118f3916118ed61155c565b916118bf565b565b919061190b61190661191393610f66565b610f72565b908354611895565b9055565b600090565b61192e91611928611917565b916118f5565b565b600161193c91016105e2565b90565b600080910155565b9060000361195a576119589061193f565b565b610bda565b61197760016000611971818590610d4f565b016118e1565b61198d60006119886001849061113d565b6118e1565b6119a3600061199e60028490610a83565b61191c565b6119b76119b260038390610c86565b610c9e565b6119bf611557565b5b806119db6119d56119d085612249565b6105e2565b916105e2565b1015611a2457611a1f90611a196119f38483906122b5565b611a136000611a0e611a0760048590610baa565b8990610bc2565b611947565b846122ee565b50611930565b6119c0565b5050611a2f81612329565b611a597f68629dbb3b5cc9a43165fe5529cb7c3e1f382394b6521d78050971f82b9169b0916104eb565b90611a62610123565b80611a6c816102b2565b0390a2565b611a7a90611837565b565b611a866020610b6e565b90565b600090565b611a96611a7c565b90602082611aa2611a89565b81525050565b611ab0611a8e565b90565b67ffffffffffffffff1690565b611acc611ad191610a9b565b611ab3565b90565b611ade9054611ac0565b90565b90611b02611af96000611af2611a7c565b9401611ad4565b60008401610b90565b565b611b0d90611ae1565b90565b611b3591611b2b611b3092611b23611aa8565b506004610baa565b610bc2565b611b04565b90565b611b4f611b5491611b47611917565b506002610a83565b610ac0565b90565b611b63611b6891610a9b565b610d6d565b90565b611b759054611b57565b90565b60081b90565b90611b91610100600160a81b0391611b78565b9181191691161790565b90611bb0611bab611bb792610b9e565b611155565b8254611b7e565b9055565b611bcf611bca6001839061113d565b611b6b565b9033611be3611bdd84610216565b91610216565b03611c1557611c0e600091611c07611c139484611c01818590610d4f565b01611b9b565b600161113d565b6118e1565b565b611c1d610123565b6282b42960e81b815280611c33600482016102b2565b0390fd5b90611c4061155c565b50611c4961155c565b50611c73611c6e611c666000611c60818790610d4f565b01610d8c565b93600161113d565b611b6b565b90565b9081611ca5611c9f611c9a611c95611c9033956002610a83565b610ac0565b610874565b610216565b91610216565b03611cb557611cb391611cd7565b565b611cbd610123565b6282b42960e81b815280611cd3600482016102b2565b0390fd5b611cf76000611cf2611ceb60048690610baa565b8490610bc2565b611947565b611d15611d0e611d0960038490610c86565b610c9e565b83906122ee565b5090611d4a611d447f688fc27246238b68e81030e72fb8fcaff541e636719f51fba1f8bf1243d35040936104eb565b91610b9e565b91611d53610123565b80611d5d816102b2565b0390a3565b90611d6c91611c76565b565b600090565b90565b611d8a611d85611d8f92611d73565b610849565b6105e2565b90565b611d9c90516101e4565b90565b611db9611db4611dae836112d9565b926112d3565b611d92565b9060208110611dc7575b5090565b611dda9060001990602003600802611891565b1638611dc3565b60ff1690565b611df3611df891610a9b565b611de1565b90565b611e059054611de7565b90565b60007f756e6c75636b7900000000000000000000000000000000000000000000000000910152565b611e3d6007602092610579565b611e4681611e08565b0190565b611e609060208101906000818303910152611e30565b90565b15611e6a57565b611e72610123565b62461bcd60e51b815280611e8860048201611e4a565b0390fd5b611e966040610b6e565b90565b90611ea390610187565b9052565b90611eb190610216565b9052565b611ebf9051610187565b90565b90611ece60ff91610bfd565b9181191691161790565b611ee190610187565b90565b90565b90611efc611ef7611f0392611ed8565b611ee4565b8254611ec2565b9055565b611f119051610216565b90565b90611f3f60206000611f4594611f37828201611f31848801611eb5565b90611ee7565b019201611f07565b90611b9b565b565b90611f5191611f14565b565b92919061200d91611f62611d6e565b50612004611ff3611f8e611f89611f84602087611f7f8892611d76565b6126aa565b611d9f565b6104eb565b96611fb6611fb1611fab6000611fa5818d90610d4f565b01611dfb565b15610187565b611e63565b611fee6001611fdd33611fd4611fca611e8c565b9360008501611e99565b60208301611ea7565b611fe960008b90610d4f565b611f47565b6120fd565b611fff60028890610a83565b610f75565b849190916128f5565b816120447fc194b2b7f255fb13fcd58d7b529f8f5a81a5791a9fb88b7de25cb5b365dae3f39161203b610123565b918291826109ed565b0390a1565b612051610a3e565b5061206b6120656301ffc9a760e01b610138565b91610138565b1490565b6120789061084c565b90565b61208f61208a6120949261020b565b610849565b6105e2565b90565b6120ab6120a66120b0926105e2565b610bfd565b6101e4565b90565b90565b906120e96120e36120de6120d960006120ee966120d1610a3e565b50019461206f565b61207b565b612097565b916120b3565b612a2e565b90565b6120fa90610f5a565b90565b612105611917565b5061212161211b82630e198f8560e11b90612a95565b15610187565b6121315761212e906120f1565b90565b612139610123565b635dd52ad560e11b815280612150600482016102b2565b0390fd5b61217a61217f91612184936121676111e5565b506121756020929192611d76565b6126aa565b611d9f565b6104eb565b90565b6121a190612193611561565b5061219c612ac5565b612b80565b90565b6121c3916121ba916121b461155c565b50612c12565b90929192612d17565b90565b90565b6121d1611552565b506122067f000000000000000000000000000000000000000000000000000000000000000061220060056121c6565b90612f4b565b90565b612211611552565b506122467f000000000000000000000000000000000000000000000000000000000000000061224060066121c6565b90612f4b565b90565b61226160006122669261225a611557565b50016120b3565b612f9a565b90565b61227d612278612282926105e2565b610849565b6105e2565b90565b61229161229691610a9b565b612269565b90565b6122ad6122a86122b2926105e2565b610849565b61020b565b90565b6122e16122dc6122eb936122d760006122e6956122d061155c565b50016120b3565b61300f565b612285565b612299565b610868565b90565b9061232161231b612316612311600061232696612309610a3e565b50019461206f565b61207b565b612097565b916120b3565b613109565b90565b6123659061234b61233a6000610e75565b61234660078490610df3565b610e52565b6123606123586000610e75565b916008610df3565b610e52565b565b606090565b90565b61238361237e6123889261236c565b610849565b6105e2565b90565b90565b6123a261239d6123a79261238b565b610849565b6105e2565b90565b90565b6123c16123bc6123c6926123aa565b610849565b6105e2565b90565b90565b6123e06123db6123e5926123c9565b610849565b6105e2565b90565b90565b6123ff6123fa612404926123e8565b610849565b6105e2565b90565b90565b61241e61241961242392612407565b610849565b6105e2565b90565b634e487b7160e01b600052601160045260246000fd5b61244b612451919392936105e2565b926105e2565b820180921161245c57565b612426565b90565b60ff1690565b61247e61247961248392612461565b610849565b612464565b90565b1c90565b6124a9906124a361249d6124ae94612464565b916105e2565b90612486565b6105e2565b90565b6124d0906124ca6124c46124d594612464565b916105e2565b90611891565b6105e2565b90565b906124ea6124e583611338565b610b6e565b918252565b369037565b90612519612501836124d8565b9260208061250f8693611338565b92019103906124ef565b565b60601b90565b61252a9061251b565b90565b61253690612521565b90565b61254561254a91610216565b61252d565b9052565b90565b61255d612562916101e4565b61254e565b9052565b90565b61257561257a916105e2565b612566565b9052565b6125879061020b565b90565b61259390612521565b90565b6125a26125a79161257e565b61258a565b9052565b905090565b9091826125c0816125c7936125ab565b809361135b565b0190565b602061262699979561260f8261261f97612607826014996125ff8b839f9b9a6125f7816126179d612539565b018092612551565b018092612569565b018092612569565b018092612596565b018092612569565b01916125b0565b90565b9161264860148461264061264f9896602096612539565b018092612569565b01916125b0565b90565b9061265d91036105e2565b90565b90565b61267761267261267c92612660565b610849565b6105e2565b90565b6020939261269e858361269682956126a697612551565b018092612569565b018092612551565b0190565b90916126b4612367565b50466126ca6126c4615aff61236f565b916105e2565b1480156128d9575b80156128bd575b6128a757466126f26126ec6105396123cc565b916105e2565b14801561288b575b936127226127128461270c601f61240a565b9061243c565b61271c600561246a565b9061248a565b9361273f61273a86612734600561246a565b906124b1565b6124f4565b928660001461284d57612776906127673391879461275b610123565b95869460208601612629565b60208201810382520382610b45565b5b612789612783826112d9565b916112d3565b20926127956000611577565b5b806127a96127a3886105e2565b916105e2565b1015612841576127b98715610187565b6127d7575b80856127d292602002602001860152611930565b612796565b936127d29061282686916128176128026127f2438b90612652565b6127fc6001612663565b90612652565b4061280b610123565b9485936020850161267f565b60208201810382520382610b45565b612838612832826112d9565b916112d3565b209490506127be565b50925093509150815290565b9061288690612877339143409442914441908b92939461286b610123565b998a9860208a016125cb565b60208201810382520382610b45565b612777565b50466128a161289b617a696123eb565b916105e2565b146126fa565b6128b4906128ba9361139d565b9061332d565b90565b50466128d36128cd615afd6123ad565b916105e2565b146126d9565b50466128ef6128e9615afe61238e565b916105e2565b146126d2565b906129066129139361290e92612154565b916007610df3565b610e52565b565b90565b600052602060002090565b634e487b7160e01b600052603260045260246000fd5b5490565b61294681612939565b82101561296157612958600191612918565b91020190600090565b612923565b9190600861298291029161297c60001984611891565b92611891565b9181191691161790565b61299590610a9b565b90565b91906129ae6129a96129b6936104eb565b61298c565b908354612966565b9055565b90815491680100000000000000008310156129ea57826129e29160016129e89501815561293d565b90612998565b565b610b2f565b5490565b906129fd906104eb565b600052602052604060002090565b90565b90612a23612a1e612a2a92612269565b612a0b565b8254610e2f565b9055565b612a36610a3e565b50612a4b612a4582849061338b565b15610187565b600014612a8e57612a84612a8992612a6f612a6860008501612915565b82906129ba565b6001612a7d600085016129ef565b93016129f3565b612a0e565b600190565b5050600090565b90612a9e610a3e565b50612aa8826133f6565b9182612ab4575b505090565b612abe9250613462565b3880612aaf565b612acd611561565b50612ad73061156b565b612b09612b037f0000000000000000000000000000000000000000000000000000000000000000610216565b91610216565b1480612b46575b600014612b3b577f000000000000000000000000000000000000000000000000000000000000000090565b612b4361358e565b90565b5046612b7a612b747f00000000000000000000000000000000000000000000000000000000000000006105e2565b916105e2565b14612b10565b604291612b8b611561565b50604051917f19010000000000000000000000000000000000000000000000000000000000008352600283015260228201522090565b600090565b90565b612bdd612bd8612be292612bc6565b610849565b6105e2565b90565b612bf9612bf4612bfe92610e72565b610849565b61020b565b90565b612c0a90612be5565b90565b600090565b919091612c1d61155c565b50612c26612bc1565b50612c2f611561565b50612c39836112d9565b612c4c612c466041612bc9565b916105e2565b14600014612c9557612c8e9192612c61611561565b50612c6a611561565b50612c73612c0d565b5060208101516060604083015192015160001a9091926136a8565b9192909190565b50612ca06000612c01565b90612cb4612caf6002946112d9565b612097565b91929190565b634e487b7160e01b600052602160045260246000fd5b60041115612cda57565b612cba565b90612ce982612cd0565b565b9190612cff906000602085019401906105ff565b565b9190612d15906000602085019401906105e5565b565b80612d2b612d256000612cdf565b91612cdf565b14600014612d37575050565b80612d4b612d456001612cdf565b91612cdf565b14600014612d7657612d5b610123565b63f645eedf60e01b815280612d72600482016102b2565b0390fd5b80612d8a612d846002612cdf565b91612cdf565b14600014612dc057612dbc612d9e83612285565b612da6610123565b91829163fce698f760e01b835260048301612d01565b0390fd5b612dd3612dcd6003612cdf565b91612cdf565b14612ddb5750565b612dfd90612de7610123565b9182916335e2f38360e21b835260048301612ceb565b0390fd5b90565b612e18612e13612e1d92612e01565b610bfd565b6101e4565b90565b612e2a60ff612e04565b90565b634e487b7160e01b600052602260045260246000fd5b9060016002830492168015612e63575b6020831014612e5e57565b612e2d565b91607f1691612e53565b60209181520190565b600052602060002090565b9060009291805490612e9c612e9583612e43565b8094612e6d565b91600181169081600014612ef55750600114612eb8575b505050565b612ec59192939450612e76565b916000925b818410612edd5750500190388080612eb3565b60018160209295939554848601520191019290612eca565b92949550505060ff1916825215156020020190388080612eb3565b90612f1a91612e81565b90565b90612f3d612f3692612f2d610123565b93848092612f10565b0383610b45565b565b612f4890612f1d565b90565b90612f54611552565b50612f5e826104eb565b612f77612f71612f6c612e20565b6101e4565b916101e4565b1415600014612f8d5750612f8a9061380d565b90565b612f979150612f3f565b90565b6000612faf91612fa8611557565b50016129ef565b90565b600052602060002090565b612fc6816129ef565b821015612fe157612fd8600191612fb2565b91020190600090565b612923565b90565b612ff9906008612ffe9302612486565b612fe6565b90565b9061300c9154612fe9565b90565b61302e91600061302892613021611561565b5001612fbd565b90613001565b90565b90565b61304061304591610a9b565b613031565b90565b6130529054613034565b90565b61306461306a919392936105e2565b926105e2565b820391821161307557565b612426565b634e487b7160e01b600052603160045260246000fd5b6130a29161309c611561565b91612998565b565b6130ad81612939565b80156130ce5760019003906130cb6130c5838361293d565b90613090565b55565b61307a565b91906130e96130e46130f193612269565b612a0b565b908354612966565b9055565b61310791613101611557565b916130d3565b565b613111610a3e565b506131286131236001830184906129f3565b613048565b908161313d6131376000611577565b916105e2565b141560001461320b576131bd9260016131b8928461316660009661316085612663565b90613055565b6131836131748885016129ef565b61317d86612663565b90613055565b81613196613190836105e2565b916105e2565b036131c2575b5050506131b26131ad868301612915565b6130a4565b016129f3565b6130f5565b600190565b613203926131f56131e16131db6131fe948c8901612fbd565b90613001565b936131ef85918c8901612fbd565b90612998565b918585016129f3565b612a0e565b38808061319c565b505050600090565b60018060981b0190565b60209181520190565b61324561324e6020936132539361323c816112d9565b9384809361321d565b95869101610582565b6105a7565b0190565b9161327b9261326e604082019360008301906105e5565b6020818403910152613226565b90565b3d60001461329b5761328f3d6124d8565b903d6000602084013e5b565b6132a3612367565b90613299565b60007f72616e646f6d42797465733a206661696c656400000000000000000000000000910152565b6132de6013602092610579565b6132e7816132a9565b0190565b61330190602081019060008183039101526132d1565b90565b1561330b57565b613313610123565b62461bcd60e51b815280613329600482016132eb565b0390fd5b60009190829161333b612367565b5061336e613347613213565b9261335f613353610123565b93849260208401613257565b60208201810382520382610b45565b602081019051915afa61338861338261327e565b91613304565b90565b6133a99160016133a49261339d610a3e565b50016129f3565b613048565b6133bc6133b66000611577565b916105e2565b141590565b90565b60e01b90565b6133de6133d96133e3926133c1565b6133c4565b610138565b90565b6133f363ffffffff6133ca565b90565b6133fe610a3e565b50613411816301ffc9a760e01b90613462565b908161341c575b5090565b61343991506134339061342d6133e6565b90613462565b15610187565b38613418565b61344890610138565b9052565b91906134609060006020850194019061343f565b565b6000906134976134a5602094613476610a3e565b5061347f610123565b92839160048884016301ffc9a760e01b81520161344c565b868201810382520382610b45565b906134ae610a3e565b506134b7611557565b506134c0611557565b50838251920190617530fa3d6000519190816134ff575b5090816134e3575b5090565b90506134f86134f26000611577565b916105e2565b11386134df565b905061351461350e6020611d76565b916105e2565b1015386134d7565b7f8b73c3c69bb8fe3d512ecc4cf759cc79239f7b179b0ffacaa9a75d522b39400f90565b9095949261358c9461357b6135859261357160809661356760a088019c60008901906105ff565b60208701906105ff565b60408501906105ff565b60608301906105e5565b01906105f2565b565b613596611561565b5061359f61351c565b6136167f0000000000000000000000000000000000000000000000000000000000000000916136077f0000000000000000000000000000000000000000000000000000000000000000466135f23061156b565b916135fb610123565b96879560208701613540565b60208201810382520382610b45565b613628613622826112d9565b916112d3565b2090565b90565b61364361363e6136489261362c565b610849565b6105e2565b90565b61365490612464565b9052565b61368e6136959461368460609498979561367a608086019a60008701906105ff565b602085019061364b565b60408301906105ff565b01906105ff565b565b61369f610123565b3d6000823e3d90fd5b9392936136b361155c565b506136bc612bc1565b506136c5611561565b506136cf85612285565b6137016136fb7f7fffffffffffffffffffffffffffffff5d576e7357a4501ddfe92f46681b20a061362f565b916105e2565b1161379557906137256020949560009493929361371c610123565b94859485613658565b838052039060015afa156137905761373e600051610bfd565b8061375a61375461374f6000612c01565b610216565b91610216565b146137725760009161376c6000610e75565b91929190565b5061377d6000612c01565b60019161378a6000610e75565b91929190565b613697565b5050506137a26000612c01565b9060039291929190565b67ffffffffffffffff81116137ca576137c66020916105a7565b0190565b610b2f565b906137e16137dc836137ac565b610b6e565b918252565b9061380b6137f3836137cf565b9260208061380186936137ac565b92019103906124ef565b565b613815611552565b5061381f81613859565b9061383261382d6020611d76565b6137e6565b918252602082015290565b61385161384c61385692612e01565b610849565b6105e2565b90565b61386e61387391613868611557565b506104eb565b612285565b61387d60ff61383d565b168061389261388c601f61240a565b916105e2565b1161389a5790565b6138a2610123565b632cd44ac360e21b8152806138b9600482016102b2565b0390fdfea2646970667358221220f704a02c674fe0216eb5602a21af8265a70b97f84f2c57e9fa2c0050bd33cb0464736f6c63430008170033"},"id":3,"methodIdentifiers":{"acceptRegistrationTransfer(bytes32)":"cf087a44","createIdentity(address,bytes)":"fcae55b3","destroyIdentity(bytes32)":"996d2ff3","eip712Domain()":"84b0196e","getKey(((bytes32,address,uint256),bytes))":"7e5df10d","getPermitter(bytes32)":"b9e47a1c","getRegistrant(bytes32)":"d86d31b7","getSecondaryKey(((bytes32,address,uint256),bytes))":"976ac6d9","grantIdentity(bytes32,address,uint64)":"1c643570","proposeRegistrationTransfer(bytes32,address)":"73397a57","provisionSecondaryKey(bytes32,bytes)":"71c79291","readPermit(address,bytes32)":"b8272883","revokeIdentity(bytes32,address)":"e7213fc1","rotateKeys(bytes32)":"44f8e71e","setPermitter(bytes32,address)":"55e5bea4","supportsInterface(bytes4)":"01ffc9a7"}}