{"abi":[{"inputs":[{"internalType":"address","name":"upstream","type":"address"}],"stateMutability":"nonpayable","type":"constructor"},{"inputs":[{"internalType":"IdentityId","name":"identity","type":"bytes32"},{"internalType":"address","name":"requester","type":"address"},{"internalType":"uint64","name":"duration","type":"uint64"},{"internalType":"bytes","name":"context","type":"bytes"},{"internalType":"bytes","name":"authorization","type":"bytes"}],"name":"acquireIdentity","outputs":[{"internalType":"uint64","name":"expiry","type":"uint64"}],"stateMutability":"nonpayable","type":"function"},{"inputs":[{"internalType":"IdentityId","name":"","type":"bytes32"}],"name":"approverRoots","outputs":[{"internalType":"bytes32","name":"","type":"bytes32"}],"stateMutability":"view","type":"function"},{"inputs":[],"name":"eip712Domain","outputs":[{"internalType":"bytes1","name":"fields","type":"bytes1"},{"internalType":"string","name":"name","type":"string"},{"internalType":"string","name":"version","type":"string"},{"internalType":"uint256","name":"chainId","type":"uint256"},{"internalType":"address","name":"verifyingContract","type":"address"},{"internalType":"bytes32","name":"salt","type":"bytes32"},{"internalType":"uint256[]","name":"extensions","type":"uint256[]"}],"stateMutability":"view","type":"function"},{"inputs":[{"internalType":"IdentityId","name":"","type":"bytes32"}],"name":"policyHashes","outputs":[{"internalType":"bytes32","name":"","type":"bytes32"}],"stateMutability":"view","type":"function"},{"inputs":[{"internalType":"IdentityId","name":"identity","type":"bytes32"},{"internalType":"address","name":"requester","type":"address"},{"internalType":"bytes","name":"context","type":"bytes"},{"internalType":"bytes","name":"authorization","type":"bytes"}],"name":"releaseIdentity","outputs":[],"stateMutability":"nonpayable","type":"function"},{"inputs":[{"internalType":"IdentityId","name":"identity","type":"bytes32"},{"internalType":"bytes32","name":"signersRoot","type":"bytes32"},{"internalType":"uint256","name":"threshold","type":"uint256"}],"name":"setApproversRoot","outputs":[],"stateMutability":"nonpayable","type":"function"},{"inputs":[{"internalType":"IdentityId","name":"identity","type":"bytes32"},{"internalType":"bytes32","name":"policyHash","type":"bytes32"}],"name":"setPolicyHash","outputs":[],"stateMutability":"nonpayable","type":"function"},{"inputs":[{"internalType":"bytes4","name":"interfaceId","type":"bytes4"}],"name":"supportsInterface","outputs":[{"internalType":"bool","name":"","type":"bool"}],"stateMutability":"view","type":"function"},{"inputs":[],"name":"upstream","outputs":[{"internalType":"address","name":"","type":"address"}],"stateMutability":"view","type":"function"},{"anonymous":false,"inputs":[{"indexed":false,"internalType":"IdentityId","name":"identity","type":"bytes32"}],"name":"ApproverChange","type":"event"},{"anonymous":false,"inputs":[],"name":"EIP712DomainChanged","type":"event"},{"anonymous":false,"inputs":[{"indexed":false,"internalType":"IdentityId","name":"identity","type":"bytes32"}],"name":"PolicyChange","type":"event"},{"inputs":[],"name":"DurationTooLong","type":"error"},{"inputs":[],"name":"ECDSAInvalidSignature","type":"error"},{"inputs":[{"internalType":"uint256","name":"length","type":"uint256"}],"name":"ECDSAInvalidSignatureLength","type":"error"},{"inputs":[{"internalType":"bytes32","name":"s","type":"bytes32"}],"name":"ECDSAInvalidSignatureS","type":"error"},{"inputs":[],"name":"InterfaceUnsupported","type":"error"},{"inputs":[],"name":"InvalidProof","type":"error"},{"inputs":[],"name":"InvalidShortString","type":"error"},{"inputs":[],"name":"InvalidSsssSignature","type":"error"},{"inputs":[],"name":"MerkleProofInvalidMultiproof","type":"error"},{"inputs":[],"name":"NonceUsed","type":"error"},{"inputs":[],"name":"QuorumNotReached","type":"error"},{"inputs":[{"internalType":"string","name":"str","type":"string"}],"name":"StringTooLong","type":"error"},{"inputs":[],"name":"Unauthorized","type":"error"}],"bytecode":{"linkReferences":{},"object":"0x6101806040523462000084576200001f6200001962000163565b6200026d565b620000296200008a565b612f2962000df98239608051816115a9015260a05181612881015260c051816128b8015260e0518161284701526101005181612cbd01526101205181612ce201526101405181611631015261016051816116710152612f2990f35b62000090565b60405190565b600080fd5b601f801991011690565b634e487b7160e01b600052604160045260246000fd5b90620000c19062000095565b810190811060018060401b03821117620000da57604052565b6200009f565b90620000f7620000ef6200008a565b9283620000b5565b565b600080fd5b60018060a01b031690565b6200011490620000fe565b90565b620001228162000109565b036200012a57565b600080fd5b905051906200013e8262000117565b565b906020828203126200015d576200015a916000016200012f565b90565b620000f9565b6200018662003d22803803806200017a81620000e0565b92833981019062000140565b90565b60018060401b038111620001a857620001a460209162000095565b0190565b6200009f565b90620001c4620001be8362000189565b620000e0565b918252565b60007f537373735065726d697474657200000000000000000000000000000000000000910152565b620001fd600d620001ae565b906200020c60208301620001c9565b565b62000218620001f1565b90565b60007f3100000000000000000000000000000000000000000000000000000000000000910152565b6200024f6001620001ae565b906200025e602083016200021b565b565b6200026a62000243565b90565b6200028f906200027c6200020e565b906200028762000260565b9091620002e2565b565b90565b90565b60200190565b5190565b90565b620002bd620002b7620002c392620000fe565b620002a1565b620000fe565b90565b620002d190620002a4565b90565b620002df90620002c6565b90565b6200033490620002f6620003559462000391565b6200030e8162000307600062000291565b90620008d7565b610140526200032a8362000323600162000291565b90620008d7565b6101605262000294565b6200034a62000343826200029d565b9162000297565b206101005262000294565b6200036b62000364826200029d565b9162000297565b20610120524660c0526200037e62000a14565b60a0526200038c30620002d4565b60e052565b6200039c90620004d7565b565b151590565b60000190565b600090565b60018060601b03191690565b60601b90565b620003d9620003d3620003df92620000fe565b620003ba565b620003ae565b90565b620003ed90620003c0565b90565b620003fb90620003ae565b90565b60001c90565b90565b620004206200041a620004269262000404565b620002a1565b62000404565b90565b620004386200043e91620003fe565b62000407565b90565b634e487b7160e01b600052602160045260246000fd5b600311156200046257565b62000441565b90620004748262000457565b565b620004819062000468565b90565b60ff1690565b620004a36200049d620004a99262000484565b620002a1565b62000404565b90565b90565b60001b90565b620004ce620004c8620004d49262000404565b620004af565b620004ac565b90565b620004ed620004e68262000ae8565b156200039e565b620005c657620004fc620003a9565b50620005118163577e56b760e11b9062000b89565b60001462000561576200055c90620005556200054f62000548620005426200053c6001955b620003e2565b620003f0565b62000429565b9262000476565b6200048a565b17620004b5565b608052565b6200057581630e198f8560e11b9062000b89565b6000146200059f576200055c90620005556200054f62000548620005426200053c60029562000536565b620005a96200008a565b635dd52ad560e11b815280620005c260048201620003a3565b0390fd5b620005d06200008a565b635dd52ad560e11b815280620005e960048201620003a3565b0390fd5b600090565b90565b6200060e620006086200061492620005f2565b620002a1565b62000404565b90565b5190565b634e487b7160e01b600052602260045260246000fd5b906001600283049216801562000654575b60208310146200064e57565b6200061b565b91607f169162000642565b600052602060002090565b601f602091010490565b1b90565b9190600862000698910291620006916000198462000674565b9262000674565b9181191691161790565b90565b9190620006c0620006ba620006c99362000407565b620006a2565b90835462000678565b9055565b600090565b620006e891620006e1620006cd565b91620006a5565b565b5b818110620006f7575050565b80620007076000600193620006d2565b01620006eb565b9190601f81116200071f575b505050565b6200072e62000759936200065f565b9060206200073c846200066a565b8301931062000762575b62000751906200066a565b0190620006ea565b3880806200071a565b9150620007518192905062000746565b1c90565b9062000789906000199060080262000772565b191690565b816200079a9162000776565b906002021790565b90620007ae8162000617565b9060018060401b0382116200088157620007d582620007ce855462000631565b856200070e565b602090601f83116001146200080f57918091620007fd9360009262000802575b50506200078e565b90555b565b90915001513880620007f5565b601f1983169162000820856200065f565b9260005b81811062000868575091600293918560019694106200084b575b5050500201905562000800565b6200085d910151601f84169062000776565b90553880806200083e565b9193602060018192878701518155019501920162000824565b6200009f565b906200089391620007a2565b565b90565b620008b1620008ab620008b79262000895565b620004af565b620004ac565b90565b620008c660ff62000898565b90565b620008d490620004ac565b90565b90620008e2620005ed565b50620008f8620008f28362000294565b6200029d565b6200090f620009086020620005f5565b9162000404565b10600014620009275750620009249062000d55565b90565b60006200093962000940939262000c5d565b0162000887565b620009546200094e620008ba565b620008c9565b90565b600090565b7f8b73c3c69bb8fe3d512ecc4cf759cc79239f7b179b0ffacaa9a75d522b39400f90565b6200098c9051620004ac565b90565b6200099a90620004ac565b9052565b620009a99062000404565b9052565b620009b89062000109565b9052565b9095949262000a1294620009ff62000a0a92620009f4608096620009e960a088019c60008901906200098f565b60208701906200098f565b60408501906200098f565b60608301906200099e565b0190620009ad565b565b62000a1e62000957565b5062000a296200095c565b62000a8062000a3a61010062000980565b9162000a7062000a4c61012062000980565b4662000a5830620002d4565b9162000a636200008a565b96879560208701620009bc565b60208201810382520382620000b5565b62000a9662000a8f826200029d565b9162000297565b2090565b600090565b90565b63ffffffff60e01b1690565b60e01b90565b62000acd62000ac762000ad39262000a9f565b62000aae565b62000aa2565b90565b62000ae563ffffffff62000ab4565b90565b62000af262000a9a565b5062000b07816301ffc9a760e01b9062000b89565b908162000b13575b5090565b62000b36915062000b2f9062000b2862000ad6565b9062000b89565b156200039e565b3862000b0f565b62000b489062000aa2565b9052565b919062000b629060006020850194019062000b3d565b565b90565b62000b8062000b7a62000b869262000b64565b620002a1565b62000404565b90565b60009062000bc562000bd460209462000ba162000a9a565b5062000bac6200008a565b92839160048884016301ffc9a760e01b81520162000b4c565b868201810382520382620000b5565b9062000bdf62000a9a565b5062000bea620006cd565b5062000bf5620006cd565b50838251920190617530fa3d60005191908162000c3b575b50908162000c1a575b5090565b905062000c3362000c2c600062000b67565b9162000404565b113862000c16565b905062000c5462000c4d6020620005f5565b9162000404565b10153862000c0d565b90565b90565b62000c7c62000c7662000c829262000c60565b620002a1565b62000404565b90565b60209181520190565b60005b83811062000ca3575050906000910152565b80602091830151818501520162000c91565b62000cda62000ce460209362000cea9362000cd08162000617565b9384809362000c85565b9586910162000c8e565b62000095565b0190565b62000d06916020820191600081840391015262000cb5565b90565b62000d2962000d2362000d1c836200029d565b9262000297565b62000980565b906020811062000d38575b5090565b62000d4d906000199060200360080262000674565b163862000d34565b62000d5f620005ed565b5062000d6b8162000294565b9062000d77826200029d565b62000d8e62000d87601f62000c63565b9162000404565b1162000dce575062000dc58162000dbe62000db762000db162000dcb9562000d09565b62000429565b916200029d565b17620004b5565b620008c9565b90565b62000df49062000ddd6200008a565b91829163305a27a960e01b83526004830162000cee565b0390fdfe60806040526004361015610013575b610878565b61001e6000356100ac565b80622eb29e146100a757806301ffc9a7146100a25780631ba93dd31461009d5780631eb70eb2146100985780636a99a523146100935780638320790c1461008e57806384b0196e14610089578063af637399146100845763f58ac3250361000e5761083e565b61078e565b610724565b61055a565b6103d5565b610356565b610307565b610225565b61017a565b60e01c90565b60405190565b600080fd5b600080fd5b600080fd5b90565b6100d3816100c7565b036100da57565b600080fd5b905035906100ec826100ca565b565b6100f7816100c7565b036100fe57565b600080fd5b90503590610110826100ee565b565b90565b61011e81610112565b0361012557565b600080fd5b9050359061013782610115565b565b909160608284031261016f5761016c61015584600085016100df565b936101638160208601610103565b9360400161012a565b90565b6100bd565b60000190565b346101a95761019361018d366004610139565b91610ae2565b61019b6100b2565b806101a581610174565b0390f35b6100b8565b63ffffffff60e01b1690565b6101c3816101ae565b036101ca57565b600080fd5b905035906101dc826101ba565b565b906020828203126101f8576101f5916000016101cf565b90565b6100bd565b151590565b61020b906101fd565b9052565b919061022390600060208501940190610202565b565b346102555761025161024061023b3660046101de565b610af4565b6102486100b2565b9182918261020f565b0390f35b6100b8565b9060208282031261027457610271916000016100df565b90565b6100bd565b610282906100c7565b90565b9061028f90610279565b600052602052604060002090565b1c90565b90565b6102b49060086102b9930261029d565b6102a1565b90565b906102c791546102a4565b90565b6102e1906102dc600291600092610285565b6102bc565b90565b6102ed906100c7565b9052565b9190610305906000602085019401906102e4565b565b346103375761033361032261031d36600461025a565b6102ca565b61032a6100b2565b918291826102f1565b0390f35b6100b8565b6103539061034e600391600092610285565b6102bc565b90565b346103865761038261037161036c36600461025a565b61033c565b6103796100b2565b918291826102f1565b0390f35b6100b8565b600091031261039657565b6100bd565b60018060a01b031690565b6103af9061039b565b90565b6103bb906103a6565b9052565b91906103d3906000602085019401906103b2565b565b34610405576103e536600461038b565b6104016103f0610b39565b6103f86100b2565b918291826103bf565b0390f35b6100b8565b610413816103a6565b0361041a57565b600080fd5b9050359061042c8261040a565b565b67ffffffffffffffff1690565b6104448161042e565b0361044b57565b600080fd5b9050359061045d8261043b565b565b600080fd5b600080fd5b600080fd5b909182601f830112156104a85781359167ffffffffffffffff83116104a357602001926001830284011161049e57565b610469565b610464565b61045f565b909160a082840312610532576104c683600084016100df565b926104d4816020850161041f565b926104e28260408301610450565b92606082013567ffffffffffffffff811161052d578361050391840161046e565b929093608082013567ffffffffffffffff811161052857610524920161046e565b9091565b6100c2565b6100c2565b6100bd565b6105409061042e565b9052565b919061055890600060208501940190610537565b565b346105915761058d61057c6105703660046104ad565b95949094939193610cc1565b6105846100b2565b91829182610544565b0390f35b6100b8565b60ff60f81b1690565b6105a890610596565b9052565b5190565b60209181520190565b60005b8381106105cd575050906000910152565b8060209183015181850152016105bc565b601f801991011690565b610607610610602093610615936105fe816105ac565b938480936105b0565b958691016105b9565b6105de565b0190565b61062290610112565b9052565b5190565b60209181520190565b60200190565b61064290610112565b9052565b9061065381602093610639565b0190565b60200190565b9061067a61067461066d84610626565b809361062a565b92610633565b9060005b81811061068b5750505090565b9091926106a461069e6001928651610646565b94610657565b910191909161067e565b939591946107006106f5610714956106e761070a956107219c9a6106da60e08c019260008d019061059f565b8a820360208c01526105e8565b9088820360408a01526105e8565b976060870190610619565b60808501906103b2565b60a08301906102e4565b60c081840391015261065d565b90565b3461075b5761073436600461038b565b61075761073f610f67565b9361074e9795979391936100b2565b978897886106ae565b0390f35b6100b8565b9190604083820312610789578061077d61078692600086016100df565b93602001610103565b90565b6100bd565b346107bd576107a76107a1366004610760565b9061110d565b6107af6100b2565b806107b981610174565b0390f35b6100b8565b9190608083820312610839576107db81600085016100df565b926107e9826020830161041f565b92604082013567ffffffffffffffff8111610834578361080a91840161046e565b929093606082013567ffffffffffffffff811161082f5761082b920161046e565b9091565b6100c2565b6100c2565b6100bd565b346108735761085d6108513660046107c2565b94939093929192611186565b6108656100b2565b8061086f81610174565b0390f35b6100b8565b600080fd5b90565b61089461088f6108999261039b565b61087d565b61039b565b90565b6108a590610880565b90565b6108b19061089c565b90565b600080fd5b634e487b7160e01b600052604160045260246000fd5b906108d9906105de565b810190811067ffffffffffffffff8211176108f357604052565b6108b9565b60e01b90565b9050519061090b8261040a565b565b9190604083820312610936578061092a61093392600086016108fe565b936020016108fe565b90565b6100bd565b61094490610279565b9052565b919061095c9060006020850194019061093b565b565b6109666100b2565b3d6000823e3d90fd5b91906109ae604084610987610982611361565b6108a8565b6109a363d86d31b76109976100b2565b958694859384936108f8565b835260048301610948565b03915afa908115610a3457600091610a07575b506109d56109cf33926103a6565b916103a6565b036109e5576109e392610a88565b565b6109ed6100b2565b6282b42960e81b815280610a0360048201610174565b0390fd5b610a28915060403d8111610a2d575b610a2081836108cf565b81019061090d565b6109c1565b503d610a16565b61095e565b60001b90565b90610a4c60001991610a39565b9181191691161790565b60001c90565b610a6590610a56565b90565b90610a7d610a78610a8492610279565b610a5c565b8254610a3f565b9055565b91610a9690610aa792611472565b610aa260038490610285565b610a68565b610add7fe4357c65e20906494af846a51fb0fa3aaffe4185a71aac3cf54c1b0cb450128591610ad46100b2565b91829182610948565b0390a1565b90610aed929161096f565b565b600090565b610afc610aef565b5080610b17610b11630e198f8560e11b6101ae565b916101ae565b14908115610b24575b5090565b610b2e91506114bb565b38610b20565b600090565b610b41610b34565b50610b4a611595565b905090565b600090565b634e487b7160e01b600052602160045260246000fd5b60031115610b7457565b610b54565b90610b8382610b6a565b565b610b8e90610880565b90565b610b9a90610b85565b90565b610ba69061089c565b90565b90505190610bb68261043b565b565b90602082820312610bd257610bcf91600001610ba9565b90565b6100bd565b60209181520190565b90826000939282370152565b9190610c0681610bff81610c0b95610bd7565b8095610be0565b6105de565b0190565b9593610c48610c5594610c3e610c639a989495610c3460a08c019760008d019061093b565b60208b01906103b2565b6040890190610537565b8683036060880152610bec565b926080818503910152610bec565b90565b610c6f90610880565b90565b610c7b90610c66565b90565b6000910312610c8957565b6100bd565b604090610cb8610cbf9496959396610cae6060840198600085019061093b565b60208301906103b2565b0190610537565b565b9396959694929094610cd1610b4f565b50610ce585898886869086928a94956115fa565b97610cee611595565b959080610d04610cfe6001610b79565b91610b79565b14600014610da957505050505050610d1e610d2391610c72565b6108a8565b91631c6435709190928592813b15610da4576000610d5491610d5f8296610d486100b2565b988997889687956108f8565b855260048501610c8e565b03925af18015610d9f57610d72575b505b565b610d929060003d8111610d98575b610d8a81836108cf565b810190610c7e565b38610d6e565b503d610d80565b61095e565b6108b4565b9093979692959194989950610dc7610dc16002610b79565b91610b79565b14600014610e6757602096610e0f94600094610ded610de8610e1a95610b91565b610b9d565b97638320790c95999b9390919293610e036100b2565b9c8d9b8c9a8b996108f8565b895260048901610c0f565b03925af1908115610e6257600091610e34575b5090610d70565b610e55915060203d8111610e5b575b610e4d81836108cf565b810190610bb8565b38610e2d565b503d610e43565b61095e565b610e6f6100b2565b635dd52ad560e11b815280610e8660048201610174565b0390fd5b600090565b606090565b600090565b600090565b606090565b610eac9061089c565b90565b90565b610ec6610ec1610ecb92610eaf565b610a39565b6100c7565b90565b610ee2610edd610ee792610eaf565b61087d565b610112565b90565b90610efd610ef66100b2565b92836108cf565b565b67ffffffffffffffff8111610f175760208091020190565b6108b9565b90610f2e610f2983610eff565b610eea565b918252565b369037565b90610f5d610f4583610f1c565b92602080610f538693610eff565b9201910390610f33565b565b600f60f81b90565b610f6f610e8a565b50610f78610e8f565b50610f81610e8f565b50610f8a610e94565b50610f93610b34565b50610f9c610e99565b50610fa5610e9e565b50610fae611623565b90610fb7611663565b904690610fc330610ea3565b90610fce6000610eb2565b90610fe1610fdc6000610ece565b610f38565b90610fea610f5f565b96959493929190565b9061103160408361100a611005611361565b6108a8565b61102663d86d31b761101a6100b2565b958694859384936108f8565b835260048301610948565b03915afa9081156110b75760009161108a575b5061105861105233926103a6565b916103a6565b0361106857611066916110bc565b565b6110706100b2565b6282b42960e81b81528061108660048201610174565b0390fd5b6110ab915060403d81116110b0575b6110a381836108cf565b81019061090d565b611044565b503d611099565b61095e565b906110d2906110cd60028490610285565b610a68565b6111087fee70d84e20f7808fa377a8c4a7929ceb7dff0269eb7c4b4ba3186e5553711d35916110ff6100b2565b91829182610948565b0390a1565b9061111791610ff3565b565b94929361115f96946111446111519461113a60808a019560008b019061093b565b60208901906103b2565b8683036040880152610bec565b926060818503910152610bec565b90565b91602061118492949361117d6040820196600083019061093b565b01906103b2565b565b9392909461119b8587858590889286946116bf565b6111a3611595565b9490806111b96111b36001610b79565b91610b79565b1460001461125a5750505050506111d26111d791610c72565b6108a8565b9163e7213fc1919092803b1561125557611205600080946112106111f96100b2565b978896879586946108f8565b845260048401611162565b03925af1801561125057611223575b505b565b6112439060003d8111611249575b61123b81836108cf565b810190610c7e565b3861121f565b503d611231565b61095e565b6108b4565b969490919295939661127561126f6002610b79565b91610b79565b1460001461131a5761128961128e91610b91565b610b9d565b9263f58ac32590949695919295843b15611315576000966112c39488946112ce936112b76100b2565b9b8c9a8b998a986108f8565b885260048801611119565b03925af18015611310576112e3575b50611221565b6113039060003d8111611309575b6112fb81836108cf565b810190610c7e565b386112dd565b503d6112f1565b61095e565b6108b4565b6113226100b2565b635dd52ad560e11b81528061133960048201610174565b0390fd5b600090565b9060208282031261135c57611359916000016108fe565b90565b6100bd565b61136961133d565b50611392611375611595565b919061138a6113846001610b79565b91610b79565b145b156101fd565b156114385760206113ad6113a86113c393610b91565b610b9d565b636a99a523906113bb6100b2565b9384926108f8565b825281806113d360048201610174565b03915afa90811561143357600091611405575b50906113926113fd8363577e56b760e11b906116e2565b92919261138c565b611426915060203d811161142c575b61141e81836108cf565b810190611342565b386113e6565b503d611414565b61095e565b61144190610c72565b90565b91602061146692949361145f604082019660008301906102e4565b0190610619565b565b60200190565b5190565b6114a59061147e610e99565b5061149661148a6100b2565b93849260208401611444565b602082018103825203826108cf565b6114b76114b18261146e565b91611468565b2090565b6114c3610aef565b506114dd6114d76301ffc9a760e01b6101ae565b916101ae565b1490565b600090565b6bffffffffffffffffffffffff191690565b611501906114e6565b90565b60601c90565b61151661151b91611504565b610880565b90565b6115279061150a565b90565b61153e61153961154392610112565b61087d565b610112565b90565b61155261155791610a56565b61152a565b90565b90565b61157161156c6115769261155a565b61087d565b610112565b90565b61158d61158861159292610112565b61087d565b610b79565b90565b61159d6114e1565b506115a6610b34565b507f0000000000000000000000000000000000000000000000000000000000000000906115f66115e66115e06115db856114f8565b61151e565b93611546565b6115f060ff61155d565b16611579565b9190565b9261161d9592969394919461160d610b4f565b5094879060019293949596611d3e565b90565b90565b61162b610e8f565b506116607f000000000000000000000000000000000000000000000000000000000000000061165a6000611620565b906121e4565b90565b61166b610e8f565b506116a07f000000000000000000000000000000000000000000000000000000000000000061169a6001611620565b906121e4565b90565b6116b76116b26116bc92610eaf565b61087d565b61042e565b90565b916116e095939194926000956116da600093949596976116a3565b91611d3e565b565b906116eb610aef565b506116f582612262565b9182611701575b505090565b61170b92506122ed565b38806116fc565b600080fd5b67ffffffffffffffff8111611735576117316020916105de565b0190565b6108b9565b9092919261174f61174a82611717565b610eea565b9381855260208501908284011161176b5761176992610be0565b565b611712565b9080601f8301121561178e5781602061178b9335910161173a565b90565b61045f565b608081830312611806576117aa826000830161012a565b92602082013567ffffffffffffffff811161180157836117cb918401611770565b9260408301359067ffffffffffffffff82116117fc576117f0816117f9938601611770565b9360600161012a565b90565b6100c2565b6100c2565b6100bd565b67ffffffffffffffff81116118235760208091020190565b6108b9565b9092919261183d6118388261180b565b610eea565b938185526020808601920283019281841161187a57915b8383106118615750505050565b6020809161186f8486610103565b815201920191611854565b610469565b9080601f8301121561189d5781602061189a93359101611828565b90565b61045f565b67ffffffffffffffff81116118ba5760208091020190565b6108b9565b6118c8816101fd565b036118cf57565b600080fd5b905035906118e1826118bf565b565b909291926118f86118f3826118a2565b610eea565b938185526020808601920283019281841161193557915b83831061191c5750505050565b6020809161192a84866118d4565b81520192019161190f565b610469565b9080601f8301121561195857816020611955933591016118e3565b90565b61045f565b67ffffffffffffffff81116119755760208091020190565b6108b9565b600080fd5b91906060838203126119cd576119c6906119996060610eea565b936119a7826000830161041f565b60008601526119b98260208301610103565b6020860152604001610103565b6040830152565b61197a565b909291926119e76119e28261195d565b610eea565b938185526060602086019202830192818411611a2657915b838310611a0c5750505050565b6020606091611a1b848661197f565b8152019201916119ff565b610469565b9080601f83011215611a4957816020611a46933591016119d2565b90565b61045f565b91606083830312611acb57600083013567ffffffffffffffff8111611ac65782611a7991850161187f565b92602081013567ffffffffffffffff8111611ac15783611a9a91830161193a565b92604082013567ffffffffffffffff8111611abc57611ab99201611a2b565b90565b6100c2565b6100c2565b6100c2565b6100bd565b5190565b9694929099989795939161012088019a60008901611af1916102e4565b60208801611afe916103b2565b60408701611b0b916102e4565b60608601611b18916103b2565b60808501611b2591610202565b60a08401611b3291610537565b60c08301611b3f916102e4565b60e08201611b4c916102e4565b61010001611b5991610619565b565b90611b6d611b688361180b565b610eea565b918252565b369037565b90611b9c611b8483611b5b565b92602080611b92869361180b565b9201910390611b72565b565b6001611baa9101610112565b90565b634e487b7160e01b600052603260045260246000fd5b90611bcd82611ad0565b811015611bde576020809102010190565b611bad565b611bed90516100c7565b90565b611bfa90516103a6565b90565b90565b611c0c611c11916100c7565b611bfd565b9052565b611c2181602093611c00565b0190565b90611c4d611c316100b2565b8093611c41602083019182611c15565b908103825203836108cf565b565b5190565b90611c5d82611c4f565b811015611c6e576020809102010190565b611bad565b90611c7d906100c7565b9052565b611c8d611c9291610a56565b6102a1565b90565b611c9f9054611c81565b90565b90611cac90610279565b600052602052604060002090565b90611cc490610279565b600052602052604060002090565b60ff1690565b611ce4611ce991610a56565b611cd2565b90565b611cf69054611cd8565b90565b90611d0560ff91610a39565b9181191691161790565b611d18906101fd565b90565b90565b90611d33611d2e611d3a92611d0f565b611d1b565b8254611cf9565b9055565b929691959793611d6a95611d559190810190611793565b98929791979490949794989a90810190611a4e565b9a9199909a98611d798a611ad0565b611d8b611d858b610112565b91610112565b1061207a57611e4194611e2993611e1a927f206073d91fe7c25593c4c25ef77dda654c53c0990fb4bd75cea9c511902354ec94611dce611dc9611361565b6108a8565b97611dd88c610279565b949190918b611def611de98261146e565b91611468565b2093611e03611dfd8261146e565b91611468565b209495611e0e6100b2565b9a8b9960208b01611ad4565b602082018103825203826108cf565b611e3b611e358261146e565b91611468565b206123a7565b93611e53611e4e87611ad0565b611b77565b97611e5c610e94565b5b80611e78611e72611e6d8b611ad0565b610112565b91610112565b1015611f9757611eb687611e996020611e928c8690611bc3565b5101611be3565b611eb06040611ea98d8790611bc3565b5101611be3565b916123c4565b611ede611ed8611ed36000611ecc8d8790611bc3565b5101611bf0565b6103a6565b916103a6565b03611f7457611f6f90611f6a611f45611f1e611f2d611f0a6000611f038f8890611bc3565b5101611bf0565b611f126100b2565b928391602083016103bf565b602082018103825203826108cf565b611f3f611f398261146e565b91611468565b20611c25565b611f57611f518261146e565b91611468565b20611f658d91849092611c53565b611c73565b611b9e565b611e5d565b611f7c6100b2565b6331c17a1560e21b815280611f9360048201610174565b0390fd5b509195509296611fb49450611faf92969190916124a0565b611472565b611fd9611fd3611fce611fc960038790610285565b611c95565b6100c7565b916100c7565b0361205757611ff0611fea8261146e565b91611468565b209061201061200b61200460048490611ca2565b8490611cba565b611cec565b6120345761202d612032926120286001936004611ca2565b611cba565b611d1e565b565b61203c6100b2565b631f6d5aef60e01b81528061205360048201610174565b0390fd5b61205f6100b2565b6309bde33960e01b81528061207660048201610174565b0390fd5b6120826100b2565b63aa26a69360e01b81528061209960048201610174565b0390fd5b6120b16120ac6120b69261155a565b610a39565b6100c7565b90565b6120c360ff61209d565b90565b634e487b7160e01b600052602260045260246000fd5b90600160028304921680156120fc575b60208310146120f757565b6120c6565b91607f16916120ec565b60209181520190565b600052602060002090565b906000929180549061213561212e836120dc565b8094612106565b9160018116908160001461218e5750600114612151575b505050565b61215e919293945061210f565b916000925b818410612176575050019038808061214c565b60018160209295939554848601520191019290612163565b92949550505060ff191682521515602002019038808061214c565b906121b39161211a565b90565b906121d66121cf926121c66100b2565b938480926121a9565b03836108cf565b565b6121e1906121b6565b90565b906121ed610e8f565b506121f782610279565b61221061220a6122056120b9565b6100c7565b916100c7565b14156000146122265750612223906127fd565b90565b61223091506121d8565b90565b90565b61224a61224561224f92612233565b6108f8565b6101ae565b90565b61225f63ffffffff612236565b90565b61226a610aef565b5061227d816301ffc9a760e01b906122ed565b9081612288575b5090565b6122a5915061229f90612299612252565b906122ed565b156101fd565b38612284565b6122b4906101ae565b9052565b91906122cc906000602085019401906122ab565b565b90565b6122e56122e06122ea926122ce565b61087d565b610112565b90565b600090612322612330602094612301610aef565b5061230a6100b2565b92839160048884016301ffc9a760e01b8152016122b8565b8682018103825203826108cf565b90612339610aef565b50612342610e94565b5061234b610e94565b50838251920190617530fa3d60005191908161238a575b50908161236e575b5090565b905061238361237d6000610ece565b91610112565b113861236a565b905061239f61239960206122d1565b91610112565b101538612362565b6123c1906123b3610e99565b506123bc61282d565b6128e8565b90565b906123e7926123de926123d5610b34565b509190916129df565b90929192612a88565b90565b5190565b634e487b7160e01b600052601160045260246000fd5b61241361241991939293610112565b92610112565b820180921161242457565b6123ee565b90565b61244061243b61244592612429565b61087d565b610112565b90565b61245190610112565b60001981146124605760010190565b6123ee565b9061246f826123ea565b811015612480576020809102010190565b611bad565b61248f90516101fd565b90565b9061249d9103610112565b90565b906124a9610e99565b506124b383611c4f565b916124bd81611c4f565b936124c7836123ea565b956124d3858790612404565b6124f86124f26124ed8a6124e7600161242c565b90612404565b610112565b91610112565b036127745761250687611b77565b946125116000610ece565b9361251c6000610ece565b926125276000610ece565b996125326000610ece565b5b8061254661254084610112565b91610112565b1015612684578761255f61255987610112565b91610112565b106000146126635761258361257e886125778b612448565b9a90611c53565b611be3565b5b6125976125928b8490612465565b612485565b600014612635578a896125b26125ac89610112565b91610112565b106000146126095750906125ff6125ed612604936125e56125e06125d99d8d909e8f612448565b9e90611c53565b611be3565b5b5b90612b72565b6125fa8d91849092611c53565b611c73565b611b9e565b612533565b6125ed612604939261263061262b6125ff946126248d612448565b9c90611c53565b611be3565b6125e6565b90846126408e612448565b9d61264a91611c53565b61265390611be3565b6125ed612604936125ff926125e7565b61267f61267a8b61267389612448565b9890611c53565b611be3565b612584565b509896509894509150866126a161269b6000610ece565b91610112565b11600014612711575050506126b96126bf9192610112565b91610112565b036126ee576126eb916126e06126e692916126da600161242c565b90612492565b90611c53565b611be3565b90565b6126f66100b2565b631a8a024960e11b81528061270d60048201610174565b0390fd5b9350935093505061272b6127256000610ece565b91610112565b11600014612753575061274b612750916127456000610ece565b90611c53565b611be3565b90565b612771915061276c906127666000610ece565b90611c53565b611be3565b90565b61277c6100b2565b631a8a024960e11b81528061279360048201610174565b0390fd5b67ffffffffffffffff81116127b5576127b16020916105de565b0190565b6108b9565b906127cc6127c783612797565b610eea565b918252565b369037565b906127fb6127e3836127ba565b926020806127f18693612797565b92019103906127d1565b565b612805610e8f565b5061280f81612bd1565b9061282261281d60206122d1565b6127d6565b918252602082015290565b612835610e99565b5061283f30610ea3565b61287161286b7f00000000000000000000000000000000000000000000000000000000000000006103a6565b916103a6565b14806128ae575b6000146128a3577f000000000000000000000000000000000000000000000000000000000000000090565b6128ab612ca7565b90565b50466128e26128dc7f0000000000000000000000000000000000000000000000000000000000000000610112565b91610112565b14612878565b6042916128f3610e99565b50604051917f19010000000000000000000000000000000000000000000000000000000000008352600283015260228201522090565b600090565b90565b61294561294061294a9261292e565b610a39565b6100c7565b90565b60ff1690565b61296761296261296c9261155a565b61087d565b61294d565b90565b61298e906129886129826129939461294d565b91610112565b9061029d565b610112565b90565b90565b6129ad6129a86129b292612996565b61087d565b610112565b90565b906129c09101610112565b90565b6129d76129d26129dc92610112565b61087d565b61294d565b90565b9091612a50926129ed610b34565b506129f6612929565b506129ff610e99565b50612a48612a43612a33612a2385612a1c60018060ff1b03612931565b1695611546565b612a2d60ff612953565b9061296f565b612a3d601b612999565b906129b5565b6129c3565b909192612dd8565b9192909190565b60041115612a6157565b610b54565b90612a7082612a57565b565b9190612a8690600060208501940190610619565b565b80612a9c612a966000612a66565b91612a66565b14600014612aa8575050565b80612abc612ab66001612a66565b91612a66565b14600014612ae757612acc6100b2565b63f645eedf60e01b815280612ae360048201610174565b0390fd5b80612afb612af56002612a66565b91612a66565b14600014612b3157612b2d612b0f83611546565b612b176100b2565b91829163fce698f760e01b835260048301612a72565b0390fd5b612b44612b3e6003612a66565b91612a66565b14612b4c5750565b612b6e90612b586100b2565b9182916335e2f38360e21b8352600483016102f1565b0390fd5b612b7a610e99565b5080612b8e612b88846100c7565b916100c7565b10600014612ba45790612ba091612edc565b5b90565b612bad91612edc565b612ba1565b90565b612bc9612bc4612bce92612bb2565b61087d565b610112565b90565b612be6612beb91612be0610e94565b50610279565b611546565b612bf560ff61155d565b1680612c0a612c04601f612bb5565b91610112565b11612c125790565b612c1a6100b2565b632cd44ac360e21b815280612c3160048201610174565b0390fd5b7f8b73c3c69bb8fe3d512ecc4cf759cc79239f7b179b0ffacaa9a75d522b39400f90565b90959492612ca594612c94612c9e92612c8a608096612c8060a088019c60008901906102e4565b60208701906102e4565b60408501906102e4565b6060830190610619565b01906103b2565b565b612caf610e99565b50612cb8612c35565b612d2f7f000000000000000000000000000000000000000000000000000000000000000091612d207f000000000000000000000000000000000000000000000000000000000000000046612d0b30610ea3565b91612d146100b2565b96879560208701612c59565b602082018103825203826108cf565b612d41612d3b8261146e565b91611468565b2090565b90565b612d5c612d57612d6192612d45565b61087d565b610112565b90565b612d78612d73612d7d92610eaf565b61087d565b61039b565b90565b612d8990612d64565b90565b612d959061294d565b9052565b612dcf612dd694612dc5606094989795612dbb608086019a60008701906102e4565b6020850190612d8c565b60408301906102e4565b01906102e4565b565b939293612de3610b34565b50612dec612929565b50612df5610e99565b50612dff85611546565b612e31612e2b7f7fffffffffffffffffffffffffffffff5d576e7357a4501ddfe92f46681b20a0612d48565b91610112565b11612ec55790612e5560209495600094939293612e4c6100b2565b94859485612d99565b838052039060015afa15612ec057612e6e600051610a39565b80612e8a612e84612e7f6000612d80565b6103a6565b916103a6565b14612ea257600091612e9c6000610eb2565b91929190565b50612ead6000612d80565b600191612eba6000610eb2565b91929190565b61095e565b505050612ed26000612d80565b9060039291929190565b612ee4610e99565b5060005260205260406000209056fea2646970667358221220f03c5e26a7305483672855140ba4bfc8a69b8357fc69018dd55ee8a3a2ed1c8164736f6c63430008170033"},"id":4,"methodIdentifiers":{"acquireIdentity(bytes32,address,uint64,bytes,bytes)":"8320790c","approverRoots(bytes32)":"1eb70eb2","eip712Domain()":"84b0196e","policyHashes(bytes32)":"1ba93dd3","releaseIdentity(bytes32,address,bytes,bytes)":"f58ac325","setApproversRoot(bytes32,bytes32,uint256)":"002eb29e","setPolicyHash(bytes32,bytes32)":"af637399","supportsInterface(bytes4)":"01ffc9a7","upstream()":"6a99a523"}}