{
  "abi": [
    {
      "inputs": [
        {
          "internalType": "address",
          "name": "upstream",
          "type": "address"
        }
      ],
      "stateMutability": "nonpayable",
      "type": "constructor"
    },
    {
      "inputs": [
        {
          "internalType": "IdentityId",
          "name": "identity",
          "type": "bytes32"
        },
        {
          "internalType": "address",
          "name": "requester",
          "type": "address"
        },
        {
          "internalType": "uint64",
          "name": "duration",
          "type": "uint64"
        },
        {
          "internalType": "bytes",
          "name": "context",
          "type": "bytes"
        },
        {
          "internalType": "bytes",
          "name": "authorization",
          "type": "bytes"
        }
      ],
      "name": "acquireIdentity",
      "outputs": [
        {
          "internalType": "uint64",
          "name": "expiry",
          "type": "uint64"
        }
      ],
      "stateMutability": "nonpayable",
      "type": "function"
    },
    {
      "inputs": [
        {
          "internalType": "IdentityId",
          "name": "",
          "type": "bytes32"
        }
      ],
      "name": "approverRoots",
      "outputs": [
        {
          "internalType": "bytes32",
          "name": "",
          "type": "bytes32"
        }
      ],
      "stateMutability": "view",
      "type": "function"
    },
    {
      "inputs": [],
      "name": "eip712Domain",
      "outputs": [
        {
          "internalType": "bytes1",
          "name": "fields",
          "type": "bytes1"
        },
        {
          "internalType": "string",
          "name": "name",
          "type": "string"
        },
        {
          "internalType": "string",
          "name": "version",
          "type": "string"
        },
        {
          "internalType": "uint256",
          "name": "chainId",
          "type": "uint256"
        },
        {
          "internalType": "address",
          "name": "verifyingContract",
          "type": "address"
        },
        {
          "internalType": "bytes32",
          "name": "salt",
          "type": "bytes32"
        },
        {
          "internalType": "uint256[]",
          "name": "extensions",
          "type": "uint256[]"
        }
      ],
      "stateMutability": "view",
      "type": "function"
    },
    {
      "inputs": [
        {
          "internalType": "IdentityId",
          "name": "",
          "type": "bytes32"
        }
      ],
      "name": "policyHashes",
      "outputs": [
        {
          "internalType": "bytes32",
          "name": "",
          "type": "bytes32"
        }
      ],
      "stateMutability": "view",
      "type": "function"
    },
    {
      "inputs": [
        {
          "internalType": "IdentityId",
          "name": "identity",
          "type": "bytes32"
        },
        {
          "internalType": "address",
          "name": "requester",
          "type": "address"
        },
        {
          "internalType": "bytes",
          "name": "context",
          "type": "bytes"
        },
        {
          "internalType": "bytes",
          "name": "authorization",
          "type": "bytes"
        }
      ],
      "name": "releaseIdentity",
      "outputs": [],
      "stateMutability": "nonpayable",
      "type": "function"
    },
    {
      "inputs": [
        {
          "internalType": "IdentityId",
          "name": "identity",
          "type": "bytes32"
        },
        {
          "internalType": "bytes32",
          "name": "signersRoot",
          "type": "bytes32"
        },
        {
          "internalType": "uint256",
          "name": "threshold",
          "type": "uint256"
        }
      ],
      "name": "setApproversRoot",
      "outputs": [],
      "stateMutability": "nonpayable",
      "type": "function"
    },
    {
      "inputs": [
        {
          "internalType": "IdentityId",
          "name": "identity",
          "type": "bytes32"
        },
        {
          "internalType": "bytes32",
          "name": "policyHash",
          "type": "bytes32"
        }
      ],
      "name": "setPolicyHash",
      "outputs": [],
      "stateMutability": "nonpayable",
      "type": "function"
    },
    {
      "inputs": [
        {
          "internalType": "bytes4",
          "name": "interfaceId",
          "type": "bytes4"
        }
      ],
      "name": "supportsInterface",
      "outputs": [
        {
          "internalType": "bool",
          "name": "",
          "type": "bool"
        }
      ],
      "stateMutability": "view",
      "type": "function"
    },
    {
      "inputs": [],
      "name": "upstream",
      "outputs": [
        {
          "internalType": "address",
          "name": "",
          "type": "address"
        }
      ],
      "stateMutability": "view",
      "type": "function"
    },
    {
      "anonymous": false,
      "inputs": [
        {
          "indexed": false,
          "internalType": "IdentityId",
          "name": "identity",
          "type": "bytes32"
        }
      ],
      "name": "ApproverChange",
      "type": "event"
    },
    {
      "anonymous": false,
      "inputs": [],
      "name": "EIP712DomainChanged",
      "type": "event"
    },
    {
      "anonymous": false,
      "inputs": [
        {
          "indexed": false,
          "internalType": "IdentityId",
          "name": "identity",
          "type": "bytes32"
        }
      ],
      "name": "PolicyChange",
      "type": "event"
    },
    {
      "inputs": [],
      "name": "DurationTooLong",
      "type": "error"
    },
    {
      "inputs": [],
      "name": "ECDSAInvalidSignature",
      "type": "error"
    },
    {
      "inputs": [
        {
          "internalType": "uint256",
          "name": "length",
          "type": "uint256"
        }
      ],
      "name": "ECDSAInvalidSignatureLength",
      "type": "error"
    },
    {
      "inputs": [
        {
          "internalType": "bytes32",
          "name": "s",
          "type": "bytes32"
        }
      ],
      "name": "ECDSAInvalidSignatureS",
      "type": "error"
    },
    {
      "inputs": [],
      "name": "InterfaceUnsupported",
      "type": "error"
    },
    {
      "inputs": [],
      "name": "InvalidProof",
      "type": "error"
    },
    {
      "inputs": [],
      "name": "InvalidShortString",
      "type": "error"
    },
    {
      "inputs": [],
      "name": "InvalidSsssSignature",
      "type": "error"
    },
    {
      "inputs": [],
      "name": "MerkleProofInvalidMultiproof",
      "type": "error"
    },
    {
      "inputs": [],
      "name": "NonceUsed",
      "type": "error"
    },
    {
      "inputs": [],
      "name": "QuorumNotReached",
      "type": "error"
    },
    {
      "inputs": [
        {
          "internalType": "string",
          "name": "str",
          "type": "string"
        }
      ],
      "name": "StringTooLong",
      "type": "error"
    },
    {
      "inputs": [],
      "name": "Unauthorized",
      "type": "error"
    }
  ],
  "bytecode": {
    "linkReferences": {},
    "object": "0x610180604052346200007b576200001f62000019620000d4565b62000151565b6040516121be9081620007e4823960805181610e99015260a05181611f25015260c05181611fda015260e05181611ef601526101005181611f7401526101205181611f9a015261014051816106f40152610160518161071e0152f35b600080fd5b634e487b7160e01b600052604160045260246000fd5b604081019081106001600160401b03821117620000b257604052565b62000080565b606081019081106001600160401b03821117620000b257604052565b604051601f620029a238819003918201601f19168301916001600160401b03831184841017620000b2578084926020946040528339810103126200007b57516001600160a01b03811681036200007b5790565b60405190620001368262000096565b600d8252565b604051906200014b8262000096565b60018252565b6200015b62000127565b602081016c29b9b9b9a832b936b4ba3a32b960991b81526200017c6200013c565b916020830193603160f81b85526200019c6200019882620005d4565b1590565b6200023657620001ac81620006ae565b156200021b5760ff60015b620001c28162000248565b60609290921b6001600160601b031916911617608052620001e3816200035f565b61014052620001f2836200047b565b6101605251902061010052519020610120524660c0526200021262000567565b60a0523060e052565b620002268162000710565b15620002365760ff6002620001b7565b604051635dd52ad560e11b8152600490fd5b600311156200025357565b634e487b7160e01b600052602160045260246000fd5b90600182811c921680156200029b575b60208310146200028557565b634e487b7160e01b600052602260045260246000fd5b91607f169162000279565b601f8111620002b3575050565b600090600080526020600020906020601f850160051c83019410620002f5575b601f0160051c01915b828110620002e957505050565b818155600101620002dc565b9092508290620002d3565b90601f82116200030e575050565b60019160009060016000526020600020906020601f850160051c8301941062000354575b601f0160051c01915b828110620003495750505050565b81815583016200033b565b909250829062000332565b9081516020906020811060001462000382575050906200037f9062000766565b90565b6001600160401b038111620000b257600091620003ab82620003a5855462000269565b620002a6565b602090601f8311600114620003f457508190839495620003e19492620003e8575b50508160011b916000199060031b1c19161790565b905560ff90565b015190503880620003cc565b60008052601f198316957f290decd9548b62a8d60345a988386fc84ba6bc95484008f6362f93160ef3e563929185905b888210620004625750508360019596971062000448575b505050811b01905560ff90565b015160001960f88460031b161c191690553880806200043b565b8060018596829496860151815501950193019062000424565b908151602090602081106000146200049b575050906200037f9062000766565b6001600160401b038111620000b257600191620004c482620004be855462000269565b62000300565b602090601f8311600114620004fa57508190620003e1939495600092620003e85750508160011b916000199060031b1c19161790565b6001600052601f198316959091907fb10e2d527612073b26eecdfd717e6a320cf44b4afac2b0732d9fcbe2b7fa0cf6926000905b8882106200054f57505083859697106200044857505050811b01905560ff90565b8087859682949686015181550195019301906200052e565b61010051610120516040519060208201927f8b73c3c69bb8fe3d512ecc4cf759cc79239f7b179b0ffacaa9a75d522b39400f8452604083015260608201524660808201523060a082015260a0815260c0810181811060018060401b03821117620000b25760405251902090565b604051602090818101908260006301ffc9a760e01b92838552836024820152602481526200060281620000b8565b51617530948786fa933d6000519086620006a2575b508562000697575b50846200062e575b5050505090565b839450906000929160405185810192835263ffffffff60e01b6024820152602481526200065b81620000b8565b5192fa60005190913d836200068b575b50508162000680575b50153880808062000627565b905015153862000674565b1015915038806200066b565b15159450386200061f565b85111595503862000617565b6000602091604051838101906301ffc9a760e01b825263577e56b760e11b602482015260248152620006e081620000b8565b5191617530fa6000513d8262000703575b5081620006fc575090565b9050151590565b60201115915038620006f1565b6000602091604051838101906301ffc9a760e01b8252630e198f8560e11b602482015260248152620006e081620000b8565b60208151910151906020811062000757575090565b6000199060200360031b1b1690565b601f81511162000781576200077b8162000742565b90511790565b6040519063305a27a960e01b82528160208060048301528251908160248401526000935b828510620007c9575050604492506000838284010152601f80199101168101030190fd5b8481018201518686016044015293810193859350620007a556fe604060808152600436101561001357600080fd5b6000803560e01c9182622eb29e146100ab575050806301ffc9a7146100a65780631ba93dd3146100a15780631eb70eb21461009c5780636a99a523146100975780638320790c1461009257806384b0196e1461008d578063af637399146100885763f58ac3251461008357600080fd5b6108c9565b6107f3565b6106bb565b6103e2565b61032b565b6102d6565b61028c565b6101c8565b346101c45760607ffffffffffffffffffffffffffffffffffffffffffffffffffffffffffffffffc3601126101c4576004359073ffffffffffffffffffffffffffffffffffffffff806100fc610da1565b1682805180927fd86d31b7000000000000000000000000000000000000000000000000000000008252818061013989600483019190602083019252565b03915afa9081156101bf578591610191575b501633036101685750610165906044359060243590610bd5565b80f35b600490517f82b42900000000000000000000000000000000000000000000000000000000008152fd5b6101b19150833d85116101b8575b6101a98183610b60565b810190610ba1565b508561014b565b503d61019f565b610bc9565b5080fd5b346102875760207ffffffffffffffffffffffffffffffffffffffffffffffffffffffffffffffffc360112610287576004357fffffffff00000000000000000000000000000000000000000000000000000000811680910361028757807f1c331f0a000000000000000000000000000000000000000000000000000000006020921490811561025d575b506040519015158152f35b7f01ffc9a70000000000000000000000000000000000000000000000000000000091501438610252565b600080fd5b346102875760207ffffffffffffffffffffffffffffffffffffffffffffffffffffffffffffffffc3601126102875760043560005260026020526020604060002054604051908152f35b346102875760207ffffffffffffffffffffffffffffffffffffffffffffffffffffffffffffffffc3601126102875760043560005260036020526020604060002054604051908152f35b600091031261028757565b346102875760007ffffffffffffffffffffffffffffffffffffffffffffffffffffffffffffffffc360112610287576020610364610e97565b905073ffffffffffffffffffffffffffffffffffffffff60405191168152f35b73ffffffffffffffffffffffffffffffffffffffff81160361028757565b67ffffffffffffffff81160361028757565b9181601f840112156102875782359167ffffffffffffffff8311610287576020838186019501011161028757565b346102875760a07ffffffffffffffffffffffffffffffffffffffffffffffffffffffffffffffffc36011261028757600480356024359161042283610384565b6044359261042f846103a2565b67ffffffffffffffff6064358181116102875761044f90369085016103b4565b9590916084359081116102875761046990369086016103b4565b9061047982828a87878a8d611307565b8297610483610e97565b959061048e81610c48565b600181036105775750505050505073ffffffffffffffffffffffffffffffffffffffff16803b1561028757849360008094610529604051988996879586947f1c643570000000000000000000000000000000000000000000000000000000008652850191604091949373ffffffffffffffffffffffffffffffffffffffff67ffffffffffffffff926060860197865216602085015216910152565b03925af19182156101bf5761055a9261055e575b505b60405167ffffffffffffffff90911681529081906020820190565b0390f35b8061056b61057192610ad7565b80610320565b3861053d565b60029192939495999697989a5061058d81610c48565b036106345760009373ffffffffffffffffffffffffffffffffffffffff936020999a936105e8936040519c8d9b8c9a8b987f8320790c000000000000000000000000000000000000000000000000000000008a528901610cab565b0393165af180156101bf5761055a91600091610605575b5061053f565b610627915060203d60201161062d575b61061f8183610b60565b810190610c57565b386105ff565b503d610615565b886040517fbbaa55aa000000000000000000000000000000000000000000000000000000008152fd5b919082519283825260005b8481106106a75750507fffffffffffffffffffffffffffffffffffffffffffffffffffffffffffffffe0601f8460006020809697860101520116010190565b602081830181015184830182015201610668565b34610287576000807ffffffffffffffffffffffffffffffffffffffffffffffffffffffffffffffffc3601126107f057610793906107187f0000000000000000000000000000000000000000000000000000000000000000611964565b906107427f0000000000000000000000000000000000000000000000000000000000000000611a9f565b906040519161075083610b0c565b8183526107a16020916040519687967f0f00000000000000000000000000000000000000000000000000000000000000885260e0602089015260e088019061065d565b90868203604088015261065d565b904660608601523060808601528260a086015284820360c0860152602080855193848152019401925b8281106107d957505050500390f35b8351855286955093810193928101926001016107ca565b80fd5b34610287576040807ffffffffffffffffffffffffffffffffffffffffffffffffffffffffffffffffc360112610287576004359073ffffffffffffffffffffffffffffffffffffffff80610845610da1565b1682805180927fd86d31b7000000000000000000000000000000000000000000000000000000008252818061088289600483019190602083019252565b03915afa9081156101bf576000916108ab575b50163303610168576108a960243583610d1c565b005b6108c29150833d85116101b8576101a98183610b60565b5038610895565b346102875760807ffffffffffffffffffffffffffffffffffffffffffffffffffffffffffffffffc36011261028757600480359060243561090981610384565b67ffffffffffffffff6044358181116102875761092990369085016103b4565b916064359081116102875761094190369086016103b4565b909261095182858386898c61168e565b610959610e97565b949061096481610c48565b60018103610a0a57505050505073ffffffffffffffffffffffffffffffffffffffff16803b15610287576109ed9360008094604051968795869485937fe7213fc1000000000000000000000000000000000000000000000000000000008552840190929173ffffffffffffffffffffffffffffffffffffffff6020916040840195845216910152565b03925af180156101bf576109fd57005b8061056b6108a992610ad7565b80610a1f6002929a969a999497939599610c48565b03610a7f5773ffffffffffffffffffffffffffffffffffffffff1693843b156102875760009687936109ed926040519a8b998a9889977ff58ac3250000000000000000000000000000000000000000000000000000000089528801610d58565b506040517fbbaa55aa000000000000000000000000000000000000000000000000000000008152fd5b7f4e487b7100000000000000000000000000000000000000000000000000000000600052604160045260246000fd5b67ffffffffffffffff8111610aeb57604052565b610aa8565b6060810190811067ffffffffffffffff821117610aeb57604052565b6020810190811067ffffffffffffffff821117610aeb57604052565b6040810190811067ffffffffffffffff821117610aeb57604052565b60c0810190811067ffffffffffffffff821117610aeb57604052565b90601f7fffffffffffffffffffffffffffffffffffffffffffffffffffffffffffffffe0910116810190811067ffffffffffffffff821117610aeb57604052565b91908260409103126102875760208251610bba81610384565b920151610bc681610384565b90565b6040513d6000823e3d90fd5b610c027fe4357c65e20906494af846a51fb0fa3aaffe4185a71aac3cf54c1b0cb450128593602093610e73565b8160005260038352604060002055604051908152a1565b7f4e487b7100000000000000000000000000000000000000000000000000000000600052602160045260246000fd5b60031115610c5257565b610c19565b908160209103126102875751610bc6816103a2565b601f82602094937fffffffffffffffffffffffffffffffffffffffffffffffffffffffffffffffe0938186528686013760008582860101520116010190565b959391610cf69373ffffffffffffffffffffffffffffffffffffffff67ffffffffffffffff92610bc69a98948a5216602089015216604087015260a0606087015260a0860191610c6c565b926080818503910152610c6c565b67ffffffffffffffff8111610aeb5760051b60200190565b6020907fee70d84e20f7808fa377a8c4a7929ceb7dff0269eb7c4b4ba3186e5553711d35928160005260028352604060002055604051908152a1565b9492909373ffffffffffffffffffffffffffffffffffffffff610d9393610bc698968852166020870152608060408701526080860191610c6c565b926060818503910152610c6c565b6001610dab610e97565b9190610db681610c48565b145b15610dd65773ffffffffffffffffffffffffffffffffffffffff1690565b73ffffffffffffffffffffffffffffffffffffffff604051917f6a99a523000000000000000000000000000000000000000000000000000000008352826004816020948594165afa9081156101bf57600091610e3e575b509050610e3981610ecd565b610db8565b82813d8311610e6c575b610e528183610b60565b810103126107f0575051610e6581610384565b8038610e2d565b503d610e48565b906040519060208201928352604082015260408152610e9181610af0565b51902090565b7f00000000000000000000000000000000000000000000000000000000000000009060ff82166003811015610c52579160601c90565b6040519060208083018160007f01ffc9a7000000000000000000000000000000000000000000000000000000009586845286602482015260248152610f1181610af0565b51617530938685fa933d6000519086610fcf575b5085610fc5575b5084610f49575b50505081610f3f575090565b610bc69150611b6d565b8394509060009183946040518581019283527fffffffff00000000000000000000000000000000000000000000000000000000602482015260248152610f8e81610af0565b5192fa60005190913d83610fba575b505081610fb0575b501590388080610f33565b9050151538610fa5565b101591503880610f9d565b1515945038610f2c565b841115955038610f25565b81601f820112156102875780359067ffffffffffffffff8211610aeb576040519261102d60207fffffffffffffffffffffffffffffffffffffffffffffffffffffffffffffffe0601f8601160185610b60565b8284526020838301011161028757816000926020809301838601378301015290565b6080818303126102875780359267ffffffffffffffff926020830135848111610287578161107e918501610fda565b93604084013590811161028757606091611099918501610fda565b92013590565b9080601f830112156102875760209082356110b981610d04565b936110c76040519586610b60565b81855260208086019260051b82010192831161028757602001905b8282106110f0575050505090565b813580151581036102875781529083019083016110e2565b81601f8201121561028757803590602061112183610d04565b9360406111316040519687610b60565b8486528286019183606080970286010194818611610287578401925b85841061115e575050505050505090565b868483031261028757848791845161117581610af0565b863561118081610384565b81528287013583820152858701358682015281520193019261114d565b90916060828403126102875767ffffffffffffffff9180358381116102875781019380601f860112156102875760209480356111d881610d04565b916111e66040519384610b60565b818352878084019260051b820101918483116102875788809201905b83821061123b575050505094820135848111610287578161122491840161109f565b93604083013590811161028757610bc69201611108565b81358152908201908201611202565b9061125482610d04565b6112616040519182610b60565b8281527fffffffffffffffffffffffffffffffffffffffffffffffffffffffffffffffe061128f8294610d04565b0190602036910137565b7f4e487b7100000000000000000000000000000000000000000000000000000000600052603260045260246000fd5b8051156112d55760200190565b611299565b80518210156112d55760209160051b010190565b906040519160208301526020825261130582610b28565b565b949261131e9061132d93959892979881019061104f565b9792949195909981019061119d565b9591989097858751106116645761143e9161140461136561134c610da1565b73ffffffffffffffffffffffffffffffffffffffff1690565b92855160208701209d6020815191012060409e8f519c8d958a6020880198899367ffffffffffffffff9161010096939998979461012087019a7f206073d91fe7c25593c4c25ef77dda654c53c0990fb4bd75cea9c511902354ec885273ffffffffffffffffffffffffffffffffffffffff80931660208901526040880152166060860152600160808601521660a084015260c083015260e08201520152565b03976114367fffffffffffffffffffffffffffffffffffffffffffffffffffffffffffffffe0998a8101835282610b60565b519020611bfc565b93611449865161124a565b9760005b87518110156115565761147d6020611465838b6112da565b5101518d611473848c6112da565b5101519089611c3d565b73ffffffffffffffffffffffffffffffffffffffff6114bd61134c6114a2858d6112da565b515173ffffffffffffffffffffffffffffffffffffffff1690565b91160361152d57806115158d6114d86114a26001958d6112da565b905173ffffffffffffffffffffffffffffffffffffffff909116602082019081526040808e01835290919061150d9082610b60565b5190206112ee565b60208151910120611526828d6112da565b520161144d565b60048c517fc705e854000000000000000000000000000000000000000000000000000000008152fd5b509196509350611574945061156f929897969196611cfd565b610e73565b611588836000526003602052604060002090565b540361163b5760208151910120916115c76115c0846115b1856000526004602052604060002090565b90600052602052604060002090565b5460ff1690565b6116125750611305916115b16115e7926000526004602052604060002090565b60017fffffffffffffffffffffffffffffffffffffffffffffffffffffffffffffff00825416179055565b600490517f1f6d5aef000000000000000000000000000000000000000000000000000000008152fd5b600483517f09bde339000000000000000000000000000000000000000000000000000000008152fd5b60046040517faa26a693000000000000000000000000000000000000000000000000000000008152fd5b916116a3906116b2929596979481019061104f565b9592939197909881019061119d565b95919790968487511061166457859261179d9161176b6116d361134c610da1565b9285519260209e8f948589012090858151910120916040519c8d96870197889290610100949197969592976101208501987f206073d91fe7c25593c4c25ef77dda654c53c0990fb4bd75cea9c511902354ec865273ffffffffffffffffffffffffffffffffffffffff8093166020870152604086015216606084015260006080840152600060a084015260c083015260e08201520152565b03966114367fffffffffffffffffffffffffffffffffffffffffffffffffffffffffffffffe098898101835282610b60565b936117a8875161124a565b9760005b885181101561189d578873ffffffffffffffffffffffffffffffffffffffff61180361134c8f856117fd8d6114a2936117e5848a6112da565b51015160406117f4858b6112da565b51015191611c3d565b956112da565b911603611873578061185c8d61185061150d6118256114a28f976001986112da565b60405173ffffffffffffffffffffffffffffffffffffffff9091169381019384529182906020850190565b038d8101835282610b60565b8d815191012061186c828d6112da565b52016117ac565b60046040517fc705e854000000000000000000000000000000000000000000000000000000008152fd5b509197929890945061156f939996506118b69550611cfd565b6118ca846000526003602052604060002090565b540361193a578151910120906118f16115c0836115b1846000526004602052604060002090565b61191057611305916115b16115e7926000526004602052604060002090565b60046040517f1f6d5aef000000000000000000000000000000000000000000000000000000008152fd5b60046040517f09bde339000000000000000000000000000000000000000000000000000000008152fd5b60ff811461197557610bc690611e91565b50604051600080549060018260011c9260018116918215611a95575b602091602086108414611a6857858752869493602086019392918115611a2a57506001146119c9575b505050610bc692500382610b60565b9250936119f7600080527f290decd9548b62a8d60345a988386fc84ba6bc95484008f6362f93160ef3e56390565b946000935b828510611a1457505050610bc69350013880806119ba565b86548585015295860195879550938101936119fc565b915050610bc6959293507fffffffffffffffffffffffffffffffffffffffffffffffffffffffffffffff009150168252151560051b013880806119ba565b6024857f4e487b710000000000000000000000000000000000000000000000000000000081526022600452fd5b93607f1693611991565b60ff8114611ab057610bc690611e91565b506040516001805480821c91600091808216918215611b63575b602091602086108414611a6857858752869493602086019392918115611a2a5750600114611b0157505050610bc692500382610b60565b925093611b3060016000527fb10e2d527612073b26eecdfd717e6a320cf44b4afac2b0732d9fcbe2b7fa0cf690565b946000935b828510611b4d57505050610bc69350013880806119ba565b8654858501529586019587955093810193611b35565b93607f1693611aca565b6000602091604051838101907f01ffc9a70000000000000000000000000000000000000000000000000000000082527faefcad6e00000000000000000000000000000000000000000000000000000000602482015260248152611bcf81610af0565b5191617530fa6000513d82611bf0575b5081611be9575090565b9050151590565b60201115915038611bdf565b604290611c07611edf565b90604051917f19010000000000000000000000000000000000000000000000000000000000008352600283015260228201522090565b91611c7891610bc69360ff601b7f7fffffffffffffffffffffffffffffffffffffffffffffffffffffffffffffff851694821c0116906120f7565b9092919261200a565b7f4e487b7100000000000000000000000000000000000000000000000000000000600052601160045260246000fd5b9060018201809211611cbe57565b611c81565b91908201809211611cbe57565b7fffffffffffffffffffffffffffffffffffffffffffffffffffffffffffffffff8114611cbe5760010190565b91805191835191815194611d118486611cc3565b611d1a87611cb0565b03611d7c57611d288661124a565b94600093849081805b8a8210611dc857505088159150611da690505750505003611d7c577fffffffffffffffffffffffffffffffffffffffffffffffffffffffffffffffff611d789201906112da565b5190565b60046040517f35140492000000000000000000000000000000000000000000000000000000008152fd5b9195509350159150611dbe90505750611d78906112c8565b611d7891506112c8565b84841015611e7757611de3611ddc85611cd0565b94886112da565b51915b611df9611df382866112da565b51151590565b15611e5d578a86861015611e3c5750611e2a60019293611e22611e1b88611cd0565b978b6112da565b515b906120e1565b611e34828d6112da565b520190611d31565b92611e2a90611e5784611e5160019691611cd0565b966112da565b51611e24565b611e2a60019293611e22611e708c611cd0565b9b8a6112da565b611e8a611e8382611cd0565b918b6112da565b5191611de6565b60ff811690601f8211611eb55760405191611eab83610b28565b8252602082015290565b60046040517fb3512b0c000000000000000000000000000000000000000000000000000000008152fd5b73ffffffffffffffffffffffffffffffffffffffff7f000000000000000000000000000000000000000000000000000000000000000016301480611fd7575b15611f47577f000000000000000000000000000000000000000000000000000000000000000090565b60405160208101907f8b73c3c69bb8fe3d512ecc4cf759cc79239f7b179b0ffacaa9a75d522b39400f82527f000000000000000000000000000000000000000000000000000000000000000060408201527f000000000000000000000000000000000000000000000000000000000000000060608201524660808201523060a082015260a08152610e9181610b44565b507f00000000000000000000000000000000000000000000000000000000000000004614611f1e565b60041115610c5257565b61201381612000565b8061201c575050565b61202581612000565b600181036120575760046040517ff645eedf000000000000000000000000000000000000000000000000000000008152fd5b61206081612000565b6002810361209a576040517ffce698f700000000000000000000000000000000000000000000000000000000815260048101839052602490fd5b806120a6600392612000565b146120ae5750565b6040517fd78bce0c0000000000000000000000000000000000000000000000000000000081526004810191909152602490fd5b818110156115b157600052602052604060002090565b91907f7fffffffffffffffffffffffffffffff5d576e7357a4501ddfe92f46681b20a0841161217c57926020929160ff608095604051948552168484015260408301526060820152600092839182805260015afa156101bf57805173ffffffffffffffffffffffffffffffffffffffff81161561217357918190565b50809160019190565b5050506000916003919056fea26469706673582212204080666f030acf3bb2450e23ef69fe6057a1be8d7e19c7b93f8e7f8d7785251f64736f6c63430008170033"
  },
  "id": 6,
  "methodIdentifiers": {
    "acquireIdentity(bytes32,address,uint64,bytes,bytes)": "8320790c",
    "approverRoots(bytes32)": "1eb70eb2",
    "eip712Domain()": "84b0196e",
    "policyHashes(bytes32)": "1ba93dd3",
    "releaseIdentity(bytes32,address,bytes,bytes)": "f58ac325",
    "setApproversRoot(bytes32,bytes32,uint256)": "002eb29e",
    "setPolicyHash(bytes32,bytes32)": "af637399",
    "supportsInterface(bytes4)": "01ffc9a7",
    "upstream()": "6a99a523"
  }
}