{"abi":[{"inputs":[{"internalType":"address","name":"upstream","type":"address"},{"internalType":"uint16","name":"mask","type":"uint16"},{"internalType":"bytes32","name":"hash","type":"bytes32"}],"stateMutability":"nonpayable","type":"constructor"},{"inputs":[{"internalType":"IdentityId","name":"identity","type":"bytes32"},{"internalType":"address","name":"requester","type":"address"},{"internalType":"uint64","name":"duration","type":"uint64"},{"internalType":"bytes","name":"context","type":"bytes"},{"internalType":"bytes","name":"authorization","type":"bytes"}],"name":"acquireIdentity","outputs":[{"internalType":"uint64","name":"expiry","type":"uint64"}],"stateMutability":"nonpayable","type":"function"},{"inputs":[{"internalType":"bytes32","name":"","type":"bytes32"}],"name":"burnt","outputs":[{"internalType":"IdentityId","name":"","type":"bytes32"}],"stateMutability":"view","type":"function"},{"inputs":[],"name":"pcrHash","outputs":[{"internalType":"bytes32","name":"","type":"bytes32"}],"stateMutability":"view","type":"function"},{"inputs":[],"name":"pcrMask","outputs":[{"internalType":"uint16","name":"","type":"uint16"}],"stateMutability":"view","type":"function"},{"inputs":[{"internalType":"IdentityId","name":"identity","type":"bytes32"},{"internalType":"address","name":"requester","type":"address"},{"internalType":"bytes","name":"context","type":"bytes"},{"internalType":"bytes","name":"authorization","type":"bytes"}],"name":"releaseIdentity","outputs":[],"stateMutability":"nonpayable","type":"function"},{"inputs":[{"internalType":"bytes4","name":"interfaceId","type":"bytes4"}],"name":"supportsInterface","outputs":[{"internalType":"bool","name":"","type":"bool"}],"stateMutability":"view","type":"function"},{"inputs":[],"name":"upstream","outputs":[{"internalType":"address","name":"","type":"address"}],"stateMutability":"view","type":"function"},{"inputs":[],"name":"BindingMismatch","type":"error"},{"inputs":[],"name":"CertExpired","type":"error"},{"inputs":[],"name":"CertNotActive","type":"error"},{"inputs":[],"name":"ContractExpired","type":"error"},{"inputs":[],"name":"DocAlreadyUsed","type":"error"},{"inputs":[],"name":"DurationTooLong","type":"error"},{"inputs":[],"name":"InterfaceUnsupported","type":"error"},{"inputs":[],"name":"InvalidSignature","type":"error"},{"inputs":[],"name":"Unauthorized","type":"error"}],"bytecode":{"linkReferences":{},"object":"0x60e06040523462000061576200001f62000018620001bc565b91620001e4565b6200002962000067565b6169c262000641823960805181610d9e015260a05181818161050a0152611263015260c05181818161026f015261128701526169c290f35b6200006d565b60405190565b600080fd5b601f801991011690565b634e487b7160e01b600052604160045260246000fd5b906200009e9062000072565b810190811060018060401b03821117620000b757604052565b6200007c565b90620000d4620000cc62000067565b928362000092565b565b600080fd5b60018060a01b031690565b620000f190620000db565b90565b620000ff81620000e6565b036200010757565b600080fd5b905051906200011b82620000f4565b565b61ffff1690565b6200012f816200011d565b036200013757565b600080fd5b905051906200014b8262000124565b565b90565b6200015b816200014d565b036200016357565b600080fd5b90505190620001778262000150565b565b9091606082840312620001b657620001b36200019984600085016200010c565b93620001a981602086016200013c565b9360400162000168565b90565b620000d6565b620001df6200700380380380620001d381620000bd565b92833981019062000179565b909192565b620001ef90620001f7565b60a05260c052565b62000202906200033d565b565b151590565b60000190565b600090565b60018060601b03191690565b60601b90565b6200023f620002396200024592620000db565b62000220565b62000214565b90565b620002539062000226565b90565b620002619062000214565b90565b60001c90565b90565b90565b62000289620002836200028f926200026a565b6200026d565b6200026a565b90565b620002a1620002a79162000264565b62000270565b90565b634e487b7160e01b600052602160045260246000fd5b60031115620002cb57565b620002aa565b90620002dd82620002c0565b565b620002ea90620002d1565b90565b60ff1690565b6200030c620003066200031292620002ed565b6200026d565b6200026a565b90565b60001b90565b620003346200032e6200033a926200026a565b62000315565b6200014d565b90565b620003536200034c82620004a1565b1562000204565b6200042c57620003626200020f565b50620003778163577e56b760e11b906200056c565b600014620003c757620003c290620003bb620003b5620003ae620003a8620003a26001955b62000248565b62000256565b62000292565b92620002df565b620002f3565b176200031b565b608052565b620003db81630e198f8560e11b906200056c565b6000146200040557620003c290620003bb620003b5620003ae620003a8620003a26002956200039c565b6200040f62000067565b635dd52ad560e11b815280620004286004820162000209565b0390fd5b6200043662000067565b635dd52ad560e11b8152806200044f6004820162000209565b0390fd5b600090565b90565b63ffffffff60e01b1690565b60e01b90565b62000486620004806200048c9262000458565b62000467565b6200045b565b90565b6200049e63ffffffff6200046d565b90565b620004ab62000453565b50620004c0816301ffc9a760e01b906200056c565b9081620004cc575b5090565b620004ef9150620004e890620004e16200048f565b906200056c565b1562000204565b38620004c8565b62000501906200045b565b9052565b91906200051b90600060208501940190620004f6565b565b600090565b90565b6200053e62000538620005449262000522565b6200026d565b6200026a565b90565b90565b620005636200055d620005699262000547565b6200026d565b6200026a565b90565b600090620005a8620005b76020946200058462000453565b506200058f62000067565b92839160048884016301ffc9a760e01b81520162000505565b86820181038252038262000092565b90620005c262000453565b50620005cd6200051d565b50620005d86200051d565b50838251920190617530fa3d6000519190816200061e575b509081620005fd575b5090565b9050620006166200060f60006200054a565b916200026a565b1138620005f9565b90506200063762000630602062000525565b916200026a565b101538620005f056fe60806040526004361015610013575b610647565b61001e60003561008d565b806301ffc9a71461008857806332d230b81461008357806339a3bd861461007e5780636a99a523146100795780638320790c14610074578063bd37bf401461006f5763f58ac3250361000e5761060d565b610556565b6104cc565b610323565b6102b4565b610228565b61011f565b60e01c90565b60405190565b600080fd5b600080fd5b600080fd5b63ffffffff60e01b1690565b6100bd816100a8565b036100c457565b600080fd5b905035906100d6826100b4565b565b906020828203126100f2576100ef916000016100c9565b90565b61009e565b151590565b610105906100f7565b9052565b919061011d906000602085019401906100fc565b565b3461014f5761014b61013a6101353660046100d8565b610651565b610142610093565b91829182610109565b0390f35b610099565b90565b61016081610154565b0361016757565b600080fd5b9050359061017982610157565b565b90602082820312610195576101929160000161016c565b90565b61009e565b6101a390610154565b90565b906101b09061019a565b600052602052604060002090565b1c90565b90565b6101d59060086101da93026101be565b6101c2565b90565b906101e891546101c5565b90565b610202906101fd6000916000926101a6565b6101dd565b90565b61020e9061019a565b9052565b919061022690600060208501940190610205565b565b346102585761025461024361023e36600461017b565b6101eb565b61024b610093565b91829182610212565b0390f35b610099565b600091031261026857565b61009e565b7f000000000000000000000000000000000000000000000000000000000000000090565b61029a90610154565b9052565b91906102b290600060208501940190610291565b565b346102e4576102c436600461025d565b6102e06102cf61026d565b6102d7610093565b9182918261029e565b0390f35b610099565b60018060a01b031690565b6102fd906102e9565b90565b610309906102f4565b9052565b919061032190600060208501940190610300565b565b346103535761033336600461025d565b61034f61033e610696565b610346610093565b9182918261030d565b0390f35b610099565b61036181610154565b0361036857565b600080fd5b9050359061037a82610358565b565b610385816102f4565b0361038c57565b600080fd5b9050359061039e8261037c565b565b67ffffffffffffffff1690565b6103b6816103a0565b036103bd57565b600080fd5b905035906103cf826103ad565b565b600080fd5b600080fd5b600080fd5b909182601f8301121561041a5781359167ffffffffffffffff831161041557602001926001830284011161041057565b6103db565b6103d6565b6103d1565b909160a0828403126104a457610438836000840161036d565b926104468160208501610391565b9261045482604083016103c2565b92606082013567ffffffffffffffff811161049f57836104759184016103e0565b929093608082013567ffffffffffffffff811161049a5761049692016103e0565b9091565b6100a3565b6100a3565b61009e565b6104b2906103a0565b9052565b91906104ca906000602085019401906104a9565b565b34610503576104ff6104ee6104e236600461041f565b959490949391936108ba565b6104f6610093565b918291826104b6565b0390f35b610099565b7f000000000000000000000000000000000000000000000000000000000000000090565b61ffff1690565b61053c9061052c565b9052565b919061055490600060208501940190610533565b565b346105865761056636600461025d565b610582610571610508565b610579610093565b91829182610540565b0390f35b610099565b9190608083820312610602576105a4816000850161036d565b926105b28260208301610391565b92604082013567ffffffffffffffff81116105fd57836105d39184016103e0565b929093606082013567ffffffffffffffff81116105f8576105f492016103e0565b9091565b6100a3565b6100a3565b61009e565b60000190565b346106425761062c61062036600461058b565b94939093929192610af0565b610634610093565b8061063e81610607565b0390f35b610099565b600080fd5b600090565b61065961064c565b508061067461066e630e198f8560e11b6100a8565b916100a8565b14908115610681575b5090565b61068b9150610ca7565b3861067d565b600090565b61069e610691565b506106a7610d8a565b905090565b600090565b634e487b7160e01b600052602160045260246000fd5b600311156106d157565b6106b1565b906106e0826106c7565b565b90565b6106f96106f46106fe926102e9565b6106e2565b6102e9565b90565b61070a906106e5565b90565b61071690610701565b90565b610722906106e5565b90565b61072e90610719565b90565b600080fd5b601f801991011690565b634e487b7160e01b600052604160045260246000fd5b9061076090610736565b810190811067ffffffffffffffff82111761077a57604052565b610740565b60e01b90565b90505190610792826103ad565b565b906020828203126107ae576107ab91600001610785565b90565b61009e565b60209181520190565b90826000939282370152565b91906107e2816107db816107e7956107b3565b80956107bc565b610736565b0190565b95936108246108319461081a61083f9a98949561081060a08c019760008d0190610205565b60208b0190610300565b60408901906104a9565b86830360608801526107c8565b9260808185039101526107c8565b90565b61084a610093565b3d6000823e3d90fd5b61085c906106e5565b90565b61086890610853565b90565b61087490610719565b90565b600091031261088257565b61009e565b6040906108b16108b894969593966108a760608401986000850190610205565b6020830190610300565b01906104a9565b565b93969596949290946108ca6106ac565b506108de85898886869086928a9495610e62565b976108e7610d8a565b9590806108fd6108f760016106d6565b916106d6565b146000146109a25750505050505061091761091c9161085f565b61086b565b91631c6435709190928592813b1561099d57600061094d916109588296610941610093565b9889978896879561077f565b855260048501610887565b03925af180156109985761096b575b505b565b61098b9060003d8111610991575b6109838183610756565b810190610877565b38610967565b503d610979565b610842565b610731565b90939796929591949899506109c06109ba60026106d6565b916106d6565b14600014610a6057602096610a08946000946109e66109e1610a139561070d565b610725565b97638320790c95999b93909192936109fc610093565b9c8d9b8c9a8b9961077f565b8952600489016107eb565b03925af1908115610a5b57600091610a2d575b5090610969565b610a4e915060203d8111610a54575b610a468183610756565b810190610794565b38610a26565b503d610a3c565b610842565b610a68610093565b635dd52ad560e11b815280610a7f60048201610607565b0390fd5b949293610ac99694610aae610abb94610aa460808a019560008b0190610205565b6020890190610300565b86830360408801526107c8565b9260608185039101526107c8565b90565b916020610aee929493610ae760408201966000830190610205565b0190610300565b565b93929094610b05858785859088928694610ef3565b610b0d610d8a565b949080610b23610b1d60016106d6565b916106d6565b14600014610bc4575050505050610b3c610b419161085f565b61086b565b9163e7213fc1919092803b15610bbf57610b6f60008094610b7a610b63610093565b9788968795869461077f565b845260048401610acc565b03925af18015610bba57610b8d575b505b565b610bad9060003d8111610bb3575b610ba58183610756565b810190610877565b38610b89565b503d610b9b565b610842565b610731565b9694909192959396610bdf610bd960026106d6565b916106d6565b14600014610c8457610bf3610bf89161070d565b610725565b9263f58ac32590949695919295843b15610c7f57600096610c2d948894610c3893610c21610093565b9b8c9a8b998a9861077f565b885260048801610a83565b03925af18015610c7a57610c4d575b50610b8b565b610c6d9060003d8111610c73575b610c658183610756565b810190610877565b38610c47565b503d610c5b565b610842565b610731565b610c8c610093565b635dd52ad560e11b815280610ca360048201610607565b0390fd5b610caf61064c565b50610cc9610cc36301ffc9a760e01b6100a8565b916100a8565b1490565b600090565b6bffffffffffffffffffffffff191690565b610ced90610cd2565b90565b60601c90565b610d02610d0791610cf0565b6106e5565b90565b610d1390610cf6565b90565b60001c90565b90565b610d33610d2e610d3892610d1c565b6106e2565b610d1c565b90565b610d47610d4c91610d16565b610d1f565b90565b90565b610d66610d61610d6b92610d4f565b6106e2565b610d1c565b90565b610d82610d7d610d8792610d1c565b6106e2565b6106d6565b90565b610d92610ccd565b50610d9b610691565b507f000000000000000000000000000000000000000000000000000000000000000090610deb610ddb610dd5610dd085610ce4565b610d0a565b93610d3b565b610de560ff610d52565b16610d6e565b9190565b610e03610dfe610e08926103a0565b6106e2565b610d1c565b90565b634e487b7160e01b600052601160045260246000fd5b610e30610e3691939293610d1c565b92610d1c565b8201809211610e4157565b610e0b565b610e5a610e55610e5f92610d1c565b6106e2565b6103a0565b90565b929091939495610e706106ac565b50610e7f848484908992610f2f565b610e99610e93610e8e88610def565b610d1c565b91610d1c565b10610ed057610ecd96610ec896610eb89594939091929360009561107c565b610ec24291610def565b90610e21565b610e46565b90565b610ed8610093565b634a94fa8360e11b815280610eef60048201610607565b0390fd5b92610f099592939491939091929360019561107c565b565b600090565b90565b610f27610f22610f2c92610f10565b6106e2565b610d1c565b90565b929092610f3a610f0b565b50929150505050610f4c610708610f13565b90565b610f5e610f6491939293610d1c565b92610d1c565b8203918211610f6f57565b610e0b565b610f7e9051610154565b90565b610f8d610f9291610d16565b6101c2565b90565b610f9f9054610f81565b90565b90565b60001b90565b610fbf610fba610fc492610fa2565b610fa5565b610154565b90565b610fd090610d1c565b9052565b610fdd9061086b565b9052565b9095949261102d9461101c6110269261101260809661100860a088019c6000890190610fc7565b6020870190610fd4565b6040850190610205565b6060830190610300565b01906100fc565b565b60200190565b5190565b9061104660001991610fa5565b9181191691161790565b61105990610d16565b90565b9061107161106c6110789261019a565b611050565b8254611039565b9055565b95939094916110b19361109961109f9242928a918a909192610f2f565b90610f4f565b90916110aa87611257565b919261191b565b916110d96110d46110cf60006110c960208801610f74565b906101a6565b610f95565b61019a565b6110ec6110e66000610fab565b91610154565b036111af57611133906111244691611102611cc5565b9461110f889291156100f7565b91611118610093565b96879560208701610fe1565b60208201810382520382610756565b61114561113f82611035565b9161102f565b2061116461115e61115860008501610f74565b92610154565b91610154565b0361118c5761118561118a929161117f602060009201610f74565b906101a6565b61105c565b565b611194610093565b63438c487360e01b8152806111ab60048201610607565b0390fd5b6111b7610093565b6274cc0360e61b8152806111cd60048201610607565b0390fd5b906111e46111dd610093565b9283610756565b565b6111f060406111d1565b90565b600090565b600090565b6112056111e6565b90602080836112126111f3565b81520161121d6111f8565b81525050565b61122b6111fd565b90565b61123860406111d1565b90565b906112459061052c565b9052565b9061125390610154565b9052565b50611260611223565b507f00000000000000000000000000000000000000000000000000000000000000006112c47f00000000000000000000000000000000000000000000000000000000000000006112bb6112b161122e565b936000850161123b565b60208301611249565b90565b6112d160406111d1565b90565b6112dc6112c7565b90602080836112e96111f8565b8152016112f46111f8565b81525050565b6113026112d4565b90565b90565b61131c61131761132192611305565b6106e2565b610d1c565b90565b6113316396258ff5611308565b90565b600190565b61134d61134861135292610fa2565b6106e2565b610d1c565b90565b90565b61136c61136761137192611355565b6106e2565b610d1c565b90565b600080fd5b600080fd5b9093929384831161139e578411611399576001820201920390565b611379565b611374565b5090565b67ffffffffffffffff60c01b1690565b1b90565b906113c96113d091836113a3565b91356113a7565b90600881106113de575b5090565b6113fa9067ffffffffffffffff60c01b906008036008026113b7565b16386113da565b90565b60c01b90565b61141e61141961142392611401565b611404565b6113a7565b90565b60209181520190565b60007f696e76616c696420646f63000000000000000000000000000000000000000000910152565b611464600b602092611426565b61146d8161142f565b0190565b6114879060208101906000818303910152611457565b90565b1561149157565b611499610093565b62461bcd60e51b8152806114af60048201611471565b0390fd5b90565b6114ca6114c56114cf926114b3565b6106e2565b610d1c565b90565b61ffff60f01b1690565b906114ea6114f191836113a3565b91356114d2565b90600281106114ff575b5090565b6115159061ffff60f01b906002036008026113b7565b16386114fb565b60f01c90565b61153661153161153b9261052c565b6106e2565b61052c565b90565b61154a61154f9161151c565b611522565b90565b61156661156161156b9261052c565b6106e2565b610d1c565b90565b91565b90565b61158861158361158d92611571565b6106e2565b610d1c565b90565b90565b60f01b90565b6115ad6115a86115b292611590565b611593565b6114d2565b90565b156115bc57565b600080fd5b3690600090565b90565b6115df6115da6115e4926115c8565b6106e2565b610d1c565b90565b90565b6cffffffffffffffffffffffffff191690565b60681b90565b61161761161261161c926115e7565b6115fd565b6115ea565b90565b61163361162e61163892610d1c565b6106e2565b61052c565b90565b61164f61164a6116549261052c565b611593565b6114d2565b90565b90565b61166661166b916115ea565b611657565b9052565b90565b61167e611683916114d2565b61166f565b9052565b905090565b90918261169c816116a393611687565b80936107bc565b0190565b916116c66013846116be6116cd989660029661165a565b018092611672565b019161168c565b90565b6116ef6116fb9395946116e1610093565b9687946020860194856116a7565b90810382520383610756565b565b634e487b7160e01b600052603260045260246000fd5b9190811015611723576001020190565b6116fd565b60ff60f81b1690565b60f81c90565b60ff1690565b61175161174c61175692611737565b6106e2565b611737565b90565b61176561176a91611731565b61173d565b90565b90565b61178461177f6117899261176d565b6106e2565b611737565b90565b6117a061179b6117a59261176d565b6106e2565b610d1c565b90565b60f81b90565b6117c26117bd6117c79261176d565b6117a8565b611728565b90565b6117de6117d96117e392610d1c565b6106e2565b611737565b90565b6117fa6117f56117ff92611737565b6117a8565b611728565b90565b90565b61181161181691611728565b611802565b9052565b60005b83811061182e575050906000910152565b80602091830151818501520161181d565b61186461185b9260209261185281611035565b94858093611687565b9384910161181a565b0190565b6118a09360016118ac9a989694611893828561188b61189a976118a69d99611805565b018092611805565b019061183f565b9161168c565b9061183f565b9161168c565b90565b600080fd5b67ffffffffffffffff81116118d2576118ce602091610736565b0190565b610740565b909291926118ec6118e7826118b4565b6111d1565b9381855260208501908284011161190857611906926107bc565b565b6118af565b6119189136916118d7565b90565b9093926119266112fa565b504261194161193b611936611324565b610d1c565b91610d1c565b1015611c6f57611bb58286611bab611a7b611a38611a32611a0e611bba9a611967611334565b611c14575b6119f76119aa6119a56119a061199a8c8c60089061199461198e600a93611358565b926114b6565b9261137e565b906114dc565b61153e565b611552565b6119d56119cf6119c46119bd600a6114b6565b9384610e21565b928c908c859261137e565b9061156e565b9a90996119e0611334565b611bbc575b50506119f16002611574565b90610e21565b99611a006115c1565b90505087918990919261215f565b9d919d9990999d999a91611a2c82611a2660606115cb565b90610e21565b9261137e565b9061156e565b939094611a5772846a5369676e61747572653144a10138224059611603565b91611a73611a6e611a698385906113a3565b61161f565b61163b565b9091926116d0565b92611b9c611ab8611aa8611aa3611a9d8588611a976000611339565b91611713565b35611728565b611759565b611ab26030611770565b906124fc565b93611af2611ae2611add611ad78685611ad1603061178c565b91611713565b35611728565b611759565b611aec6030611770565b906124fc565b90611afd60306117ae565b93611b3c611b37611b32611b236060611b1e611b188d611035565b916115cb565b610e21565b611b2c87611035565b90610e21565b6117ca565b6117e6565b9691611b85611b638383600090611b5d611b57603093611339565b9261178c565b9261137e565b9290959390603090611b7f611b7960609361178c565b926115cb565b9261137e565b949093611b90610093565b998a9860208a01611868565b60208201810382520382610756565b929390929361190d565b61271e565b565b611be4611bea91611c0c93908590611bde87611bd86002611574565b90610e21565b9261137e565b906114dc565b611c06611c00611bfb615860611599565b6114d2565b916114d2565b146115b5565b8f8d906119e5565b611c6a611c42611c3c8a8a600090611c36611c30600893611339565b92611358565b9261137e565b906113bb565b611c64611c5e611c59678444a1013822a05961140a565b6113a7565b916113a7565b1461148a565b61196c565b611c77610093565b630790d4e360e01b815280611c8e60048201610607565b0390fd5b600090565b90505190611ca48261037c565b565b90602082820312611cc057611cbd91600001611c97565b90565b61009e565b611ccd611c92565b50611cf6611cd9610d8a565b9190611cee611ce860016106d6565b916106d6565b145b156100f7565b15611d9c576020611d11611d0c611d279361070d565b610725565b636a99a52390611d1f610093565b93849261077f565b82528180611d3760048201610607565b03915afa908115611d9757600091611d69575b5090611cf6611d618363577e56b760e11b9061280c565b929192611cf0565b611d8a915060203d8111611d90575b611d828183610756565b810190611ca6565b38611d4a565b503d611d78565b610842565b611da59061085f565b90565b90565b611dbf611dba611dc492611da8565b6106e2565b610d1c565b90565b6bffffffffffffffffffffffff60a01b1690565b90611de9611df091836113a3565b9135611dc7565b90600c8110611dfe575b5090565b611e1e906bffffffffffffffffffffffff60a01b90600c036008026113b7565b1638611dfa565b90565b60a01b90565b611e42611e3d611e4792611e25565b611e28565b611dc7565b90565b60007f6578706563746564206d6f64756c655f69640000000000000000000000000000910152565b611e7f6012602092611426565b611e8881611e4a565b0190565b611ea29060208101906000818303910152611e72565b90565b15611eac57565b611eb4610093565b62461bcd60e51b815280611eca60048201611e8c565b0390fd5b611ee2611edd611ee792611737565b6106e2565b610d1c565b90565b90565b611f01611efc611f0692611eea565b6106e2565b610d1c565b90565b90565b611f20611f1b611f2592611f09565b6106e2565b610d1c565b90565b66ffffffffffffff191690565b90611f43611f4a91836113a3565b9135611f28565b9060198110611f58575b5090565b611f719066ffffffffffffff19906019036008026113b7565b1638611f54565b90565b60381b90565b611f95611f90611f9a92611f78565b611f7b565b611f28565b90565b60007f65787065637465642064696765737420262074696d657374616d700000000000910152565b611fd2601b602092611426565b611fdb81611f9d565b0190565b611ff59060208101906000818303910152611fc5565b90565b15611fff57565b612007610093565b62461bcd60e51b81528061201d60048201611fdf565b0390fd5b60c01c90565b61203b612036612040926103a0565b6106e2565b6103a0565b90565b61204f61205491612021565b612027565b90565b60007f6f6c64206174746573746174696f6e0000000000000000000000000000000000910152565b61208c600f602092611426565b61209581612057565b0190565b6120af906020810190600081830391015261207f565b90565b156120b957565b6120c1610093565b62461bcd60e51b8152806120d760048201612099565b0390fd5b60007f756e706172736564207061796c6f616400000000000000000000000000000000910152565b6121106010602092611426565b612119816120db565b0190565b6121339060208101906000818303910152612103565b90565b1561213d57565b612145610093565b62461bcd60e51b81528061215b6004820161211d565b0390fd5b9261228c8461228684956122696123119561226361225d61225761225261224d6122cd9f9c612247906121906115c1565b90505061219b6112fa565b506122276122088d6122026121f36121ee6121e96121e36121da6121bd610f0b565b6121c5611334565b61237f575b6121d4600c611dab565b90610e21565b95898791611713565b35611728565b611759565b611ece565b6121fd6001611eed565b610e21565b90610e21565b8d612211611334565b612313575b506122216019611f0c565b90610e21565b9b9061223d8d6122376008611358565b90610e21565b90819d919261137e565b906113bb565b612043565b610def565b92610d1c565b91610d1c565b116120b2565b61228061227a89898690809261137e565b9061156e565b90612c82565b90610e21565b93612295610f0b565b5061230b6123056123006122bf6122b96122b3868a8c90809261137e565b9061156e565b90613565565b9a9199909a999a9990610e21565b966122fa6122f16122eb6122e588858d90809261137e565b9061156e565b90613c73565b99909990610e21565b946113a3565b610d1c565b91610d1c565b14612136565b565b61234061233a612379928685906123348761232e6019611f0c565b90610e21565b9261137e565b90611f35565b61237361236d6123687866646967657374665348413338346974696d657374616d701b611f81565b611f28565b91611f28565b14611ff8565b8d612216565b6123d96123ad6123a78d8b9085906123a18761239b600c611dab565b90610e21565b9261137e565b90611ddb565b6123d36123cd6123c86ba9696d6f64756c655f696478611e2e565b611dc7565b91611dc7565b14611ea5565b6121ca565b606090565b90565b6123fa6123f56123ff926123e3565b6106e2565b611737565b90565b90565b61241961241461241e92612402565b6106e2565b610d1c565b90565b9061243361242e836118b4565b6111d1565b918252565b369037565b9061246261244a83612421565b9260208061245886936118b4565b9201910390612438565b565b61247861247361247d92611571565b6117a8565b611728565b90565b9061248a82611035565b81101561249c57600160209102010190565b6116fd565b6124b56124b06124ba92611eea565b6106e2565b611737565b90565b6124c96124cf91611737565b91611737565b019060ff82116124db57565b610e0b565b6124f46124ef6124f992610fa2565b6117a8565b611728565b90565b9190916125076123de565b5061251b61251560806123e6565b91611737565b1060001461257f576125626125386125336002611574565b61243d565b926125436002612464565b61255c8561255660009360001a93611339565b90612480565b536117e6565b61257b8361257560019360001a93611eed565b90612480565b535b565b6125d16125cc6125976125926003612405565b61243d565b936125a26002612464565b6125bb866125b560009360001a93611339565b90612480565b536125c660016124a1565b906124bd565b6117e6565b6125ea836125e460019360001a93611eed565b90612480565b536125f560006124e0565b61260e8361260860029360001a93611574565b90612480565b5361257d565b90565b61262b61262661263092612614565b6106e2565b610d1c565b90565b90565b61264a61264561264f92612633565b6106e2565b610d1c565b90565b90565b61266961266461266e92612652565b6106e2565b610d1c565b90565b60007f6e6f207033383400000000000000000000000000000000000000000000000000910152565b6126a66007602092611426565b6126af81612671565b0190565b6126c99060208101906000818303910152612699565b90565b67ffffffffffffffff81116126ea576126e6602091610736565b0190565b610740565b906127016126fc836126cc565b6111d1565b918252565b61271060006126ef565b90565b61271b612706565b90565b4661273361272d610539612617565b91610d1c565b1480156127f0575b6127eb576127544661274e615afd612655565b90610f4f565b6127676127616002611574565b91610d1c565b116127c9576127a09261278561277f61279a94613f92565b92613ff7565b90600891929092612794612713565b92614230565b156100f7565b6127a657565b6127ae610093565b638baa579f60e01b8152806127c560048201610607565b0390fd5b6127d1610093565b62461bcd60e51b8152806127e7600482016126b3565b0390fd5b505050565b5046612806612800617a69612636565b91610d1c565b1461273b565b9061281561064c565b5061281f826142de565b918261282b575b505090565b6128359250614369565b3880612826565b90565b61285361284e6128589261283c565b6106e2565b610d1c565b90565b68ffffffffffffffffff60b81b1690565b9061287a61288191836113a3565b913561285b565b906009811061288f575b5090565b6128ac9068ffffffffffffffffff60b81b906009036008026113b7565b163861288b565b90565b60b81b90565b6128d06128cb6128d5926128b3565b6128b6565b61285b565b90565b60007f6578706563746564207063727300000000000000000000000000000000000000910152565b61290d600d602092611426565b612916816128d8565b0190565b6129309060208101906000818303910152612900565b90565b1561293a57565b612942610093565b62461bcd60e51b8152806129586004820161291a565b0390fd5b612966905161052c565b90565b90565b61298061297b61298592612969565b6106e2565b610d1c565b90565b61299c6129976129a192610fa2565b6106e2565b611737565b90565b6129c3906129bd6129b76129c894611737565b91610d1c565b906101be565b610d1c565b90565b90565b6129e26129dd6129e7926129cb565b6106e2565b610d1c565b90565b90565b612a016129fc612a06926129ea565b6106e2565b610d1c565b90565b612a1d612a18612a2292611571565b6106e2565b611737565b90565b90565b612a3c612a37612a4192612a25565b6106e2565b610d1c565b90565b90565b612a5b612a56612a6092612a44565b6106e2565b610d1c565b90565b612a77612a72612a7c92612402565b6106e2565b611737565b90565b90565b612a96612a91612a9b92612a7f565b6106e2565b610d1c565b90565b90565b612ab5612ab0612aba92612a9e565b6106e2565b610d1c565b90565b90565b612ad4612acf612ad992612abd565b6106e2565b611737565b90565b90565b612af3612aee612af892612adc565b6106e2565b610d1c565b90565b90565b612b12612b0d612b1792612afb565b6106e2565b610d1c565b90565b612b2e612b29612b3392611355565b6106e2565b611737565b90565b90565b612b4d612b48612b5292612b36565b6106e2565b610d1c565b90565b90565b612b6c612b67612b7192612b55565b6106e2565b610d1c565b90565b90565b612b83612b8891610d1c565b612b74565b9052565b93612bd69a9995612bbe612bdc9f9d9a989594612bd09a95602089612bb7612bca9b612bc499612b77565b019161168c565b9161168c565b9161168c565b9161168c565b9161168c565b9161168c565b90565b60007f77726f6e67207063727300000000000000000000000000000000000000000000910152565b612c14600a602092611426565b612c1d81612bdf565b0190565b612c379060208101906000818303910152612c07565b90565b15612c4157565b612c49610093565b62461bcd60e51b815280612c5f60048201612c21565b0390fd5b90565b612c7a612c75612c7f92612c63565b6106e2565b610d1c565b90565b612cb6612efb92612cbc92612c95610f0b565b50612c9e611334565b6130fd575b90612cae600961283f565b90809261137e565b9061156e565b90612cd1612ccc6000860161295c565b611552565b612cdc61011f61296c565b16918291612cf484612cee6000612988565b906129a4565b612cfe6001611eed565b16612d12612d0c6001611eed565b91610d1c565b146000146130ca57612d45612d3f8284600090612d39612d33603093611339565b9261178c565b9261137e565b9061156e565b9590945b612d5d81612d5760016124a1565b906129a4565b612d676001611eed565b16612d7b612d756001611eed565b91610d1c565b1460001461309757612dae612da88486603390612da2612d9c6063936129ce565b926129ed565b9261137e565b9061156e565b9490935b612dc683612dc06002612a09565b906129a4565b612dd06001611eed565b16612de4612dde6001611eed565b91610d1c565b1460001461306657612e17612e118284606690612e0b612e05609693612a28565b92612a47565b9261137e565b9061156e565b905b612e2d85612e276003612a63565b906129a4565b612e376001611eed565b16612e4b612e456001611eed565b91610d1c565b1460001461303357612e7e612e788486609990612e72612e6c60c993612a82565b92612aa1565b9261137e565b9061156e565b9490935b612e9687612e906004612ac0565b906129a4565b612ea06001611eed565b16612eb4612eae6001611eed565b91610d1c565b1460001461300057612ee7612ee1828460cc90612edb612ed560fc93612adf565b92612afe565b9261137e565b9061156e565b9890975b612ef56008612b1a565b906129a4565b612f056001611eed565b16612f19612f136001611eed565b91610d1c565b14600014612fcc57612f4f91612f49919061019890612f43612f3d6101c893612b39565b92612b58565b9261137e565b9061156e565b9890975b612f5b610093565b9c8d9c60208e019c612f6c9d612b8c565b602082018103825203612f7f9082610756565b612f8881611035565b90612f929061102f565b2090602001612fa090610f74565b612fa990610154565b90612fb390610154565b14612fbd90612c3a565b610336612fc990612c66565b90565b612ff891612ff29190600090612fec612fe6600093611339565b92611339565b9261137e565b9061156e565b989097612f53565b61302b613025828460009061301f613019600093611339565b92611339565b9261137e565b9061156e565b989097612eeb565b61305e613058848660009061305261304c600093611339565b92611339565b9261137e565b9061156e565b949093612e82565b61309161308b828460009061308561307f600093611339565b92611339565b9261137e565b9061156e565b90612e19565b6130c26130bc84866000906130b66130b0600093611339565b92611339565b9261137e565b9061156e565b949093612db2565b6130f56130ef82846000906130e96130e3600093611339565b92611339565b9261137e565b9061156e565b959094612d49565b61315461312b613125838560009061311f613119600993611339565b9261283f565b9261137e565b9061286c565b61314e613148613143686470637273b00058306128bc565b61285b565b9161285b565b14612933565b612ca3565b90565b61317061316b61317592613159565b6106e2565b610d1c565b90565b6cffffffffffffffffffffffffff60981b1690565b9061319b6131a291836113a3565b9135613178565b90600d81106131b0575b5090565b6131d1906cffffffffffffffffffffffffff60981b90600d036008026113b7565b16386131ac565b90565b60981b90565b6131f56131f06131fa926131d8565b6131db565b613178565b90565b60007f6578706563746564206365727469666963617465000000000000000000000000910152565b6132326014602092611426565b61323b816131fd565b0190565b6132559060208101906000818303910152613225565b90565b1561325f57565b613267610093565b62461bcd60e51b81528061327d6004820161323f565b0390fd5b69ffffffffffffffffffff60b01b1690565b906132a16132a891836113a3565b9135613281565b90600a81106132b6575b5090565b6132d49069ffffffffffffffffffff60b01b90600a036008026113b7565b16386132b2565b90565b60b01b90565b6132f86132f36132fd926132db565b6132de565b613281565b90565b90565b61331761331261331c92613300565b6132de565b613281565b90565b60007f657870656374656420636162756e646c65000000000000000000000000000000910152565b6133546011602092611426565b61335d8161331f565b0190565b6133779060208101906000818303910152613347565b90565b1561338157565b613389610093565b62461bcd60e51b81528061339f60048201613361565b0390fd5b90565b6133ba6133b56133bf926133a3565b6106e2565b611737565b90565b600090565b60016133d39101610d1c565b90565b906133e46133eb91836113a3565b9135611728565b90600181106133f9575b5090565b61340e9060ff60f81b906001036008026113b7565b16386133f5565b90565b61342c61342761343192613415565b6117a8565b611728565b90565b60007f696e76616c696420636162756e646c6500000000000000000000000000000000910152565b6134696010602092611426565b61347281613434565b0190565b61348c906020810190600081830391015261345c565b90565b1561349657565b61349e610093565b62461bcd60e51b8152806134b460048201613476565b0390fd5b7f04fc0254eba608c1f36870e29ada90be46383292736e894bfff672d989444b5060008201527f51e534a4b1f6dbe3c0bc581a32b7b176070ede12d69a3fea211b66e752cf7dd160208201527fdd095f6f1370f4170843d9dc100121e4cf63012809664487c9796284304dc53f60408201526060603d60fa1b910152565b61354060616126ef565b9061354d602083016134b8565b565b613557613536565b90565b61356261354f565b90565b61356d6115c1565b905050613578610f0b565b5061362b6135a4613587610f0b565b61358f611334565b6138f6575b61359e600d61315c565b90610e21565b936136076136016135e76135e26135dd6135d7888a6135cd8d6135c76002611574565b90610e21565b90819d919261137e565b906114dc565b61153e565b611552565b9685906135f78891809a90610e21565b908199919261137e565b9061156e565b929095613612611334565b613886575b613625600a979493976114b6565b90610e21565b9061366f61365f61365a613654878961364e886136486001611eed565b90610f4f565b91611713565b35611728565b611759565b613669600f6133a6565b16611ece565b9461369b613695868360009061368f613689600093611339565b92611339565b9261137e565b9061156e565b9790927ff0cea14dbdf686c8ac880e8fa240b126f81ccebee17fa63f60351b12674f1229986136c86133c2565b506136d1610f0b565b955b866136e66136e08c610d1c565b91610d1c565b1015613856576136f4611334565b61380b575b600161370490611eed565b61370d91610e21565b9988858c600261371c90611574565b61372591610e21565b809d90916137329361137e565b61373b916114dc565b6137449061153e565b61374d90611552565b9a87600061375a90611339565b9061376490610d1c565b146137f25789908690809d61377891610e21565b809d90916137859361137e565b61378e9161156e565b91909188600161379d90611eed565b906137a790610d1c565b14600014976137c9946137d9996137e35750506137c261355a565b925b614423565b989296919790989796505b6133c7565b95909694996136d3565b6137ec9161190d565b926137c4565b613805906137d992979993989c90610e21565b9a6137d4565b6138516138386138328b88859061382c876138266001611eed565b90610e21565b9261137e565b906133d6565b61384b6138456059613418565b91611728565b1461348f565b6136f9565b99949550919750946138769650613870925094929361190d565b92614423565b9150929192909250919291929190565b6138f16138b36138ad878985906138a7876138a1600a6114b6565b90610e21565b9261137e565b90613293565b6138c669fffffffffffffffffff06132e4565b166138eb6138e56138e06968636162756e646c6580613303565b613281565b91613281565b1461337a565b613617565b61395061392361391d8688859061391787613911600d61315c565b90610e21565b9261137e565b9061318d565b61394a61394461393f6c6b6365727469666963617465596131e1565b613178565b91613178565b14613258565b613594565b90565b61396c61396761397192613955565b6106e2565b610d1c565b90565b6affffffffffffffffffffff60a81b1690565b9061399561399c91836113a3565b9135613974565b90600b81106139aa575b5090565b6139c9906affffffffffffffffffffff60a81b90600b036008026113b7565b16386139a6565b90565b60a81b90565b6139ed6139e86139f2926139d0565b6139d3565b613974565b90565b60007f6578706563746564207075626c69635f6b657900000000000000000000000000910152565b613a2a6013602092611426565b613a33816139f5565b0190565b613a4d9060208101906000818303910152613a1d565b90565b15613a5757565b613a5f610093565b62461bcd60e51b815280613a7560048201613a37565b0390fd5b90565b613a90613a8b613a9592613a79565b6132de565b613281565b90565b60007f657870656374656420757365725f646174610000000000000000000000000000910152565b613acd6012602092611426565b613ad681613a98565b0190565b613af09060208101906000818303910152613ac0565b90565b15613afa57565b613b02610093565b62461bcd60e51b815280613b1860048201613ada565b0390fd5b90613b2a613b3191836113a3565b9135610154565b9060208110613b3f575b5090565b613b5290600019906020036008026113b7565b1638613b3b565b90565b613b70613b6b613b7592613b59565b6106e2565b610d1c565b90565b65ffffffffffff60d01b1690565b90613b94613b9b91836113a3565b9135613b78565b9060068110613ba9575b5090565b613bc39065ffffffffffff60d01b906006036008026113b7565b1638613ba5565b90565b60d01b90565b613be7613be2613bec92613bca565b613bcd565b613b78565b90565b60007f6578706563746564206e6f6e6365000000000000000000000000000000000000910152565b613c24600e602092611426565b613c2d81613bef565b0190565b613c479060208101906000818303910152613c17565b90565b15613c5157565b613c59610093565b62461bcd60e51b815280613c6f60048201613c31565b0390fd5b919091613c7e6112fa565b92613c87610f0b565b5081848183613c94610f0b565b613c9c611334565b95613d83613dab96613d66613da5976000613d5f613d59613d4e613d48613db49f613d37613d16613d9a9f613d949f613d8e9f613d01613d0d92613cf6613d0793613d4299613e6e575b613cf0600b613958565b90610e21565b94908590809261137e565b9061156e565b90614553565b91505090610e21565b8a8d613d20611334565b613e0f575b5050613d31600a6114b6565b90610e21565b988b8a90809261137e565b9061156e565b90614553565b929197909290610e21565b95613b1c565b9101611249565b613d6e611334565b613db7575b613d7d6006613b5c565b90610e21565b97908890809261137e565b9061156e565b90614553565b929195909290610e21565b93613b1c565b60208501611249565b90565b613e0a613de4613dde8c868590613dd887613dd26006613b5c565b90610e21565b9261137e565b90613b86565b613e04613dfe613df965656e6f6e6365613bd3565b613b78565b91613b78565b14613c4a565b613d73565b613e37613e3d91613e6793908590613e3187613e2b600a6114b6565b90610e21565b9261137e565b90613293565b613e61613e5b613e566969757365725f64617461613a7c565b613281565b91613281565b14613af3565b8a8d613d25565b613ec6613e9b613e9589868590613e8f87613e89600b613958565b90610e21565b9261137e565b90613987565b613ec0613eba613eb56a6a7075626c69635f6b65796139d9565b613974565b91613974565b14613a50565b613ce6565b73010000000000000000000000000000000000010490565b3d600014613f0057613ef43d612421565b903d6000602084013e5b565b613f086123de565b90613efe565b60007f7368613338340000000000000000000000000000000000000000000000000000910152565b613f436006602092611426565b613f4c81613f0e565b0190565b613f669060208101906000818303910152613f36565b90565b15613f7057565b613f78610093565b62461bcd60e51b815280613f8e60048201613f50565b0390fd5b60008091613f9e6123de565b50613fa761064c565b50613fb0613ecb565b90602081019051915afa90613fcc613fc6613ee3565b92613f69565b565b613fd89051611728565b90565b613fef613fea613ff492612abd565b6117a8565b611728565b90565b613fff6123de565b5061401c614017826140116000611339565b90612480565b613fce565b61402f6140296004613fdb565b91611728565b0361409857614077600261407161406061405b6140568661405060606115cb565b90612480565b613fce565b611759565b61406a60016124a1565b1691612a09565b176117e6565b6140908261408a60009360001a93611339565b90612480565b536031815290565b90565b6007600160981b0190565b600911156140b057565b6106b1565b906140bf826140a6565b565b6140ca906140b5565b90565b6140d6906140c1565b9052565b6140f9614102602093614107936140f081611035565b938480936107b3565b9586910161181a565b610736565b0190565b9390614166959361413c61414a926141589561412f60a08a019260008b01906140cd565b88820360208a01526140da565b9086820360408801526140da565b9084820360608601526140da565b9160808184039101526140da565b90565b60007f7665726966793a206661696c6564000000000000000000000000000000000000910152565b61419e600e602092611426565b6141a781614169565b0190565b6141c19060208101906000818303910152614191565b90565b156141cb57565b6141d3610093565b62461bcd60e51b8152806141e9600482016141ab565b0390fd5b6141f6816100f7565b036141fd57565b600080fd5b9050519061420f826141ed565b565b9060208282031261422b5761422891600001614202565b90565b61009e565b909161427c6000949361426d86956142ac9861424a61064c565b5061425361409b565b969395919091614261610093565b9687956020870161410b565b60208201810382520382610756565b602081019051915afa614296614290613ee3565b916141c4565b60206142a182611035565b818301019101614211565b90565b90565b6142c66142c16142cb926142af565b61077f565b6100a8565b90565b6142db63ffffffff6142b2565b90565b6142e661064c565b506142f9816301ffc9a760e01b90614369565b9081614304575b5090565b614321915061431b906143156142ce565b90614369565b156100f7565b38614300565b614330906100a8565b9052565b919061434890600060208501940190614327565b565b90565b61436161435c6143669261434a565b6106e2565b610d1c565b90565b60009061439e6143ac60209461437d61064c565b50614386610093565b92839160048884016301ffc9a760e01b815201614334565b868201810382520382610756565b906143b561064c565b506143be610f0b565b506143c7610f0b565b50838251920190617530fa3d600051919081614406575b5090816143ea575b5090565b90506143ff6143f96000611339565b91610d1c565b11386143e6565b905061441b614415602061434d565b91610d1c565b1015386143de565b9361446f61448d9261449394614499969761443c6133c2565b506144456133c2565b5061444e6115c1565b9050506144596115c1565b9050506144646115c1565b905050919091614b58565b909a969a99939592949891999094999895929a9b959290949261190d565b9261190d565b9161271e565b565b90565b6144b26144ad6144b79261449b565b6117a8565b611728565b90565b90565b6144d16144cc6144d6926144ba565b6117a8565b611728565b90565b90565b6144f06144eb6144f5926144d9565b6117a8565b611728565b90565b60007f6578706563746564207573657264617461206279746573000000000000000000910152565b61452d6017602092611426565b614536816144f8565b0190565b6145509060208101906000818303910152614520565b90565b919061455d6115c1565b905050614568610f0b565b50614587614581848361457b6000611339565b91611713565b35611728565b61459a61459460f661449e565b91611728565b148015614792575b614752576145c46145be84836145b86000611339565b91611713565b35611728565b6145d76145d160586144dc565b91611728565b146146c3576145fa6145f484836145ee6000611339565b91611713565b35611728565b61460d6146076059613418565b91611728565b146146345761461a610093565b62461bcd60e51b8152806146306004820161453a565b0390fd5b826146a36146bd9261467a61467561467061466a6146b7998560019061466461465e600393611eed565b92612405565b9261137e565b906114dc565b61153e565b611552565b929060039061469c61469660036146918891612405565b610e21565b92612405565b919261137e565b949094916146b16003612405565b90610e21565b9361156e565b91909290565b8261473261474c926147096147046146ff6146f961474699856001906146f36146ed600293611eed565b92611574565b9261137e565b906133d6565b611759565b611ece565b929060029061472b61472560026147208891611574565b610e21565b92611574565b919261137e565b949094916147406002611574565b90610e21565b9361156e565b91909290565b9061477c61478f926147879490600090614776614770600093611339565b92611339565b9261137e565b93909360019461156e565b929093611eed565b90565b506147b16147ab84836147a56000611339565b91611713565b35611728565b6147c46147be60406144bd565b91611728565b146145a2565b90565b6147e16147dc6147e6926147ca565b611593565b6114d2565b90565b60007f6e6f742063657274000000000000000000000000000000000000000000000000910152565b61481e6008602092611426565b614827816147e9565b0190565b6148419060208101906000818303910152614811565b90565b1561484b57565b614853610093565b62461bcd60e51b8152806148696004820161482b565b0390fd5b61488161487c61488692612abd565b6106e2565b610d1c565b90565b60007f6e6f742063657274206c656e0000000000000000000000000000000000000000910152565b6148be600c602092611426565b6148c781614889565b0190565b6148e190602081019060008183039101526148b1565b90565b156148eb57565b6148f3610093565b62461bcd60e51b815280614909600482016148cb565b0390fd5b60007f6e6f742074627300000000000000000000000000000000000000000000000000910152565b6149426007602092611426565b61494b8161490d565b0190565b6149659060208101906000818303910152614935565b90565b1561496f57565b614977610093565b62461bcd60e51b81528061498d6004820161494f565b0390fd5b90565b6149a86149a36149ad92614991565b611e28565b611dc7565b90565b60007f77726f6e67207369670000000000000000000000000000000000000000000000910152565b6149e56009602092611426565b6149ee816149b0565b0190565b614a0890602081019060008183039101526149d8565b90565b15614a1257565b614a1a610093565b62461bcd60e51b815280614a30600482016149f2565b0390fd5b614a48614a43614a4d92612402565b6117a8565b611728565b90565b60007f6e6f742073696700000000000000000000000000000000000000000000000000910152565b614a856007602092611426565b614a8e81614a50565b0190565b614aa89060208101906000818303910152614a78565b90565b15614ab257565b614aba610093565b62461bcd60e51b815280614ad060048201614a92565b0390fd5b60007f77726f6e67206973737565720000000000000000000000000000000000000000910152565b614b09600c602092611426565b614b1281614ad4565b0190565b614b2c9060208101906000818303910152614afc565b90565b15614b3657565b614b3e610093565b62461bcd60e51b815280614b5460048201614b16565b0390fd5b91929092614b646133c2565b50614b6d6133c2565b50614b766115c1565b905050614b816115c1565b905050614b8c6115c1565b905050614b976133c2565b50614ba0611334565b614da0575b6006614bb090613b5c565b938381866002614bbf90611574565b614bc891610e21565b80979091614bd59361137e565b614bde916114dc565b614be79061153e565b614bf090611552565b9484908290806004614c019061486d565b614c0a91610f4f565b97614c1491610e21565b80979091614c219361137e565b614c2a9161156e565b9290938484614c38916150f8565b9693949299919590969599949a614c4d611334565b614ca1614cb096614cbc95614c98614c7b614cb696614ca796614d42575b614c75600c611dab565b90610e21565b614c83611334565b614cbe575b614c926003612405565b90610e21565b9091809261137e565b9061156e565b95909692610154565b91610154565b14614b2f565b565b614cd3614ccd84868491611713565b35611728565b614ce6614ce06003614a34565b91611728565b1480614cfb575b614cf690614aab565b614c88565b50614cf6614d27614d218587614d1b86614d156002611574565b90610e21565b91611713565b35611728565b614d3a614d3460006124e0565b91611728565b149050614ced565b614d9b614d6f614d6986888590614d6387614d5d600c611dab565b90610e21565b9261137e565b90611ddb565b614d95614d8f614d8a6b300a06082a8648ce3d040303614994565b611dc7565b91611dc7565b14614a0b565b614c6b565b614df0614dce614dc88587600090614dc2614dbc600293611339565b92611574565b9261137e565b906114dc565b614dea614de4614ddf6130826147cd565b6114d2565b916114d2565b14614844565b614e64614e2e614e29614e24614e1e8789600290614e18614e12600493611574565b9261486d565b9261137e565b906114dc565b61153e565b611552565b614e5e614e58614e53614e42888a906113a3565b93614e4d600461486d565b90610e21565b610d1c565b91610d1c565b146148e4565b614eb4614e92614e8c8587600490614e86614e8060069361486d565b92613b5c565b9261137e565b906114dc565b614eae614ea8614ea36130826147cd565b6114d2565b916114d2565b14614968565b614ba5565b90565b614ed0614ecb614ed592614eb9565b6106e2565b610d1c565b90565b64ffffffffff60d81b1690565b90614ef3614efa91836113a3565b9135614ed8565b9060058110614f08575b5090565b614f219064ffffffffff60d81b906005036008026113b7565b1638614f04565b90565b60d81b90565b614f45614f40614f4a92614f28565b614f2b565b614ed8565b90565b60007f6e6f742076322074627300000000000000000000000000000000000000000000910152565b614f82600a602092611426565b614f8b81614f4d565b0190565b614fa59060208101906000818303910152614f75565b90565b15614faf57565b614fb7610093565b62461bcd60e51b815280614fcd60048201614f8f565b0390fd5b60007f6e6f742073657269616c00000000000000000000000000000000000000000000910152565b615006600a602092611426565b61500f81614fd1565b0190565b6150299060208101906000818303910152614ff9565b90565b1561503357565b61503b610093565b62461bcd60e51b81528061505160048201615013565b0390fd5b60007f6e6f742073657100000000000000000000000000000000000000000000000000910152565b61508a6007602092611426565b61509381615055565b0190565b6150ad906020810190600081830391015261507d565b90565b156150b757565b6150bf610093565b62461bcd60e51b8152806150d560048201615097565b0390fd5b90565b6150f06150eb6150f5926150d9565b6106e2565b610d1c565b90565b6151006133c2565b506151096133c2565b506151126133c2565b5061511b6115c1565b90505061516861514b61512e600461486d565b615136611334565b615521575b6151456005614ebc565b90610e21565b615153611334565b6154ce575b6151626001611eed565b90610e21565b926153c66153c06152086151d76151d16151b76151b26151ad6151a78b8d61519d8d92919f6151976001611eed565b90610e21565b90819f919261137e565b906133d6565b611759565b611ece565b9887906151c78a91809c90610e21565b90819b919261137e565b9061190d565b6151e96151e382611035565b9161102f565b20966151f3611334565b615470575b615202600c611dab565b90610e21565b9461527c61524b61524561523f61523461522e6152288b8d89809261137e565b9061156e565b90615656565b92919b909290610e21565b99615aa8565b9061190d565b61525d61525782611035565b9161102f565b2096615267611334565b61541d575b6152766001611eed565b90610e21565b946152ea6152e46152de6152c46152bf6152ba6152b4878d6152aa8b919f6152a46001611eed565b90610e21565b90819f919261137e565b906133d6565b611759565b611ece565b9884906152d48791809c90610e21565b90819b919261137e565b9061156e565b90615da2565b6153a361536161533061532a61532461531961531361530d8d89908b809261137e565b9061156e565b90615656565b92919c909290610e21565b9a615aa8565b9061190d565b61534261533c82611035565b9161102f565b209761534c611334565b6153ca575b61535b6001611eed565b90610e21565b61539d61539861539361538d86886153838761537d6001611eed565b90610e21565b908197919261137e565b906133d6565b611759565b611ece565b90610e21565b90916153b9826153b360616150dc565b90610f4f565b919261137e565b9061156e565b9091565b6154186153f76153f1868885906153eb876153e56001611eed565b90610e21565b9261137e565b906133d6565b61541261540c61540760306117ae565b611728565b91611728565b146150b0565b615351565b61546b61544a6154448986859061543e876154386001611eed565b90610e21565b9261137e565b906133d6565b61546561545f61545a60306117ae565b611728565b91611728565b146150b0565b61526c565b6154c961549d615497888a85906154918761548b600c611dab565b90610e21565b9261137e565b90611ddb565b6154c36154bd6154b86b300a06082a8648ce3d040303614994565b611dc7565b91611dc7565b14614a0b565b6151f8565b61551c6154fb6154f5858785906154ef876154e96001611eed565b90610e21565b9261137e565b906133d6565b61551661551061550b6002612464565b611728565b91611728565b1461502c565b615158565b61557361554e615548868885906155428761553c6005614ebc565b90610e21565b9261137e565b90614ee5565b61556d61556761556264a003020102614f31565b614ed8565b91614ed8565b14614fa8565b61513b565b90565b61558f61558a61559492615578565b6106e2565b610d1c565b90565b90565b6155ae6155a96155b392615597565b6106e2565b610d1c565b90565b6155ca6155c56155cf926123e3565b6106e2565b610d1c565b90565b60007f73657120746f6f20626967000000000000000000000000000000000000000000910152565b615607600b602092611426565b615610816155d2565b0190565b61562a90602081019060008183039101526155fa565b90565b1561563457565b61563c610093565b62461bcd60e51b81528061565260048201615614565b0390fd5b91906156606115c1565b90505061566b610f0b565b50615694615677610f0b565b61567f611334565b615800575b61568e6001611eed565b90610e21565b6156d06156cb6156c66156c087866156b6876156b06001611eed565b90610e21565b908197919261137e565b906133d6565b611759565b611ece565b806156e46156de608161557b565b91610d1c565b1460001461575a57506157549161574a9161574061573461572f61572a6157248a8761571a886157146001611eed565b90610e21565b908198919261137e565b906133d6565b611759565b611ece565b965b9291809790610e21565b908196919261137e565b939093909361156e565b91909290565b8061576e615768608261559a565b91610d1c565b146000146157c557506157549161574a916157406157be6157b96157b46157ae8a876157a48861579e6002611574565b90610e21565b908198919261137e565b906114dc565b61153e565b611552565b965b615736565b939161574a91615740615754946157fb886157e060806155b6565b166157f46157ee60806155b6565b91610d1c565b141561562d565b6157c0565b61584e61582d615827878685906158218761581b6001611eed565b90610e21565b9261137e565b906133d6565b61584861584261583d60306117ae565b611728565b91611728565b146150b0565b615684565b90565b61586a61586561586f92615853565b6117a8565b611728565b90565b60007f6e6f742072646e00000000000000000000000000000000000000000000000000910152565b6158a76007602092611426565b6158b081615872565b0190565b6158ca906020810190600081830391015261589a565b90565b156158d457565b6158dc610093565b62461bcd60e51b8152806158f2600482016158b4565b0390fd5b90565b61590d615908615912926158f6565b6106e2565b610d1c565b90565b66ffffffffffffff60c81b1690565b9061593261593991836113a3565b9135615915565b9060078110615947575b5090565b6159629066ffffffffffffff60c81b906007036008026113b7565b1638615943565b90565b60c81b90565b61598661598161598b92615969565b61596c565b615915565b90565b90565b6159a56159a06159aa9261598e565b61596c565b615915565b90565b6159c16159bc6159c692611da8565b6117a8565b611728565b90565b60007f6e6f7420636e0000000000000000000000000000000000000000000000000000910152565b6159fe6006602092611426565b615a07816159c9565b0190565b615a2190602081019060008183039101526159f1565b90565b15615a2b57565b615a33610093565b62461bcd60e51b815280615a4960048201615a0b565b0390fd5b60007f6e6f20434e000000000000000000000000000000000000000000000000000000910152565b615a826005602092611426565b615a8b81615a4d565b0190565b615aa59060208101906000818303910152615a75565b90565b615ab06115c1565b905050615abb610f0b565b5b80615ad9615ad3615ace8587906113a3565b610d1c565b91610d1c565b14615ce857615aff90615aea611334565b615c95575b615af96001611eed565b90610e21565b615b3b615b36615b31615b2b8587615b2187615b1b6001611eed565b90610e21565b908197919261137e565b906133d6565b611759565b611ece565b615b65615b5f84868590615b5987615b5360076158f9565b90610e21565b9261137e565b90615924565b615b7566ff00ffffffffff615972565b16615b97615b91615b8c6630000603550403615991565b615915565b91615915565b03615c85575091615c2891615bd9615bbc615c2e95615bb660076158f9565b90610e21565b615bc4611334565b615c32575b615bd36001611eed565b90610e21565b90615c22615c19615c14615c0f615c098588615bff89615bf96001611eed565b90610e21565b908199919261137e565b906133d6565b611759565b611ece565b91939183610e21565b9261137e565b9061156e565b9091565b615c80615c5f615c5985878590615c5387615c4d6001611eed565b90610e21565b9261137e565b906133d6565b615c7a615c74615c6f600c6159ad565b611728565b91611728565b14615a24565b615bc9565b90615c909190610e21565b615abc565b615ce3615cc2615cbc85878590615cb687615cb06001611eed565b90610e21565b9261137e565b906133d6565b615cdd615cd7615cd26031615856565b611728565b91611728565b146158cd565b615aef565b615cf0610093565b62461bcd60e51b815280615d0660048201615a8f565b0390fd5b615d1e615d19615d23926133a3565b6106e2565b610d1c565b90565b90565b615d3d615d38615d4292615d26565b6106e2565b610d1c565b90565b90565b615d5c615d57615d6192615d45565b6106e2565b610d1c565b90565b90565b615d7b615d76615d8092615d64565b6106e2565b610d1c565b90565b90565b615d9a615d95615d9f92615d83565b6106e2565b610d1c565b90565b90615e05615dff615e0a92615de0615ddb615dd58784600290615dcf615dc9600f93611574565b92615d0a565b9261137e565b9061318d565b616192565b9490601190615df9615df3601e93615d29565b92615d48565b9261137e565b9061318d565b616192565b615e15818390610f4f565b80615e2b615e256202a300615d67565b91610d1c565b10600014615ecd5750615e4062015180615d86565b5b90615e5f615e59615e5442938590610e21565b610d1c565b91610d1c565b11615eaa57615e7a615e75615e80924294610f4f565b610d1c565b91610d1c565b10615e8757565b615e8f610093565b631a96385f60e31b815280615ea660048201610607565b0390fd5b615eb2610093565b63047e775560e11b815280615ec960048201610607565b0390fd5b615ee190615edb6002612a09565b906129a4565b615e41565b90565b615efd615ef8615f0292615ee6565b6117a8565b611728565b90565b60007f6e6f742075746320747a00000000000000000000000000000000000000000000910152565b615f3a600a602092611426565b615f4381615f05565b0190565b615f5d9060208101906000818303910152615f2d565b90565b15615f6757565b615f6f610093565b62461bcd60e51b815280615f8560048201615f47565b0390fd5b615f9290613178565b90565b90565b615fac615fa7615fb192615f95565b6106e2565b611737565b90565b90565b615fcb615fc6615fd092615fb4565b6106e2565b610d1c565b90565b615fe2615fe891939293610d1c565b92610d1c565b91615ff4838202610d1c565b92818404149015171561600357565b610e0b565b90565b61601f61601a61602492616008565b6106e2565b611737565b90565b90565b61603e61603961604392616027565b6106e2565b611737565b90565b90565b61605d61605861606292616046565b6106e2565b611737565b90565b61607961607461607e9261434a565b6106e2565b611737565b90565b90565b61609861609361609d92616081565b6106e2565b611737565b90565b90565b6160b76160b26160bc926160a0565b6106e2565b611737565b90565b6160d36160ce6160d8926144ba565b6106e2565b611737565b90565b6160ef6160ea6160f4926144d9565b6106e2565b611737565b90565b90565b61610e616109616113926160f7565b6106e2565b611737565b90565b90565b61612d61612861613292616116565b6106e2565b610d1c565b90565b90565b61614c61614761615192616135565b6106e2565b610d1c565b90565b90565b61616b61616661617092616154565b6106e2565b610d1c565b90565b90565b61618a61618561618f92616173565b6106e2565b610d1c565b90565b61619a610f0b565b506161a3611334565b6164f1575b6161b190615f89565b6161ba90610d3b565b60a06161c590615f98565b6161ce916129a4565b6b3030303030303030303030306161e490615fb7565b6161ed91610f4f565b8060086161f990612b1a565b616202916129a4565b60ff61620d90610d52565b16600a616219906114b6565b61622291615fd3565b81600061622e90612988565b616237916129a4565b60ff61624290610d52565b1661624c91610e21565b8160186162589061600b565b616261916129a4565b60ff61626c90610d52565b16600a616278906114b6565b61628191615fd3565b82601061628d9061602a565b616296916129a4565b60ff6162a190610d52565b166162ab91610e21565b8260286162b790616049565b6162c0916129a4565b60ff6162cb90610d52565b16600a6162d7906114b6565b6162e091615fd3565b8360206162ec90616065565b6162f5916129a4565b60ff61630090610d52565b1661630a91610e21565b83603861631690616084565b61631f916129a4565b60ff61632a90610d52565b16600a616336906114b6565b61633f91615fd3565b84603061634b90611770565b616354916129a4565b60ff61635f90610d52565b1661636991610e21565b91846048616376906160a3565b61637f916129a4565b60ff61638a90610d52565b16600a616396906114b6565b61639f91615fd3565b8560406163ab906160bf565b6163b4916129a4565b60ff6163bf90610d52565b166163c991610e21565b948060586163d6906160db565b6163df916129a4565b60ff6163ea90610d52565b16600a6163f6906114b6565b6163ff91615fd3565b90605061640b906160fa565b616414916129a4565b60ff61641f90610d52565b1661642991610e21565b9485616434916166e3565b9390603c61644190616119565b9061644b91615fd3565b61645491610e21565b90610e1061646190616138565b9061646b91615fd3565b61647491610e21565b916201518091600161648590611eed565b61648e91610f4f565b9061649891610e21565b906164a290615d86565b906164ac91615fd3565b6164b591610e21565b906301e187e06164c490616157565b906164ce91615fd3565b63386d89d06164dc90616176565b6164e591610e21565b6164ee91610e21565b90565b806164fc600c611dab565b600d8110156165315761652c91616513911a6117a8565b616526616520605a615ee9565b91611728565b14615f60565b6161a8565b6116fd565b90565b61654d61654861655292616536565b6106e2565b610d1c565b90565b90565b61656c61656761657192616555565b6106e2565b610d1c565b90565b61658861658361658d92615ee6565b6106e2565b610d1c565b90565b90565b6165a76165a26165ac92616590565b6106e2565b610d1c565b90565b90565b6165c66165c16165cb926165af565b6106e2565b610d1c565b90565b90565b6165e56165e06165ea926165ce565b6106e2565b610d1c565b90565b90565b6166046165ff616609926165ed565b6106e2565b610d1c565b90565b90565b61662361661e6166289261660c565b6106e2565b610d1c565b90565b90565b61664261663d6166479261662b565b6106e2565b610d1c565b90565b90565b61666161665c6166669261664a565b6106e2565b610d1c565b90565b90565b61668061667b61668592616669565b6106e2565b610d1c565b90565b60007f626164206d6f6e74680000000000000000000000000000000000000000000000910152565b6166bd6009602092611426565b6166c681616688565b0190565b6166e090602081019060008183039101526166b0565b90565b906166ec610f0b565b50816167016166fb6001611eed565b91610d1c565b1461697d576167106003612405565b1661672461671e6000611339565b91610d1c565b1460001461696b5761673f61673960016124a1565b5b611ece565b908061675461674e6002611574565b91610d1c565b1461695c578061676d6167676003612405565b91610d1c565b146169455780616786616780600461486d565b91610d1c565b1461692e578061679f6167996005614ebc565b91610d1c565b1461691757806167b86167b26006613b5c565b91610d1c565b1461690057806167d16167cb60076158f9565b91610d1c565b146168e957806167ea6167e46008611358565b91610d1c565b146168d257806168036167fd600961283f565b91610d1c565b146168bb578061681c616816600a6114b6565b91610d1c565b146168a3578061683561682f600b613958565b91610d1c565b1461688b5761684d616847600c611dab565b91610d1c565b146168745761685a610093565b62461bcd60e51b815280616870600482016166ca565b0390fd5b6168889061688361014e61666c565b610e21565b90565b506168a09061689b61013061664d565b610e21565b90565b506168b8906168b361011161662e565b610e21565b90565b506168cf906168ca60f361660f565b610e21565b90565b506168e6906168e160d46165f0565b610e21565b90565b506168fd906168f860b56165d1565b610e21565b90565b506169149061690f60976165b2565b610e21565b90565b5061692b906169266078616593565b610e21565b90565b506169429061693d605a616574565b610e21565b90565b5061695990616954603b616558565b610e21565b90565b5050616968601f616539565b90565b61673f6169786000612988565b61673a565b50506169896000611339565b9056fea2646970667358221220a678e6524aaa07f43767c624af7066019e842e4e76cb77cff0ed54c8f66d71e264736f6c63430008170033"},"id":4,"methodIdentifiers":{"acquireIdentity(bytes32,address,uint64,bytes,bytes)":"8320790c","burnt(bytes32)":"32d230b8","pcrHash()":"39a3bd86","pcrMask()":"bd37bf40","releaseIdentity(bytes32,address,bytes,bytes)":"f58ac325","supportsInterface(bytes4)":"01ffc9a7","upstream()":"6a99a523"}}