{
  "abi": [
    {
      "inputs": [
        {
          "internalType": "address",
          "name": "upstream",
          "type": "address"
        },
        {
          "internalType": "uint16",
          "name": "mask",
          "type": "uint16"
        },
        {
          "internalType": "bytes32",
          "name": "hash",
          "type": "bytes32"
        }
      ],
      "stateMutability": "nonpayable",
      "type": "constructor"
    },
    {
      "inputs": [
        {
          "internalType": "IdentityId",
          "name": "identity",
          "type": "bytes32"
        },
        {
          "internalType": "address",
          "name": "requester",
          "type": "address"
        },
        {
          "internalType": "uint64",
          "name": "duration",
          "type": "uint64"
        },
        {
          "internalType": "bytes",
          "name": "context",
          "type": "bytes"
        },
        {
          "internalType": "bytes",
          "name": "authorization",
          "type": "bytes"
        }
      ],
      "name": "acquireIdentity",
      "outputs": [
        {
          "internalType": "uint64",
          "name": "expiry",
          "type": "uint64"
        }
      ],
      "stateMutability": "nonpayable",
      "type": "function"
    },
    {
      "inputs": [
        {
          "internalType": "bytes32",
          "name": "",
          "type": "bytes32"
        }
      ],
      "name": "burnt",
      "outputs": [
        {
          "internalType": "IdentityId",
          "name": "",
          "type": "bytes32"
        }
      ],
      "stateMutability": "view",
      "type": "function"
    },
    {
      "inputs": [],
      "name": "pcrHash",
      "outputs": [
        {
          "internalType": "bytes32",
          "name": "",
          "type": "bytes32"
        }
      ],
      "stateMutability": "view",
      "type": "function"
    },
    {
      "inputs": [],
      "name": "pcrMask",
      "outputs": [
        {
          "internalType": "uint16",
          "name": "",
          "type": "uint16"
        }
      ],
      "stateMutability": "view",
      "type": "function"
    },
    {
      "inputs": [
        {
          "internalType": "IdentityId",
          "name": "identity",
          "type": "bytes32"
        },
        {
          "internalType": "address",
          "name": "requester",
          "type": "address"
        },
        {
          "internalType": "bytes",
          "name": "context",
          "type": "bytes"
        },
        {
          "internalType": "bytes",
          "name": "authorization",
          "type": "bytes"
        }
      ],
      "name": "releaseIdentity",
      "outputs": [],
      "stateMutability": "nonpayable",
      "type": "function"
    },
    {
      "inputs": [
        {
          "internalType": "bytes4",
          "name": "interfaceId",
          "type": "bytes4"
        }
      ],
      "name": "supportsInterface",
      "outputs": [
        {
          "internalType": "bool",
          "name": "",
          "type": "bool"
        }
      ],
      "stateMutability": "view",
      "type": "function"
    },
    {
      "inputs": [],
      "name": "upstream",
      "outputs": [
        {
          "internalType": "address",
          "name": "",
          "type": "address"
        }
      ],
      "stateMutability": "view",
      "type": "function"
    },
    {
      "inputs": [],
      "name": "BindingMismatch",
      "type": "error"
    },
    {
      "inputs": [],
      "name": "CertExpired",
      "type": "error"
    },
    {
      "inputs": [],
      "name": "CertNotActive",
      "type": "error"
    },
    {
      "inputs": [],
      "name": "ContractExpired",
      "type": "error"
    },
    {
      "inputs": [],
      "name": "DocAlreadyUsed",
      "type": "error"
    },
    {
      "inputs": [],
      "name": "DurationTooLong",
      "type": "error"
    },
    {
      "inputs": [],
      "name": "InterfaceUnsupported",
      "type": "error"
    },
    {
      "inputs": [],
      "name": "InvalidSignature",
      "type": "error"
    },
    {
      "inputs": [],
      "name": "Unauthorized",
      "type": "error"
    }
  ],
  "bytecode": {
    "linkReferences": {},
    "object": "0x60e0604052346200009757606062004554803803809162000020826200009c565b60e03912620000975760e0516001600160a01b03811681036200009757610100519061ffff8216820362000097576200005e916101205191620000f5565b6040516142649081620002f0823960805181610975015260a05181818161056c0152610ec2015260c0518181816101dc0152610ee60152f35b600080fd5b60e0601f91909101601f19168101906001600160401b03821190821017620000c357604052565b634e487b7160e01b600052604160045260246000fd5b606081019081106001600160401b03821117620000c357604052565b60405160208082018160006301ffc9a760e01b94858452856024820152602481526200012181620000d9565b51617530938785fa923d60005190856200022e575b508462000223575b5083620001bb575b50505015620001a9576200015a816200025b565b156200018e5760ff60015b62000170816200023a565b60609290921b6001600160601b03191691161760805260a05260c052565b6200019981620002bd565b15620001a95760ff600262000165565b604051635dd52ad560e11b8152600490fd5b829350906000918560405185810192835263ffffffff60e01b602482015260248152620001e881620000d9565b5192fa60005190913d8362000217575b5050816200020c575b501538808062000146565b905015153862000201565b101591503880620001f8565b15159350386200013e565b84111594503862000136565b600311156200024557565b634e487b7160e01b600052602160045260246000fd5b6000602091604051838101906301ffc9a760e01b825263577e56b760e11b6024820152602481526200028d81620000d9565b5191617530fa6000513d82620002b0575b5081620002a9575090565b9050151590565b602011159150386200029e565b6000602091604051838101906301ffc9a760e01b8252630e198f8560e11b6024820152602481526200028d81620000d956fe6080604052600436101561001257600080fd5b6000803560e01c90816301ffc9a71461008a5750806332d230b81461008557806339a3bd86146100805780636a99a5231461007b5780638320790c14610076578063bd37bf40146100715763f58ac3251461006c57600080fd5b610590565b610533565b6102b6565b6101ff565b6101a6565b61014c565b346101495760207ffffffffffffffffffffffffffffffffffffffffffffffffffffffffffffffffc36011261014957600435907fffffffff00000000000000000000000000000000000000000000000000000000821680920361014957507f1c331f0a00000000000000000000000000000000000000000000000000000000811490811561011f575b50151560805260206080f35b7f01ffc9a70000000000000000000000000000000000000000000000000000000091501481610113565b80fd5b346101965760207ffffffffffffffffffffffffffffffffffffffffffffffffffffffffffffffffc3601126101965760043560005260006020526020604060002054604051908152f35b600080fd5b600091031261019657565b346101965760007ffffffffffffffffffffffffffffffffffffffffffffffffffffffffffffffffc3601126101965760206040517f00000000000000000000000000000000000000000000000000000000000000008152f35b346101965760007ffffffffffffffffffffffffffffffffffffffffffffffffffffffffffffffffc360112610196576020610238610973565b905073ffffffffffffffffffffffffffffffffffffffff60405191168152f35b73ffffffffffffffffffffffffffffffffffffffff81160361019657565b67ffffffffffffffff81160361019657565b9181601f840112156101965782359167ffffffffffffffff8311610196576020838186019501011161019657565b346101965760a07ffffffffffffffffffffffffffffffffffffffffffffffffffffffffffffffffc3601126101965760048035602435916102f683610258565b6044359261030384610276565b67ffffffffffffffff606435818111610196576103239036908501610288565b9590916084359081116101965761033d9036908601610288565b9061034b828285888b610ba5565b97610354610973565b959061035f8161079e565b6001810361044d5750505050505073ffffffffffffffffffffffffffffffffffffffff16803b15610196578493600080946103fa604051988996879586947f1c643570000000000000000000000000000000000000000000000000000000008652850191604091949373ffffffffffffffffffffffffffffffffffffffff67ffffffffffffffff926060860197865216602085015216910152565b03925af19182156104485761042b9261042f575b505b60405167ffffffffffffffff90911681529081906020820190565b0390f35b8061043c610442926107dc565b8061019b565b3861040e565b61091e565b60029192939495999697989a506104638161079e565b0361050a5760009373ffffffffffffffffffffffffffffffffffffffff936020999a936104be936040519c8d9b8c9a8b987f8320790c000000000000000000000000000000000000000000000000000000008a5289016108c5565b0393165af180156104485761042b916000916104db575b50610410565b6104fd915060203d602011610503575b6104f5818361082d565b81019061086e565b386104d5565b503d6104eb565b886040517fbbaa55aa000000000000000000000000000000000000000000000000000000008152fd5b346101965760007ffffffffffffffffffffffffffffffffffffffffffffffffffffffffffffffffc36011261019657602060405161ffff7f0000000000000000000000000000000000000000000000000000000000000000168152f35b346101965760807ffffffffffffffffffffffffffffffffffffffffffffffffffffffffffffffffc3601126101965760048035906024356105d081610258565b67ffffffffffffffff604435818111610196576105f09036908501610288565b91606435908111610196576106089036908601610288565b90926106168285878a610deb565b61061e610973565b94906106298161079e565b600181036106d157505050505073ffffffffffffffffffffffffffffffffffffffff16803b15610196576106b29360008094604051968795869485937fe7213fc1000000000000000000000000000000000000000000000000000000008552840190929173ffffffffffffffffffffffffffffffffffffffff6020916040840195845216910152565b03925af18015610448576106c257005b8061043c6106cf926107dc565b005b806106e66002929a969a99949793959961079e565b036107465773ffffffffffffffffffffffffffffffffffffffff1693843b156101965760009687936106b2926040519a8b998a9889977ff58ac325000000000000000000000000000000000000000000000000000000008952880161092a565b506040517fbbaa55aa000000000000000000000000000000000000000000000000000000008152fd5b7f4e487b7100000000000000000000000000000000000000000000000000000000600052602160045260246000fd5b600311156107a857565b61076f565b7f4e487b7100000000000000000000000000000000000000000000000000000000600052604160045260246000fd5b67ffffffffffffffff81116107f057604052565b6107ad565b6040810190811067ffffffffffffffff8211176107f057604052565b6060810190811067ffffffffffffffff8211176107f057604052565b90601f7fffffffffffffffffffffffffffffffffffffffffffffffffffffffffffffffe0910116810190811067ffffffffffffffff8211176107f057604052565b90816020910312610196575161088381610276565b90565b601f82602094937fffffffffffffffffffffffffffffffffffffffffffffffffffffffffffffffe0938186528686013760008582860101520116010190565b9593916109109373ffffffffffffffffffffffffffffffffffffffff67ffffffffffffffff926108839a98948a5216602089015216604087015260a0606087015260a0860191610886565b926080818503910152610886565b6040513d6000823e3d90fd5b9492909373ffffffffffffffffffffffffffffffffffffffff6109659361088398968852166020870152608060408701526080860191610886565b926060818503910152610886565b7f00000000000000000000000000000000000000000000000000000000000000009060ff821660038110156107a8579160601c90565b7f4e487b7100000000000000000000000000000000000000000000000000000000600052601160045260246000fd5b600a019081600a116109e657565b6109a9565b90600282018092116109e657565b90606082018092116109e657565b60600190816060116109e657565b60010190816001116109e657565b90601982018092116109e657565b90600882018092116109e657565b90600a82018092116109e657565b90600182018092116109e657565b90600682018092116109e657565b90600482018092116109e657565b90600c82018092116109e657565b90600382018092116109e657565b60020190816002116109e657565b60030190816003116109e657565b90600782018092116109e657565b9063386d89d082018092116109e657565b603b019081603b116109e657565b605a019081605a116109e657565b60780190816078116109e657565b60970190816097116109e657565b60b501908160b5116109e657565b60d401908160d4116109e657565b60f301908160f3116109e657565b906101119182018092116109e657565b906101309182018092116109e657565b9061014e9182018092116109e657565b600c019081600c116109e657565b600b019081600b116109e657565b60080190816008116109e657565b600f019081600f116109e657565b919082018092116109e657565b91939267ffffffffffffffff809516938461070810610d0057610bda91610bcb42610d2a565b91610bd4610ea8565b91611518565b6020810191610bf483516000526000602052604060002090565b54610cd657610c53610c7f610c07611776565b9260405192839188602084019646889094939160809260019460a0840197845273ffffffffffffffffffffffffffffffffffffffff809316602085015260408401521660608201520152565b037fffffffffffffffffffffffffffffffffffffffffffffffffffffffffffffffe0810183528261082d565b519020905103610cac57610c9e90516000526000602052604060002090565b5542018042116109e6571690565b60046040517f438c4873000000000000000000000000000000000000000000000000000000008152fd5b60046040517f1d3300c0000000000000000000000000000000000000000000000000000000008152fd5b60046040517f9529f506000000000000000000000000000000000000000000000000000000008152fd5b907ffffffffffffffffffffffffffffffffffffffffffffffffffffffffffffff8f882019182116109e657565b907fffffffffffffffffffffffffffffffffffffffffffffffffffffffffffffffff82019182116109e657565b907fffffffffffffffffffffffffffffffffffffffffffffffffffffffffffffff9f82019182116109e657565b907fffffffffffffffffffffffffffffffffffffffffcfcfcfcfcfcfcfcfcfcfcfd082019182116109e657565b919082039182116109e657565b92610dfa9192610bcb42610d2a565b602081019182516000526000602052604060002054610cd657610c53610e6d610e21611776565b9260405192839188602084019646889094939160809260009460a0840197845273ffffffffffffffffffffffffffffffffffffffff809316602085015260408401521660608201520152565b519020905103610cac57610e8c90516000526000602052604060002090565b55565b60405190610e9c826107f5565b60006020838281520152565b610eb0610e8f565b50604051610ebd816107f5565b61ffff7f00000000000000000000000000000000000000000000000000000000000000001681527f0000000000000000000000000000000000000000000000000000000000000000602082015290565b906008116101965790600890565b90600a116101965760080190600290565b90600b1161019657600a0190600190565b9092919283600a1161019657831161019657600a01917ffffffffffffffffffffffffffffffffffffffffffffffffffffffffffffffff60190565b906030116101965790603090565b906060116101965760300190603090565b90600d116101965790600d90565b906009116101965790600990565b90600a116101965760090190600190565b909291928360091161019657831161019657600901917ffffffffffffffffffffffffffffffffffffffffffffffffffffffffffffffff70190565b906063116101965760330190603090565b906096116101965760660190603090565b9060c9116101965760990190603090565b9060fc116101965760cc0190603090565b906101c811610196576101980190603090565b906002116101965790600290565b906004116101965760020190600290565b906006116101965760040190600290565b906008116101965760060190600290565b906002116101965760010190600190565b909291928360021161019657831161019657600201917ffffffffffffffffffffffffffffffffffffffffffffffffffffffffffffffffe0190565b906003116101965760010190600290565b909291928360031161019657831161019657600301917ffffffffffffffffffffffffffffffffffffffffffffffffffffffffffffffffd0190565b906009116101965760040190600590565b90600f1161019657600d0190600290565b9092919283600b1161019657831161019657600b01917ffffffffffffffffffffffffffffffffffffffffffffffffffffffffffffffff50190565b9092919283600f1161019657831161019657600f01917ffffffffffffffffffffffffffffffffffffffffffffffffffffffffffffffff10190565b909291928360041161019657831161019657600401917ffffffffffffffffffffffffffffffffffffffffffffffffffffffffffffffffc0190565b90939293848311610196578411610196578101920390565b7fffffffffffffffff000000000000000000000000000000000000000000000000903581811693926008811061124f57505050565b60080360031b82901b16169150565b1561126557565b60646040517f08c379a000000000000000000000000000000000000000000000000000000000815260206004820152600b60248201527f696e76616c696420646f630000000000000000000000000000000000000000006044820152fd5b7fffff00000000000000000000000000000000000000000000000000000000000090358181169392600281106112f857505050565b60020360031b82901b16169150565b1561019657565b603590837fffff0000000000000000000000000000000000000000000000000000000000009594611385946040519788947f846a5369676e61747572653144a1013822405900000000000000000000000000602087015216603385015284840137810160008382015203601581018552018361082d565b565b7f4e487b7100000000000000000000000000000000000000000000000000000000600052603260045260246000fd5b90156113bf5790565b611387565b90603010156113bf5760300190565b90600c10156113bf57600c0190565b908210156113bf570190565b60005b8381106114015750506000910152565b81810151838201526020016113f1565b93602093818998979460029a977fff00000000000000000000000000000000000000000000000000000000000000611498967f3000000000000000000000000000000000000000000000000000000000000000835216600182015261147e825180938a8f850191016113ee565b01918a8301370191878301600081528151948592016113ee565b01918483013701016000815290565b67ffffffffffffffff81116107f057601f017fffffffffffffffffffffffffffffffffffffffffffffffffffffffffffffffe01660200190565b9291926114ed826114a7565b916114fb604051938461082d565b829481845281830111610196578281602093846000960137010152565b939293611523610e8f565b506396258ff542101561174c5761153a8282610f0d565b6115439161121a565b7fffffffffffffffff000000000000000000000000000000000000000000000000167f8444a1013822a059000000000000000000000000000000000000000000000000146115909061125e565b61159a8282610f1b565b6115a3916112c3565b6115af9060f01c6109d8565b916115bb838284610f3d565b946115c5856109eb565b6115d190868587611202565b7fffff000000000000000000000000000000000000000000000000000000000000969187916115ff916112c3565b167f58600000000000000000000000000000000000000000000000000000000000001461162b90611307565b611634906109eb565b97611640918784611a64565b94919493909398611650816109f9565b9161165a93611202565b9590948160f01b169161166c9261130e565b9361167781856113b6565b611684903560f81c611c7e565b9061168f81866113c4565b61169c903560f81c611c7e565b82516116a790610a07565b81516116b291610b98565b60ff1660f81b7fff0000000000000000000000000000000000000000000000000000000000000016916116e58188610f78565b916116f09198610f86565b929091604051988996602088019661170797611411565b037fffffffffffffffffffffffffffffffffffffffffffffffffffffffffffffffe081018452611737908461082d565b3690611742926114e1565b9161138592611d02565b60046040517f0790d4e3000000000000000000000000000000000000000000000000000000008152fd5b6001611780610973565b919061178b8161079e565b145b156117ab5773ffffffffffffffffffffffffffffffffffffffff1690565b73ffffffffffffffffffffffffffffffffffffffff604051917f6a99a523000000000000000000000000000000000000000000000000000000008352826004816020948594165afa90811561044857600091611813575b50905061180e81611e0e565b61178d565b82813d8311611841575b611827818361082d565b8101031261014957505161183a81610258565b8038611802565b503d61181d565b7fffffffffffffffffffffffff000000000000000000000000000000000000000090358181169392600c811061187d57505050565b600c0360031b82901b16169150565b1561189357565b60646040517f08c379a000000000000000000000000000000000000000000000000000000000815260206004820152601260248201527f6578706563746564206d6f64756c655f696400000000000000000000000000006044820152fd5b7fffffffffffffffffffffffffffffffffffffffffffffffffff00000000000000903581811693926019811061192657505050565b60190360031b82901b16169150565b1561193c57565b60646040517f08c379a000000000000000000000000000000000000000000000000000000000815260206004820152601b60248201527f65787065637465642064696765737420262074696d657374616d7000000000006044820152fd5b156119a157565b60646040517f08c379a000000000000000000000000000000000000000000000000000000000815260206004820152600f60248201527f6f6c64206174746573746174696f6e00000000000000000000000000000000006044820152fd5b15611a0657565b60646040517f08c379a000000000000000000000000000000000000000000000000000000000815260206004820152601060248201527f756e706172736564207061796c6f6164000000000000000000000000000000006044820152fd5b9293909193611a71610e8f565b5082600c116101965782611c37611c30611c2a83611c02611bd2611bfc611c229c611bf6856113859b8f80611aeb7fa9696d6f64756c655f69647800000000000000000000000000000000000000007fffffffffffffffffffffffff0000000000000000000000000000000000000000869435161461188c565b611bf1611bb4611b46611b41611b3c611b36611b30611b0a89896113d3565b357fff000000000000000000000000000000000000000000000000000000000000001690565b60f81c90565b60ff1690565b610a15565b610b60565b611baf7f66646967657374665348413338346974696d657374616d701b000000000000007fffffffffffffffffffffffffffffffffffffffffffffffffff00000000000000611ba8611ba2611b9a86610a23565b868b8b611202565b906118f1565b1614611935565b610a23565b93611beb611bde611bd8611bc788610a31565b9c8d80998989611202565b9061121a565b60c01c90565b67ffffffffffffffff1690565b1161199a565b611202565b90612086565b90610b98565b98611c18611c12838c8185611202565b90612505565b909c919c9b610b98565b988991611202565b906128dc565b9095610b98565b146119ff565b604051906020820182811067ffffffffffffffff8211176107f05760405260008252565b8051156113bf5760200190565b8051600110156113bf5760210190565b60ff6080911610600014611cbe5760405190611c99826107f5565b60028252602036818401376030611cbb836002611cb582611c61565b53611c6e565b53565b60405190611ccb826107f5565b6003825260203681840137816002611ce282611c61565b536031611cee82611c6e565b538051600210156113bf5760226000910153565b9161053946148015611e03575b611dfe577fffffffffffffffffffffffffffffffffffffffffffffffffffffffffffffa50346014681116109e657600210611da057611d7092611d5d611d57611d6c94612af9565b91612b89565b90611d66611c3d565b91612c6d565b1590565b611d7657565b60046040517f8baa579f000000000000000000000000000000000000000000000000000000008152fd5b60646040517f08c379a000000000000000000000000000000000000000000000000000000000815260206004820152600760248201527f6e6f2070333834000000000000000000000000000000000000000000000000006044820152fd5b505050565b50617a694614611d0f565b6040519060208083018160007f01ffc9a7000000000000000000000000000000000000000000000000000000009586845286602482015260248152611e5281610811565b51617530938685fa933d6000519086611f10575b5085611f06575b5084611e8a575b50505081611e80575090565b6108839150612d99565b8394509060009183946040518581019283527fffffffff00000000000000000000000000000000000000000000000000000000602482015260248152611ecf81610811565b5192fa60005190913d83611efb575b505081611ef1575b501590388080611e74565b9050151538611ee6565b101591503880611ede565b1515945038611e6d565b841115955038611e66565b7fffffffffffffffffff00000000000000000000000000000000000000000000009035818116939260098110611f5057505050565b60090360031b82901b16169150565b15611f6657565b60646040517f08c379a000000000000000000000000000000000000000000000000000000000815260206004820152600d60248201527f65787065637465642070637273000000000000000000000000000000000000006044820152fd5b94838e9d9c9a97939660209f9c9a9789978b9785928f9d97855260208501376000838501602001908152370101918d8301600081523701918a83016000815237019187830160008152370191848301600081523701016000815290565b1561202857565b60646040517f08c379a000000000000000000000000000000000000000000000000000000000815260206004820152600a60248201527f77726f6e672070637273000000000000000000000000000000000000000000006044820152fd5b90806120f0926120eb7f6470637273b000583000000000000000000000000000000000000000000000007fffffffffffffffffff00000000000000000000000000000000000000000000006120e46120de8686610fa5565b90611f1b565b1614611f5f565b610fc4565b90612107612100845161ffff1690565b61ffff1690565b6001919082811683036122445761211e8483610f78565b949094925b82851c8516850361223a576121388282610fff565b959095925b81808660021c1614600014612232576121568184611010565b9390935b83808860031c1614600014612228576121738383611021565b919091925b85808a60041c161460001461221e576121918582611032565b959095965b808b60081c1614600014612214576121ad91611043565b969096975b6040519b8c9b60208d019e8f9c61011f166121cc9d611fc4565b037fffffffffffffffffffffffffffffffffffffffffffffffffffffffffffffffe0810182526121fc908261082d565b51902090602001511461220e90612021565b61033690565b50956000976121b2565b8094600096612196565b8190600092612178565b82600061215a565b809460009261213d565b8193600092612123565b7fffffffffffffffffffffffffff0000000000000000000000000000000000000090358181169392600d811061228357505050565b600d0360031b82901b16169150565b1561229957565b60646040517f08c379a000000000000000000000000000000000000000000000000000000000815260206004820152601460248201527f65787065637465642063657274696669636174650000000000000000000000006044820152fd5b7fffffffffffffffffffff0000000000000000000000000000000000000000000090358181169392600a811061232c57505050565b600a0360031b82901b16169150565b1561234257565b60646040517f08c379a000000000000000000000000000000000000000000000000000000000815260206004820152601160248201527f657870656374656420636162756e646c650000000000000000000000000000006044820152fd5b7fff0000000000000000000000000000000000000000000000000000000000000090358181169392600181106123d557505050565b60010360031b82901b16169150565b156123eb57565b60646040517f08c379a000000000000000000000000000000000000000000000000000000000815260206004820152601060248201527f696e76616c696420636162756e646c65000000000000000000000000000000006044820152fd5b6040519060a0820182811067ffffffffffffffff8211176107f057604052606182527ff4000000000000000000000000000000000000000000000000000000000000006080837f04fc0254eba608c1f36870e29ada90be46383292736e894bfff672d989444b5060208201527f51e534a4b1f6dbe3c0bc581a32b7b176070ede12d69a3fea211b66e752cf7dd160408201527fdd095f6f1370f4170843d9dc100121e4cf63012809664487c9796284304dc53f60608201520152565b919061260f9061256a7f6b636572746966696361746559000000000000000000000000000000000000007fffffffffffffffffffffffffff0000000000000000000000000000000000000061256361255d8589610f97565b9061224e565b1614612292565b61259161258c6121006125866125808589611140565b906112c3565b60f01c90565b610b8a565b9061259d82828761118c565b93909261260a7f68636162756e646c6580000000000000000000000000000000000000000000007ffffffffffffffffffff0000000000000000000000000000000000000000000006126036125fd8b86896125f782610a3f565b92611202565b906122f7565b161461233b565b610a3f565b92600f61262b611b30611b0a61262488610d57565b868b6113e2565b1691866000917ff0cea14dbdf686c8ac880e8fa240b126f81ccebee17fa63f60351b12674f1229946000905b80821061268357505050506126799495966126739136916114e1565b92612e28565b9492509050929190565b9390959161271c612100612586612580879e9761270b8e879f7f59000000000000000000000000000000000000000000000000000000000000007fff000000000000000000000000000000000000000000000000000000000000006126ff6126f98c856126f261270697610a4d565b918a611202565b906123a0565b16146123e4565b610a4d565b612714816109eb565b968792611202565b8715612778579261275b926127448d8461273c8e9860019b9a9792610b98565b9d8e92611202565b919093888b1460001461276d575050612673612449565b9b92509490949a94965b019092612657565b6126739136916114e1565b61278d906001929c9396959c9a94989a610b98565b98612765565b1561279a57565b60646040517f08c379a000000000000000000000000000000000000000000000000000000000815260206004820152601260248201527f657870656374656420757365725f6461746100000000000000000000000000006044820152fd5b359060208110612806575090565b7fffffffffffffffffffffffffffffffffffffffffffffffffffffffffffffffff9060200360031b1b1690565b7fffffffffffff0000000000000000000000000000000000000000000000000000903581811693926006811061286857505050565b60060360031b82901b16169150565b1561287e57565b60646040517f08c379a000000000000000000000000000000000000000000000000000000000815260206004820152600e60248201527f6578706563746564206e6f6e63650000000000000000000000000000000000006044820152fd5b91906128e6610e8f565b9281600b11610196577f6a7075626c69635f6b65790000000000000000000000000000000000000000007fffffffffffffffffffffff00000000000000000000000000000000000000000082351603612a6b576129e56129dc61295e8484612a5b6129c761296c61296461295e8680612a639c611151565b90613092565b915050610b6e565b61260a7f69757365725f64617461000000000000000000000000000000000000000000007fffffffffffffffffffff000000000000000000000000000000000000000000006129c06125fd611b9a86610a3f565b1614612793565b6129eb6129e56129dc61295e87858189611202565b90929194610b98565b926127f8565b8b52612a567f656e6f6e636500000000000000000000000000000000000000000000000000007fffffffffffff0000000000000000000000000000000000000000000000000000612a4f612a49612a4186610a5b565b868a8a611202565b90612833565b1614612877565b610a5b565b968791611202565b602084015290565b60646040517f08c379a000000000000000000000000000000000000000000000000000000000815260206004820152601360248201527f6578706563746564207075626c69635f6b6579000000000000000000000000006044820152fd5b3d15612af4573d90612ada826114a7565b91612ae8604051938461082d565b82523d6000602084013e565b606090565b600080916020815191017301000000000000000000000000000000000001045afa90612b23612ac9565b9115612b2b57565b60646040517f08c379a000000000000000000000000000000000000000000000000000000000815260206004820152600660248201527f73686133383400000000000000000000000000000000000000000000000000006044820152fd5b8051156113bf577fff000000000000000000000000000000000000000000000000000000000000007f04000000000000000000000000000000000000000000000000000000000000008160208401511603612c0e578151606010156113bf5760026001608084015160f81c161760f81b1660001a612c0682611c61565b536031815290565b5090565b907fffffffffffffffffffffffffffffffffffffffffffffffffffffffffffffffe0601f602093612c4e815180928187528780880191016113ee565b0116010190565b90816020910312610196575180151581036101965790565b90612d01612ce59160009594612cf58796604051958693612cd5612ca4602087019a60088c5260a0604089015260c0880190612c12565b7fffffffffffffffffffffffffffffffffffffffffffffffffffffffffffffffe09788888303016060890152612c12565b9086868303016080870152612c12565b90848483030160a0850152612c12565b0390810183528261082d565b51907301000000000000000000000000000000000000075afa612d22612ac9565b9015612d3b578060208061088393518301019101612c55565b60646040517f08c379a000000000000000000000000000000000000000000000000000000000815260206004820152600e60248201527f7665726966793a206661696c65640000000000000000000000000000000000006044820152fd5b6000602091604051838101907f01ffc9a70000000000000000000000000000000000000000000000000000000082527faefcad6e00000000000000000000000000000000000000000000000000000000602482015260248152612dfb81610811565b5191617530fa6000513d82612e1c575b5081612e15575090565b9050151590565b60201115915038612e0b565b92909193612e368385611056565b7f3082000000000000000000000000000000000000000000000000000000000000918291612e63916112c3565b7fffff0000000000000000000000000000000000000000000000000000000000001614612e8f90613265565b612e998486611064565b612ea2916112c3565b612eae9060f01c610a69565b8414612eb9906132ca565b612ec38486611075565b612ecc916112c3565b7fffff0000000000000000000000000000000000000000000000000000000000001614612ef89061332f565b82612f038186611086565b612f0c916112c3565b612f189060f01c610b7c565b92612f248483886111c7565b979096612f318989613636565b9a92939b9199612f4081610a77565b612f4c90828689611202565b612f5591611848565b7fffffffffffffffffffffffff0000000000000000000000000000000000000000167f300a06082a8648ce3d040303000000000000000000000000000000000000000014612fa290613394565b612fab90610a77565b7fff0000000000000000000000000000000000000000000000000000000000000080612fd883878a6113e2565b357fff0000000000000000000000000000000000000000000000000000000000000016167f0300000000000000000000000000000000000000000000000000000000000000149961306c976130649661304a613059956130456113859f6130509781613072575b506133f9565b610a85565b91611202565b9790951461345e565b99989a9b36916114e1565b9236916114e1565b91611d02565b905061308a611b0a613083856109eb565b87896113e2565b16153861303f565b917fff000000000000000000000000000000000000000000000000000000000000007ff600000000000000000000000000000000000000000000000000000000000000816130e3611b0a86886113b6565b1614801561322e575b613224577f58000000000000000000000000000000000000000000000000000000000000008161311f611b0a86886113b6565b16146131f1577f590000000000000000000000000000000000000000000000000000000000000090613154611b0a85876113b6565b16146131b9576040517f08c379a000000000000000000000000000000000000000000000000000000000815260206004820152601760248201527f65787065637465642075736572646174612062797465730000000000000000006044820152606490fd5b6131e3836131d3612100612586612580876131eb996110e3565b936131dd85610aa1565b916110f4565b939092610a85565b91929190565b5061321c8361320c611b36611b306126f9876131eb99611097565b9361321685610a93565b916110a8565b9390926109eb565b5060009150600190565b507f40000000000000000000000000000000000000000000000000000000000000008161325e611b0a86886113b6565b16146130ec565b1561326c57565b60646040517f08c379a000000000000000000000000000000000000000000000000000000000815260206004820152600860248201527f6e6f7420636572740000000000000000000000000000000000000000000000006044820152fd5b156132d157565b60646040517f08c379a000000000000000000000000000000000000000000000000000000000815260206004820152600c60248201527f6e6f742063657274206c656e00000000000000000000000000000000000000006044820152fd5b1561333657565b60646040517f08c379a000000000000000000000000000000000000000000000000000000000815260206004820152600760248201527f6e6f7420746273000000000000000000000000000000000000000000000000006044820152fd5b1561339b57565b60646040517f08c379a000000000000000000000000000000000000000000000000000000000815260206004820152600960248201527f77726f6e672073696700000000000000000000000000000000000000000000006044820152fd5b1561340057565b60646040517f08c379a000000000000000000000000000000000000000000000000000000000815260206004820152600760248201527f6e6f7420736967000000000000000000000000000000000000000000000000006044820152fd5b1561346557565b60646040517f08c379a000000000000000000000000000000000000000000000000000000000815260206004820152600c60248201527f77726f6e672069737375657200000000000000000000000000000000000000006044820152fd5b7fffffffffff00000000000000000000000000000000000000000000000000000090358181169392600581106134f857505050565b60050360031b82901b16169150565b1561350e57565b60646040517f08c379a000000000000000000000000000000000000000000000000000000000815260206004820152600a60248201527f6e6f7420763220746273000000000000000000000000000000000000000000006044820152fd5b1561357357565b60646040517f08c379a000000000000000000000000000000000000000000000000000000000815260206004820152600a60248201527f6e6f742073657269616c000000000000000000000000000000000000000000006044820152fd5b156135d857565b60646040517f08c379a000000000000000000000000000000000000000000000000000000000815260206004820152600760248201527f6e6f7420736571000000000000000000000000000000000000000000000000006044820152fd5b91613641828461112f565b61364a916134c3565b7fffffffffff000000000000000000000000000000000000000000000000000000167fa0030201020000000000000000000000000000000000000000000000000000001461369790613507565b6136a18284610fb3565b7fff00000000000000000000000000000000000000000000000000000000000000929183916136cf916123a0565b167f0200000000000000000000000000000000000000000000000000000000000000146136fb9061356c565b6137058385610f2c565b61370e916123a0565b61371a9060f81c610b6e565b93613726858583611151565b3690613731926114e1565b805190602001209461374281610a77565b61374e90828785611202565b61375791611848565b7fffffffffffffffffffffffff0000000000000000000000000000000000000000167f300a06082a8648ce3d0403030000000000000000000000000000000000000000146137a490613394565b6137ad90610a77565b936137ba81868185611202565b6137c39161399e565b6137cd9197610b98565b956137d791613b97565b36906137e2926114e1565b80519060200120946137f381610a4d565b6137ff90828486611202565b867f30000000000000000000000000000000000000000000000000000000000000009392849261382e916123a0565b1614613839906135d1565b61384290610a4d565b9061384c82610a4d565b9182613859918587611202565b613862916123a0565b61386f9060f81c83610b98565b918261387c918587611202565b61388591613dad565b61389183838187611202565b61389a9161399e565b6138a49194610b98565b926138ae91613b97565b36906138b9926114e1565b80519060200120956138ca83610a4d565b6138d690848688611202565b6138df916123a0565b16146138ea906135d1565b6138f390610a4d565b6138fc81610a4d565b9081613909918486611202565b613912916123a0565b60f81c60ff1661392191610b98565b9061392b82610d84565b9061393593611202565b9091565b1561394057565b60646040517f08c379a000000000000000000000000000000000000000000000000000000000815260206004820152600b60248201527f73657120746f6f206269670000000000000000000000000000000000000000006044820152fd5b6000826001116101495750806139fb7f30000000000000000000000000000000000000000000000000000000000000007fff00000000000000000000000000000000000000000000000000000000000000613a48943516146135d1565b6002613a10611b36611b306126f98786611097565b60818103613a4f5750613a40613a3a611b36611b306126f9613a3186610a4d565b80968a89611202565b82610b98565b938492611202565b9290929190565b60828103613a765750506004613a40613a716121006125866125808887611064565b613a3a565b80613a71608080613a4094161415613939565b15613a9057565b60646040517f08c379a000000000000000000000000000000000000000000000000000000000815260206004820152600760248201527f6e6f742072646e000000000000000000000000000000000000000000000000006044820152fd5b7fffffffffffffff000000000000000000000000000000000000000000000000009035818116939260078110613b2357505050565b60070360031b82901b16169150565b15613b3957565b60646040517f08c379a000000000000000000000000000000000000000000000000000000000815260206004820152600660248201527f6e6f7420636e00000000000000000000000000000000000000000000000000006044820152fd5b91909160005b838103613c03576040517f08c379a000000000000000000000000000000000000000000000000000000000815260206004820152600560248201527f6e6f20434e0000000000000000000000000000000000000000000000000000006044820152606490fd5b613c7481612706613c3f613c377f310000000000000000000000000000000000000000000000000000000000000095610a4d565b838988611202565b9490613c6d7fff000000000000000000000000000000000000000000000000000000000000009687926123a0565b1614613a89565b613c92611b36611b306126f9613c8985610a4d565b80958a89611202565b7f3000060355040300000000000000000000000000000000000000000000000000613d1a7fff00ffffffffff00000000000000000000000000000000000000000000000000613cf4613cee613ce687610aaf565b878c8b611202565b90613aee565b167fffffffffffffff000000000000000000000000000000000000000000000000001690565b03613d9d57506139359394916127067f0c00000000000000000000000000000000000000000000000000000000000000613d56613d7594610aaf565b92613d6e6126f9613d6686610a4d565b86898b611202565b1614613b32565b906125f7613d97611b36611b306126f9613d8e87610a4d565b8097878a611202565b83610b98565b90613da89250610b98565b613b9d565b81600f11610196577fffffffffffffffffffffffffff00000000000000000000000000000000000000613de581600284013516613f5d565b92601e11610196576011613dfb92013516613f5d565b613e058282610dde565b6202a300811015613e8a5750613e1f620151808092610b98565b4211613e6057613e2e91610dde565b4210613e3657565b60046040517fd4b1c2f8000000000000000000000000000000000000000000000000000000008152fd5b60046040517f08fceeaa000000000000000000000000000000000000000000000000000000008152fd5b613e1f9060021c8092610b98565b15613e9f57565b60646040517f08c379a000000000000000000000000000000000000000000000000000000000815260206004820152600a60248201527f6e6f742075746320747a000000000000000000000000000000000000000000006044820152fd5b90600a820291808304600a14901517156109e657565b9081603c0291603c8304036109e657565b90610e1091808302928304036109e657565b906201518091808302928304036109e657565b906301e187e091808302928304036109e657565b80600c1a60f81b7fff00000000000000000000000000000000000000000000000000000000000000167f5a0000000000000000000000000000000000000000000000000000000000000014613fb190613e98565b60a01c613fbd90610db1565b60ff90818160081c16613fcf90613efd565b828216613fdb91610b98565b828260181c16613fea90613efd565b838360101c16613ff991610b98565b90838360281c1661400990613efd565b848460201c1661401891610b98565b90848460381c1661402890613efd565b858560301c1661403791610b98565b93858160481c1661404790613efd565b868260401c1661405691610b98565b95808260581c1661406690613efd565b9160501c1661407491610b98565b948561407f916140e7565b9261408990613f13565b61409291610b98565b9061409c90613f24565b6140a591610b98565b916140af90610d57565b906140b991610b98565b6140c290613f36565b6140cb91610b98565b906140d590613f49565b6140de90610abd565b61088391610b98565b90600182146142275760031661421e5760ff60015b169060028114614217576003811461420d576004811461420357600581146141f957600681146141ef57600781146141e557600881146141db57600981146141d157600a81146141c757600b81146141bd57600c146141b4576040517f08c379a000000000000000000000000000000000000000000000000000000000815260206004820152600960248201527f626164206d6f6e746800000000000000000000000000000000000000000000006044820152606490fd5b61088390610b50565b5061088390610b40565b5061088390610b30565b5061088390610b22565b5061088390610b14565b5061088390610b06565b5061088390610af8565b5061088390610aea565b5061088390610adc565b5061088390610ace565b5050601f90565b60ff60006140fc565b505060009056fea264697066735822122094508f01a6fee1ba2218002ed932eb83bac7a319634ea6335baee1677abed62e64736f6c63430008170033"
  },
  "id": 4,
  "methodIdentifiers": {
    "acquireIdentity(bytes32,address,uint64,bytes,bytes)": "8320790c",
    "burnt(bytes32)": "32d230b8",
    "pcrHash()": "39a3bd86",
    "pcrMask()": "bd37bf40",
    "releaseIdentity(bytes32,address,bytes,bytes)": "f58ac325",
    "supportsInterface(bytes4)": "01ffc9a7",
    "upstream()": "6a99a523"
  }
}