{"abi":[{"type":"function","name":"notify","inputs":[{"name":"context","type":"bytes32","internalType":"bytes32"}],"outputs":[],"stateMutability":"nonpayable"},{"type":"function","name":"notify","inputs":[],"outputs":[],"stateMutability":"nonpayable"},{"type":"function","name":"supportsInterface","inputs":[{"name":"interfaceId","type":"bytes4","internalType":"bytes4"}],"outputs":[{"name":"","type":"bool","internalType":"bool"}],"stateMutability":"view"},{"type":"event","name":"TasksAvailable","inputs":[{"name":"generator","type":"address","indexed":true,"internalType":"address"},{"name":"context","type":"bytes32","indexed":true,"internalType":"bytes32"}],"anonymous":false}],"bytecode":{"object":"0x60806040523461001f57610011610024565b610362610030823961036290f35b61002a565b60405190565b600080fdfe60806040526004361015610013575b6101d1565b61001e60003561004d565b806301ffc9a714610048578063138b1084146100435763899f58980361000e5761019e565b61015b565b6100da565b60e01c90565b60405190565b600080fd5b600080fd5b63ffffffff60e01b1690565b61007881610063565b0361007f57565b600080fd5b905035906100918261006f565b565b906020828203126100ad576100aa91600001610084565b90565b61005e565b151590565b6100c0906100b2565b9052565b91906100d8906000602085019401906100b7565b565b3461010a576101066100f56100f0366004610093565b6101db565b6100fd610053565b918291826100c4565b0390f35b610059565b90565b61011b8161010f565b0361012257565b600080fd5b9050359061013482610112565b565b906020828203126101505761014d91600001610127565b90565b61005e565b60000190565b346101895761017361016e366004610136565b610269565b61017b610053565b8061018581610155565b0390f35b610059565b600091031261019957565b61005e565b346101cc576101ae36600461018e565b6101b66102bb565b6101be610053565b806101c881610155565b0390f35b610059565b600080fd5b600090565b6101e36101d6565b50806101fe6101f8632685120760e21b610063565b91610063565b1490811561020b575b5090565b6102159150610306565b38610207565b60018060a01b031690565b90565b61023d6102386102429261021b565b610226565b61021b565b90565b61024e90610229565b90565b61025a90610245565b90565b6102669061010f565b90565b339061029e6102987fab04395d906559e27643e4acf5cd0debe6a355247cd81c101bd0855d87dcc26093610251565b9161025d565b916102a7610053565b806102b181610155565b0390a3565b600090565b336102e67fab04395d906559e27643e4acf5cd0debe6a355247cd81c101bd0855d87dcc26091610251565b6102ee6102b6565b916102f7610053565b8061030181610155565b0390a3565b61030e6101d6565b506103286103226301ffc9a760e01b610063565b91610063565b149056fea264697066735822122065c01b317246d948b62a1a5f7813edd2ad07faf4fe4a93312193c65fa197e1b364736f6c63430008170033","linkReferences":{}},"methodIdentifiers":{"notify()":"899f5898","notify(bytes32)":"138b1084","supportsInterface(bytes4)":"01ffc9a7"},"id":15}